:020000040000FA
:0600000002010A02268A3B
:03002B00022AF8AE
:03003300022ADAC4
:03003B00022B1184
:03004300022A8E00
:0300530002270081
:03006B00022AB4B2
:1000830002257BE5C754F84401F5C7790122000036
:100093000080FB120086B900030200F4E4792178A2
:1000A30008B800028004F709D8FCE479297802B87B
:1000B30000028004F709D8FCE490028178AE790944
:1000C3008002F0A3D8FCD9FA900B2EAA82AB8390BE
:1000D300013A788579048015E493A3AC82AD838AD1
:1000E300828B83F0A3AA82AB838C828D83D8E9D9D8
:1000F300E77582CA7583BE740312011C75829175FC
:100103008300740012011C75D00075813F7518813E
:10011300751902759F00020096C09FF59FE473D086
:100123009F22D083D082C09FE493C0E0740193C028
:10013300E0740293F59F22FF0000B400002800281A
:1001430000283075A000A000A000A000000800084F
:10015300E001F0001000100010001000100010006B
:1001630050005000500010001000D00700000000A5
:1001730000000F00010005003075070010000100AA
:1001830081FF0000FFBC06DA06C206FF0202020876
:10019300025000A0000000E80302209301000002C7
:1001A30093023C93010000830B021893010000B2F9
:1001B30002023C93010000840B021693010000C865
:1001C30002023C93010000850B021493010000CA54
:1001D30002023C93010000860B021293080000CB3D
:1001E30002023C93010000870B0210930100008878
:1001F3000BFF0100FF200220930100000893023C43
:1002030093010000EC0B020E930000000000021AA1
:10021300930300001803EC0CEC0CEC0CEC0CEC0C52
:10022300EC0CEC0CEC0CEC0CEC0CEC0CEC0CEC0C0B
:10023300BC0FD40FB60F000101020203040405062C
:10024300060707080909FFFF02020202020202026F
:1002530002010D00000010010220930100000B9326
:10026300023C930100003F0C0238930100007A071F
:10027300023C93010000400C023693010000DC9124
:10028300023C93010000410C023493010000B3913E
:10029300023C93010000420C0232930100001F91C3
:1002A300023C93010000430C0230930100000D91C6
:1002B300023C93010000440C022E93010000FB90CA
:1002C300023C93010000450C022A93010000E990CF
:1002D300023C93010000460C022893010000C191E7
:1002E300023C93010000470C022693010000480CD6
:1002F30001E803053F10FF0001307503020106000A
:1003030000000000000000000000000000000000EA
:100313000000000000000000000000FFFF06008056
:100323000CE803140953696D706C65424C455065C4
:10033300726970686572616C051214001400020A18
:10034300000201060302F0FF416D6F4D63752D44FA
:100353007331386232302D5065726900008A14009F
:100363000096140A436861726163746572697374F9
:100373006963203100024368617261637465726965
:100383007374696320320008436861726163746542
:100393007269737469632033001043686172616327
:1003A300746572697374696320340002436861720F
:1003B30061637465726973746963203500164368F9
:1003C30061726163746572697374696320360002D4
:1003D30020930100000593023C930100005A0D0293
:1003E3004093030000EB0A021C930100005B0D0223
:1003F3003C930100006C0D024293010000EC0A02E1
:100403001C930100006D0D023C930100007E0D0260
:100413004493020000ED0A021C930100007F0D02C9
:100423003C93010000900D024693000000EE0A0287
:100433001A93030000EF0A021C93010000910D02BE
:100443003C93010000A20D024893040000F50A0248
:100453001C93010000A30D023C93010000B40D02A4
:100463002C93030000FA0A021A930300000E0B02F6
:100473001C93010000B50D30313233343536373833
:100483003941424344454600286E756C6C20706FB9
:10049300696E74657229003F3F3F000000807F0052
:1004A30000803FF9021550B743BA5100E7DB2E0035
:1004B30000A04010000000080000001201255CB1FC
:1004C3000312012573B103120125A2B10312012501
:1004D300DBB10312012503B20312012531B203126A
:1004E300012548B2031201255FB20312012575B23B
:1004F300031201259CB203120125AFB20312012599
:10050300C5B203120125D8B203120125FDB20312AD
:10051300012586A40212012585A502120125BAA58B
:1005230002120125DBA502120125EBA5021201250A
:100533000CA60212012518A702120125E5A7021233
:10054300012558A802120125DEA80212012521A9BE
:100553000212012558A902120125DEA90212012562
:10056300B0AA021201250EAB0212012526AB02121C
:100573000125A0AB02120125A3AB02120125A6ABF4
:10058300021201254DAC0212012565AC02120125B0
:1005930095AC02120125B5AC02120125A3AD0212DE
:1005A300012559AE0212012500800312012528807E
:1005B300031201255680031201258D8003120125A4
:1005C300F580031201253E8103120125898103125F
:1005D3000125C781031201250482031201253282FA
:1005E30003120125D98203120125E3820312012597
:1005F300F08203120125238303120125E5830312ED
:100603000125F183031201250984031201251384B3
:100613000312012511FF011201251FFF01120125FC
:1006230037FF011201254FFF0112012522C20112DA
:100633000125C0C20112012538C3011201254DC491
:100643000112012587C40112012530C501120125BC
:1006530005C60112012569C701120125C0C7011290
:10066300012547C8011201252EC9011201257BC9A5
:100673000112012509CA011201252DCA0112012502
:1006830002CC0112012543CC0112012565CC0112D4
:100693000125E6CC01120125D0CD0112012596CE0C
:1006A300011201255AE1021201252CE20212012551
:1006B300D5E20212012518E302120125A5E3021275
:1006C300012531E40212012512E50212012541E55B
:1006D300021201253DE60212012585E602120125DB
:1006E30087E702120125CBE702120125F1E7021287
:1006F3000125A5BC031201252895031201253E956A
:10070300031201256495031201258C96031201251A
:10071300969603120125EF9703120125EF98031212
:10072300012519EF021201254EF00212012581F075
:1007330002120125CBF00212012589F202120125D2
:100743009DA30112012500A40112012545A5011253
:10075300012555A50112012578A501120125C3A57F
:100763000112012568A6011201255EA701120125C8
:1007730028A801120125A0A901120125E2A901124D
:10078300012580AA01120125CDAA01120125F3AA90
:1007930001120125E1AC01120125E6AC011201258C
:1007A300C7AE011201251BAF011201257DAF011256
:1007B3000125A5AF0112012549B0011201250BB195
:1007C300011201253CB1011201253FB1011201259E
:1007D30087B101120125C9B10112012530B20112FD
:1007E3000125A1A903120125B4A903120125CDA94D
:1007F3000312012518AA03120125F3AA03120125E6
:1008030082AB03120125CDAB03120125842B001209
:100813000125902B00120125C92B001201250E2C56
:1008230000120125C52C001201254B2D00120125B4
:10083300B02D00120125DC2D00120125152E00120A
:100843000125293000120125053200120125F0335C
:1008530000120125273500120125873700120125D3
:10086300733800120125B93900120125C63A001266
:100873000125E33A001201251B3B00120125353BFC
:10088300001201259D3B001201253740001201256E
:10089300D8400012012529410012012550410012C0
:1008A30001259E4100120125BC4100120125104281
:1008B30000120125E94200120125704400120125AE
:1008C300F8440012012501F9021201250BF9021265
:1008D3000125D6F902120125F1F90212012517FAB1
:1008E300021201255BFA0212012593FA0212012575
:1008F300BCFA0212012535FB021201254AFB021242
:1009030001255FFB0212012596FB02120125AAFBBA
:1009130002120125DBFB0212012515FC021201253F
:1009230041FC0212012597FC02120125EBFC021285
:10093300012534FD021201255EFD0212012583FD0E
:10094300021201253C91031201250692031201258F
:10095300E992031201255F9303120125A193031268
:100963000125CE9403120125E68C021201250F8D79
:1009730002120125288D021201256D8E0212012516
:100983004B8F021201256A8F02120125F78F021283
:1009930001253A9002120125879102120125269220
:1009A30002120125A594021201253C95021201258C
:1009B300109602120125F296021201255E98021288
:1009C3000125F1980212012596B703120125FFB7FD
:1009D3000312012553B8031201257AB80312012526
:1009E300A8840312012515850312012560850312CE
:1009F30001255586031201255187031201253B88E2
:100A03000312012568C102120125AAC102120125A0
:100A130084C2021201255DC30212012558C40212C9
:100A2300012537C502120125A3C5021201256AC695
:100A330002120125D5C6021201253CC70212012567
:100A430067C702120125D8C7021201256BC802121B
:100A53000125D4C802120125E9C80212012531C9B2
:100A6300021201254AC902120125AFC9021201254A
:100A7300B2C902120125C3A303120125EBA303127A
:100A8300012529A403120125E7A40312012552A578
:100A9300031201256EA50312012596A50312012554
:100AA300C6A503120125D5A5031201254FA60312DE
:100AB300012575A603120125FAB20112012597B487
:100AC300011201257DB60112012547B70112012547
:100AD3008EB701120125D5B701120125E7B701121F
:100AE300012527B80112012556B801120125A2B824
:100AF30001120125DAB80112012508B901120125F5
:100B030059B901120125E8B901120125D6BC011218
:100B13000125B0BE01120125ECBE0112012546C01C
:100B2300011201258DC00112012502C10112012507
:100B330050C10112012587C10112012565B80212B6
:100B4300012582B8021201251CBE021201251EBF17
:100B53000212012598C00212012546C10212012585
:100B63003F5900120125885900120125B559001279
:100B73000125E85900120125F55900120125015AF2
:100B830000120125135A00120125E85A001201250B
:100B9300465B001201257B5B00120125175D0012E5
:100BA3000125645D00120125885D00120125F55DB4
:100BB300001201259A5E00120125565F00120125DD
:100BC300D55F00120125996000120125A86000126B
:100BD3000125296100120125C86100120125FA616E
:100BE30000120125956200120125F362001201250E
:100BF3002D6300120125AE630012012577640012F4
:100C03000125206500120125A76500120125FF6556
:100C13000012012560660012012589660012012574
:100C23003F6700120125896800120125CC68001274
:100C33000125E9680012012508690012012553699D
:100C430000120125786900120125A169001201250E
:100C5300106A00120125526A00120125566B001218
:100C63000125F06B00120125BC6C00120125D56C27
:100C730000120125C4AE0212012517AF021201258D
:100C830023AF02120125F8AF021201251FB0021291
:100C930001255AB002120125C6B002120125FAB08D
:100CA3000212012533B1021201254BB102120125B3
:100CB300A4B102120125BDB10212012506B202122E
:100CC300012519B20212012533B20212012549B2DC
:100CD3000212012565B30212012576B40212012521
:100CE300C3B502120125A8B602120125F77F00122F
:100CF30001250080021201253480021201259F8301
:100D030002120125E98402120125B385021201258D
:100D13003D8702120125188802120125528802120A
:100D23000125758802120125B78802120125C088A2
:100D3300021201250A8902120125148902120125D2
:100D4300C08902120125948A02120125E88A02123F
:100D530001254A8B021201259D8B02120125CC8BA2
:100D6300021201250B8C02120125076D00120125C9
:100D7300617500120125677500120125227B00129F
:100D83000125087F0012012575A003120125EBA0A0
:100D93000312012501A1031201253EA1031201251E
:100DA30076A103120125F3A1031201252EA203123A
:100DB3000125A9A203120125E5A203120125EEA232
:100DC30003120125FAA20312012514A3031201251C
:100DD30039A3031201254FA30312012593A3031281
:100DE30001253FF40212012552F4021201256CF48D
:100DF3000212012595F402120125D8F402120125ED
:100E030017F50212012555F502120125BAF5021252
:100E13000125CFF502120125DAF502120125E7F5C6
:100E230002120125FEF5021201250CF6021201251C
:100E330017F60212012523F60212012536F60212D5
:100E4300012541F60212012564F6021201250DF770
:100E5300021201251DF70212012537F7021201259F
:100E630054F70212012570F70212012595F70212B9
:100E730001259FF702120125B3F702120125D2F7CC
:100E83000212012533F80212012539F80212012555
:100E93003FF80212012545F80212012551F802120A
:100EA300012584F8021201254EDF01120125D0DF4E
:100EB3000112012579E001120125C1E10112012589
:100EC300CFE301120125B5E401120125EAE4011281
:100ED30001250CE501120125B5E50112012585E780
:100EE30001120125AEE70112012526E801120125B1
:100EF30058E80112012565E801120125B0E8011245
:100F03000125D4E80112012525EB011201252FEC5F
:100F1300011201258BEC01120125CBD00112012511
:100F2300DCD101120125C0D201120125CAD201125E
:100F33000125ECD201120125F8D2011201259CD41E
:100F430001120125C9D401120125DFD501120125A2
:100F530034D60112012583D70112012558D8011275
:100F63000125B4D8011201251FD90112012554D935
:100F73000112012597D90112012561DC0112012516
:100F830079DC011201250ADD0112012518DD0112A8
:100F9300012565DD0112012573DD01120125DFDD68
:100FA300011201255ADE01120125B1DE01120125CC
:100FB3006899021201258A99021201259B9B02124C
:100FC30001255A9E02120125849F0212012542A087
:100FD300021201252EA102120125A3AF031201253E
:100FE300C8AF031201253EB0031201253DDA0212F8
:100FF300012546DA021201254FDA0212012527DB09
:1010030002120125D8DC0212012508DD0212012596
:1010130033DD0212012563DD021201258EDD02128A
:101023000125C2DD02120125EEDD0212012531DEAA
:10103300021201255CDE02120125A3DE0212012544
:10104300F8DE021201253ADF0212012594DF0212B3
:101053000125BFDF021201250EE0021201253EE049
:101063000212012569E00212012597E0021201250F
:10107300BAE0021201252EBD031201255ABD031247
:10108300012587BD0312012591BD03120125A1BDD1
:1010930003120125E8AD0312012500AE0312012559
:1010A3003CAE031201257EAE03120125CEAE031220
:1010B3000125E6AE031201250CD20212012516D238
:1010C3000212012557D202120125A0D202120125D4
:1010D300DAD20212012530D30212012551D30212B2
:1010E300012500D60212012509D6021201255DD67B
:1010F3000212012586D60212012590D6021201257D
:10110300FED6021201258ED702120125E9D702125B
:10111300012517D8021201259FD802120125DED816
:101123000212012513D90212012525D90212012524
:1011330044D9021201254DD9021201250FDA0212F8
:101143000125ADB903120125F7AB031201252DAC1F
:101153000312012561AC03120125AEAD0312012573
:10116300ABBD03120125C1BD03120125CBBD031283
:10117300012515BE03120125FD88031201251089DF
:1011830003120125D48903120125138A03120125B1
:10119300308A03120125698A03120125B68A0312D4
:1011A3000125E88A031201251F8B03120125328DC5
:1011B3000312012521B60312012544B603120125AA
:1011C30073B6031201250BB7031201254DB70312A2
:1011D3000125BDA603120125E2A6031201250CA7D2
:1011E3000312012574BE031201255F450012012578
:1011F3003D4700120125DC480012012587490012F2
:101203000125074A001201258C4A00120125B54A1F
:1012130000120125904E00120125074F00120125EF
:101223001E5000120125585000120125995000123A
:101233000125E051001201253652001201257F528B
:1012430000120125EE52001201255A530012012506
:101253008B5300120125A35300120125BC54001225
:101263000125CC54001201258256001201259956FE
:1012730000120125CB56001201256D5800120125DD
:1012830001590012012557BB0312012568BB031244
:1012930001251DBF031201255CBF03120125E8FFD1
:1012A3000112012508BC0312012518BC03120125F4
:1012B30033BC031201259BBC03120125ABB80312F7
:1012C300012530B90312012594B903120125A7B4EE
:1012D30003120125D0B4031201253BB503120125E6
:1012E3008CB503120125E7B5031201253F8D0312C7
:1012F3000125648D03120125818D031201259E8D25
:1013030003120125C38D03120125E48D0312012568
:101313000E8E03120125CB8E03120125498F031272
:101323000125708F031201257A8F03120125B390D3
:1013330003120125C49C03120125DB9C0312012522
:10134300559D03120125399E0312012510A0031296
:101353000125F99803120125899903120125129A8F
:1013630003120125AE9A031201253F9B03120125A7
:10137300EF9B03120125FD9B031201257B9C0312A6
:1013830001258E9C03120125A49C03120125AE9C0A
:1013930003120125C19C03120125A4BA03120125DE
:1013A30015BB0312012520BB0312012530BB031219
:1013B30001253BBB031201250FB30312012561B3C2
:1013C30003120125D4B30312012541B403120125ED
:1013D300ABFD02120125D5FD02120125A4FE021266
:1013E300012580FF02120125D6C902120125A2CAD6
:1013F30002120125E3CA021201251DCB02120125A7
:101403007BCB02120125CFCB021201252DCC021278
:101413000125C3CC02120125CBCD0212012555CFE4
:1014230002120125F3CF021201255AD0021201251F
:101433006DD00212012561D102120125AAD1021237
:101443000125D8EC011201250AF0011201259BF1B7
:1014530001120125F2F1011201250FF201120125FA
:101463008FF2011201250BF401120125DAF40112A6
:10147300012547F80112012531F90112012566E81A
:1014830002120125EBEA021201256FEB021201257C
:1014930085EC0212012538ED0212012501EE02123C
:1014A300012582EE02120125D5EE02120125C7F9AC
:1014B3000112012513FA0112012530FA0112012547
:1014C3007FFB011201251FFC0112012544FD0112BE
:1014D3000125CDFE011201259CBF03120125577F73
:1014E30000120125817F0012012566BF0312012529
:1014F300C9BF03120125F1BF031201254E93011247
:1015030001256C9801E066701008A3E066700A0874
:10151300A3E066700408A3E06622C008C3E096F562
:101523000808A3E096420808A3E096420808A3E04F
:10153300964208A2D265D033E5087001D3D00822C1
:10154300C3E7960809E7960809E7960809E796228C
:10155300C3E09608A3E09608A3E09608A3E09622CA
:10156300C008C3E096F50808A3E096420808A3E084
:1015730096420808A3E09645087001D3D0082208D4
:101583000808E630E711121E3E12159A080808C62D
:101593004480C618181822181818E9799EC608CA74
:1015A300C608CBC608CCC6C370207996CACBCC700C
:1015B30019798ECBCC70137986CC700EF9802ACA38
:1015C30033CACB33CBCC33CC331930E7F2CCCBCAD1
:1015D3003350147004EA30E00DE4CA3ACACB3BCB73
:1015E300CC3CCC500209C3E913C6CC182313C6CB99
:1015F30018C6CA18C6F92212163A20F01430E72B7F
:1016030074FFFCFBFA747F8022E4FCFBFA74808095
:101613001AB48008BC00F2BB00EF800F50EBF9E472
:10162300C39AFAE49BFBE49CFCE499C6CC18C6CBB2
:1016330018C6CA18C6F922E4C9C608CAC608CBC662
:10164300D3330308CCC63392F0C3947F402E94184F
:101653004019C9B90704CACBCC225025C309CA33E0
:10166300CACB33CBCC33CC33D9F422F4600DC9CC01
:10167300C313CB13CBCA13CAD9F6CC22E4FCFBFAAF
:101683002214FCFBFA22E6C33318461846184622F6
:10169300E7C33319471947194722181818E60846AC
:1016A30008700AE608C3337005E633F422082219EA
:1016B3001919E7094709700AE709C3337005E733C6
:1016C300F4220922E6084608C3134608336002E6FB
:1016D30033F422E7094709C3134709336002E733A9
:1016E300F4221216C760251216D6602012168970CE
:1016F30003021693080808E76670101819E7667066
:101703000A1819E76670041819E76622F4221216FC
:10171300C7601C1216D6601712168970071216932B
:101723007001D322C0D01216937006D0D0B322C357
:101733002233D0D0501430E0F6C3E7960809E79679
:101743000809E7960809E796B32220E0D5E697084B
:1017530009E6970809E6970809E697B3221216C720
:10176300601B1216D6601612168970071216936044
:101773000CB322C0D01216937005D0D022C32233EB
:10178300D0D0501330E0EBC3E7960809E796080979
:10179300E7960809E7962220E0E4E6970809E6972A
:1017A3000809E6970809E69722001216C7604F1248
:1017B30016D66012E7548066F612169D7011121643
:1017C30093703B090909F4F618F618F618F6221275
:1017D30016B2701512168908080860EAE6447FF607
:1017E30018768018E4F618F6221216896016121677
:1017F300937012E4F608F608F608E65480F6090931
:101803000918181822EAC0E0EBC0E0ECC0E0EDC014
:10181300E0E687F0A4FBACF008E687F0A42CFCE438
:1018230035F0FA1809E687F0A42C4B60027401CA5C
:1018330035F0FCE433FB09E687F0D2F7A42CCB3573
:10184300F0FC1908E687F0A42BCC35F0FBE433FD5C
:101853000819E687F0D2E7A42C4ACB35F0CD340043
:10186300FC09E687F0D2E7A42DCC35F0FDE433FA8A
:101873000918E687F0D2F7A42CCD35F0CA3400FC62
:1018830008E687F0D2E7D2F7A42ACC35F07A7E2097
:10189300E70B0ACB33CBCD33CDCC33CC33CB335067
:1018A300147004ED30E00ED2F1E4CD3DCDCC3CCC50
:1018B3003B5005DA05C2F1EB547FC63308E6339299
:1018C300F0FBE73309E733C39A502D2B70190C0D46
:1018D3004C4D70151806E608C333700D20F10AA2AB
:1018E300F013F6E418800B4024E4F630F00276801F
:1018F30018F618F618F68024D33B14501074FFA280
:10190300F013F6187680E418F618F6800FA2F01399
:10191300F618E63303F618ECF618EDF6D0E0FDD032
:10192300E0FCD0E0FBD0E0FA221216D66046121695
:10193300C7603DE9687008F618F618F618F62274C1
:101943008067F7121960090909748067F722121674
:10195300C7601D1216D67005191919801A12169D23
:10196300701F1216B2C37003E667331919194007C3
:101973001818182208080874FFF618F618F618F64F
:10198300221216B26017121693702192F012168962
:101993007019501720F014080808090909E7F61808
:1019A30019E7F61819E7F61819E7F62212168960EF
:1019B300E6E869701F0808E62480F608E436F6189E
:1019C300547FB47F0CE654806007F6E418F618F6EB
:1019D30022181822E9C6CC08C6CD08C6CE08C6CF41
:1019E300C0E0E8C0E0EAC0E0EBC0E009E9F809E7DD
:1019F300FA09E7FBE6F918E6F8C3EC98ED99EE9AD5
:101A0300EBC2E7F5F0EFC2E795F0500E600CEBCFB9
:101A1300FBEACEFAE9CDF9E8CCF8EAA2E7D2E7FA95
:101A2300EB33FB13F5F0EEA2E7D2E7FEEF33FFC58E
:101A3300F013A2E730E601B313C5F0C3C0E0C0F072
:101A43007F00C39BFB605B9418600C401AD0E023BB
:101A5300F9D0E0F8021B2F8AF0E9486003D2F0E4E2
:101A6300AFF0FAF9F8803BEB30E40D89F0EA60035C
:101A7300D2F0E4AFF0F9CAF8EB30E30D88F0EF6091
:101A830002D2F0AFF0E4CAC9F8EB54076014FBC309
:101A9300EA13FAE913F9E813F8EF135002D2E0FF5F
:101AA300DBEDD0E0C0E030E739C3E49FFFF5F0ECB5
:101AB30098FC42F0ED99FD42F0EE9AFE42F0D0E040
:101AC300F9D0E0F8E5F0607AE923F9EE20E742D8AF
:101AD300028067C3EF33FFEC33FCED33FDEE33FEDF
:101AE30080EAEC28FCED39FDEE3AFED0E023F9D094
:101AF300E0F84002801BC3EE13FEED13FDEC13FC74
:101B0300EF135002D2E0FF08B800067F7F74FF8016
:101B13002EEF3350178CF020F00260100CBC000C39
:101B23000DBD00080EBE000408E860DFE933E813CA
:101B3300FFEE2313FE4F4D4C8008E95480FFE4FE73
:101B4300FDFCEE33EF33F47004FCFD7E80D0E0FB4C
:101B5300D0E0FAD0E0F8D0E0CFC618CEC618CDC694
:101B630018CCC6F9221216C77004181818221216B8
:101B7300D6700D74FFF61819F61819F61819F6220F
:101B8300E7548066F6121689700F12169370F014DC
:101B9300F608F608F608F680D1121693700CF608CC
:101BA300F608768008E6447F80EC1216B5700C12B6
:101BB30016A060BFE65480F6E480BB1216A0700541
:101BC30019191980A5E869700C763F18768018F604
:101BD30018F6E8F922E6CDC0E018ECC0E0E633CD14
:101BE30033CDD313F6E719FCE7191933CC33C39478
:101BF3007F400ECD9D502408E65480F6E418F6800D
:101C03000FF4043D14501408E6447FF6187680E47C
:101C130018F618F6D0E0FCD0E0FD22CCD313CCFDAF
:101C230018E4C6CBC0E018E4C6CAC0E00808ED0853
:101C3300C633E613F618E433C675F003C3CA97CA6E
:101C430009CB97CB199C40047D08802EBD0003026D
:101C53001D1116B6FF050606081618C3CA33CACBEC
:101C630033CB33CA27CA09CB37CB193CC37D088092
:101C73003E187D0820E75CC633C6CA33CACB33CBD4
:101C830033DDF1D5F0EB30E77BCA97CA09CB974A2E
:101C9300CB199C406F4B7025E620E0218066187DB0
:101CA30008C3CA97CA09CB97CB199CD3C633C6CAF4
:101CB30033CACB33CB3350C9DDE7D5F0E1D3E4C628
:101CC30036C608C636C608C636C608C636C6181887
:101CD300188031C3CA97CA09CB97CB199CB34097D5
:101CE300C633C6CA33CACB33CB33DD34D5F02EC6A5
:101CF300A2E0C640C8CA27CA09CB37194A70BECB6F
:101D03003CB480B90808E63308E633601F18181896
:101D1300D0E0FAD0E0FBD0E0FCD0E0FD22187D0853
:101D2300CA27CA09CB37CB193CD3808013F618E4F2
:101D3300B67F11F618B6FF0EF618C60470D208085F
:101D4300768080CAF618F618F680C5080808EAC037
:101D5300E0EBC0E086F0E7A4FA180986F0E7A42ACE
:101D6300FA180986F0E7A42AFA180986F0E7A42AE4
:101D7300FA1986F0E7A4FBE5F02AFA190886F0E7DA
:101D8300A42BFBE5F03AFA190886F0E7A42BFBE550
:101D9300F03AFA18180986F0E7A4C5F02BFBE43AE9
:101DA300FA1908E7C5F0C6A426F6E5F03BFBE43ACA
:101DB300FA1886F0E7A4F6E5F00826F6E43B08F601
:101DC300E43A08F6D0E0FBD0E0FA22E4CFC0E0E446
:101DD300CEC0E0E4CDC0E0E4CCC0E075F020C3E6C3
:101DE30033F608E633F608E633F608E633F6181852
:101DF30018EC33FCED33FDEE33FEEF33FFC3EC970A
:101E030009ED9709EE9709EF97191919400FFFECA0
:101E130097FC09ED97FD09EE97FE191906D5F0BE5B
:101E2300ECF709EDF709EEF709EFF7191919D0E007
:101E3300FCD0E0FDD0E0FED0E0FF22181818E4C388
:101E430096F608E496F608E496F608E496F6226019
:101E530016080808C6C313C618C613C618C613C681
:101E630018C613C6D5E0EA227009080808226016CE
:101E7300181818C6C333C608C633C608C633C608FF
:101E8300C633C6D5E0EA22E627F60809E637F608A0
:101E930009E637F60809E637F622E026F608A3E056
:101EA30036F608A3E036F608A3E036F622E026F07D
:101EB30008A3E036F008A3E036F008A3E036F022EA
:101EC300C3E697F60809E697F60809E697F60809C0
:101ED300E697F622C3E096F008A3E096F008A3E0A5
:101EE30096F008A3E096F022E056F608A3E056F633
:101EF30008A3E056F608A3E056F622E056F008A33E
:101F0300E056F008A3E056F008A3E056F022E0F60E
:101F130008A3E0F608A3E0F608A3E0F622E6F0083B
:101F2300A3E6F008A3E6F008A3E6F022E0FAA3E0B4
:101F3300FBA3E0FCA3E0FD22EAF0A3EBF0A3ECF0AB
:101F4300A3EDF022CAC0E0E6F0A308DAFAD0E0FA83
:101F530022CAC0E0E0A3C582CCC582C583CDC583B8
:101F6300F0A3C582CCC582C583CDC583DAE6D0E0B4
:101F7300CA22C3E498F8E499F9121FB68026C3E491
:101F83009AFAE49BFBE920E7E9121FB6E498F8E428
:101F930099F922C3E498F8E499F9121FB6E498F882
:101FA300E499F9C3E49AFAE49BFB22EB20E7CFE937
:101FB30020E7E0B90010BB0008E88AF084F8AAF033
:101FC30022E4FBC8FA22EB70227B10C833C8C93362
:101FD300C9335007C39AC3DBF280069A50012ADB48
:101FE300EAC833F4C8C933F4C9FA2275F008E4C85F
:101FF30033C8C933C933C99AC99B5004C92AC93BD9
:10200300D5F0ECFBC833F4C8E4C9FA22600D08C666
:10201300A2E713C618C613C6D5E0F322600C08C6A0
:10202300C313C618C613C6D5E0F422700422600D8C
:1020330018C6C333C608C633C6D5E0F4182225181C
:1020430010AF08F518400215198008F5184002155D
:1020530019D2AF22C0D0251810AF08F518500205C9
:10206300198008F51850020519D2AFD0D0222518CF
:10207300F58210AF08F518400215198008F51840CD
:10208300021519D2AF851983222518F582E4351973
:10209300F58322E4732518C582C0E0E51934FFC532
:1020A30083C0E0E518C3958224F810AF088583192F
:1020B3008582188008858319858218D2AFCEF0A354
:1020C300E520F0A37808E608F0A3DEFAEFF0A3E535
:1020D3008124FAF8E608F0A3E608F0A3E608F0A3E3
:1020E3000808E608F0A3E608F0A315811581D0E0FF
:1020F300FED0E0F8158115811581E8C0E0EEC0E05F
:10210300222518C582C0E0E51934FFC583C0E0E588
:1021130018C3958224F910AF088583198582188026
:1021230008858319858218D2AFCEF0A3E520F0A3EA
:102133007808E608F0A3DEFAEFF0A3E58124FBF8C4
:10214300E608F0A3E608F0A30808E608F0A3E6080B
:10215300F0A315811581D0E0FED0E0F8158115813B
:10216300E8C0E0EEC0E022851983851882E0A3FE73
:10217300E0A3F5207808E0A3F608DFFAE0A3FFE088
:10218300A3C0E0E0A3C0E0E0A3C0E0E0A3C0E0E0C0
:10219300A3C0E010AF088582188583198008858263
:1021A30018858319D2AFD083D08202012285198387
:1021B300851882E0A3FEE0A3F5207808E0A3F608E3
:1021C300DFFAE0A3FFE0A3C0E0E0A3C0E0E0A3C028
:1021D300E0E0A3C0E010AF0885821885831980086A
:1021E300858218858319D2AFD083D08222C0D025AF
:1021F30018C582C0E0E51934FFC583C0E0E518C304
:10220300958224F310AF0885831985821880088589
:102213008319858218D2AFC8F0A3E9F0A3EAF0A32B
:10222300EBF0A37908E709F0A3D8FAECF0A3EDF0FB
:10223300A3EEF0A3EFF0A3D0E0F0A3D0E0F0A3D09F
:10224300E0F0A3E520F0A3E5F0F0A3228519838550
:102253001882E0C0E0A3E0F9A3E0FAA3E0FBA378CF
:1022630008E0F608A3DFFAE0FCA3E0FDA3E0FEA389
:10227300E0FFA3E0C0E0A3E0C0E0A3E0F5D0A3E06B
:10228300F520A3E0A3F5F010AF0885831985821824
:102293008008858319858218D2AFD082D083D0E09D
:1022A300F8D0E03274048006740280027401C0E046
:1022B300F404122071D0E0121F47227404800474C6
:1022C300028000CCC0E0EDC0E0E518C39CCCAD19A2
:1022D30050011D10AF068C188D1980068C188D19AE
:1022E300D2AF121F54D0E0FDD0E0FC22D083D082C5
:1022F300E9C0E0E493A3C386F0C5F095F0F908E4E0
:1023030093A386F0C5F095F0700BE493A3C39940B3
:1023130005E9048002A3E475F002A42582F582E5B1
:10232300F03583F583D0E0F9E493A3C0E0E493C0F0
:10233300E022D083D082ECC0E0EDC0E0E493A3FCC4
:10234300E493A3FDED4C600D122381EC24FFFCED1F
:1023530034FFFD80EFE493A3FCE493A3FDED4C6015
:102363000D1223C0EC24FFFCED34FFFD80EFD0E021
:10237300FDD0E0FCE493A3C0E0E493C0E022C0E01E
:10238300C3E49396087401939618400FE493667020
:102393000808740193661870007019A3A3C3E4932B
:1023A30096087401939618A3A3400DD0E0D0E0D013
:1023B300E0022371A3A3A3A3A3A3D0E022C0E0C0A0
:1023C300F088F0E49366700808740193661870004F
:1023D300A8F0A3A3700BD0F0D0E0D0E0D0E00223AC
:0823E30071A3A3D0F0D0E022A9
:1023EC0074F5122104EAFEEBFFEE2434F8EF34000E
:1023FC00F988088909EE2435122524F8EE243712C1
:10240C002524F50AEC850AF0A4FCAAF0850AF0ED67
:10241C00A42AFDE82CF8E43DF97A257B00121FB6BE
:10242C00EA850882850983F05407F87401B8000224
:10243C008004C333D8FCC0E0E0131313541FF8EE30
:10244C0028F8EF3400F9E8245DF582E93400F583CF
:10245C00D0E0F8E0586008850882850983801DEE7D
:10246C002436122524F5F0EA84A8F0EE28F8EF348F
:10247C0000F9E82438F582E93400F583E0F97F04AB
:10248C000221B074F5122104EAFEEBFFEE243412A3
:10249C002524C0E0EE2435F582EF3400F583D0E03E
:1024AC00F08E828F83A3A3A3A3A3E0FAA3E0FB8EF9
:1024BC00828F83A3A3A3A3A3A3A3E0FCA3E0FDECBF
:1024CC00C39AF50AED9BF50BEE2480F508EF34006A
:1024DC00F509850882F583E06401702BEE2481F503
:1024EC0082EF3400F5831222C212252D74021220C1
:1024FC0057E960137CFD7D04EEFAEFFB120C1A8594
:10250C000882850983E4F0AC0AAD0BEEFAEFFB12FE
:10251C0023EC122A8002248AF582EF3400F583E042
:10252C0022C082C083851882851983E0F8A3E0F964
:10253C00C3EA9CEB9D5012C3EC98ED994019C3EA89
:10254C0098EB99501279018010C3EA98EB9940F5F9
:10255C00C3EC98ED9950EE7900D083D08222EAC377
:10256C009CFAEB9DFB2200008521878522C622C0A8
:10257C00E074EF1221F0759B00906182E0A2E640BE
:10258C000302263CE591A2E6400302263C7591BF6E
:10259C009003C2E064057008120DB8120DC48003DC
:1025AC00120DBE752100120E2AE99003C3F07900BA
:1025BC00120E1E120B847A017B009003C1E0F912FB
:1025CC001118907803E06442600302268590055F41
:1025DC00E014F06003022685C2AF1225E900782AC8
:1025EC00D0E0F618D0E0F6E59F5407F9700590920C
:1025FC009B80039092D37808121F11E9C4C0E07835
:10260C0029E65508F50808E65509F509740B78080C
:10261C0012201FD0E02508F8906270E0A2E740F885
:10262C00E8C333906272F0906270E0D2E0F08049BF
:10263C00E0A2E55024E591A2E5501E7591DF9003D0
:10264C00C2E0640D70139003E4E004F0642870029F
:10265C00E4F07A00E0F9120E9C906181E0A2E35064
:10266C0009E5E9A2E3500375E9F7A3E0A2E75009F5
:10267C00E591A2E7500375917F7F0402224FC0E0E1
:10268C00C0D0C082C083906183E0A2E05009E5BF56
:10269C00A2E0500375BFFEE0A2E15009E5BFA2E144
:1026AC00500375BFFDE0A2E25009E5BFA2E2500362
:1026BC0075BFFBE0A2E35009E5BFA2E3500375BF71
:1026CC00F7E0A2E45009E5BFA2E4500375BFEFE0C8
:1026DC00A2E55009E5BFA2E5500375BFDFE0A2E615
:1026EC005009E5BFA2E6500375BFBFD083D082D09E
:1026FC00D0D0E032C0E074F21221F0E5A7A2E45091
:10270C000FE5A1A2E4500953A7EF75A1EF122754CE
:10271C00E5A7A2E5500CE5A1A2E5500653A7DF758D
:10272C00A1DFE5A7A2E15009E5A1A2E1500375A143
:10273C00FDE5A7A2E2500CE5A1A2E2500653A7FBCF
:10274C0075A1FB7F0102224F74F81221047521013F
:10275C009003C2E0640670077A007B00120DA0A201
:10276C00AFE433FED2AF9003C8E0640170187A2056
:10277C007B009003C1E0F912119C7A207B0090033E
:10278C00C1E0F912111E906182E0D2E6F090055E74
:10279C00E0602185C62280169003C7E064017008B2
:1027AC00E5C654F84405F5C653BEFC1225747401F5
:1027BC00652160E4EEA2E092AF7F010221B000003F
:1027CC008E238F24858228858327851882851983FB
:1027DC00E0CEA3E0CF852882852783EBC9EAC8ED3C
:1027EC00CBECCA75F010C3E833C8E933C9EA33CA75
:1027FC00EB33CBC3EA9EF526EB9FF525B35004AB28
:10280C0025AA26EC33CCED33CDD5F0DAAE23AF24AC
:10281C002274F11221048A088B098C0A8D0B740F17
:10282C0012208C780C121F119092DF7808121EEB7C
:10283C009092DF780C121EEB7808790C121543502D
:10284C00157808790C121EC39092B3780812156390
:10285C00401579018013780C7908121EC39092B33D
:10286C00780C12156340EB79007F080221B074EDEF
:10287C001221048A088B098C0A8D0B741312208C7C
:10288C00780C121F119092DF7808121EEB9092DFD9
:10289C00780C121EEB780C7908121543401178084D
:1028AC00790C121EC3AA08AB09AC0AAD0B802275B9
:1028BC0010007511007512007513017810790C1247
:1028CC001EC378107908121E8AAA10AB11AC12AD77
:1028DC00137F0C0221B09092DF7808121F118A82AC
:1028EC008B837808121EFE7F040221B074F512212E
:1028FC00048C828D837808121F118A828B8378084E
:10290C00121ED712294CC3E098F0A3E09912293E6D
:10291C00401E9092DB7808121F118A828B837808F4
:10292C00121EB08E828F83E02420F0A3E0344EF090
:10293C0080A4F08E828F83C3E09420A3E0944E2277
:10294C00EA2404F8EB3400F9E8FEE9FF8C828D836D
:10295C00A3A3A3A3E0F8A3E0F98E828F832274F5DE
:10296C00122104E9FE900514E0FAA3E0FBEEC33358
:10297C00F8E433F9749428F582749139F583E02ADC
:10298C00F508A3E03BF50978081222AB9092D71218
:10299C001F2F1227CC74021220578A088B098C0A1D
:1029AC008D0B74107808121E52AA08AB097F040212
:1029BC0021B074F11221048A0C8B0D8C0E8D0F74C6
:1029CC000F12208CE0FAA3E0FB741112208CE0F5BE
:1029DC0008A3E0F509741312208CE0FEA3E0FF7845
:1029EC00081222ABEA2401F508EB3400F509E4F5F2
:1029FC000AF50B780C7908121D4E9092AF780812DC
:102A0C001F11780C7908121D4EAA0CAB0DAC0EAD33
:102A1C000F1227CC74021220578B09EA4509600467
:102A2C007A0180027A00EC2AFCED3400FDECF8ED22
:102A3C00F97A717B02121FB688088909E4F50AF548
:102A4C000B8E828F837808121F20ECF8EDF97A71C7
:102A5C007B02121FB68A088B097405780812202E87
:102A6C008E828F83A3A3A3A3E508F0A3E509F07FCF
:102A7C00080221B0C082C083E9906000F0D083D0FE
:102A8C008222C0E074F21221F0A2AFE433FED2AF86
:102A9C00C2C0E5D1A2E4500653D1EF121394EEA2BA
:102AAC00E092AF7F0102224FC0E074F21221F0A23B
:102ABC00AFE433FED2AFE589A2E150031212E67502
:102ACC008900C2C5EEA2E092AF7F0102224FC0E0A6
:102ADC0074F21221F0A2AFE433FED2AFE58BA2E088
:102AEC0050031212E6758B00C2E880D8C0E0C0D04B
:102AFC00E8C0E0E5A8D2AFC2C7A2E792AFD0E0F839
:102B0C00D0D0D0E032C0E0C0D0E8C0E0E9C0E0C036
:102B1C0008C009C082C083A2AFE433F9D2AF900AD7
:102B2C0008E0F8A3E0687008539AFBA374018026B0
:102B3C00C2E9900A08E0F50874012508F0748825AC
:102B4C0008F58274093400F583E0F5C1900A08E0B9
:102B5C00C394804002E4F0E9A2E092AFD083D0822B
:0F2B6C00D009D008D0E0F9D0E0F8D0D0D0E032D6
:102B7C00FFFFFFFFFFFFFFFFC082C083E9900BEB5D
:102B8C00F0022E0874F7122098E99002E0F07C18FD
:102B9C007D037AFF7BFF12089C9002E174FFF0A387
:102BAC00F0A3E4F0A3F079051208249002E0E0F918
:102BBC0012074C7ABA7B08120A7C023B1674F41288
:102BCC0020988A088B09EB548060309002E0E0F981
:102BDC001211008A0A8B0BAE0AAF0BEE4F60138EEC
:102BEC00828F83E064B0700312083CEEFAEFFB12A4
:102BFC0010EEAA08E5096480FB80047A007B0002D1
:102C0C002DD774F212209874FC122041EAFEEBFFCF
:102C1C00741212208C123FFDEE4F7003022CB17413
:102C2C000212208CEEF0A3EF123012ECF0A3ED1296
:102C3C003012AA82AB83120746E9F50A706AE508DE
:102C4C00450960648E828F83123FE3EE4F60567AA3
:102C5C00067B001211548A0C8B0DA80CA90DE849A7
:102C6C007005750A13804188828983E4122CBEEEAC
:102C7C00F0A3EF12400EE508F0A3E509F09002E690
:102C8C00122D459002E67005123AC0801B123AAE26
:102C9C008003EAFCEBFD8C828D83122D4570F38C46
:102CAC00828D8380E3750A02A90A740412205702EC
:102CBC0041FDF0A3123FB4A32274F2122098890AAA
:102CCC00E975F017A4FEAFF09002E5E4F09002E392
:102CDC00122D45600A12115A9002E3E4F0A3F0EEB3
:102CEC00FAEFFB1211548A088B09EA4509602FEEA2
:102CFC00FCEFFD79001210D69002E3E508F0A3E595
:102D0C0009F07B008008122D2FE4F0A3F00BEBC32D
:102D1C00950A40F2E50A9002E5F0790080027913F9
:102D2C000241FDEB75F017A4F8A9F09002E3E0283E
:102D3C00FAA3E0398A82F58322123752EA4B2274C5
:102D4C00F4122098740C12208C123FD8FEE9FF75F7
:102D5C000800750900800CE5082401F508E5093424
:102D6C0000F509C3E5089CE5099D503285080A85E4
:102D7C00090B7403780A12202EEA250AF8EB350B9E
:102D8C00F988828983A3A3A3A3A3A3123B95EE6521
:102D9C000A7003EF650B70BFE8FAE9FB80047A0058
:102DAC007B00802774F41220987900EAA2E0501B73
:102DBC0075085075099278081222AB7C047D007A54
:102DCC00ED7B0B12081E74021220577F0402216A3D
:102DDC00C082C0839002E6122E0F601C8882898309
:102DEC00A3A3E06A7003A3E06B8882898370E8A3D5
:102DFC00A3A3A312374E80047A007B00D083D08229
:102E0C000201221242E3E8492274EE12209874FC6B
:102E1C00122041EAFEEBFF851882851983E4F0A3AA
:102E2C00F0EE2402123AA0EE2405123FBBEE24046D
:102E3C00F50EEF1233C7E024FE603924FC60462403
:102E4C00FE605224FE605E24FE7003022F2824FED6
:102E5C007003022F8C24FE7003022F9B24FE700340
:102E6C00022FAA24FC7003022FB924FE7003022F38
:102E7C00C80230059002FF7417F0A3E412301A1246
:102E8C0004C4023005851882851983AC82AD831287
:102E9C000842022FD5851882851983AC82AD831226
:102EAC000848022FD5850C08850D09740212208C58
:102EBC00AC82AD8385088285098312374E12076A6E
:102ECC008A0C8B0DAC0CAD0DEC4D603BE4F50CF5A8
:102EDC000D780C1222AB750CFF750D02780C1222BA
:102EEC00AB750C00750D03780C1222AB7408122014
:102EFC008C1222C212445F122057E9F50C700B128F
:102F0C0037441204DC800F750C0185088285098317
:102F1C00123008123AC0850C08022FD87402122005
:102F2C008CAC82AD83850C82850D83123519603C87
:102F3C00850C82850D83A3A31222C27510FF751117
:102F4C000278101222AB7510007511037810122242
:102F5C00AB740812208C1222C212445F122057E963
:102F6C00F509700B1237441204E2800F75090185C4
:102F7C000C82850D83123008123AC0850908804CEA
:102F8C00851882851983AC82AD8312084E803A85F0
:102F9C001882851983AC82AD83120854802B851856
:102FAC0082851983AC82AD8312085A801C851882E5
:102FBC00851983AC82AD83120860800D85188285DB
:102FCC001983AC82AD83120866E9F508E50860291F
:102FDC008E828F83A3E06414601F850E82850F831D
:102FEC00E09002FF1230121242DF900300123AC03E
:102FFC00E508A312301A1204BE0239AF1242E3855F
:10300C00188285198322F085188285198322F07C19
:10301C00FF7D02850A82850B831237522274EE12D1
:10302C00209874FC1220418A0A8B0B8C0E8D0FEAAF
:10303C002405F508EB3400F5097C157D0079007A40
:10304C00FF7B021210D6E5082402F50CE509123FAD
:10305C00BE8518828519838582108583117810129C
:10306C0022AB850882850983A3A3A3A31235101272
:10307C0022ABE5082405F510E5093400F5117810AC
:10308C001222AB850C82850D83123865120764748D
:10309C00061220578A108B11AE10AF11E50A2402CC
:1030AC00F50AE50B123AA3EE4F70030231E78017D5
:1030BC00740212208C12374E88828983EAF0A3EBBB
:1030CC00F09002FFE004F09002FFE0C3940540038F
:1030DC000231E7E4F510F51178101222AB7510E807
:1030EC0075110278101222AB7510E9751102781067
:1030FC001222AB740612208C1222C27910EEFCEF55
:10310C00FD124461122057E9705E8508828509839F
:10311C00A3A3A3A3A3A3A3E0F89002E8E0687048DC
:10312C001235101222AB7CE97D02E5082408FAE581
:10313C00093400FB1210D07402122057E960298E5A
:10314C00828F83A3A3A3A312374E9002FFE0F51046
:10315C007402781012202E74002510F58274033539
:10316C0011F583EAF0A3EBF0740212208C85821027
:10317C0085831178101222AB740212208C1222C299
:10318C00850C82850D831237741220578A108B118F
:10319C00AE10AF119002FFE0F510751100740278BB
:1031AC001012202E74FF2510F874023511F9888244
:1031BC008983A3122D4570030230B3E82403080859
:1031CC0008E93400F9EE4F60030230BC8882898331
:1031DC0074FFF0A3F09002FFE004F09002FFE060B7
:1031EC000A1237441204D07900800B8508828509B5
:1031FC0083123AB7790A0239AF74EA12209874FE36
:10320C001220418C128D13EA2405F50CEB12444963
:10321C00123FE7750800750900EA2402F510EB343B
:10322C0000F51185188285198385820A85830B78B0
:10323C000A1222AB850C82850D83A3A3A3A31233A0
:10324C00DD1222ABE50C2405F50AE50D123AA37844
:10325C000A1222AB850C82850D831233E1120764AE
:10326C0074061220578A0A8B0BEA450B7003023343
:10327C0082EA2404F50EEB1233C7123FE78A828BE5
:10328C0083A3A3A3E0F985108285118312375860BC
:10329C0003023382E4F514F51578141222AB75147D
:1032AC00E875150278141222AB7514E975150278BD
:1032BC00141222AB740612208C1222C27913AC0A9F
:1032CC00AD0B851082851183124467122057E9F5E6
:1032DC000960030233829002E8E0F8E5087009E027
:1032EC002402900300F08014900300E0FCE8240218
:1032FC00FAE43400FBEA6C7001EB707E850882AA5C
:10330C008212350794141234FF506B850E82850F90
:10331C0083E0C0E074012A1233BED0E0F0050885CA
:10332C000E82850F83A3E0C0E085080A7401250A8C
:10333C001233BED0E0F005089002E81233DD122201
:10334C00AB7CE97D0285080A7401250A1233D1127F
:10335C0020579002E8E02508F50874FF6E7003749E
:10336C00FF6F6012EE24010EEF3400FFE508C394EA
:10337C0014500302322FE508601312376285108255
:10338C0085118312374E1204D679008014E509702A
:10339C000375090A851282851383EEF0A3EFF0A959
:1033AC000974021220577F0E02216A85080C7401E1
:1033BC00250CF58274033400F583223400F50F8557
:1033CC000E82F58322FA74033400FB1210BE7402D1
:1033DC002212401D22A3A31233E722123AAEFDEEB5
:1033EC00FAEFFB2274EE12209874FE1220418C0E20
:1033FC008D0FEA2405F50CEB123FBE750B00900205
:10340C00FFE4F0F50AEA2402F508EB3400F5098034
:10341C00449002FFE0FA9002E8E0F81235079417A6
:10342C001234FF400D9002FFE0F87416C39890021E
:10343C00E8F01235101222AB7CE97D0274002AFAF6
:10344C0074031233D41220579002E8E0F89002FF74
:10345C00E028F0050AE50C2416F582E50D1233C2BE
:10346C00E0F8E50AC39850749002FFE0C39416503C
:10347C006BE50AC333F8E433F9E50C28FEE50D39A6
:10348C00FF851882851983AC82AD838E828F83125F
:10349C0035197008750B01123AB38050E4F510F52C
:1034AC001178101222AB7510E875110278101222E7
:1034BC00AB7510E975110278101222AB740612204C
:1034CC008C1222C2791685088285098312446712F0
:1034DC002057E9F50B700302341D80BB7CFF7D0285
:1034EC0085088285098312374E1204E8A90B7402F1
:1034FC000239B1E99400C365D03322EA28F8E434E8
:10350C0000F9E822E0F5107511007810221239A6A6
:10351C008A108B11AC10AD11EC4D2274EA1220986C
:10352C0074FC1220418A0C8B0D8C128D13EA24052D
:10353C00F50AEB123AA3750800750900E50A240296
:10354C00F510E50B3400F511740212208C85820EF7
:10355C0085830F780E1222AB850A82850B83A3A379
:10356C00A3A3123FC31222ABE50A2405F50EE50B0B
:10357C003400F50F780E1222AB8510828511831260
:10358C003AA912374812076474061220578A0E8B18
:10359C000FAE0EAF0FE50C2402F50EE50D3400F561
:1035AC000F80388882898374FFF005081233B77452
:1035BC00FFF005089002E8E0F50C750D00780C1290
:1035CC0022AB7CE97D0285080C7401250C1233D1E9
:1035DC001220579002E8E02508F508EE4F60278E80
:1035EC00828F83A3A3A3E0F9850E82850F83123704
:1035FC0058EE2404123FBBE96027850C82850D83AD
:10360C0012373A123AC0E5087003023720123762BB
:10361C00850E82850F8312374E1204EE7900023725
:10362C0035E4F514F51578141222AB7514E87515FC
:10363C000278141222AB7514E97515027814122253
:10364C00AB740812208C1222C27911EEFCEFFD85AE
:10365C000E82850F83124467122057E9F509709A80
:10366C00850882AA82EA9002E87009E0240490039B
:10367C0000F08025E0F8900300E0F514E82404FC49
:10368C00E43400FDEC65147001ED70811235079483
:10369C00121234FF4003023619850C82850D83E02B
:1036AC00C0E074012A1233BED0E0F00508850C820C
:1036BC00850D83A3E0C0E01233B7D0E012377D85CF
:1036CC00820C85830D780C1222AB740412208C12A0
:1036DC0022C28510828511831237741220578A0CEE
:1036EC008B0DAE0CAF0D85080C7401250CF8740312
:1036FC003400F9EE4F70030235AF851882851983BB
:10370C00E08882898312377DA3E0C0E01233B7D002
:10371C00E00235BDE509700375090A850A82850B3F
:10372C008312373A123AC0A90974040233AF124219
:10373C00E3851282851383227CFF7D02850A8285B4
:10374C000B8312375222E0FAA3E0FB2212375212FB
:10375C000752E9F50922900300E0F5F0E5088490A2
:10376C0002FFF07CFF7D02221233E7120770740413
:10377C0022F005088518828519832274EC12209892
:10378C0074FE1220418A088B098C0E8D0FEA2405D9
:10379C00FEEB3400FF123990EE2418123FBBEA45C1
:1037AC000B700302383312397950291238588A10A9
:1037BC008B11EA4511606B7912AC0AAD0B8508824E
:1037CC0085098312374E851082851183122096E964
:1037DC00F50A7058E4F50AF50B780A1222AB8E82C2
:1037EC008F83A3A3E0F50A780A1222ABEE2403120E
:1037FC003AA0780A1222AB8E828F83123865120897
:10380C008A7406122057E9F50A7021850C82850D01
:10381C0083E0701F85088285098312374E1204F4E9
:10382C008011750A0E8009750A018004E50A60038F
:10383C00123AB3850C82850D83E060047900800216
:10384C00A90A74021220577F0C02216A85188285FE
:10385C00198312375212087822123AAEFD8508826B
:10386C008509831237522274EE12209874FE1220AE
:10387C00418A088B098C0C8D0DEA2405FEEB340073
:10388C00FF750E00123990EA450B7003023957127E
:10389C003979502C1238588A0E8B0FEA450F604A32
:1038AC007912AC0AAD0B85088285098312374E85D7
:1038BC000E82850F83122096E9F50E600302395AA9
:1038CC00850882850983123B95AA0AFB12396B7015
:1038DC00147AFF7BFF12396B606C88828983E50A4E
:1038EC00F0A3E50BF0750A008007750E0E805F05DE
:1038FC000A9002E5E0FAE50AC39A504AE50A75F027
:10390C0017A4FAABF088828983A3A3E02AFAA3E078
:10391C003BFB8A828B83123AA9EC4D70D2750A1745
:10392C00750B00780A1222ABEEFCEFFD1210BE7480
:10393C0002122057EEFCEFFD8508828509831237B1
:10394C004E1204FA8014750E098003750E01124292
:10395C00DB850C82850D83123AC0A90E0234FA1253
:10396C00086C8A108B11A810A911E84922E50824CB
:10397C0002F508E5093400F5098A828B83A3A3A319
:10398C00E0A2E522851882851983AC82AD838E82F4
:10399C008F831239A68A0A8B0B22E0FAA3E0FB1262
:1039AC00076A2274041220577F0A02216A74EC12EF
:1039BC0020988C108D11EA2405F50CEB123FBE7586
:1039CC000F00EA2402F50AEB123AA3850A82F5836A
:1039DC0012374E1244ED7003023A95750E00807149
:1039EC00850C82850D83E06401704F8E828F83A3DA
:1039FC00A31222C28E828F83A3A3A3A3E0F5127518
:103A0C00130078121222ABEE2405F512EF3400F5F8
:103A1C001378121222AB12374812088A740612203D
:103A2C0057E9F50F6014850C82850D83E4F0124282
:103A3C00DB851082851183123AC07C177D007900DA
:103A4C00EEFAEFFB1210D68E828F83E4F0A3F00512
:103A5C000E9002E5E0F8E50EC398501EE50E75F0E9
:103A6C0017A4F8A9F0850882850983A3A3124453EF
:103A7C00123AA9EC4D60030239EC85088285098362
:103A8C0074FFF0A3F0E50F7006123748120500A979
:103A9C000F023853F50AEF3400F50B22A3123AAE9D
:103AAC00FD22E0FCA3E0228E828F831242E3850E7E
:103ABC0082850F83E8F0A3E9F022C082C0839002D4
:103ACC00E1E06A7003A3E06B70067AE17B0280048C
:103ADC007A007B00022E0874F71220987F00EF7595
:103AEC00F003A4F8A9F0EC28F8ED39F98882898361
:103AFC00E06A7003A3E06B7006E8FAE9FB800B0F39
:103B0C00EFC3940240D87A007B007F0102216A74D3
:103B1C00F61220981240CC70067A007B008007A326
:103B2C00A3A3A312374E02418D74F2122098E9FE22
:103B3C00740E12208C123B95741012208C123FFDC7
:103B4C008C828D83E06402703BA31242DF888289F1
:103B5C0083E0F50CA3E0F9A80C74026870037429D7
:103B6C00697021750C02750D00780C1222AB780867
:103B7C001222AB780A1222ABEEF91208AE740612BE
:103B8C002057800279010241FDE0F50AA3E0F50B14
:103B9C002274E812209874FB122041E98518828562
:103BAC001983F08A168B178C0E8D0F741F12208CB4
:103BBC00123FFD742112208C123B95742312208C21
:103BCC00123FE77510008C828D83A3A3A3E0A2E4BF
:103BDC00502A741D12208C12385E8A828B83E582E7
:103BEC0045837003023CA9790AAC0EAD0FAA16AB43
:103BFC0017122096E9F5106003023CAC850E828505
:103C0C000F83E064026003023F62A31242DF850867
:103C1C0082850983A3858212858313E50E2406F51C
:103C2C000CE50F123FBE88828983E0FAA3E0F9EA23
:103C3C002400F514E439F51578141223350100002D
:103C4C00280128713C07000228483D0328B83C0095
:103C5C0029723E01299A3E0229413E0329723E04F3
:103C6C0029033F623FEE4F703E850C82850D831217
:103C7C003FD8FAE9FB8A828B83E0850A82850B8325
:103C8C001240141222AB8A828B83A3123AAEFDAA85
:103C9C0008AB091210BE7402122057800375100E67
:103CAC00A910740502444175100B80F4EE4F70F7A7
:103CBC00850A82850B837401F0123FED850882859D
:103CCC000983F07C007D00850E82850F83A3A3A35E
:103CDC00A3E02401FAA3E03400FB12076AEA4B606C
:103CEC00418A828B83E02402F8850A82850B83E06B
:103CFC0028F0EA2404F8EB3400F988828983E08503
:103D0C0012828513831240261240141222AB8A822F
:103D1C008B83123AA8E5082403FAE5093400FB0268
:103D2C003C9F850A82850B83E02404F07C047D0093
:103D3C007900AA12AB131210D6023CACEE4F600302
:103D4C00023CB3123FEDFEA3E0FF850A82850B8394
:103D5C007404F0EE850882850983F0EF8512828564
:103D6C001383F0740312208CAC82AD83EEFAEFFB5C
:103D7C001240BA7003023E1E8A828B83A3A3123FA9
:103D8C00E3740112208C85820E85830F780E12222B
:103D9C00AB740512208C1222C27CFF7DFF120770BF
:103DAC0074041220578B0FEA450F7033850C8285F3
:103DBC000D83123FC31222AB850C82850D83A31297
:103DCC0022C27C027D007A1E7B9312059C74041225
:103DDC002057E9700A740112208C74FFF0A3F08E46
:103DEC00828F83E064027034750C02750D00780CC0
:103DFC001222AB8E828F83123AA8E5082404FAE5CE
:103E0C00091233D4122057850A82850B83E02402D1
:103E1C008009740112208CEEF0A3EFF074011220D3
:103E2C008C123FD4F0740112208CA3123FCCA3A3AC
:103E3C00A3F0023CACEE4F6003023CB3850C8285D0
:103E4C000D83123AA9AA16AB171208A2850A82850D
:103E5C000B837402F0EA850882850983F08512824F
:103E6C00851383EB80CBEE4F6003023CB3123FED26
:103E7C00F8A3E0F9850A82850B837402F0E88508C3
:103E8C0082850983F0E985128285138380A3850CD2
:103E9C0082850D8312374E1210B8EAFC8C82A882F0
:103EAC00C39EE49F404BE86E7001EF70047C008071
:103EBC001F851882851983E0FAEE2AFAEF3400FB8D
:103ECC00C3EA98EB94005003E08004EECCC39CFC56
:103EDC00EC850A82850B83F08C0A750B00780A122C
:103EEC0022AB850C82850D83E02EFCA3E03F023CC7
:103EFC009A751007023CACEE4F6003023CB3850C84
:103F0C0082850D831242DF850A82850B837407F04C
:103F1C0088828983123FCC123FB4E08512828513CC
:103F2C0083F0E82402FAE93400FB8A828B83123F87
:103F3C00CC124005123FD4A312400E123FDDF0E824
:103F4C002405F8E93400F988828983123FDDA31235
:103F5C004026A3023E3A741D12208C1240C57003F9
:103F6C00023CA91242DF880C890DE8450D70030252
:103F7C003CA98E108F1178101222AB780A1222AB4A
:103F8C0078081222AB740612208CE0F9AC0EAD0F3F
:103F9C00AA16AB17850C82850D8312209674061217
:103FAC002057E9F510023CACF088828983A322F5F6
:103FBC000CEF3400F50D22E0F50E750F00780E2293
:103FCC00E08508828509832212402D221242E3E803
:103FDC002212402DA3A322A3A3A3A3E0FEA3E0FFE0
:103FEC0022850C82850D83E0F8A3E0F5838882E0BE
:103FFC0022E0F508A3E0F50922A3A3F08A828B83C3
:10400C00A322122CC0A3A322F08A828B8312401D00
:10401C0022E0F50A750B00780A22123FB412402DEB
:10402C0022E0850882850983A3A32274EE122098CE
:10403C0074FE1220418A0A8B0BECFAEDFB741412FD
:10404C00208CE0F510A3E0F511741612208CE0FE24
:10405C00741812208CE0F50EA3E0F50F85188285FC
:10406C001983AC82AD831240BA603E8518828519E3
:10407C00831240C5602FA3A3123FFDE508450960DC
:10408C0024780E1222AB78101222ABEEF9AC0CADE8
:10409C000DAA0AAB0B85088285098312209674043D
:1040AC001220578006790E800279010234FA120729
:1040BC006A8A0C8B0DEA450D221237521240CC2223
:1040CC001208368A828B83E58245832274F612208D
:1040DC009874FE122041740C12208C123FD8851853
:1040EC0082851983F0740112208CE9F0E4F508F54F
:1040FC000978081222AB75080278081222AB7404F6
:10410C0012208C85820885830978081222AB12084C
:10411C008A74061220577402122057806474F712A6
:10412C002098EAFEEBFF89087C187D031208A2EAAE
:10413C005402600BA908EEFAEFFB12075E800279BD
:10414C0001023B1674F612209874FF6A700374FF18
:10415C006B701C7B00EB75F003A4F8A9F0EC28F84D
:10416C00ED39F91241920BEBC39402501480E61214
:10417C0008728A088B09A808A909E849600312414A
:10418C00927F0202216A8882898374FF122CBEE41A
:10419C00F02274F61220981208728A828B83E582C0
:1041AC0045836006A3A3E0FA80027A007B0080D1ED
:1041BC0074F21220988A088B09ECFEEDFF740E1233
:1041CC00208CE0F50A124202701CEEFCEFFD7AFF27
:1041DC007BFF12420270047911801688828983E574
:1041EC0008F0A3E509F088828983A3A3E50AF07996
:1041FC00007F0602216A1208728A0C8B0DA80CA98A
:10420C000DE8492274EE122098EAFEEBFF8C088D23
:10421C0009890C741212208C1242DF741412208C37
:10422C00123AA9741612208C12374E750D00EC4DF3
:10423C0060030242D37402650C60030242CE888292
:10424C008983123AAEF9EC2400F50EE439F50FEA45
:10425C00F4F8EBF4F9EC58F8E50F59F9E849705D0E
:10426C00E5082406F8E5093400F9880A890B8882E8
:10427C00F5831233E31208A28A108B11E50E651038
:10428C007004E50F65116042780E1222AB850A822C
:10429C00850B831233E31208A87402122057E9F538
:1042AC000D7027780E1222AB850882850983A3A393
:1042BC001233E11208C07402122057800D750D8064
:1042CC008008750D0D8003750D0BA90D0239B48E88
:1042DC00828F831242E322E0F8A3E0F92274E81201
:1042EC00209874E7122041851882851983EAF0A37F
:1042FC00EBF08C168D17890E743112208CE0F512B0
:10430C00A3E0F513743312208CE0F514A3E0F5153B
:10431C00743512208CE0F50F750800750900E5095D
:10432C0075F003A4F8A9F0851882851983124453FB
:10433C00E0F47003A3E0F47003024431EE2402F5C0
:10434C000CEF124449E0700302443185160A8517BC
:10435C000B780A1222ABAC14AD15AA12AB131208CF
:10436C002A74021220578A0A8B0BEA450B7003023F
:10437C004431E4F510F51178101222AB74061220BA
:10438C008C85821085831178101222AB740912204F
:10439C008C85821085831178101222AB8512828550
:1043AC001383A3A3A3A31222C27914AC0AAD0B8E60
:1043BC00828F83124467122057E97069850A8285BF
:1043CC000B83A3A3A3A31242DF740212208C123A14
:1043DC00C0850C82850D83E0A2E05018A90E7402F2
:1043EC0012208CAC82AD838E828F8312374E1207D3
:1043FC0082E94208850C82850D83E0A2E15026E516
:10440C000FF50A780A1222AFA90E740312208CAC95
:10441C0082AD838E828F8312374E12077C74011209
:10442C002057E942080509E509C3940250030243E9
:10443C002AA90874191220577F1002216A3400F53A
:10444C000D850C82F58322E028FEA3E039FF8E82D5
:10445C008F83227916850A82850B831237521208B4
:10446C008474082274F2122098EAFEEBFF890B7414
:10447C0001650B600E7402650B70637901120A9A68
:10448C00E9705BEEFAEFFB1244ED6047750A0080B1
:10449C000B7C177D0079001210D6050A9002E5E01E
:1044AC00F8E50AC3985021E50A75F017A4F8A9F0AD
:1044BC00850882850983A3A3E028FAA3E039FB8A47
:1044CC00828B83122E0F70C985088285098374FF35
:1044DC00F0A3F07C187D03EEFAEFFB12089C02416E
:1044EC00FD12086C8A088B09EA45092274F2122025
:1044FC00988A088B09ECFEEDFF740E12208C123B8F
:10450C0095900BEBE0F4603D7A097B001210E8EA21
:10451C004B60328A828B8374B1F0A3E4124007A300
:10452C00124005A3E508F0A3E509124554EEF0A3EB
:10453C00EF124554A3A3E50AF0A3E50BF0900BEBA7
:10454C00E0F91210F40241FDF08A828B83A3A3A33D
:10455C00A3A32274F4122098E9FF7E008A088B0929
:10456C0078081222EF00040D10479245AE45C34562
:10457C00D845ED4502461E4637464946774699468C
:10458C00B546D146EF4674016F70128C828D83E074
:10459C00C394035008E0900CE7F002472E7E1802FB
:1045AC00472E74026F70F68C828D83124E6C900CB9
:1045BC00E8E8F0A3E980E274016F70E18C828D83EE
:1045CC00E0C3940250D7E090078380CD74016F70E4
:1045DC00CC8C828D83E0C3940550C2E0900784801C
:1045EC00B874016F70B78C828D83E0C3940250ADA8
:1045FC00E090078580A374106F70A27508108E0967
:10460C0078081222AB7A867B07125230122057029E
:10461C00472E74016F70868C828D83E0C3940240A8
:10462C00030245A9E09007960245A574016F60034B
:10463C000245A98C828D83E0900CEB808D74046F05
:10464C0060030245A99092D77808121F118D838CB4
:10465C0082780812155340030245A98C828D83126F
:10466C001F2F900798121F3B02472EEF6003024545
:10467C00A912070AE9700E121250795012143C124A
:10468C00124402472E90082B74010245A574016F49
:10469C0060030245A98C828D83E0C394024003021F
:1046AC0045A9E09007970245A574016F6003024588
:1046BC00A98C828D83E0C3940A40030245A9E09043
:1046CC000CEA0245A574016F60030245A98C828D2A
:1046DC0083E024F9C3940A40030245A9E0900CEC52
:1046EC000245A574016F60030245A990082AE0F801
:1046FC008C828D83E090082AF0E87026E0640170CB
:10470C002102468BC3EA9426EB9400501374026F7B
:10471C00700E8C828D83124E661205A8E9FE800203
:10472C000E0EEEF9024738740E1220577F04022148
:10473C006A74F012209874CC1220418C0A8D0B7480
:10474C004412208CE0FE742012208CAC82AD837558
:10475C00839275825C7406121F54742012208CACE8
:10476C0082AD831211F6E9F508C3940A400302489E
:10477C00A175F006E9A4F509742612208CAC82AD63
:10478C00837A0E742025091252E8700974321220B3
:10479C008CE0FF80027F00900CE7E06402700474F0
:1047AC00018001E4F50D780D1222AFEEFDEFFCA9AE
:1047BC0008AA0AAB0B12127A74011220577C147DD2
:1047CC00007900740C12208CAA82AB831210D67460
:1047DC000C12208CAC82AD837A10742425091252F1
:1047EC00E870377C1079FF740C12208C1250157005
:1047FC0029741C12208CAC82AD837A047425250993
:10480C00F9121436740C12208CAC82AD83EFA2E03A
:10481C00E433F9AA0AAB0B12063285188285198388
:10482C00AC82AD837A0C747025081252E8705585F1
:10483C001882851983AA82AB83121226750800E5AB
:10484C000875F003A4F8A9F0851882851983E58210
:10485C0028F8E583125051124E66EC4D601D88828B
:10486C008983A3A3E0F50E750F00780E1222ABAA74
:10487C000AAB0B12089074021220570508E508C306
:10488C00940440BBEFA2E1500C900782E0F9AA0A15
:10489C00AB0B12089674046E702A900CE7E064025D
:1048AC007022900796E060047A0180027A009007EB
:1048BC0083E06004780480027800E84AF9AA0AAB25
:1048CC000B1206F2790074341220577F0802216A09
:1048DC0074F0122098EAFEEBFF8C088D09750A0A19
:1048EC00E9600C14600914602E14607F0249821276
:1048FC001238E9F50AC3940A507CE508450960763C
:10490C00750E06750F00780E1222ABEEFCEFFD1241
:10491C00522C122057805F750B00750E06750F0018
:10492C00780E1222ABEEFCEFFDE50B75F00EA4F841
:10493C00A9F074A428FA740739FB1210D07402126F
:10494C002057E9601B850B0AE50AC3940A5027E53A
:10495C000845096021AA08AB09A90A12123280166F
:10496C00050BE50BC3940A500D80AF12123EE9F50E
:10497C000AC3940A40D9A90A0248D774F4122098A1
:10498C00890875091574FF6A700374FF6B70277EB4
:10499C0000AC087A027B00EEF9121214E960037580
:1049AC0009000EEEC3940A40E8E50860497A687B7A
:1049BC0012120AAC8040120A8E8A0A8B0BAE0AAF16
:1049CC000BEE4F602E7C007D00EE2405FAEF3400D8
:1049DC00FB8E828F83124A7E500CAC087A027B00CD
:1049EC00121214750900E508600CEEFAEFFB1212B6
:1049FC00688003750914A90902473874F2122098CB
:104A0C00ECFEEDFF740E12208C124E5975081574C5
:104A1C00FF6A700374FF6B7021750900AC0AAD0B53
:104A2C00EEFAEFFBA90912121AE9600375080005EA
:104A3C0009E509C3940A503580E2120A8E8A828BEA
:104A4C0083E582458360237C007D00E5822405FAA2
:104A5C00E5833400FB124A7E5013AC0AAD0BEEFA20
:104A6C00EFFB12121A7508008003750814A90802CE
:104A7C005857A3A3A3A3E0F91211F6E9C3940A2291
:104A8C00C082C08390079CEAF0A3EBF0900782E011
:104A9C00FC7D007A257B001205A8900782E0F912B4
:104AAC00080CD083D08202012274EA12209874EC94
:104ABC00122041EAFEEBFFEE240CF514EF3400F566
:104ACC0015EE240AF510EF3400F511EE2405F50E61
:104ADC00EF3400F50FEE2409F50AEF3400F50BEE78
:104AEC002403F508EF3400F5098E828F83A3A3E02D
:104AFC0024FA7003024E2224FD7003024D511470EF
:104B0C0003024BA014601024FD7003024D2214709C
:104B1C0003024D86024E40124E85604AE0F58388B2
:104B2C0082124E6C880C890DE8450D603985148213
:104B3C00851583E0F50E780E1222AFEE240BF5826C
:104B4C00EF3400F583E0F9850A82850B83124E66FB
:104B5C000A0A0AAB09850C82850D83122096740112
:104B6C00122057024E40850A82850B831222C29076
:104B7C000798121F2F1206447402122057E9700373
:104B8C00024E407901850A82850B8312567C1206EF
:104B9C003E024E408E828F83A3858212858313E062
:104BAC006003024CFB850E82850F83E0A2E040037C
:104BBC00024CFB7C0E7D007900851882851983AA36
:104BCC0082AB831210D6EE2408F50AEF3400F50BF5
:104BDC00850A82F583124E886019750C06750D00D6
:104BEC00780C1222AB850A82850B83E02410FCA37F
:104BFC00E0801A124E4AEA4B7003024E40750C06C6
:104C0C00750D00780C1222ABEA2405FCEB3400FD88
:104C1C00740212208CAA82AB831252301220578558
:104C2C000E82850F83E0A2E25004D2F08002C2F023
:104C3C00A2F0E433F8740C12208CE048F08510825A
:104C4C00851183124E886015851082851183E024AE
:104C5C0010F8A3E03400F98882898380039092DBFA
:104C6C00780C121F11851082851183124E88600FEB
:104C7C00851082851183E0F510A3E0F5118006758F
:104C8C001000751100850A82850B83124E88600B0B
:104C9C00850A82850B83124E598006750A00750BA6
:104CAC0000780C1222A778101222AB780A1222ABD1
:104CBC008514828515831222C28E828F83A3124E95
:104CCC0061740A12208CAA82AB8312122C740A1201
:104CDC002057850882850983124E6C90082CE8F0C9
:104CEC00A3E9F07A017B00900782E0F91211181207
:104CFC004E857003024E40124E727003024E408578
:104D0C001282851383E0FC79011256768E828F8392
:104D1C00122096024E40124E857003024E40E0F572
:104D2C00838882A3A3124E6C890BE8450B70030297
:104D3C004E408E828F83A3E0FC79021256768882D5
:104D4C00850B8380CB7C007D00EE2404FAEF3400CD
:104D5C00FB850882850983E0F91211F6E9F8C39402
:104D6C000A4003024E40AC10AD117A0475F006E80F
:104D7C00A42425F9121430024E40900797E0600EDF
:104D8C00900CEAE0F9850882850983024B97900C18
:104D9C00E7E07004790580ED124E4A8A0C8B0DA861
:104DAC000CA90DE82404F50CE93400F50D8E828F66
:104DBC0083A3A3A3A3A3A3A3E0A2E05036E8496076
:104DCC0073850C82850D83E0FE6028850A82850B35
:104DDC0083E05410701D740E12208CAC82AD83E8ED
:104DEC002405FAE93400FBEEF91211F6E9700479A6
:104DFC00038092AC0EAD0F850C82850D83E0F91209
:104E0C005676121274124E85602A124E7260257CF0
:104E1C00007900024D1512070AE9701890082BE072
:104E2C006401700812125090082BE4F0795012149F
:104E3C003C12124474141220577F0E02216A85080A
:104E4C0082850983E0FAA3E0FB120A8E22E0F50AC0
:104E5C00A3E0F50B22A3A3A3A3A3E0FCA3E0FD22F4
:104E6C00E0F8A3E0F922E0F5838882A3A3E0F8A39D
:104E7C00E0F9E8FEE9FFEE4F2290079CE0F8A3E092
:104E8C00F9E8492274F412209874F2122041EAFED7
:104E9C008C0B75F006E9A42420F508851882851979
:104EAC0083AC82AD837A0E1252E8704A7C061250A3
:104EBC000D7043740C12208C124E6CE8F509E50B46
:104ECC006005EE42098004EEF45209850982AA823B
:104EDC00E86A7001E9601B740C12208CEAF0A3E400
:104EEC00F0851882851983AC82AD837A0EA90812DD
:104EFC00143079018002790002473374F212209841
:104F0C0074E6122041890A8A088B09ECFEEDFF74C5
:104F1C000C12208C1252DB6003024FC17C0679FF0D
:104F2C00740C12208C1250156003024FC174702542
:104F3C000AF50B851882851983AC82AD837A0C1225
:104F4C0052E86003025006851882851983AA82AB49
:104F5C0083121226E508450970217C0C7900125049
:104F6C000F60030250067C0C7D0079008518828549
:104F7C001983AA82AB831210D68061851882851999
:104F8C0083AC82AD83AA08AB091212208A0C8B0D5C
:104F9C00A80CA90DE849702CEE4F60198518828574
:104FAC001983AC82AD837A007B00121220EAF8EBF5
:104FBC00F9EA4B70047900804388828983E508F014
:104FCC00A3E509F012508DFAEE6A7001EF602BEE3A
:104FDC00F04F700888828983E4F0A3F085188285ED
:104FEC001983AA82AB83121226851882851983AC89
:104FFC0082AD837A0CA90B1214307901741A025801
:10500C005479FF851882851983AA82AB8312113CCF
:10501C00E92274F71220987F00EF75F003A4F8A929
:10502C00F0EC28F8ED125051E06A7003A3E06B70BD
:10503C0006E8FAE9FB800B0FEFC3940440DB7A001F
:10504C007B0002538639F9888289832274F71220F7
:10505C00987E00EE75F003A4F8A9F0EA28F8EB129C
:10506C005051E0F4FCA3E0F4FD88828983ECF0A3BA
:10507C00EDF012508DF4F00EEEC3940440D50253B3
:10508C0086E82402F582E93400F583E02274EE12FE
:10509C00209874F4122041EAFEEBFF8C0A8D0B74FD
:1050AC001E12208CE0F50CA3E0F50D742012208C60
:1050BC00E0F508A3E0F509742212208CE0F510A3AA
:1050CC00E0F511EE4F7005790A0251BE121238E963
:1050DC00F50EC3940A4023750F007C0679FFE50F8B
:1050EC0075F00EA4FAABF0749E2AFA74073BFB120F
:1050FC00501970030251C8850F0EE50EC3940A4077
:10510C00030251BC75F006E50EA4F50FEEFCEFFDA5
:10511C007A0E74201251D9E50A450B600BAC0AAD1E
:10512C000B7A1B74211251D9E50C450D600BAC0C9C
:10513C00AD0D7A1B74221251D9E5084509600BACF0
:10514C0008AD097A1074231251D9E5104511601B72
:10515C00AC10AD117A1074241251D9742412208C15
:10516C00AC82AD837A0474251251D97C0C7D007904
:10517C00FF1258E57A0C7470250EF912143075086C
:10518C000E75090078081222ABEEFCEFFDE50E75EA
:10519C00F00EA4F8A9F0749E28FA740739FB125289
:1051AC003012205790082AE0600312128012126EFF
:1051BC00A90E740C1220577F0A02216A050FE50F05
:1051CC00C3940A50030250E6750E0A80E3250FF9CA
:1051DC001214302274F412209874F2122041EAFE58
:1051EC00EBFFE9C3940A5004EE4F70047902802D52
:1051FC008518828519831252DBF508701E750A0614
:10520C00750B00780A1222AB740212208CAC82ADA2
:10521C0083EEFAEFFB125230122057A908024733E3
:10522C00AA08AB091210BE74022274F4122098EA78
:10523C00FEEBFF750800750A06750B00780A122242
:10524C00ABEEFCEFFDE50875F00EA4F8A9F0749E2A
:10525C0028FA740739FB1210D07402122057E96037
:10526C0004A908800B0508E508C3940A40C8790A0C
:10527C0002473874F712209874F0122041EAFEEBC2
:10528C00FF750800851882851983AC82AD837A106E
:10529C0075F006E508A424231252E8701F7C101246
:1052AC00500D7018EEFCEFFD851882851983AA82CB
:1052BC00AB83120614E97004A908800B0508E508F5
:1052CC00C3940A40BF790A7410122057025386AC5B
:1052DC0082AD837A0E75F006E9A42420F9121436F7
:1052EC00E92274F7122098750800E50875F00EA4F1
:1052FC00F8A9F0749E28FE740739FFEEFCEFFD7AD6
:10530C000E75F006E5081252E5602C7C067D0079DE
:10531C00FFEEFAEFFB1210D67C067D0079FFEE242F
:10532C0006FAEF3400FB1210D6EE240CF582EF34A3
:10533C0000F583E4F0A3F00508E508C3940A40AA3D
:10534C0090082AE0600312128012126E802C74F7FF
:10535C001220987E007F007C0679FFEF75F00EA47A
:10536C00FAABF0749E2AFA74073BFB1250197001C9
:10537C000E0FEFC3940A40DFEEF97F0102216A742D
:10538C00F71220987E00EEF91212560EEEC3940A14
:10539C005003E960F180E374F312209874CB12206F
:1053AC0041E9FF75F006A4F50874202508FE742762
:1053BC0012208CAC82AD837A0EEE1252E86003029E
:1053CC0054A57C0679FF742712208C1250156003AB
:1053DC000254A57C0E7D0079FF742712208CAA82C2
:1053EC00AB831210D67C1B7D0079FF740C12208CC1
:1053FC00AA82AB831210D67C0C7D0079FF851882B3
:10540C00851983AA82AB831210D6742712208CAC18
:10541C0082AD837A0EEEF9121430E9F509740C1290
:10542C00208CAC82AD837A1B74211254B4FE740CA4
:10543C0012208CAC82AD837A1B74221254B4F50A00
:10544C00740C12208CAC82AD837A1074231254B479
:10545C00F50B740C12208CAC82AD837A1074241270
:10546C0054B4F50C740C12208CAC82AD837A047499
:10547C00251254B4F508851882851983AC82AD8346
:10548C007A0C74702FF9121430E9F8EE450A450BBA
:10549C00450C45084842098003750900A909743573
:1054AC001220577F0502216A2508F9121430E922CF
:1054BC0074F7122098E9900782F012124402538676
:1054CC0074F212209874FB1220418A088B09EB5459
:1054DC00807003025570900782E0F91211008A0A5D
:1054EC008B0BA80AA90BE8FEE9FFE849606CEE24D7
:1054FC0004F8EF3400F98E828F83E0245060381466
:10550C00600624E1604A804B88828983E070448E77
:10551C00828F83A3A3A3A3A3A3A31222C28E828FE1
:10552C0083124E618E828F83A3A312567C121202B9
:10553C007402122057801C88828983E0641E7013C9
:10554C0079008E828F83A3A312567C1211FC8003E8
:10555C0012120EEEFAEFFB1210EEAA08E5096480A7
:10556C00FB025671EAA2E0400302566D90082C1221
:10557C004E59740312208C85820C85830D780C1285
:10558C0022AB750C02750D00780C1222AB750C1A3F
:10559C00750D93780C1222AB7CFF7DFF7A017B009A
:1055AC001207647406122057025655E4F50CF50DDB
:1055BC00780C1222AB740412208C85820C85830D1E
:1055CC00780C1222AB740412208C85820C85830D0E
:1055DC00780C1222AB740912208C1222C27902EEC2
:1055EC00FCEFFDAA0AAB0B1208847408122057E9D1
:1055FC007035851882851983E0FA740112208CE0CD
:10560C00F9EA2400F50CE439F50DEA450D6018783B
:10561C000C1222AB8E828F83124E62AA0AAB0B1233
:10562C0012027402122057E4F50CF50D780C1222BC
:10563C00AB740512208C1222C27CFF7DFFEEFAEFB8
:10564C00FB12077074041220578A0C8B0DAE0CAF32
:10565C000DEE4F60030255B7E5086401FAAB098003
:10566C00047A007B007405025854850882850983EE
:10567C00E0FAA3E0FB22C082C083900782E0F98AA3
:10568C00828B83A312567C120896024AAEC082C04B
:10569C008374FF12204112124AE9C39402851882C6
:1056AC00851983400474028002740AF0AC82AD83C5
:1056BC007A0179051207227401122057024AAE743E
:1056CC00F212209874E8122041EAFEEBFF890A8C52
:1056DC00088D097C187D0079001258EDEEF0A3EFCF
:1056EC00F0900784E0C0E0740212208CD0E0F090BF
:1056FC000785E0C0E0740312208CD0E0F0900CEC35
:10570C00E0C0E0741712208CD0E0F0741512208CDD
:10571C00E054FEF8A3E0F9900CEBE0A2E0E433FADD
:10572C00E84AF8741512208C125863A2E15004D286
:10573C00F08002C2F0E854FDFAA2F0E43333F8EA48
:10574C0048F8741512208C125863A2E35004D2F05E
:10575C008002C2F0E854F7FAA2F0E433F50C750DB0
:10576C00007403780C12202E12585C12208C1258E4
:10577C0063A2E45004D2F08002C2F0E854EFFAA223
:10578C00F0E433F50C7404780C12202E12585C12D1
:10579C00208C125863A2E55004D2F08002C2F0E8CB
:1057AC0054DFFAA2F0E433F50C7405780C12202EB9
:1057BC0012585C12208C125863A2E25004D2F08072
:1057CC0002C2F0E854FBFAA2F0E433F50C74027850
:1057DC000C12202E12585C12208CE8F0A3E9F090E9
:1057EC000785E0601B750C10780C1222AB7C867D53
:1057FC0007740612208CAA82AB83125230122057E7
:10580C00900796E06011E50A6009741512208CE08F
:10581C004402F0780180027800741412208CE04865
:10582C00F0900783E060047804800278007414120E
:10583C00208CE048F0AC08AD09851882851983AA44
:10584C0082AB8312063874181220577F0602216A25
:10585C00EA450CF8741522E8F0A3E9F0900CEBE0A3
:10586C002274F312209874E5122041EAFEEBFF8CAF
:10587C00098D0A742812208CE0F50C75F006E9A449
:10588C00F87408650A700474228002742128F50BE0
:10589C007C1B7D0079001258E57A1BA90B1252E98A
:1058AC007032741A12208CE024F9C3940A5025E546
:1058BC000CF50B780B1222AF740112208CAC82AD5C
:1058CC0083E509A2E0E433F9EEFAEFFB12064A7421
:1058DC0001122057741B0254AC1258EDAC82AD83EC
:1058EC0022851882851983AA82AB831210D685185B
:1058FC00828519832274F712209812090875080002
:10590C00E50875F00EA4F8A9F0749E28FE7407390A
:10591C00FF7C0679FFEEFAEFFB1250197009EEFAD4
:10592C00EFFB790012090E0508E508C3940A40D074
:10593C00025386C082C0839061907404F0A37448B3
:10594C00F0A3E4F09061807440F09061BC7407F0B7
:10595C009061877469F09061B67416F07900120B3F
:10596C008A7902120B90902B7CE493F46006E493FA
:10597C00F9120B667905120E7E025D81C082C0831E
:10598C00E9540FF9906185E0696012E5C6548044D2
:10599C0049F5C6E59E547F644970F8E9F053C6801A
:1059AC00E59E547F70FA025D8174F7122098E5A889
:1059BC00FE53A87E120B72C2BA539AFEC289759B13
:1059CC0000C2C2120B7875A91175B905120B7ED2E3
:1059DC00BA439A0174805E42A802630EC082C083EF
:1059EC00906181E4F0A3025D7E75E900759100750C
:1059FC00BF00020122C082C083906181E4F0A374D5
:105A0C00C0F0A3E4025D80C082C08374F812204110
:105A1C009003C41261F0E8497003025ACA9003C49F
:105A2C00E0544060237908851882851983AA82ABDB
:105A3C0083120C80851882851983AA82AB83120984
:105A4C002C9003C4E054BFF0E054806010790C7AC1
:105A5C00807B05120C809003C4E0547FF0E0A2E040
:105A6C0050087900125AD254FEF0E05402600879C2
:105A7C0001125AD254FDF0E0540460087900125A15
:105A8C00DD54FBF0E0540860087901125ADD54F73C
:105A9C00F0E0541060087902125ADD54EFF0E05433
:105AAC002060087903125ADD54DFF0A3E054016042
:105ABC000D120B9C12093E9003C5E054FEF07408C5
:105ACC00122057025D81120B8A1209329003C4E036
:105ADC0022120B901209389003C4E022C082C083BA
:105AEC00E9600514602A804F90619A7433F0A374B6
:105AFC0055F09061A0743AF090055CE06401700977
:105B0C00C2919003C67467802D9003C67461802681
:105B1C0090619A743FF0A3745AF09061A0747FF076
