:020000040000FA
:0600000002011A022A535E
:030013000231F3C4
:03002B000231CAD5
:030033000231ACEB
:03005300022AC6B8
:03007B0002314F00
:10008300022907E5C754F84401F5C77901220000A6
:100093000080FB120086B90003020104E479217891
:1000A30008B800028004F709D8FCE479297802B87B
:1000B30000028004F709D8FCE490028178F07911FA
:1000C3008002F0A3D8FCD9FA781A90014A7A01BACF
:1000D30000028007E493A3F608DAF97A707B1390A1
:1000E300014B78A879048015E493A3AD82AE838A8B
:1000F300828B83F0A3AA82AB838D828E83D8E9D9C6
:10010300E775822D7583AF740412012C7582917586
:100113008300740012012C75D00075813F7518811E
:10012300751902759F00020096C09FF59FE473D076
:100133009F22D083D082C09FE493C0E0740193C018
:10014300E0740293F59F2201FF0000B40000280031
:100153002800283075A000A000A000A0000008001F
:1001630008E001F000100010001000100010001053
:100173000050005000500010001000D00700000095
:100183000000000F0001000500307507001000019A
:100193000081FF0000FF140732071A07FF02020263
:1001A30008025000A0000000E803021384010000CD
:1001B300F483020F84010000C513020784010000C9
:1001C3006207020F84010000C613020584010000C8
:1001D3007807020F84010000C713020384010000A3
:1001E3007A07020F84010000C8130221840800006B
:1001F3007B07020F84010000C9130215840100006C
:10020300CA13FF0100FF20021384010000008402CF
:100213000F840100002E1402198400000000000264
:100223000B84030000C807F60CF60CF60CF60CF66C
:100233000CF60CF60CF60CF60CF60CF60CF60CF6AB
:100243000C840F9C0F7E0F020202020202020202C2
:10025300010D0000001001021384010000FD830260
:100263000F840100006F14022D840100000B0C02A7
:100273000F840100007014022B840100001082021D
:100283000F8401000071140229840100000282021C
:100293000F8401000072140227840100008581028B
:1002A3000F8401000073140225840100003D8102C4
:1002B3000F8401000074140233840100004F810293
:1002C3000F840100007514021F8401000061810284
:1002D3000F840100007614021D84010000F48102E2
:1002E3000F840100007714021B84010000781401BD
:1002F300E803053F10FFFFFF00013075030201060D
:1003030000000000000000000000000000000000EA
:10031300000000000000000000000000FFFF0600D6
:10032300800CE803010B0953686F775747756172B7
:1003330064051240064006020A000201060302F0A9
:10034300FF426C7565546F6F746800000000000015
:10035300000000000000C6150000F0150A436861A4
:100363007261637465726973746963203100024357
:1003730068617261637465726973746963203200C2
:100383000843686172616374657269737469632099
:1003930033001043686172616374657269737469D1
:1003A3006320340002436861726163746572697328
:1003B3007469632035001643686172616374657202
:1003C30069737469632036001A43686172616374E8
:1003D3006572697374696320370002138401000036
:1003E300FA83020F8401000084150237840300009E
:1003F3001513020D840100008515020F840100000E
:1004030096150239840100001613020D84010000C1
:100413009715020F84010000A815023B8402000017
:100423001713020D84010000A915020F84010000B7
:10043300BA15023D840000001813020B8403000068
:100443001913020D84010000BB15020F8401000083
:10045300CC15023F840400001F13020D8401000029
:10046300CD15020F84010000DE1502418403000054
:100473002413020B840300003813020D84010000CF
:10048300DF15020F84010000F01502098403000048
:100493003E13020B840300005213020D840100007B
:1004A300F11530313233343536373839414243442C
:1004B300454600286E756C6C20706F696E746572AA
:1004C3002900303132333435363738396162636469
:1004D3006566003F3F3F000000807F0000803FF9DA
:1004E300021550B743BA5100E7DB2E0000A04012BB
:1004F30001351EEC011201355CF5011201352BF6B5
:100503000112013525F80112013518FA01120135DE
:1005130010FB0112013560A10412013577A1041209
:100523000135A6A104120135DFA10412013507A28A
:100533000412013535A2041201354CA2041201350F
:1005430063A20412013579A204120135A0A2041298
:100553000135B3A204120135C9A204120135DCA28C
:100563000412013501A3041201358F9703120135DB
:100573008E9803120135C39803120135E4980312D0
:100583000135F49803120135159903120135219AA7
:1005930003120135EE9A03120135619B03120135F3
:1005A300E79B031201352A9C03120135619C031258
:1005B3000135E79C03120135B99D03120135179EDE
:1005C300031201352F9E03120135A99E0312013533
:1005D300AC9E03120135AF9E03120135569F0312E1
:1005E30001356E9F031201359E9F03120135BE9F95
:1005F30003120135ACA00312013562A103120135C8
:1006030087E703120135AFE703120135DDE7031274
:10061300013514E8031201357CE803120135C5E8FE
:100623000312013510E9031201354EE903120135B6
:100633008BE903120135B9E90312013560EA0312AC
:1006430001356AEA0312013577EA03120135AAEA92
:10065300031201356CEB0312013578EB03120135FC
:1006630090EB031201359AEB0312013575AA0412BC
:10067300013583AA041201359BAA04120135B3AADA
:1006830004120135389F02120135D69F021201353B
:100693004EA00212013563A1021201359DA102127F
:1006A300013546A2021201351BA3021201357FA4B4
:1006B30002120135D6A4021201355DA502120135DD
:1006C30044A60212013591A6021201351FA7021298
:1006D300013543A70212013518A90212013559A9A0
:1006E300021201357BA902120135FCA90212013560
:1006F300E6AA02120135ACAB0212013556C1031250
:10070300013528C203120135D1C20312013514C3C6
:1007130003120135A1C3031201352DC403120135A0
:100723000EC5031201353DC50312013539C6031247
:10073300013581C60312013583C703120135C7C7CB
:1007430003120135EDC703120135C8AD041201359B
:100753000088041201351688041201353C880412FE
:1007630001356489041201356E8904120135C78A83
:1007730004120135C78B04120135C5D303120135A9
:10078300FAD4031201352DD50312013577D503129F
:10079300013535D703120135DB8F021201353E9047
:1007A3000212013583910212013593910212013530
:1007B300B69102120135019202120135A69202127C
:1007C30001359C9302120135669402120135DE95C0
:1007D30002120135209602120135BE96021201352E
:1007E3000B97021201353197021201351F9902123C
:1007F3000135249902120135059B02120135599BDB
:1008030002120135BB9B02120135E39B0212013533
:10081300879C02120135499D021201357A9D02120D
:1008230001357D9D02120135C59D02120135079EDA
:10083300021201356E9E02120135E696041201354D
:10084300F996041201351297041201355D970412CB
:100853000135389804120135C798041201351299ED
:1008630004120135945C00120135A05C00120135BD
:10087300D95C001201351E5D00120135D55D0012F1
:1008830001355B5E00120135C05E00120135EC5E7E
:1008930000120135255F001201353961001201355F
:1008A3001563001201350065001201353766001229
:1008B3000135976800120135836900120135C96A51
:1008C30000120135D66B00120135F36B00120135AE
:1008D3002B6C00120135456C00120135AD6C001212
:1008E3000135477100120135E87100120135397283
:1008F30000120135607200120135AE72001201352B
:10090300CC7200120135207300120135F973001205
:100913000135807500120135087600120135DDE2DC
:1009230003120135E7E203120135B2E30312013585
:10093300CDE303120135F3E30312013537E4031268
:1009430001356FE40312013598E40312013511E513
:100953000312013526E5031201353BE50312013588
:1009630072E50312013586E503120135B7E503127B
:100973000135F1E5031201351DE60312013573E676
:1009830003120135C7E60312013510E703120135DF
:100993003AE7031201355FE70312013514840412A9
:1009A3000135DE8404120135C18504120135378611
:1009B30004120135798604120135A6870412013524
:1009C3002EF30212013557F30212013570F30212AE
:1009D3000135B5F40212013593F502120135B2F572
:1009E300021201353FF60212013582F60212013579
:1009F300CFF7021201356EF802120135EDFA021239
:100A0300013584FB0212013558FC021201353AFD0F
:100A130002120135A6FE0212013539FF0212013519
:100A2300DD7E00120135467F001201359A7F0012E8
:100A33000135C17F0012013559F503120135C6F5A1
:100A43000312013511F60312013506F703120135BE
:100A530002F803120135ECF8031201356F76001228
:100A63000135B176001201358B77001201356478B8
:100A7300001201355F79001201353E7A001201350B
:100A8300AA7A00120135717B00120135DC7B00125A
:100A93000135437C001201356E7C00120135DF7C89
:100AA30000120135727D00120135DB7D0012013524
:100AB300F07D00120135387E00120135517E00129F
:100AC3000135B67E00120135B97E00120135D18B96
:100AD30004120135F98B04120135378C04120135E8
:100AE300F58C04120135608D041201357C8D0412DE
:100AF3000135A48D04120135D48D04120135E38D23
:100B0300041201355D8E04120135838E0412013502
:100B13005FBC021201353CBE0212013537C002121E
:100B230001350AC10212013555C102120135A0C1B6
:100B330002120135B2C102120135F2C102120135AE
:100B430027C20212013573C202120135A2C2021278
:100B53000135C5C20212013512C3021201359BC30E
:100B630002120135A8C50212013593C702120135DD
:100B7300D6C7021201353BC9021201357CC90212E4
:100B83000135EFC9021201353BCA0212013566CAAB
:100B9300021201350080031201352B800312013547
:100BA300128703120135368903120135F18A0312C4
:100BB30001354E8C03120135468401120135DD8463
:100BC300011201350A8501120135508501120135E3
:100BD3008F8601120135268801120135A088011282
:100BE3000135BB88011201353089011201355F8A55
:100BF30001120135BA8B01120135BC8C011201358A
:100C0300198E01120135328E011201358F8E0112B8
:100C13000135718F01120135A48F01120135149032
:100C2300011201358E9001120135DD90011201355B
:100C3300A99101120135AE92011201358D93011272
:100C43000135189401120135869401120135FA9485
:100C530001120135239501120135E2950112013587
:100C63005C970112013579970112013598970112AA
:100C730001352998011201354E98011201357698F4
:100C830001120135F198011201354B990112013519
:100C93009F9A011201355C9B011201352F9C0112B1
:100CA300013590CA02120135E0CA02120135ECCABD
:100CB30002120135C9CB02120135F9CB02120135FB
:100CC30031CC02120135B0CC02120135E8CC02124C
:100CD30001353ACD0212013577CD021201359CCF91
:100CE30002120135C8D102120135C3D302120135F4
:100CF3009ED502120135F27F0012013566C601123C
:100D03000135B0C6011201358FCC0112013510CE69
:100D1300011201356FD4011201356AD50112013573
:100D2300A7D501120135CAD5011201350CD601121E
:100D3300013515D6011201351FD6011201350BD726
:100D430001120135FFD7011201355D9C01120135F6
:100D5300D5A601120135DBA601120135E7AD01125B
:100D630001354FFC01120135E5FC01120135FBFC95
:100D73000112013575FD01120135CBFD011201355B
:100D830009FE0112013566FE01120135E3FE01126F
:100D93000135ECFE01120135F8FE011201350BFF9E
:100DA3000112013547FF011201355DFF01120135C3
:100DB300BCFF01120135AEF903120135BBF9031271
:100DC3000135D5F90312013514FA0312013552FA2C
:100DD30003120135B7FA03120135CCFA03120135B8
:100DE300D7FA03120135E4FA03120135FBFA0312B1
:100DF300013509FB0312013514FB0312013520FBF6
:100E0300031201352FFB031201353AFB031201359F
:100E13005DFB0312013506FC0312013516FC0312B8
:100E2300013530FC031201354DFC0312013569FC19
:100E3300031201358EFC0312013598FC03120135B0
:100E4300ACFC03120135CBFC031201352CFD03125C
:100E5300013532FD0312013538FD031201353EFD24
:100E6300031201354AFD031201357DFD03120135DD
:100E730064D802120135E6D8021201358FD9021265
:100E83000135D7DA02120135E5DC02120135CBDD7B
:100E93000212013500DE0212013522DE0212013593
:100EA300CBDE021201359BE002120135C4E00212CF
:100EB30001353CE1021201356EE1021201357BE19D
:100EC30002120135C6E102120135EAE102120135CF
:100ED3003BE40212013545E502120135A1E5021298
:100EE3000135E1AD02120135F2AE02120135D6AF82
:100EF30002120135E0AF0212013502B002120135D0
:100F03000EB002120135B2B102120135DFB1021285
:100F13000135F5B2021201354AB30212013599B413
:100F2300021201356EB502120135CAB5021201353E
:100F330035B6021201356AB602120135ADB6021298
:100F4300013577B9021201358FB90212013520BA82
:100F5300021201352EBA021201357BBA0212013593
:100F630089BA02120135F5BA0212013570BB0212B9
:100F73000135C7BB02120135718C03120135938C05
:100F830003120135A48E0312013563910312013557
:100F93008D92031201354B930312013537940312DB
:100FA3000135A79F04120135CC9F0412013542A0DD
:100FB3000412013539BA0312013542BA031201355D
:100FC3004BBA0312013523BB03120135D4BC031200
:100FD300013504BD031201352FBD031201355FBD79
:100FE300031201358ABD03120135BEBD031201355B
:100FF300EABD031201352DBE0312013558BE03129B
:1010030001359FBE03120135F4BE0312013536BF0D
:101013000312013590BF03120135BBBF0312013523
:101023000AC0031201353AC00312013565C0031229
:10103300013593C003120135B6C00312013551AE19
:10104300041201357DAE04120135AAAE0412013536
:10105300B4AE04120135C4AE0412013588AF0412D4
:101063000135CB8E04120135F08E041201351A8F2F
:101073000412013569CE031201356BCF031201351A
:1010830007D0031201354CD00312013554D103129A
:101093000135C4D2031201352AD303120135DCAF63
:1010A3000412013517DA01120135F7DB011201359C
:1010B300B3DD01120135A0DE0112013527DF011274
:1010C3000135A1DF01120135D2DF0112013549E3F8
:1010D30001120135C5E301120135B6E401120135F0
:1010E300EEE40112013531E50112013568E6011222
:1010F3000135BDE601120135F4E60112013566E75B
:10110300011201358DE701120135A7E701120135FF
:1011130099E801120135A9E80112013545EA0112E6
:1011230001355CEA011201358EEA01120135DFEB6C
:10113300011201354CAB041201355DAB04120135CC
:10114300F8AB04120135B0FF02120135EFFF0212B2
:101153000135ECFF0112013593A904120135A3A94E
:1011630004120135BBA9041201356FAA041201351B
:1011730096A7041201351AA80412013580A8041297
:1011830001350C80041201353C8004120135908036
:10119300041201352C8104120135F081041201354A
:1011A3006C820412013513A30412013538A304120F
:1011B3000135A0A304120135BFA30412013509A40C
:1011C3000412013562A404120135A1A404120135ED
:1011D300A4A40412013502AA0312013527AA03129B
:1011E300013544AA0312013561AA0312013585AA08
:1011F30003120135B2AA03120135C8AA031201353D
:10120300DAAA03120135FEAA0312013529AB031230
:101213000135D4AB0312013552AC0312013576AC60
:1012230003120135BCAD0312013513AE03120135B0
:101233003CAF03120135B6AF03120135FFAF031202
:10124300013516B00312013523B0031201352DB059
:101253000312013537B00312013540B003120135D3
:1012630049B00312013552B00312013563B00312C2
:1012730001359CB103120135FFDD0312013516DE82
:10128300031201358FDE0312013568DF03120135C6
:1012930026E2031201358BE203120135CAE203127F
:1012A3000135F87F001201357A9B04120135FB9C4E
:1012B300041201355C9D04120135A29D041201350F
:1012C300C49104120135DD91041201350792041211
:1012D30001352192041201353092041201354792EF
:1012E300041201355692041201356B920412013532
:1012F300A29204120135C49204120135E892041239
:1013030001352793041201355E9304120135B3931B
:1013130004120135F5930412013599A8041201351D
:10132300CBA804120135EAA804120135F6A8041269
:10133300013551A9041201357DA9041201352FECA1
:101343000312013586EC031201355CEE03120135FD
:10135300FAFD0312013535FE03120135DBFE0312DC
:10136300013581FF031201358FFF031201359DFF04
:1013730003120135A0FF03120135AAFF0312013541
:1013830024A6041201354DA60412013576A60412D3
:1013930001350FA70412013551A704120135CDA160
:1013A30003120135D7A10312013517A20312013528
:1013B30060A2031201359AA203120135F4A20312AB
:1013C300013513A303120135B5A503120135BEA5DB
:1013D300031201350FA60312013538A60312013596
:1013E30042A603120135AEA60312013542A703122A
:1013F3000135A1A703120135CFA7031201354FA869
:101403000312013592A803120135CDA80312013549
:10141300DFA803120135FEA80312013507A9031241
:101423000135D6A903120135ADA40412013500A577
:10143300041201356CA504120135D4A5041201353B
:101443007B9404120135A594041201357A95041294
:1014530001356E9604120135EBD803120135E0D93C
:1014630003120135FAD9031201350BDA03120135E0
:1014730040DC0312013560DC03120135A59D041223
:101483000135DB9D04120135149E041201356D9F55
:101493000412013503AC0412013519AC04120135F1
:1014A30023AC041201356DAC04120135CEAE041227
:1014B300013526B203120135E3B2031201351EB31F
:1014C3000312013546B303120135A8B303120135E4
:1014D300F4B30312013558B403120135D2B4031225
:1014E3000135D4B50312013587B70312013509B8A5
:1014F300031201356EB80312013585B803120135A5
:101503008EB903120135CCB903120135CFF00312A2
:101513000135E8F00312013589F103120135C9F1F0
:1015230003120135E2F10312013515F203120135FD
:1015330062F20312013596F203120135D8F2031257
:101543000135E2F4031201354CF503120135EEE5E2
:101553000212013551E902120135CDEA02120135B9
:1015630024EB0212013541EB02120135BFEB0212EB
:1015730001354AED021201352EEE02120135BBF19F
:10158300021201358BF2021201353C990412013526
:10159300469904120135569904120135FE99041235
:1015A3000135429A04120135899A04120135099BC7
:1015B30004120135509B04120135A2B20112013508
:1015C30091B60112013536B7011201354AB801123D
:1015D300013536B901120135A9BF01120135A3C086
:1015E30001120135E4C1011201357CC2011201353A
:1015F300D3C30112013562C803120135BDC80312FA
:101603000135DAC8031201352ECA03120135DACACD
:1016130003120135D9CB03120135B9CD03120135BC
:1016230008CE0312013534AD0412013580AD041226
:1016330001359DAD041201350080021201351E856E
:101643000212013558B0041201359EAC0412013563
:10165300C8AC0412013521B00412013584B0041260
:101663000135ADB004E76670100809E766700A0833
:1016730009E76670040809E76622E066701008A3AC
:10168300E066700A08A3E066700408A3E06622C35C
:10169300E7960809E7960809E7960809E796A2D2AC
:1016A30065D03322C3E09608A3E09608A3E096082A
:1016B300A3E096A2D265D03322C008C3E096F50812
:1016C30008A3E096420808A3E096420808A3E09620
:1016D3004208A2D265D033E5087001D3D00822C3F3
:1016E300E7960809E7960809E7960809E79622C3EB
:1016F300E09608A3E09608A3E09608A3E09622C02C
:1017030008C3E096F50808A3E096420808A3E0960C
:10171300420808A3E09645087001D3D008220808C0
:1017230008E630E711122058121739080808C64492
:1017330080C618181822181818E9799EC608CAC650
:1017430008CBC608CCC6C370207996CACBCC701917
:10175300798ECBCC70137986CC700EF9802ACA337C
:10176300CACB33CBCC33CC331930E7F2CCCBCA332F
:1017730050147004EA30E00DE4CA3ACACB3BCBCC38
:101783003CCC500209C3E913C6CC182313C6CB18AB
:10179300C6CA18C6F9228A088B098C0A8D0B7808E9
:1017A3001217EE30F03912183380341217EE20F08E
:1017B3001430E72B74FFFCFBFA747F8022E4FCFBFC
:1017C300FA7480801AB48008BC00F2BB00EF800F6B
:1017D30050EBF9E4C39AFAE49BFBE49CFCE499C65E
:1017E300CC18C6CB18C6CA18C6F922E4C9C608CA9B
:1017F300C608CBC6D3330308CCC63392F0C3947F59
:10180300402E94184019C9B90704CACBCC225025DD
:10181300C309CA33CACB33CBCC33CC33D9F422F488
:10182300600DC9CCC313CB13CBCA13CAD9F6CC22D0
:10183300E4FCFBFA2214FCFBFA22E62618461846BF
:10184300184622E72719471947194722181818E697
:101853000846087009E626087005E633F4220822D4
:10186300191919E70947097009E727097005E733CB
:10187300F4220922E6084608C3134608336002E649
:1018830033F422E7094709C3134709336002E733F7
:10189300F4221218776025121886602012183D7002
:1018A30003021846080808E76670101819E76670FF
:1018B3000A1819E76670041819E76622F422121849
:1018C30077601C121886601712183D7007121846AD
:1018D3007001D322C0D01218467006D0D0B322C3F1
:1018E3002233D0D0501430E0F6C3E7960809E796C8
:1018F3000809E7960809E796B32220E0D5E697089A
:1019030009E6970809E6970809E697B322121877BC
:10191300601B121886601612183D70071218466075
:101923000CB322C0D01218467005D0D022C3223384
:10193300D0D0501330E0EBC3E7960809E7960809C7
:10194300E7960809E7962220E0E4E6970809E69778
:101953000809E6970809E6972200121877604F12E4
:1019630018866012E7548066F612184F7011121829
:1019730046703B090909F4F618F618F618F6221210
:101983001863701512183D08080860EAE6447FF6EC
:1019930018768018E4F618F62212183D601612180D
:1019A300467012E4F608F608F608E65480F60909CC
:1019B3000918181822EAC0E0EBC0E0ECC0E0EDC063
:1019C300E0E687F0A4FBACF008E687F0A42CFCE487
:1019D30035F0FA1809E687F0A42C4B60027401CAAB
:1019E30035F0FCE433FB09E687F0D2F7A42CCB35C2
:1019F300F0FC1908E687F0A42BCC35F0FBE433FDAB
:101A03000819E687F0D2E7A42C4ACB35F0CD340091
:101A1300FC09E687F0D2E7A42DCC35F0FDE433FAD8
:101A23000918E687F0D2F7A42CCD35F0CA3400FCB0
:101A330008E687F0D2E7D2F7A42ACC35F07A7E20E5
:101A4300E70B0ACB33CBCD33CDCC33CC33CB3350B5
:101A5300147004ED30E00ED2F1E4CD3DCDCC3CCC9E
:101A63003B5005DA05C2F1EB547FC63308E63392E7
:101A7300F0FBE73309E733C39A502D2B70190C0D94
:101A83004C4D70151806E608C333700D20F10AA2F9
:101A9300F013F6E418800B4024E4F630F00276806D
:101AA30018F618F618F68024D33B14501074FFA2CE
:101AB300F013F6187680E418F618F6800FA2F013E8
:101AC300F618E63303F618ECF618EDF6D0E0FDD081
:101AD300E0FCD0E0FBD0E0FA221218866046121830
:101AE30077603DE9687008F618F618F618F6227460
:101AF3008067F7121B10090909748067F72212180F
:101B030077601D1218867005191919801A12184F5B
:101B1300701F121863C37003E6673319191940075E
:101B23001818182208080874FFF618F618F618F69D
:101B3300221218636017121846702192F012183D92
:101B43007019501720F014080808090909E7F61856
:101B530019E7F61819E7F61819E7F62212183D6087
:101B6300E6E869701F0808E62480F608E436F618EC
:101B7300547FB47F0CE654806007F6E418F618F639
:101B830022181822E9C6CC08C6CD08C6CE08C6CF8F
:101B9300C0E0E8C0E0EAC0E0EBC0E009E9F809E72B
:101BA300FA09E7FBE6F918E6F8C3EC98ED99EE9A23
:101BB300EBC2E7F5F0EFC2E795F0500E600CEBCF08
:101BC300FBEACEFAE9CDF9E8CCF8EAA2E7D2E7FAE4
:101BD300EB33FB13F5F0EEA2E7D2E7FEEF33FFC5DD
:101BE300F013A2E730E601B313C5F0C3C0E0C0F0C1
:101BF3007F00C39BFB605E9418600F401D14601A46
:101C0300D0E023F9D0E0F8021CE28AF0E94860034F
:101C1300D2F0E4AFF0FAF9F8803BEB30E40D89F051
:101C2300EA6003D2F0E4AFF0F9CAF8EB30E30D88D1
:101C3300F0EF6002D2F0AFF0E4CAC9F8EB540760EA
:101C430014FBC3EA13FAE913F9E813F8EF1350028C
:101C5300D2E0FFDBEDD0E0C0E030E739C3E49FFF23
:101C6300F5F0EC98FC42F0ED99FD42F0EE9AFE425D
:101C7300F0D0E0F9D0E0F8E5F0607AE923F9EE205E
:101C8300E742D8028067C3EF33FFEC33FCED33FD4B
:101C9300EE33FE80EAEC28FCED39FDEE3AFED0E0AF
:101CA30023F9D0E0F84002801BC3EE13FEED13FDD1
:101CB300EC13FCEF135002D2E0FF08B800067F7F5D
:101CC30074FF802EEF3350178CF020F00260100C5D
:101CD300BC000C0DBD00080EBE000408E860DFE97F
:101CE30033E813FFEE2313FE4F4D4C8008E9548075
:101CF300FFE4FEFDFCEE33EF33F47004FCFD7E8065
:101D0300D0E0FBD0E0FAD0E0F8D0E0CFC618CEC6E2
:101D130018CDC618CCC6F9221218777004181818F3
:101D230022121886700D74FFF61819F61819F61892
:101D330019F622E7548066F612183D700F12184602
:101D430070F014F608F608F608F680D112184670FB
:101D53000CF608F608768008E6447F80EC121866D5
:101D6300700C12185260BFE65480F6E480BB121860
:101D730052700519191980A5E869700C763F187619
:101D83008018F618F6E8F922E6CDC0E018ECC0E0BA
:101D9300E633CD33CDD313F6E719FCE7191933CC6A
:101DA30033C3947F400ECD9D502408E65480F6E45F
:101DB30018F6800FF4043D14501408E6447FF61817
:101DC3007680E418F618F6D0E0FCD0E0FD22CCD300
:101DD30013CCFD18E4C6CBC0E018E4C6CAC0E008C3
:101DE30008ED08C633E613F618E433C675F003C3EB
:101DF300CA97CA09CB97CB199C40047D08802EBD96
:101E03000003021EC416B6FF050606081618C3CA49
:101E130033CACB33CB33CA27CA09CB37CB193CC31D
:101E23007D08803E187D0820E75CC633C6CA33CAE6
:101E3300CB33CB33DDF1D5F0EB30E77BCA97CA095F
:101E4300CB974ACB199C406F4B7025E620E021804D
:101E530066187D08C3CA97CA09CB97CB199CD3C60A
:101E630033C6CA33CACB33CB3350C9DDE7D5F0E130
:101E7300D3E4C636C608C636C608C636C608C6364E
:101E8300C61818188031C3CA97CA09CB97CB199CB7
:101E9300B34097C633C6CA33CACB33CB33DD34D54D
:101EA300F02EC6A2E0C640C8CA27CA09CB37194AD2
:101EB30070BECB3CB480B90808E63308E633601F34
:101EC300181818D0E0FAD0E0FBD0E0FCD0E0FD22F7
:101ED300187D08CA27CA09CB37CB193CD380801396
:101EE300F618E4B67F11F618B6FF0EF618C604709E
:101EF300D20808768080CAF618F618F680C5080856
:101F030008EAC0E0EBC0E086F0E7A4FA180986F01F
:101F1300E7A42AFA180986F0E7A42AFA180986F032
:101F2300E7A42AFA1986F0E7A4FBE5F02AFA1908D0
:101F330086F0E7A42BFBE5F03AFA190886F0E7A44C
:101F43002BFBE5F03AFA18180986F0E7A4C5F02B45
:101F5300FBE43AFA1908E7C5F0C6A426F6E5F03B18
:101F6300FBE43AFA1886F0E7A4F6E5F00826F6E46F
:101F73003B08F6E43A08F6D0E0FBD0E0FA22E4CFDF
:101F8300C0E0E4CEC0E0E4CDC0E0E4CCC0E075F056
:101F930020E626F608E633F608E633F608E633F6D7
:101FA300181818EC33FCED33FDEE33FEEF33FFC3AB
:101FB300EC9709ED9709EE9709EF97191919400F57
:101FC300FFEC97FC09ED97FD09EE97FE191906D56D
:101FD300F0BFECF709EDF709EEF709EFF719191957
:101FE300D0E0FCD0E0FDD0E0FED0E0FF2212205B89
:101FF300181818121F811220471919192212204785
:10200300191919080808E618181820E7E0121F81A3
:1020130012205B18181822090909E719191920E772
:10202300DC080808E618181820E703021F811220AD
:102033005B181818121F8112205B181818122047FA
:1020430019191922E4C397F709E497F709E497F7F5
:1020530009E497F722181818E4C396F608E496F6ED
:1020630008E496F608E496F6226017080808C6A264
:10207300E713C618C613C618C613C618C613C6D5A3
:10208300E0E9226016080808C6C313C618C613C6BB
:1020930018C613C618C613C6D5E0EA227009080885
:1020A30008226016181818C6C333C608C633C608F4
:1020B300C633C608C633C6D5E0EA22E627F60809C2
:1020C300E637F60809E637F60809E637F622E0268A
:1020D300F608A3E036F608A3E036F608A3E036F6E2
:1020E30022E026F008A3E036F008A3E036F008A3C8
:1020F300E036F022C3E697F60809E697F60809E604
:1021030097F60809E697F622C3E0C696F608A3E019
:10211300C696F608A3E0C696F608A3E0C696F6228E
:10212300C3E096F008A3E096F008A3E096F008A3B6
:10213300E096F022E056F608A3E056F608A3E05630
:10214300F608A3E056F622E056F008A3E056F0089E
:10215300A3E056F008A3E056F022E0F608A3E0F669
:1021630008A3E0F608A3E0F622E493F608740193CB
:10217300F608740293F608740393F622E6F008A3B4
:10218300E6F008A3E6F008A3E6F022E0FAA3E0FBFA
:10219300A3E0FCA3E0FD22EAF0A3EBF0A3ECF0A3A1
:1021A300EDF022E0FCA3E0FDA3E0FEA3E0FF22ECC0
:1021B300F0A3EDF0A3EEF0A3EFF022E0F8A3E0F933
:1021C300A3E0FAA3E0FB22E8F0A3E9F0A3EAF0A37B
:1021D300EBF022CAC0E0E6F0A308DAFAD0E0FA2274
:1021E300CAC0E0E0A3C582CCC582C583CDC583F058
:1021F300A3C582CCC582C583CDC583DAE6D0E0CA48
:1022030022C3E498F8E499F91222458026C3E49A9C
:10221300FAE49BFBE920E7E9122245E498F8E49904
:10222300F922C3E498F8E499F9122245E498F8E412
:1022330099F9C3E49AFAE49BFB22EB20E7CFE92068
:10224300E7E0B90010BB0008E88AF084F8AAF0229E
:10225300E4FBC8FA22EB70227B10C833C8C933C928
:10226300335007C39AC3DBF280069A50012ADBEA94
:10227300C833F4C8C933F4C9FA2275F008E4C83383
:10228300C8C933C933C99AC99B5004C92AC93BD5A4
:10229300F0ECFBC833F4C8E4C9FA22600D08C6A207
:1022A300E713C618C613C6D5E0F322600C08C6C3ED
:1022B30013C618C613C6D5E0F422700422600D18A5
:1022C300C6C333C608C633C6D5E0F4182225181092
:1022D300AF08F518400C15198008F51840021519B8
:1022E300D2AF2200C0D0251810AF08F518500C0546
:1022F300198008F51850020519D2AFD0D02225183D
:10230300F58210AF08F518400C15198008F5184030
:10231300021519D2AF851983222518F582E43519E0
:10232300F583222518F8E43519F9222518FAE4353E
:1023330019FB222518FCE43519FD22E4732518C581
:1023430082C0E0E51934FFC583C0E0E518C3958278
:1023530024F810AF088583198582188008858319AE
:10236300858218D2AFCEF0A3E520F0A37808E60863
:10237300F0A3DEFAEFF0A3E58124FAF8E608F0A370
:10238300E608F0A3E608F0A30808E608F0A3E608C9
:10239300F0A315811581D0E0FED0E0F815811581F9
:1023A3001581E8C0E0EEC0E0222518C582C0E0E553
:1023B3001934FFC583C0E0E518C3958224F910AF33
:1023C300088583198582188008858319858218D228
:1023D300AFCEF0A3E520F0A37808E608F0A3DEFA79
:1023E300EFF0A3E58124FBF8E608F0A3E608F0A3E9
:1023F3000808E608F0A3E608F0A315811581D0E0EC
:10240300FED0E0F815811581E8C0E0EEC0E022853A
:102413001983851882E0A3FEE0A3F5207808E0A3E2
:10242300F608DFFAE0A3FFE0A3C0E0E0A3C0E0E02A
:10243300A3C0E0E0A3C0E0E0A3C0E010AF08858242
:10244300188583198008858218858319D2AFD083B4
:10245300D082020132851983851882E0A3FEE0A3AE
:10246300F5207808E0A3F608DFFAE0A3FFE0A3C0B5
:10247300E0E0A3C0E0E0A3C0E0E0A3C0E010AF0849
:102483008582188583198008858218858319D2AFC0
:10249300D083D08222C0D02518C582C0E0E519348C
:1024A300FFC583C0E0E518C3958224F310AF088508
:1024B30083198582188008858319858218D2AFC84D
:1024C300F0A3E9F0A3EAF0A3EBF0A37908E709F09E
:1024D300A3D8FAECF0A3EDF0A3EEF0A3EFF0A3D0B2
:1024E300E0F0A3D0E0F0A3D0E0F0A3E520F0A3E573
:1024F300F0F0A322851983851882E0C0E0A3E0F9F8
:10250300A3E0FAA3E0FBA37808E0F608A3DFFAE070
:10251300FCA3E0FDA3E0FEA3E0FFA3E0C0E0A3E093
:10252300C0E0A3E0F5D0A3E0F520A3E0A3F5F0100D
:10253300AF088583198582188008858319858218D9
:10254300D2AFD082D083D0E0F8D0E03274048006DA
:10255300740280027401C0E0F404122301D0E0127B
:1025630021D6227404800474028000CCC0E0EDC044
:10257300E0E518C39CCCAD1950011D10AF068C18B3
:102583008D1980068C188D19D2AF1221E3D0E0FD8E
:10259300D0E0FC22D083D082E9C0E0E493A3C386D9
:1025A300F0C5F095F0F908E493A386F0C5F095F033
:1025B300700BE493A3C3994005E9048002A3E47577
:1025C300F002A42582F582E5F03583F583D0E0F9A6
:1025D300E493A3C0E0E493C0E022D083D082ECC0B4
:1025E300E0EDC0E0E493A3FCE493A3FDED4C600DA8
:1025F300122629EC24FFFCED34FFFD80EFE493A3C6
:10260300FCE493A3FDED4C600D122668EC24FFFC63
:10261300ED34FFFD80EFD0E0FDD0E0FCE493A3C0F8
:10262300E0E493C0E022C0E0C3E49396087401930E
:102633009618400FE4936670080874019366187047
:10264300007019A3A3C3E49396087401939618A387
:10265300A3400DD0E0D0E0D0E0022619A3A3A3A3AA
:10266300A3A3D0E022C0E0C0F088F0E49366700832
:102673000874019366187000A8F0A3A3700BD0F040
:10268300D0E0D0E0D0E0022619A3A3D0F0D0E0221E
:1026940074F51223ACEAFEEBFFEE2434F8EF3400B9
:1026A400F988088909EE2435F582EF3400F583E0D2
:1026B400F8EE2437F582EF3400F583E0F50AEC8573
:1026C4000AF0A4FCAAF0850AF0EDA42AFDE82CF88F
:1026D400E43DF97A257B00122245EA8508828509C2
:1026E40083F05407F87401B800028004C333D8FCA3
:1026F400C0E0E0131313541FF8EE28F8EF3400F988
:10270400E8245DF582E93400F583D0E0F8E0586010
:1027140008EE2434F582EF801EEE2436F582EF3481
:1027240000F583E0F5F0EA84A8F0EE28F8EF340031
:10273400F9E82438F582E93400F583E0F97F0402EE
:10274400245874F51223ACEAFEEBFFEE2434F58230
:10275400EF3400F583E0C0E0EE2435F582EF340079
:10276400F583D0E0F08E828F83A3A3A3A3A3A3A3B6
:10277400C082C0838E828F83A3A3A3A3A3E0F8A304
:10278400E0F9D083D082E0C398F508A3E099F50975
:10279400EE2480F582EF3400F583E064017069EE85
:1027A4002481F582EF3400F583E0F8A3E0F98E820A
:1027B4008F83A3A3A3A3A3A3A3E0FCA3E0FD8E8222
:1027C4008F83A3A3A3A3A3E0FAA3E0FBC3EA9CEB38
:1027D4009D5027C3EC98ED99402EC3EA98EB99508D
:1027E400277CAD7D09EEFAEFFB120C54EE2480F544
:1027F40082EF3400F583E4F0800EC3EA98EB99404D
:10280400E0C3EC98ED9950D9EE2434F8EF3400F994
:10281400E8FCE9FDEE2435F582EF3400F583E0F8B9
:10282400EE2437F582EF3400F583E0F50AE50885F8
:102834000AF0A4F508AAF0850AF0E509A42AF50926
:10284400E82508F8E43509F97A257B00122245EADF
:102854008C828D83F05407F87401B800028004C39D
:1028640033D8FCC0E0E0131313541FF8EE28F8EF3C
:102874003400F9E8245DF582E93400F583D0E0F80A
:10288400E0586008EE2434F582EF801EEE2436F51D
:1028940082EF3400F583E0F5F0EA84A8F0EE28F83E
:1028A400EF3400F9E82438F582E93400F583E0F9DF
:1028B400123141022741C082C08385188285198361
:1028C400E0F8A3E0F9C3EA9CEB9D5012C3EC98ED49
:1028D400994019C3EA98EB99501279018010C3EA20
:1028E40098EB9940F5C3EC98ED9950EE7900D083BC
:1028F400D08222EAC39CFAEB9DFB220085218785C6
:1029040022C622C0E0C0D0E8C0E0E9C0E0EAC0E0EE
:10291400EBC0E0ECC0E0EDC0E0C008C009C00AC0F4
:102924000BC082C083C0F0759B00906182E0A2E678
:1029340040030229E5E591A2E640030229E57591E9
:10294400BF900872E064057008120D8C120D988017
:1029540003120D92752100120DF2E9900873F079BB
:1029640000120DE6120BCA7A017B00900871E0F99F
:102974001213FE907803E064426003022A2E900A48
:102984000FE014F06003022A2EC2AF1229920078DD
:102994002AD0E0F618D0E0F6E59F5407F9700590C8
:1029A4008310800390830C780812215DE9C4C0E091
:1029B4007829E65508F50808E65509F509740B78F1
:1029C400081222AED0E02508F8906270E0A2E74039
:1029D400F8E8C333906272F0906270E0D2E0F08065
:1029E40049E0A2E55024E591A2E5501E7591DF90DF
:1029F4000872E0640D7013900894E004F064287089
:102A040002E4F07A00E0F9120E64906181E0A2E33E
:102A14005009E5E9A2E3500375E9F7A3E0A2E75002
:102A240009E591A2E7500375917FD0F0D083D0825D
:102A3400D00BD00AD009D008D0E0FDD0E0FCD0E023
:102A4400FBD0E0FAD0E0F9D0E0F8D0D0D0E032C04A
:102A5400E0C0D0C082C083906183E0A2E05009E569
:102A6400BFA2E0500375BFFEE0A2E15009E5BFA29A
:102A7400E1500375BFFDE0A2E25009E5BFA2E250B8
:102A84000375BFFBE0A2E35009E5BFA2E350037561
:102A9400BFF7E0A2E45009E5BFA2E4500375BFEF1D
:102AA400E0A2E55009E5BFA2E5500375BFDFE0A24F
:102AB400E65009E5BFA2E6500375BFBFD083D082BC
:102AC4008088C0E0C0D0E8C0E0E9C0E0EAC0E0EB44
:102AD400C0E0ECC0E0EDC0E0C0F0E5A7A2E6500F16
:102AE400E5A1A2E6500953A7BF75A1BF122B2BE5A0
:102AF400A7A2E5500CE5A1A2E5500653A7DF75A1F6
:102B0400DFE5A7A2E15009E5A1A2E1500375A1FD0B
:102B1400E5A7A2E2500CE5A1A2E2500653A7FB757B
:102B2400A1FBD0F0022A3C74F81223AC7521019069
:102B34000872E064067015120D208A828B83A3A3A9
:102B4400A3A3A3A3E0FAA3E0FB120D7AA2AFE4339C
:102B5400FED2AF900878E0640170187A207B009070
:102B64000871E0F91215307A207B00900871E0F9C1
:102B7400121404906182E0D2E6F0900A0EE0602123
:102B840085C6228016900877E064017008E5C65473
:102B9400F84405F5C653BEFC122900740165216092
:102BA400E4EEA2E092AF7F01022458008E238F242A
:102BB400858228858327851882851983E0CEA3E042
:102BC400CF852882852783EBC9EAC8EDCBECCA758B
:102BD400F010C3E833C8E933C9EA33CAEB33CBC3D3
:102BE400EA9EF526EB9FF525B35004AB25AA26EC07
:102BF40033CCED33CDD5F0DAAE23AF242274EB120F
:102C040023AC74FA1222D08A088B098C148D159087
:102C14000872E024F7C394055006908350022D6394
:102C2400120D208A0A8B0BAE0AAF0BEE4F70030213
:102C34002D60AC08AD09851882851983AA82AB83FF
:102C4400120DAA8E828F83A3A3780812215D90832C
:102C5400347808122137851882851983780C12215B
:102C64005D908334780C1221377808790C1216E2BF
:102C7400501F7808790C1220F79082B47808121744
:102C8400024047850810850911850A12850B1380B7
:102C940041850C10850D11850E12850F137810795E
:102CA400081220F79082B47810121702501C751085
:102CB400007511007512007513017810790C12203B
:102CC400F7781079081220BE80089083507810128B
:102CD400215D7409781012209F9083607808122176
:102CE4005D78107908121F818E828F83A3A3A3A31A
:102CF400A3A3E0F8A3E0F97AD07B03122245880865
:102D04008909E4F50AF50B781079081220BE7404D9
:102D140012231CE0F8A3E0F97AD07B03122245E8E1
:102D2400FA8A08E4F509781079081216E25007784F
:102D34001079081220F7900872E06408600AE064D1
:102D4400066005E06405701C9082CC7810121702AE
:102D5400501290835478101220D180089083C07848
:102D64001012215D851482851583781012217F74D9
:102D7400061222E67F0E02245874F71223AC120DB9
:102D8400BC900A0CE064017010906245E4F0A3F07A
:102D940053F4F343FE0C5390F3120D68E5C65480CC
:102DA4004449F5C6E59E547F644970F89061857482
:102DB4000FF0900A0AE0F47002A3E0604E900A0B50
:102DC400E0600814601B14602E80407508017509CA
:102DD40000900A0AE078081222BDE508F4528080C7
:102DE4002A750801750900900A0AE078081222BDC4
:102DF400E508F452908014750801750900900A0AD8
:102E0400E078081222BDE508F452A079007F02029E
:102E1400245874F71223ACE9FEEAFF74016E700CB7
:102E24007A807B00900871E0F91213FE905C90E4C4
:102E340093F46008E493F9120BBE800953C680E54D
:102E44009E547F70FA120D6E900A0CE064017003B8
:102E5400120BD6900A0AE0F47002A3E0604B900AC9
:102E64000BE0600814601A14602C803D750801752D
:102E74000900900A0AE078081222BDE50842808021
:102E840028750801750900900A0AE078081222BD25
:102E9400E50842908013750801750900900A0AE05C
:102EA40078081222BDE50842A0120DBC120D208A3A
:102EB400088B09A808A909E8496015E5E170FCE850
:102EC4002414F582E93400F583E0F46003E0F5E1CD
:102ED40074016F700A7A01900871E0F91214A0026B
:102EE4002E1174F11223AC8A088B098C0A8D0B7491
:102EF4000F12231C780C12215D9083347808122160
:102F040037908334780C1221377808790C1216E242
:102F140050157808790C1220F79082B478081217AB
:102F240002401579018013780C79081220F79082F9
:102F3400B4780C12170240EB79007F08022458740D
:102F4400ED1223AC8A088B098C0A8D0B741312239F
:102F54001C780C12215D90833478081221379083F9
:102F640034780C122137780C79081216E240117863
:102F740008790C1220F7AA08AB09AC0AAD0B802221
:102F84007510007511007512007513017810790C15
:102F94001220F7781079081220BEAA10AB11AC12D7
:102FA400AD137F0C022458908334780812215D8A73
:102FB400828B83780812214A7F0402245874F51204
:102FC40023AC8C828D83780812215D8A828B83786E
:102FD40008122123EA2404F8EB3400F98C828D834F
:102FE400A3A3A3A3E0FCA3E0FD88828983C3E09CA0
:102FF400F0A3E09DF088828983C3E09420A3E09449
:103004004E40229082D8780812215D8A828B837880
:10301400081220E48A828B83A3A3A3A3E02420F0D4
:10302400A3E0344EF0808074F51223ACE9FE9009DD
:10303400C4E0FAA3E0FBEEC333F8E433F974B72831
:10304400F582748139F583E02AF508A3E03BF5099C
:10305400780812255390832412218E122BB0740207
:103064001222E68A088B098C0A8D0B7410780812D8
:103074002086AA08AB097F0402245874F11223ACF9
:103084008A0C8B0D8C0E8D0F740F12231CE0FAA387
:10309400E0FB741112231CE0F508A3E0F509741396
:1030A40012231CE0FEA3E0FF7808122553EA240152
:1030B400F508EB3400F509E4F50AF50B780C79080A
:1030C400121F019082B8780812215D780C790812D9
:1030D4001F01AA0CAB0DAC0EAD0F122BB074021273
:1030E40022E68B09EA450960047A0180027A00EC41
:1030F4002AFCED3400FDECF8EDF97A717B02122222
:103104004588088909E4F50AF50B8E828F837808CF
:1031140012217FECF8EDF97A717B021222458A08BC
:103124008B09740578081222BD8E828F83A3A3A312
:10313400A3E508F0A3E509F07F08022458C082C083
:1031440083E9906000F0D083D08222C0E074F21250
:103154002498A2AFE433FED2AFE58AA2E650371238
:1031640011C490154CE064017006901306E004F05D
:1031740090154C7401F0901305F090130FE4F09047
:103184001306E0C394064008E4F0121260121254CD
:10319400121260121254758A00C2EB751A00EEA264
:1031A400E092AF7F010224F7C0E074F2122498A2E7
:1031B400AFE433FED2AFE58BA2E050031211C47525
:1031C4008B00C2E880D5C0E0C0D0E8C0E0E9C0E030
:1031D400A9A8D2AFC2C7751A00E9A2E7E433F8E997
:1031E400A2E792AFD0E0F9D0E0F8D0D0D0E032C07E
:1031F400E0C0D0C082C083C28BE5C190136FF0D011
:1032040083D082D0D0D0E032000000000000000063
:1032140000000000000000000000000000000000AA
:10322400000000000000000000000000000000009A
:10323400000000000000000000000000000000008A
:103244000000000000000000000000000000E0E0BA
:10325400E0000000000000000000000000000FFF7C
:103264000F000000000000000000000000000087C4
:1032740080000000000000000000000000000307C0
:10328400070300000000000000000080E0F8783828
:1032940080E0F87838000000000004030100000416
:1032A4000301000000000000000000000000000016
:1032B400000000000000000000000000000000000A
:1032C40000000000000000000000000000C000003A
:1032D40000000000C000000000181818F81F18189B
:1032E400181818F81F181800003030F03F3030302C
:1032F4003030F03F303030000000000700000000A4
:103304000000070000000000000000000080C04032
:10331400F0404080800000000000001E3F70E0C0CC
:10332400FF80000C0F0F00000000E0E060000001CF
:10333400FF03070EFCF8000000000103020404046C
:103344003F040602010000000080C040C08000006D
:1033540000000080C00000007FFF800080FF7F002D
:10336400C0308E83800000000000010181E0180756
:10337400FDFF010001FFFC00000000060300000047
:10338400000306040603000000000080C04040C0A3
:10339400800000000000000000003FFFC040603FCC
:1033A4000F80808080800000F8FE0301071E78E013
:1033B400C0C03807000080000003030604040402B0
:1033C400010306040402010000003838F8F000008C
:1033D40000000000000000000004060201000000DC
:1033E40000000000000000000000000000000000D9
:1033F40000000000000000000000000000000000C9
:1034040000000000000000000000000000000000B8
:10341400000080C02010080000000000000000E050
:10342400FC1E030000000000000000000000001F5C
:10343400FFE00000000000000000000000000000A9
:103444000003070C1020400000081020C08000007A
:1034540000000000000000000000000000031EFC4B
:10346400E000000000000000000000000000E0FF99
:103474001F00000000000000004020100C070300A3
:103484000000000000000000000000000000000038
:103494000000000000000000000030707060C08672
:1034A400FF86C060707030000000181C1C0C06C23F
:1034B400FFC2060C1C1C18000000000000000001E4
:1034C40001000000000000000000000000000000F7
:1034D40000000000000000000000000000000000E8
:1034E400FE000000000000000000010101010101D4
:1034F400FF010101010101000000000000000000C3
:1035040000000000000000000000000000000000B7
:1035140000000000000000000000000000000000A7
:103524000000000000000000000000000000000097
:1035340000000000000000000080C7473F1E00009C
:103544000000000000000000000000000000000077
:103554000000000000000000000000000000000067
:103564000000000000000000000101010101010150
:103574000101010101010100000000000000000040
:103584000000000000000000000000000000000037
:103594000000000000000000000000000000000027
:1035A4000000000000000000000000808000000017
:1035B40000000000000000000000030707030000F3
:1035C40000000000000000000000000000000000F7
:1035D40000000000C070180000000000000000009F
:1035E400C0701C070100000000000000C0701C0730
:1035F400010000000000000000301C070100000072
:103604000000000000000000000000000080C04036
:103614004040C080000000000000F0FE0F010000E8
:103624000000000107FEF00000001FFFE0000000A2
:1036340000000000C0FF1F0000000000010306049A
:1036440004040603010000000000000000000080E4
:10365400C00000000000000000000001010101FFA3
:10366400FF0000000000000000000000000000FF58
:10367400FF0000000000000000000004040406072E
:1036840007060404040000000000000080404040DD
:103694004040C0808000000000001E1900000000AF
:1036A400000000C17F3E00000000008040201008A0
:1036B4000402010000E000000000070606060606FA
:1036C4000606060607010000000000808040404016
:1036D40040C080800000000000000F0F00008080C8
:1036E40080C0613F1E0000000000E0E00000000018
:1036F40000010103FE780000000001030204040439
:1037040004040203010000000000000000000000A7
:103714000080C0C000000000000000008060300C89
:1037240002FFFFFF0000000000101C121110101017
:1037340010FFFFFF10101000000000000000080838
:10374400080F0F0F0808080000000000C0C0C0C028
:10375400C0C0C0C0C0C00000000000F887402020E6
:10376400202060C0800000000000E0610000000034
:1037740000000080FF7E0000000001020404040435
:10378400040402030100000000000000000080C0E7
:1037940040404040800000000000E0FC0E8180407A
:1037A400404040C08303000000003FFFC30100000D
:1037B4000000000001FF7E00000000000103060479
:1037C4000404040203010000000000C0C0C0C0C023
:1037D400C0C0C0C0C0C0000000000F030100000052
:1037E4008060180601000000000000000000E0FCFA
:1037F40003000000000000000000000000000707B4
:1038040000000000000000000000000080C04040F4
:103814004040C0800000000000001E3F71E0C080F6
:10382400808080613F1E000000F8FC060301000157
:103834000103070EFCF80000000001030204040465
:1038440004040203010000000000008080404040A6
:10385400404080000000000000FCFF030000000066
:1038640000000083FEF800000000818306040404C5
:10387400040283F17F0F0000000003030404040426
:10388400060301000000000000000000000000002A
:103894000000000000000000000000000000C0E084
:1038A400E0C00000000000000000000000000081F3
:1038B4008100000000000000000000000000030779
:1038C40007030000000000000000000000000000EA
:1038D4000000000000000000000000000000606024
:1038E40000000000000000000000000000000000D4
:1038F4000000000000000000000000000000661E40
:1039040000000000000000000000000000000000B3
:10391400000000804020000000000080C0603018DB
:103924000C0603000000000000000103060C183020
:1039340060C08000000000000000000000000000E3
:103944000000010204080000000000000000000064
:103954000000000000000000002020202020202083
:10396400202020202020200000080808080808083B
:10397400080808080808080000000000000000000B
:103984000000000000000000000020408000000053
:103994000000000000000000000000000003060C0E
:1039A400183060C080000000000000000080C0608B
:1039B40030180C0603010000000008040201000096
:1039C40000000000000000000000008040402020B3
:1039D40020202040C080000000001E1F1C000000AA
:1039E4000080C040603F1F00000000000000009EF7
:1039F4008100000000000000000000000000030738
:103A04000703000000000000000000000080C04028
:103A1400404040808000000000F0FC0E0380E0780D
:103A24000C04FCFC0107F800001F7FE0001F3F208E
:103A3400100C3F20308C43000000000103020404FA
:103A44000404040203010000000000000000C0C0E0
:103A5400E00000000000000000000000C07C07013E
:103A64003FFCC000000000000000C07C0704040408
:103A740004077FFC80000000040607040400000023
:103A84000000040707040400004040C0C040404058
:103A94004040C08080000000000000FFFF80808064
:103AA4008080C0613F1F0000000000FFFF00000095
:103AB4000000000103FEF8000004040707040404E6
:103AC4000404040603010000000000000080C0405C
:103AD4004040408080C0000000E0FC0E0300000075
:103AE4000000000001030C00001FFFE000000000C4
:103AF40000000000008060000000000103020404D4
:103B04000404040203010000004040C0C0404040DF
:103B140040C0808000000000000000FFFF000000A3
:103B2400000000010FFEF000000000FFFF00000095
:103B340000000000E07F1F000004040707040404E1
:103B44000406020301000000004040C0C0404040A1
:103B540040404040C0C00000000000FFFF80808063
:103B64008080C0F000030600000000FFFF0000009A
:103B7400000001070000C000000404070704040457
:103B84000404040406070000004040C0C040404054
:103B940040404040C0C0C000000000FFFF80808063
:103BA400808080C0F0000306000000FFFF000000DA
:103BB40000000001070000000004040707040400DB
:103BC4000000000000000000000000008080C040F1
:103BD40040408080C000000000E0FC0E03000000B4
:103BE40000000000030C0000001F7FE080000000C4
:103BF40000000404FCFC04040000000103020404AB
:103C040004040402010100004040C0C04040000020
:103C1400004040C0C04040000000FFFF0000000022
:103C2400000000FFFF0000000000FFFF0101010190
:103C3400010101FFFF000000040407070404000061
:103C4400000404070704040000000040404040C092
:103C5400C04040404000000000000000000000FFA1
:103C6400FF0000000000000000000000000000FF52
:103C7400FF0000000000000000000004040404072A
:103C84000704040404000000000000000040404059
:103C940040C0C04040404000000000000000000060
:103CA40000FFFF0000000000000000000000000012
:103CB40000FFFF00000000000070F0F0808080C072
:103CC400603F1F0000000000004040C0C0404000B2
:103CD400000040C0C0404000000000FFFF0080E042
:103CE400F00C060100000000000000FFFF030001CB
:103CF400071F7CF0C0000000000404070704040050
:103D04000000040407070404004040C0C040400011
:103D14000000000000000000000000FFFF000000A1
:103D24000000000000000000000000FFFF00000091
:103D3400000000000000C00000040407070404049D
:103D440004040404060700004040C0C0C000000092
:103D5400000000C0C0C040400000FF07FFF8800022
:103D640000C07C07FFFF00000000FF00000FFFF011
:103D740078070000FFFF00000404070404000107A3
:103D840000000404070704044040C0C0C000000051
:103D940000004040C04040000000FF010F3FF8E039
:103DA40080000000FF0000000000FF00000000038E
:103DB4000F3EF8E0FF0000000404070404000000C4
:103DC4000000010707000000000000008080404060
:103DD400404080800000000000F0FC0F0100000063
:103DE400000000010FFCF000001F7FE00000000055
:103DF40000000000C07F1F00000000010302040453
:103E04000404020301000000004040C0C0404040E0
:103E1400404040C080000000000000FFFF000000A0
:103E240000000080C17F3E00000000FFFF0101018F
:103E3400010101010000000000040407070404005C
:103E440000000000000000000000000080804040EE
:103E5400404080800000000000F0FE0F01000000E0
:103E64000000000107FCF000001FFFC0806020205C
:103E740060C00000C0FF3F00000000010302040412
:103E840004071F3A31301800004040C0C040404091
:103E94004040C08080000000000000FFFF80808060
:103EA4008080C0613F1F0000000000FFFF00000190
:103EB400073FFCE0000000000004040707040400BE
:103EC40000000107070404000000000080C0404017
:103ED4004040408080C0000000001E7F61C0C08060
:103EE40080800000010700000000608000000001E5
:103EF400010303070EFCF80000000007030204049A
:103F040004040406030100000000C0C0404040C097
:103F1400C040404040C0000000060100000000FF17
:103F2400FF0000000001070000000000000000FF87
:103F3400FF0000000000000000000000000404076F
:103F440007040400000000004040C0C040400000DE
:103F540000004040C04040000000FFFF000000009F
:103F640000000000FF0000000000FFFF0000000050
:103F740000000000FF00000000000003020604042B
:103F84000404020100000000004040C0C0400000E2
:103F94000000004040C04040000000033FFCC0005F
:103FA400000000C03C0300000000000000031FFEEE
:103FB400E0E01E030000000000000000000000011B
:103FC400070100000000000040C0C040400040C0A5
:103FD400C040000040C0C0400003FFFC000000F7E8
:103FE400FFF00000E01F00000000017FFEF00F0062
:103FF400017FFCF80700000000000000070000003B
:104004000000070000000000004040C0C040400025
:10401400004040C040400000000000010F3FF8E0B5
:10402400E01806010000000000000000C0300C038E
:104034000F3EF8C000000000000404070404000060
:1040440000000407070404000040C0C0C040400052
:1040540000004040C0404000000000031F7CF0808E
:1040640000C0380E0100000000000000000003FF43
:10407400FE0100000000000000000000000404072E
:104084000704040000000000000000C0C0404040DD
:10409400404040C0C040000000000601000000C0D5
:1040A400F07C1E0701000000000000C0F07C1F0728
:1040B4000100000000C00000000407070504040418
:1040C4000404040607000000000000000000F808D3
:1040D4000808080808080000000000000000FF00AD
:1040E4000000000000000000000000000000FF00CD
:1040F40000000000000000000000000000003F205D
:104104002020202020200000000000E0C00000004B
:10411400000000000000000000000000031E78C042
:104124000000000000000000000000000000000388
:104134000F78E00000000000000000000000000014
:104144000000010F3C60000000000808080808088F
:1041540008F800000000000000000000000000005B
:1041640000FF00000000000000000000000000004C
:1041740000FF00000000000000002020202020207C
:10418400203F000000000000000000004020101844
:104194000818182040000000000000000000000083
:1041A400000000000000000000000000000000000B
:1041B40000000000000000000000000000000000FB
:1041C40000000000000000000000000000000000EB
:1041D40000000000000000000000000000000000DB
:1041E40000000000000000000000000000000000CB
:1041F40000000000000000008080808080808080BB
:1042040080808080808080800000000000000000AA
:10421400F008080808F0000000000000000000009A
:104224000001010101000000000000000000000086
:10423400000000000000000000000000000000007A
:10424400000000000000000000000000000000006A
:104254000000000000000000000080C0602020205A
:104264002060C0800000000000C0F131180808047C
:104274000404FFFF0000000000010306040404041A
:104284000202030704040300004040C0E0000000F1
:104294000000000000000000000000FFFF8040401C
:1042A40020202060C0800000000000FFFF0100000B
:1042B4000000000000FF7F00000000070303060465
:1042C40004040402030100000000000000000000D8
:1042D400000000000000000000000080C0406020DA
:1042E400202060C08000000000007EFF81000000EC
:1042F4000000000303C000000000000103020404E6
:10430400040404020100000000000000000000009A
:10431400004040C0E000000000000080C060202099
:10432400202040FFFF00000000007EFF010000008D
:10433400000000FFFF000000000000010306040469
:104344000402010703020200000000000000000054
:10435400000000000000000000000080C040202099
:10436400202060C08000000000007EFF880808084C
:10437400080808080F8E000000000001030206046C
:104384000404040203000000000000000000008098
:1043940080C0404040408080000020202020FEFF5C
:1043A4002020202020000303000000000000FFFF65
:1043B40000000000000000000000000404040707DF
:1043C40004040404000000000000000000000000D9
:1043D400000000000000000000000000C040202099
:1043E400202060C0A0606000000000C7FF302020D3
:1043F4002020301F0F0000000000387C43C383835B
:10440400838383C3467E3C00004040C0E00000003C
:104414000000000000000000000000FFFF8040607A
:1044240020202060C0800000000000FFFF0000008A
:1044340000000000FFFF000000040407070404005C
:10444400000004040707040400000000000000C08A
:10445400C0C000000000000000000020202020E177
:10446400F10100000000000000000000000000FF57
:10447400FF00000000000000000000040404040722
:104484000704040404000000000000000000000011
:10449400000000C0C0C000000000000000000020B8
:1044A400202020E1F10100000000000000000000D5
:1044B400000000FFFF00000000000060E08080803A
:1044C40080C0603F1F000000004040C0E0000000CA
:1044D4000000000000000000000000FFFF000000DA
:1044E40000A0E06020200000000000FFFF10080C86
:1044F4003F71E0800000000000040407070404008A
:10450400000005070704040000000040404040C0CC
:10451400E00000000000000000000000000000FFB8
:10452400FF0000000000000000000000000000FF89
:10453400FF00000000000000000000040404040761
:104544000704040404000000000000000000000050
:1045540000000000000000000020E0F0402020E007
:10456400C0402020E0C000000000FFFF000000FF6A
:10457400FF000000FFFF0000000407070400040719
:104584000704000407070400000000000000000006
:104594000000000000000000002020E0F080404007
:1045A40020202060C0800000000000FFFF00000009
:1045B40000000000FFFF00000004040707040400DB
:1045C40000000404070704040000000000000000C9
:1045D400000000000000000000000000C040602057
:1045E40020206040C080000000007EFF81000000A9
:1045F4000000000081FF7E000000000103020404AB
:104604000404040203010000000000000000000094
:104614000000000000000000002020E0F0804020A6
:1046240020202060C0800000000000FFFF00000088
:104634000000000080FF7E00008080FFFF83820472
:104644000404040203010000000000000000000054
:10465400000000000000000000000080C040202096
:10466400202040C0C0E0000000007EFF01000000E8
:1046740000000000FFFF0000000000010306040426
:1046840004048283FFFF808000000000000000001B
:1046940000000000000000000020202020F0F000B6
:1046A4008040602020E0C0000000000000FFFF0305
:1046B40000000000000000000004040404070704D4
:1046C40004040400000000000000000000000000DA
:1046D400000000000000000000000080C0602020F6
:1046E40020202040C0E000000000C003070C0C188C
:1046F40018183030E0C10000000007070204040469
:10470400040404060301000000000000000000008F
:104714000000000000000000000020202030F8FF0E
:104724002020202020000000000000000000FFFFE7
:1047340000000000008000000000000000000103F1
:104744000604040402010000000000000000000050
:104754000000000000000000002020E0F000000045
:1047640000002020E0F00000000000FFFF00000037
:1047740000000000FFFF0000000000010306040425
:10478400040402010703020200000000000000000C
:104794000000000000000000002020E0E0202000D5
:1047A400000020E060200000000000010F7FF8C03E
:1047B400C0380601000000000000000000000307EC
:1047C40001000000000000000000000000000000E4
:1047D40000000000000000002060E0E020002060F5
:1047E400E0E0200020E060200000033FFCC0F00F68
:1047F4000FFFF0C03C0300000000000001070100AF
:10480400000107010000000000000000000000009B
:10481400000000000000000000002020E0E0E02094
:104824000020A060202000000000000000C1671FDD
:104834003C7AE18000000000000404060704000044
:104844000004050706040400000000000000000046
:104854000000000000000000002020E0E020200014
:10486400000020E06020200000000000071FF8E0A6
:1048740000E01C03000000000000C0C08080403F36
:10488400070000000000000000000000000000001D
:1048940000000000000000000000E0602020202054
:1048A40020A0E0E02000000000000100C0E0703C17
:1048B4000E07010000C000000000060707050404FD
:1048C40004040406070100000000000000000000CA
:1048D4000000E010080800000000000000000000D4
:1048E40000807F00000000000000000000000001C4
:1048F4000102FC00000000000000000000000000B5
:1049040000001F20404000000000000000000000E4
:10491400FF00000000000000000000000000000094
:10492400FF00000000000000000000000000000084
:10493400FF00000000000000000000000000000074
:10494400FF000000000000000000080810E0000064
:10495400000000000000000000000000007F800054
:1049640000000000000000000000000000FC020144
:10497400010000000000000000004040201F000073
:10498400000000000000000000180C020202040CE9
:1049940010204040403018000000000000000000DB
:1049A4000000000000000000000000000000000003
:1049B40000000000000000000000000000000000F3
:1049C40000000000000000000000000000000000E3
:1049D4000000000000000000000000F800000000DB
:1049E400000000333000000000100C06100C06001C
:1049F400000000000000000040C07840C078400083
:104A0400043F04043F040400007088FC08300000E4
:104A1400001820FF211E0000F008F000E01800003C
:104A240000211C031E211E0000F0088870000000F5
:104A34001E21232419272110000000384444380083
:104A44000000000000000000000000E01804020064
:104A5400000000071820400000020418E0000000D5
:104A64000040201807000000404080F080404000D3
:104A74000202010F01020200000000F00000000029
:104A84000101011F010101000000000000000000FD
:104A940080B0700000000000000000000000000072
:104AA40000010101010101010000000000000000FB
:104AB4000030300000000000000000008060180496
:104AC400006018060100000000E010080810E00073
:104AD400000F102020100F00001010F8000000003C
:104AE4000020203F20200000007008080888700083
:104AF4000030282422213000003008888848300003
:104B04000018202020110E000000C02010F8000022
:104B140000070424243F240000F8088888080800BB
:104B24000019212020110E0000E0108888180000D0
:104B3400000F112020110E0000380808C8380800A2
:104B44000000003F00000000007088080888700022
:104B5400001C222121221C0000E010080810E000A3
:104B64000000312222110F00000000C0C00000002C
:104B74000000003030000000000000800000000051
:104B84000000806000000000000080402010080049
:104B94000001020408102000404040404040400012
:104BA40004040404040404000008102040800000ED
:104BB4000020100804020100007048080808F000F2
:104BC4000000003036010000C030C828E810E000C2
:104BD4000718272423140B000000C038E00000004D
:104BE400203C23020227382008F8888888700000B7
:104BF400203F202020110E00C0300808080838008B
:104C0400071820202010080008F808080810E00001
:104C1400203F202020100F0008F88888E8081000A2
:104C2400203F20202320180008F88888E808100076
:104C3400203F200003000000C030080808380000AE
:104C440007182020221E020008F808000008F808AF
:104C5400203F210101213F20000808F80808000036
:104C64000020203F2020000000000808F808080069
:104C7400C08080807F00000008F888C028180800E1
:104C8400203F20012638200008F80800000000001A
:104C9400203F20202020300008F8F800F8F8080011
:104CA400203F003F003F200008F830C00008F8080B
:104CB400203F200007183F00E01008080810E0001B
:104CC4000F10202020100F0008F808080808F00032
:104CD400203F210101010000E01008080810E00055
:104CE4000F18242438504F0008F8888888887000EA
:104CF400203F2000030C302000708808080838008A
:104D04000038202121221C00180808F8080818007F
:104D14000000203F2000000008F808000008F80800
:104D2400001F202020201F000878880000C83808B1
:104D3400000007380E010000F80800F80008F80029
:104D4400033C0700073C03000818688080681808C3
:104D540020302C03032C30200838C800C838080041
:104D64000000203F2000000010080808C838080090
:104D74002038262120201800000000FE0202020034
:104D84000000007F40404000000C30C000000000E4
:104D9400000000010638C00000020202FE0000000C
:104DA400004040407F0000000000040202020400B2
:104DB40000000000000000000000000000000000EF
:104DC40080808080808080800002020400000000D7
:104DD40000000000000000000000808080800000CF
:104DE4000019242222223F2008F8008080000000BD
:104DF400003F112020110E00000000808080000080
:104E0400000E112020201100000000808088F8008E
:104E1400000E112020103F200000808080800000C0
:104E2400001F222222221300008080F08888881824
:104E34000020203F2020000000008080808080002F
:104E4400006B94949493600008F8008080800000C4
:104E5400203F210000203F2000809898000000009F
:104E64000020203F202000000000008098980000CF
:104E740000C08080807F000008F8000080808000EF
:104E8400203F24022D302000000808F80000000014
:104E94000020203F202000008080808080808000CF
:104EA400203F20003F20003F808000808080000061
:104EB400203F210000203F200000808080800000EF
:104EC400001F202020201F00808000808000000020
:104ED40080FFA12020110E0000000080808080004F
:104EE400000E112020A0FF80808080008080800040
:104EF40020203F212000010000008080808080006D
:104F04000033242424241900008080E080800000E1
:104F14000000001F2020000080800000008080002E
:104F2400001F202020103F2080808000008080808F
:104F340000010E300806010080800080008080801F
:104F44000F300C030C300F00008080008080800044
:104F54000020312E0E31200080808000008080806F
:104F640080818E701806010000808080808080001F
:104F74000021302C2221300000000000807C02023D
:104F840000000000003F404000000000FF0000005F
:104F940000000000FF0000000002027C800000000E
:104FA4000040403F0000000000060101020204042A
:104FB40000000000000000000000000000000000ED
:104FC40000000000000000000000000000000000DD
:104FD40000000000000000000000000000000000CD
:104FE40000000000000000000000000000000000BD
:104FF40000000000000000000000000000000000AD
:10500400000000000000000000000000000000009C
:10501400000000000000000000000000000000008C
:10502400000000000000000000000000000000007C
:10503400000000000000000000000000000000006C
:10504400000000000000000000000000000000005C
:105054000000000000000000000000C0F8CC7CFC50
:10506400F8F8F8F8F8F8F0F0F0F0F0F0E0E0C0004C
:10507400000000000000000000000000000000002C
:105084000000C0E0E0F0F0F0F0F0F0F8F8F8F8F824
:10509400F8FC7CCCF8800000000000000000000058
:1050A40000000000000000000000000000000000FC
:1050B40000000000000000000000000000000000EC
:1050C40000000000000000000000000000000000DC
:1050D40000000000000000000000E0FFFFFFFEF3FE
:1050E4009FFFFFFFFFFFFFFFFFFFFFFFFFFFFFFF2C
:1050F400FEFCF8F0C080000000000080E0F0F8FC46
:10510400FEFFFFFFFFFFFFFFFFFFFFFFFFFFFFFFAC
:105114009FF3FEFFFFFFC00000000000000000003E
:10512400000000000000000000000000000000007B
:10513400000000000000000000000000000000006B
:10514400000000000000000000000000000000005B
:10515400000000000000000000F0FFFFFFFFFFFF61
:10516400FFFCE73FFFFFFFFEFDFB0F1F3FFFFFFFBD
:10517400FFFFFFFFFFFFFFFEFCFEFFFFFFFFFFFF40
:10518400FFFFFF7F3F1F0FFBFDFEFFFFFF3FE7FC1D
:10519400FFFFFFFFFFFFFFE0000000000000000032
:1051A40000000000000000000000000000000000FB
:1051B40000000000000000000000000000000000EB
:1051C40000000000000000000000000000000000DB
:1051D4000000000000000000F8FFFFFFFFFFFFFFDA
:1051E400FFFFFFFFFDF7BFFFFF1F000000000103EB
:1051F400070F3F7FFFFFFFFFFFFFFFFFFF7F3F0F13
:10520400070301000000003FFFFFBFF7FDFFFFFFA2
:10521400FFFFFFFFFFFFFFFFF000000000000000A2
:10522400000000000000000000000000000000007A
:10523400000000000000000000000000000000006A
:10524400000000000000000000000000000000005A
:1052540000000000000000FCFFFFFFFFFFFF7F7F56
:105264007F7F3F3F3F3F1F1E1700000000000000EC
:10527400000000000001070F1F0F030100000000E1
:105284000000000000000000171E1F3F3F3F7F7F0B
:105294007F7FFFFFFFFFFFFFFFF80000000000001B
:1052A40000000000000000000000000000000000FA
:1052B40000000000000000000000000000000000EA
:1052C40000000000C0C0C0C0C08000C0C0C0C0C0DA
:1052D400C0000080C0C0C0C1C1C1C1800000C0C046
:1052E400C0C0C0C0C0C0800000C0C0C0C0C0C0C07A
:1052F400C000000000000000000080C0C0C0C0C0AA
:10530400C08000C0C0C0000000C0C0C0C000000019
:105314000080C0C0C0C0C101010100C0C0C0C00045
:10532400C0C0C0C0C0C000C0C0C0C00000000000F9
:105334000000000000000000000000000000000069
:10534400000000003F3F3F031F1F1E1F073F3F3F5A
:105354003F000F1F3F3F3030303F3F1F0F003F3FA4
:105364003F3F0C1E3F3F3721003F3F3F3F3636361D
:105374003000060E0E0E0E04000F1F3F3F3030307B
:105384003030003F3F3F0606063F3F3F3F00303C82
:105394003F3F0F0D0D0F3F3F3C30003F3F3F3F006D
:1053A4003F3F3F3F071F3F3D3F3F3F00000000009E
:1053B40000000000000000000000000000A04C45B8
:1053C4000000803F007042450000004000D0384596
:1053D4000000404000C02F450000804000202745C9
:1053E4000000A04000101F450000C04000601745A9
:1053F4000000E04000201045000000410040094545
:105404000000104100C00245000020410020F94482
:10541400000030410080ED44000040410060E2445F
:10542400000050410000D844000060410000CE4418
:105434000000704100A0C4440000804100A0BB44AF
:10544400000088410020B344000090410020AB4498
:10545400000098410080A3440000A04100409C4407
:105464000000A841004095440000B04100C08E44B3
:105474000000B841008088440000C04100A082447C
:105484000000C84100007A440000D04100406F444D
:105494000000D841000065440000E04100405B4446
:1054A4000000E841000052440000F041004049443B
:1054B4000000F84100C040440000004200C03844ED
:1054C40000000442004031440000084200C0294466
:1054D40000000C42000023440000104200401C4421
:1054E400000014420000164400001842000010445A
:1054F40000001C4200400A440000204200C0044452
:10550400000024420000FF43000028420000F5434D
:1055140000002C420080EB43000030420080E24354
:10552400000034420080D943000038420000D143D7
:1055340000003C420000C943000040420080C143D7
:10554400000044420000BA43000048420000B34354
:1055540000004C420080AC43000050420000A643CF
:10556400000054420000A0430000584200009A4347
:1055740000005C42008094430000604200008F43BE
:105584000000644200008A43000068420000854332
:1055940000006C420000804300007042000077432A
:1055A4000000744200006E4300007842000066432D
:1055B40000007C4200005E4300008042000056432D
:1055C4000000824200004F43000084420000474331
:1055D40000008642000041430000884200003A4334
:1055E40000008A420000344300008C4200002E4335
:1055F40000008E4200002843000090420000224335
:105604000000924200001D43000094420000184331
:1056140000009642000013430000984200000E432D
:1056240000009A420000094300009C420000054328
:1056340000009E42000000430000A0420000F84227
:105644000000A2420000F0420000A4420000E84230
:105654000000A6420000E2420000A8420000DA4234
:105664000000AA420000D4420000AC420000CC4238
:105674000000AE420000C6420000B0420000C0423A
:105684000000B2420000BA420000B4420000B4423A
:105694000000B6420000B0420000B8420000AA4236
:1056A4000000BA420000A4420000BC420000A04234
:1056B4000000BE4200009C420000C042000096422E
:1056C4000000C242000092420000C44200008E4228
:1056D4000000C64200008A420000C8420000864220
:1056E4000000CA42000082420000CC4200007C421A
:1056F4000000CE42000074420000D04200006C4220
:105704000000D242000068420000000000000000D7
:10571400002F000000000700070000147F147F140E
:1057240000242A7F2A120062640813230036495594
:10573400225000000503000000001C22410000006C
:1057440041221C000014083E08140008083E080802
:10575400000000A06000000808080808000060605D
:105764000000002010080402003E5149453E00009C
:10577400427F4000004261514946002141454B317E
:10578400001814127F10002745454539003C4A494A
:1057940049300001710905030036494949360006BC
:1057A4004949291E00003636000000005636000024
:1057B400000814224100001414141414000041229F
:1057C400140800020151090600324959513E007C77
:1057D4001211127C007F49494936003E4141412261
:1057E400007F4141221C007F49494941007F09094A
:1057F4000901003E4149497A007F0808087F0000FA
:10580400417F4100002040413F01007F08142241B4
:10581400007F40404040007F020C027F007F04086C
:10582400107F003E4141413E007F09090906003EC8
:105834004151215E007F09192946004649494931F1
:105844000001017F0101003F4040403F001F204014
:10585400201F003F4038403F0063140814630007D2
:105864000870080700615149454300007F41410029
:1058740000552A552A55000041417F0000040201C9
:1058840002040040404040400000010204000020A7
:1058940054545478007F48444438003844444420E5
:1058A40000384444487F00385454541800087E0992
:1058B40001020018A4A4A47C007F0804047800005A
:1058C400447D4000004080847D00007F1028440017
:1058D4000000417F4000007C04180478007C080428
:1058E400047800384444443800FC24242418001864
:1058F400242418FC007C0804040800485454542050
:1059040000043F444020003C4040207C001C2040D8
:10591400201C003C4030403C004428102844001C1B
:10592400A0A0A07C004464544C4414141414141413
:1059340000C0C101C30302C2C60607C705C5C4042B
:10594400CC0C0DCD0FCFCE0E0ACACB0BC90908C89B
:10595400D81819D91BDBDA1A1EDEDF1FDD1D1CDC8B
:1059640014D4D515D71716D6D21213D311D1D010FB
:10597400F03031F133F3F23236F6F737F53534F4EB
:105984003CFCFD3DFF3F3EFEFA3A3BFB39F9F8385B
:1059940028E8E929EB2B2AEAEE2E2FEF2DEDEC2C4B
:1059A400E42425E527E7E62622E2E323E12120E0BB
:1059B400A06061A163A3A26266A6A767A56564A4AB
:1059C4006CACAD6DAF6F6EAEAA6A6BAB69A9A8681B
:1059D40078B8B979BB7B7ABABE7E7FBF7DBDBC7C0B
:1059E400B47475B577B7B67672B2B373B17170B07B
:1059F400509091519353529296565797559594546B
:105A04009C5C5D9D5F9F9E5E5A9A9B5B99595898DA
:105A1400884849894B8B8A4A4E8E8F4F8D4D4C8CCA
:105A2400448485458747468682424383418180403A
:105A340000C1814001C0804101C0804100C181405A
:105A440001C0804100C1814000C1814001C080414A
:105A540001C0804100C1814000C1814001C080413A
:105A640000C1814001C0804101C0804100C181402A
:105A740001C0804100C1814000C1814001C080411A
:105A840000C1814001C0804101C0804100C181400A
:105A940000C1814001C0804101C0804100C18140FA
:105AA40001C0804100C1814000C1814001C08041EA
:105AB40001C0804100C1814000C1814001C08041DA
:105AC40000C1814001C0804101C0804100C18140CA
:105AD40000C1814001C0804101C0804100C18140BA
:105AE40001C0804100C1814000C1814001C08041AA
:105AF40000C1814001C0804101C0804100C181409A
:105B040001C0804100C1814000C1814001C0804189
:105B140001C0804100C1814000C1814001C0804179
:105B240000C1814001C0804101C0804100C1814069
