:020000040000FA
:0600000002011A022A07AA
:03002B0002316C33
:0300330002314E49
:03005300022A7A04
:03007B000231034C
:100083000228BBE5C754F84401F5C77901220000F3
:100093000080FB120086B90003020104E479217891
:1000A30008B800028004F709D8FCE479297802B87B
:1000B30000028004F709D8FCE490028178EA791100
:1000C3008002F0A3D8FCD9FA781A90014A7A01BACF
:1000D30000028007E493A3F608DAF97A6A7B1390A7
:1000E300014B78A879048015E493A3AD82AE838A8B
:1000F300828B83F0A3AA82AB838D828E83D8E9D9C6
:10010300E77582E47583A6740412012C75829175D8
:100113008300740012012C75D00075813F7518811E
:10012300751902759F00020096C09FF59FE473D076
:100133009F22D083D082C09FE493C0E0740193C018
:10014300E0740293F59F2201FF0000B40000280031
:100153002800283075A000A000A000A0000008001F
:1001630008E001F000100010001000100010001053
:100173000050005000500010001000D00700000095
:100183000000000F0001000500307507001000019A
:100193000081FF0000FF140732071A07FF02020263
:1001A30008025000A0000000E80302B3830100002E
:1001B300978302AF83010000BF1302AB83010000EA
:1001C300620702AF83010000C01302A9830100008C
:1001D300780702AF83010000C11302A78301000067
:1001E3007A0702AF83010000C21302A5830800004F
:1001F3007B0702AF83010000C31302A38301000046
:10020300C413FF0100FF2002B383010000A0830297
:10021300AF83010000281402B7830000000000022E
:10022300AD83030000C807F60CF60CF60CF60CF6CB
:100233000CF60CF60CF60CF60CF60CF60CF60CF6AB
:100243000C840F9C0F7E0F020202020202020202C2
:10025300010D000000100102B3830100009D830221
:10026300AF83010000691402CD830100000B0C026F
:10027300AF830100006A1402CB83010000AE810248
:10028300AF830100006B1402C98301000085810262
:10029300AF830100006C1402C783010000E18002F8
:1002A300AF830100006D1402C583010000058102C4
:1002B300AF830100006E1402C383010000178102A3
:1002C300AF830100006F1402C183010000CF8002DD
:1002D300AF83010000701402BF8301000093810209
:1002E300AF83010000711402BD8301000072140189
:1002F300E803053F10FFFFFF00013075030201060D
:1003030000000000000000000000000000000000EA
:10031300000000000000000000000000FFFF0600D6
:10032300800CE803010B0953686F775747756172B7
:1003330064051220032003020A000201060302F0EF
:10034300FF426C7565546F6F746800000000000015
:10035300000000000000A8150000CC150A436861E6
:100363007261637465726973746963203100024357
:1003730068617261637465726973746963203200C2
:100383000843686172616374657269737469632099
:1003930033001043686172616374657269737469D1
:1003A3006320340002436861726163746572697328
:1003B3007469632035001643686172616374657202
:1003C30069737469632036001A43686172616374E8
:1003D3006572697374696320370002B38301000097
:1003E3009A8302AF830100007E1502D783030000C6
:1003F300101302E1830100007F1502AF83010000A7
:10040300901502D983010000111302E1830100005A
:10041300911502AF83010000A21502DB83020000E5
:10042300121302E183010000A31502AF8301000050
:10043300B41502DD83000000131302AD8303000033
:10044300141302E183010000B51502AF830100001C
:10045300C61502DF830400001A1302E183010000C2
:10046300C71502AF83010000D81502B5830300004E
:100473001F1302AD83030000331302E18301000065
:10048300D91502AF83010000EA1502BB8303000004
:10049300391302AD830300004D1302E18301000011
:1004A300EB15303132333435363738394142434432
:1004B300454600286E756C6C20706F696E746572AA
:1004C3002900303132333435363738396162636469
:1004D3006566003F3F3F000000807F0000803FF9DA
:1004E300021550B743BA5100E7DB2E0000A04012BB
:1004F3000135FAD70112013538E10112013507E25E
:100503000112013501E401120135F4E5011201354F
:10051300ECE6011201357A9A04120135919A04121C
:100523000135C09A04120135F99A04120135219B51
:10053300041201354F9B04120135669B04120135E9
:100543007D9B04120135939B04120135BA9B04125F
:100553000135CD9B04120135E39B04120135F69B53
:10056300041201351B9C041201358F9703120135C8
:100573008E9803120135C39803120135E4980312D0
:100583000135F49803120135159903120135219AA7
:1005930003120135EE9A03120135619B03120135F3
:1005A300E79B031201352A9C03120135619C031258
:1005B3000135E79C03120135B99D03120135179EDE
:1005C300031201352F9E03120135A99E0312013533
:1005D300AC9E03120135AF9E03120135569F0312E1
:1005E30001356E9F031201359E9F03120135BE9F95
:1005F30003120135ACA00312013562A103120135C8
:100603006BE00312013593E003120135C1E00312DD
:100613000135F8E00312013560E103120135A9E168
:1006230003120135F4E10312013532E203120135FD
:100633006FE2031201359DE20312013544E3031215
:1006430001354EE3031201355BE3031201358EE3FB
:100653000312013550E4031201355CE40312013542
:1006630074E4031201357EE40312013523FF011202
:10067300013531FF0112013549FF0112013561FFD7
:1006830001120135A49E02120135429F0212013567
:10069300BA9F02120135CFA00212013509A102123D
:1006A3000135B2A10212013587A202120135EBA373
:1006B3000212013542A402120135C9A40212013506
:1006C300B0A502120135FDA5021201358BA6021257
:1006D3000135AFA60212013584A802120135C5A85F
:1006E30002120135E7A80212013568A90212013589
:1006F30052AA0212013518AB021201353ABA03129B
:1007030001350CBB03120135B5BB03120135F8BB30
:100713000312013585BC0312013511BD03120135E6
:10072300F2BD0312013521BE031201351DBF0312B1
:10073300013565BF0312013567C003120135ABC034
:1007430003120135D1C0031201357FA5041201350F
:100753003EFA0312013554FA031201357AFA0312F1
:100763000135A2FB03120135ACFB0312013505FD74
:100773000312013505FE03120135A9CC031201351D
:10078300DECD0312013511CE031201355BCE031208
:10079300013519D00312013500800212013563803F
:1007A30002120135A88102120135B8810212013506
:1007B300DB8102120135268202120135CB8202123D
:1007C3000135C183021201358B8402120135038680
:1007D30002120135458602120135E3860212013504
:1007E30030870212013556870212013544890212FD
:1007F30001354989021201352A8B021201357E8B9C
:1008030002120135E08B02120135088C0212013508
:10081300AC8C021201356E8D021201359F8D0212CE
:100823000135A28D02120135EA8D021201352C8E9B
:1008330002120135938E02120135419204120135E1
:100843005492041201356D9204120135B8920412C8
:1008530001359393041201352294041201356D94EA
:1008630004120135205C001201352C5C00120135A5
:10087300655C00120135AA5C00120135615D00124E
:100883000135E75D001201354C5E00120135785EDB
:1008930000120135B15E00120135C5600012013549
:1008A300A162001201358C6400120135C365001288
:1008B30001352368001201350F6900120135556AAD
:1008C30000120135626B001201357F6B0012013596
:1008D300B76B00120135D16B00120135396C001270
:1008E3000135D37000120135747100120135C571E1
:1008F30000120135EC71001201353A720012013514
:10090300587200120135AC72001201358573001262
:1009130001350C7500120135947500120135C1DBE8
:1009230003120135CBDB0312013596DC03120135CB
:10093300B1DC03120135D7DC031201351BDD0312D1
:10094300013553DD031201357CDD03120135F5DD7D
:10095300031201350ADE031201351FDE03120135CE
:1009630056DE031201356ADE031201359BDE0312E4
:100973000135D5DE0312013501DF0312013557DFDF
:1009830003120135ABDF03120135F4DF0312013526
:100993001EE00312013543E00312013552F6031240
:1009A30001351CF703120135FFF70312013575F802
:1009B30003120135B7F803120135E4F903120135C7
:1009C3009AF202120135C3F202120135DCF202126D
:1009D300013521F402120135FFF4021201351EF52F
:1009E30002120135ABF502120135EEF502120135A3
:1009F3003BF702120135DAF70212013559FA0212F6
:100A03000135F0FA02120135C4FB02120135A6FCCE
:100A13000212013512FE02120135A5FE0212013542
:100A230085A004120135EEA00412013542A104127F
:100A3300013569A1041201359DE9031201350AEA62
:100A43000312013555EA031201354AEB031201354E
:100A530046EC0312013530ED03120135FB7500122C
:100A630001353D7600120135177700120135F07715
:100A730000120135EB7800120135CA7900120135F5
:100A8300367A00120135FD7A00120135687B0012B7
:100A93000135CF7B00120135FA7B001201356B7CE7
:100AA30000120135FE7C00120135677D001201350D
:100AB3007C7D00120135C47D00120135DD7D0012FD
:100AC3000135427E00120135457E001201352C8727
:100AD300041201355487041201359287041201353B
:100AE300508804120135BB8804120135D7880412DB
:100AF3000135FF88041201352F89041201353E891F
:100B030004120135B88904120135DE890412013556
:100B1300CBBB02120135A8BD02120135A3BF0212DD
:100B2300013576C002120135C1C0021201350CC174
:100B3300021201351EC1021201355EC102120135D6
:100B430093C102120135DFC1021201350EC2021236
:100B5300013531C2021201357EC20212013507C3CB
:100B63000212013514C502120135FFC60212013506
:100B730042C702120135A7C802120135E8C80212A2
:100B830001355BC902120135A7C902120135D2C969
:100B9300021201350080031201352B800312013547
:100BA300128703120135368903120135F18A0312C4
:100BB30001354E8C03120135E683011201357D8424
:100BC30001120135AA8401120135F08401120135A5
:100BD3002F8601120135C6870112013540880112A3
:100BE30001355B8801120135D08801120135FF8977
:100BF300011201355A8B011201355C8C011201354A
:100C0300B98D01120135D28D011201352F8E0112DA
:100C13000135118F01120135448F01120135B48F53
:100C2300011201352E90011201357D90011201351B
:100C33004991011201354E92011201352D93011292
:100C43000135B893011201352694011201359A94A6
:100C530001120135C3940112013582950112013548
:100C6300FC960112013519970112013538970112CB
:100C73000135C99701120135EE9701120135169816
:100C830001120135919801120135EB9801120135DA
:100C93003F9A01120135FC9A01120135CF9B0112D3
:100CA3000135FCC9021201354CCA0212013558CA7A
:100CB3000212013535CB0212013565CB0212013523
:100CC3009DCB021201351CCC0212013554CC021209
:100CD3000135A6CC02120135E3CC0212013508CF4F
:100CE3000212013534D1021201352FD3021201351C
:100CF3000AD502120135155C0012013542B2011208
:100D030001358CB2011201356BB801120135ECB912
:100D1300011201354BC00112013546C101120135E3
:100D230083C101120135A6C101120135E8C10112C7
:100D33000135F1C101120135FBC101120135E7C2D1
:100D430001120135DBC301120135FD9B011201358F
:100D530075A6011201357BA60112013587AD01127B
:100D63000135008004120135968004120135AC80F0
:100D7300041201352681041201357C8104120135E8
:100D8300BA810412013517820412013594820412C8
:100D930001359D8204120135A98204120135BC82FA
:100DA30004120135F882041201350E830412013551
:100DB3006D8304120135F2ED03120135FFED0312C9
:100DC300013519EE0312013558EE0312013596EE83
:100DD30003120135FBEE0312013510EF0312013547
:100DE3001BEF0312013528EF031201353FEF031206
:100DF30001354DEF0312013558EF0312013564EF4E
:100E03000312013573EF031201357EEF031201352F
:100E1300A1EF031201354AF0031201355AF0031210
:100E2300013574F00312013591F003120135ADF071
:100E330003120135D2F003120135DCF00312013540
:100E4300F0F0031201350FF10312013570F10312B3
:100E5300013576F1031201357CF10312013582F17C
:100E6300031201358EF103120135C1F1031201356D
:100E7300D0D70212013552D802120135FBD8021223
:100E8300013543DA0212013551DC0212013537DD37
:100E9300021201356CDD021201358EDD02120135BD
:100EA30037DE0212013507E00212013530E002128B
:100EB3000135A8E002120135DAE002120135E7E05C
:100EC3000212013532E10212013556E102120135F7
:100ED300A7E302120135B1E4021201350DE5021256
:100EE30001354DAD021201355EAE0212013542AF3E
:100EF300021201354CAF021201356EAF02120135F9
:100F03007AAF021201351EB1021201354BB1021242
:100F1300013561B202120135B6B20212013505B4D0
:100F230002120135DAB40212013536B50212013567
:100F3300A1B502120135D6B50212013519B6021256
:100F43000135E3B802120135FBB8021201358CB941
:100F5300021201359AB902120135E7B902120135BD
:100F6300F5B90212013561BA02120135DCBA021277
:100F7300013533BB02120135718C03120135938C99
:100F830003120135A48E0312013563910312013557
:100F93008D92031201354B930312013537940312DB
:100FA30001350FFE0312013534FE03120135AAFE8B
:100FB3000312013506F8011201350FF8011201354C
:100FC30018F801120135F0F801120135A1FA0112E6
:100FD3000135D1FA01120135FCFA011201352CFB5E
:100FE3000112013557FB011201358BFB011201354B
:100FF300B7FB01120135FAFB0112013525FC011281
:1010030001356CFC01120135C1FC0112013503FDF0
:10101300011201355DFD0112013588FD0112013513
:10102300D7FD0112013507FE0112013532FE01120F
:10103300013560FE0112013583FE0112013508A658
:101043000412013534A60412013561A604120135D8
:101053006BA6041201357BA6041201353FA70412C7
:101063000135268A041201354B8A04120135758A2B
:10107300041201354DC7031201354FC80312013560
:10108300EBC80312013530C90312013538CA031204
:101093000135A8CB031201350ECC03120135DCA7B1
:1010A30004120135F3C501120135D3C7011201350D
:1010B3008FC9011201357CCA0112013503CB01121C
:1010C30001357DCB01120135AECB0112013525CFA0
:1010D30001120135A1CF0112013592D00112013560
:1010E300CAD0011201350DD10112013544D20112CA
:1010F300013599D201120135D0D20112013542D303
:101103000112013569D30112013583D3011201356F
:1011130075D40112013585D40112013521D601128E
:10112300013538D6011201356AD601120135BBD714
:101133000112013597A304120135A8A30412013546
:1011430043A40412013593A704120135D2A7041254
:101153000135E07F001201351CFF021201352CFF1F
:101163000212013544FF02120135F8FF0212013564
:101173009AA1041201351EA20412013584A204129D
:1011830001354AF2031201357AF203120135CEF228
:10119300031201356AF3031201352EF403120135EC
:1011A300AAF4031201352D9C04120135529C04123A
:1011B3000135BA9C04120135D99C04120135239DD3
:1011C300041201357C9D04120135BB9D04120135C7
:1011D300BE9D0412013502AA0312013527AA031288
:1011E300013544AA0312013561AA0312013585AA08
:1011F30003120135B2AA03120135C5AA0312013540
:10120300D8AA03120135FCAA0312013527AB031236
:101213000135D9AB0312013557AC031201357BAC51
:1012230003120135C1AD0312013518AE03120135A6
:1012330041AF03120135BBAF0312013504B00312F2
:1012430001350DB0031201351AB00312013524B074
:10125300031201352EB00312013541B003120135DB
:101263004AB00312013553B00312013564B00312BF
:1012730001359DB103120135E3D603120135FAD6C8
:101283000312013573D7031201354CD8031201350C
:101293000ADB031201356FDB03120135AEDB0312E8
:1012A3000135F87F00120135979404120135189621
:1012B30004120135799604120135BF9604120135E3
:1012C3001F8D04120135388D04120135628D04120D
:1012D30001357C8D041201358B8D04120135A28DED
:1012E30004120135B18D04120135C68D0412013586
:1012F300FD8D041201351F8E04120135438E041235
:101303000135828E04120135B98E041201350E8F18
:1013130004120135508F041201359DA204120135C8
:10132300CFA204120135EEA204120135FAA204126F
:10133300013555A30412013581A3041201359D83A0
:1013430004120135F48304120135CA8504120135F0
:10135300399F04120135749F041201351AA0041237
:1013630001352FA004120135C79D04120135F09DEC
:1013730004120135199E04120135B29E041201357F
:10138300F49E04120135CDA103120135D7A1031236
:10139300013517A20312013560A2031201359AA287
:1013A30003120135F4A20312013513A3031201350D
:1013B300B5A503120135BEA5031201350FA603120D
:1013C300013538A60312013542A603120135AEA634
:1013D3000312013542A703120135A1A703120135F8
:1013E300CFA7031201354FA80312013592A80312A8
:1013F3000135CDA803120135DFA803120135FEA87C
:101403000312013507A903120135D6A903120135C9
:10141300697E00120135BC7E00120135287F00125F
:101423000135907F00120135D68F041201350090EB
:1014330004120135D59004120135C9910412013506
:10144300CFD103120135C4D203120135DED2031208
:101453000135EFD20312013524D50312013544D5EA
:1014630003120135C29604120135F89604120135B0
:101473003197041201358A98041201354EA40412DF
:10148300013564A4041201356EA404120135B8A415
:101493000412013585A60412013527B20312013562
:1014A300E4B2031201351FB30312013547B303122C
:1014B3000135A9B303120135F5B30312013559B44C
:1014C30003120135D3B403120135D5B50312013527
:1014D30088B7031201350AB8031201356FB8031236
:1014E300013586B8031201358FB903120135CDB921
:1014F3000312013513E5031201352CE503120135FF
:10150300CDE5031201350DE60312013526E603127C
:10151300013559E603120135A6E603120135DAE671
:10152300031201351CE70312013526E903120135C5
:1015330090E9031201355AE502120135BDE80212A2
:10154300013539EA0212013590EA02120135ADEA9A
:10155300021201352BEB02120135B6EC02120135F2
:101563009AED0212013527F102120135F7F1021249
:101573000135C49804120135CE9804120135DE9862
:1015830004120135869904120135CA9904120135F2
:10159300119A04120135509A041201355D8F02121B
:1015A3000135229302120135A39302120135DC9413
:1015B30002120135EE9702120135F098021201353D
:1015C300159A02120135CB9A021201350E9C0212B2
:1015D300013546C103120135A1C103120135BEC154
:1015E3000312013512C303120135BEC303120135C1
:1015F300BDC4031201359DC603120135ECC60312A7
:1016030001352BE80112013549ED0112013521A8FD
:1016130004120135E9A40412013513A5041201359E
:10162300C8FF031201354DA80412013576A804E75B
:101633006670100809E766700A0809E7667004080F
:1016430009E76622E066701008A3E066700A08A343
:10165300E066700408A3E06622C3E7960809E796EC
:101663000809E7960809E796A2D265D03322C3E0BA
:101673009608A3E09608A3E09608A3E096A2D26595
:10168300D03322C008C3E096F50808A3E0964208C9
:1016930008A3E096420808A3E0964208A2D265D0C8
:1016A30033E5087001D3D00822C3E7960809E7960B
:1016B3000809E7960809E79622C3E09608A3E0968F
:1016C30008A3E09608A3E09622C008C3E096F508B5
:1016D30008A3E096420808A3E096420808A3E09610
:1016E30045087001D3D00822080808E630E7111234
:1016F300200D121703080808C64480C618181822BC
:10170300181818E9799EC608CAC608CBC608CCC6FD
:10171300C370207996CACBCC7019798ECBCC701359
:101723007986CC700EF9802ACA33CACB33CBCC333B
:10173300CC331930E7F2CCCBCA3350147004EA30FF
:10174300E00DE4CA3ACACB3BCBCC3CCC500209C334
:10175300E913C6CC182313C6CB18C6CA18C6F92278
:101763001217A320F01430E72B74FFFCFBFA747FED
:101773008022E4FCFBFA7480801AB48008BC00F277
:10178300BB00EF800F50EBF9E4C39AFAE49BFBE450
:101793009CFCE499C6CC18C6CB18C6CA18C6F92255
:1017A300E4C9C608CAC608CBC6D3330308CCC633BC
:1017B30092F0C3947F402E94184019C9B90704CA04
:1017C300CBCC225025C309CA33CACB33CBCC33CCC1
:1017D30033D9F422F4600DC9CCC313CB13CBCA1392
:1017E300CAD9F6CC22E4FCFBFA2214FCFBFA22E66B
:1017F3002618461846184622E72719471947194756
:1018030022181818E60846087009E626087005E647
:1018130033F4220822191919E70947097009E72740
:10182300097005E733F4220922E6084608C3134684
:1018330008336002E633F422E7094709C313470973
:10184300336002E733F42212182C602512183B6030
:10185300201217F270030217FB080808E7667010DE
:101863001819E766700A1819E76670041819E7660D
:1018730022F42212182C601C12183B60171217F264
:1018830070071217FB7001D322C0D01217FB70062A
:10189300D0D0B322C32233D0D0501430E0F6C3E704
:1018A300960809E7960809E7960809E796B3222000
:1018B300E0D5E6970809E6970809E6970809E69749
:1018C300B32212182C601B12183B60161217F27009
:1018D300071217FB600CB322C0D01217FB7005D0A0
:1018E300D022C32233D0D0501330E0EBC3E79608A5
:1018F30009E7960809E7960809E7962220E0E4E657
:10190300970809E6970809E6970809E6972200125F
:10191300182C604F12183B6012E7548066F61218B9
:101923000470111217FB703B090909F4F618F61835
:10193300F618F62212181870151217F20808086024
:10194300EAE6447FF618768018E4F618F6221217B2
:10195300F260161217FB7012E4F608F608F608E6B2
:101963005480F609090918181822EAC0E0EBC0E010
:10197300ECC0E0EDC0E0E687F0A4FBACF008E6873E
:10198300F0A42CFCE435F0FA1809E687F0A42C4BFC
:1019930060027401CA35F0FCE433FB09E687F0D238
:1019A300F7A42CCB35F0FC1908E687F0A42BCC3533
:1019B300F0FBE433FD0819E687F0D2E7A42C4ACB09
:1019C30035F0CD3400FC09E687F0D2E7A42DCC3501
:1019D300F0FDE433FA0918E687F0D2F7A42CCD35ED
:1019E300F0CA3400FC08E687F0D2E7D2F7A42ACC89
:1019F30035F07A7E20E70B0ACB33CBCD33CDCC3316
:101A0300CC33CB3350147004ED30E00ED2F1E4CD7F
:101A13003DCDCC3CCC3B5005DA05C2F1EB547FC63F
:101A23003308E63392F0FBE73309E733C39A502DCB
:101A33002B70190C0D4C4D70151806E608C3337046
:101A43000D20F10AA2F013F6E418800B4024E4F60B
:101A530030F002768018F618F618F68024D33B147B
:101A6300501074FFA2F013F6187680E418F618F6F7
:101A7300800FA2F013F618E63303F618ECF618ED10
:101A8300F6D0E0FDD0E0FCD0E0FBD0E0FA22121863
:101A93003B604612182C603DE9687008F618F6188A
:101AA300F618F622748067F7121AC50909097480BB
:101AB30067F72212182C601D12183B7005191919AB
:101AC300801A121804701F121818C37003E66733C4
:101AD30019191940071818182208080874FFF6186E
:101AE300F618F618F62212181860171217FB702151
:101AF30092F01217F27019501720F0140808080911
:101B03000909E7F61819E7F61819E7F61819E7F6B9
:101B1300221217F260E6E869701F0808E62480F6CF
:101B230008E436F618547FB47F0CE654806007F659
:101B3300E418F618F622181822E9C6CC08C6CD0810
:101B4300C6CE08C6CFC0E0E8C0E0EAC0E0EBC0E024
:101B530009E9F809E7FA09E7FBE6F918E6F8C3EC3F
:101B630098ED99EE9AEBC2E7F5F0EFC2E795F050E6
:101B73000E600CEBCFFBEACEFAE9CDF9E8CCF8EA3C
:101B8300A2E7D2E7FAEB33FB13F5F0EEA2E7D2E7D5
:101B9300FEEF33FFC5F013A2E730E601B313C5F040
:101BA300C3C0E0C0F07F00C39BFB605E9418600F6E
:101BB300401D14601AD0E023F9D0E0F8021C978A84
:101BC300F0E9486003D2F0E4AFF0FAF9F8803BEBB8
:101BD30030E40D89F0EA6003D2F0E4AFF0F9CAF81B
:101BE300EB30E30D88F0EF6002D2F0AFF0E4CAC946
:101BF300F8EB54076014FBC3EA13FAE913F9E8138B
:101C0300F8EF135002D2E0FFDBEDD0E0C0E030E7A5
:101C130039C3E49FFFF5F0EC98FC42F0ED99FD42E7
:101C2300F0EE9AFE42F0D0E0F9D0E0F8E5F0607A09
:101C3300E923F9EE20E742D8028067C3EF33FFECD4
:101C430033FCED33FDEE33FE80EAEC28FCED39FD89
:101C5300EE3AFED0E023F9D0E0F84002801BC3EE59
:101C630013FEED13FDEC13FCEF135002D2E0FF085B
:101C7300B800067F7F74FF802EEF3350178CF0205F
:101C8300F00260100CBC000C0DBD00080EBE000479
:101C930008E860DFE933E813FFEE2313FE4F4D4CF2
:101CA3008008E95480FFE4FEFDFCEE33EF33F4706B
:101CB30004FCFD7E80D0E0FBD0E0FAD0E0F8D0E079
:101CC300CFC618CEC618CDC618CCC6F92212182C0A
:101CD30070041818182212183B700D74FFF61819A7
:101CE300F61819F61819F622E7548066F61217F259
:101CF300700F1217FB70F014F608F608F608F6805A
:101D0300D11217FB700CF608F608768008E6447FBC
:101D130080EC12181B700C12180760BFE65480F693
:101D2300E480BB121807700519191980A5E86970BA
:101D33000C763F18768018F618F6E8F922E6CDC03F
:101D4300E018ECC0E0E633CD33CDD313F6E719FC4E
:101D5300E7191933CC33C3947F400ECD9D5024082B
:101D6300E65480F6E418F6800FF4043D145014088A
:101D7300E6447FF6187680E418F618F6D0E0FCD037
:101D8300E0FD22CCD313CCFD18E4C6CBC0E018E4AD
:101D9300C6CAC0E00808ED08C633E613F618E433F4
:101DA300C675F003C3CA97CA09CB97CB199C4004E5
:101DB3007D08802EBD0003021E7916B6FF050606B8
:101DC300081618C3CA33CACB33CB33CA27CA09CBC5
:101DD30037CB193CC37D08803E187D0820E75CC6DD
:101DE30033C6CA33CACB33CB33DDF1D5F0EB30E79F
:101DF3007BCA97CA09CB974ACB199C406F4B702576
:101E0300E620E0218066187D08C3CA97CA09CB97EC
:101E1300CB199CD3C633C6CA33CACB33CB3350C9D1
:101E2300DDE7D5F0E1D3E4C636C608C636C608C634
:101E330036C608C636C61818188031C3CA97CA09E9
:101E4300CB97CB199CB34097C633C6CA33CACB339F
:101E5300CB33DD34D5F02EC6A2E0C640C8CA27CAAC
:101E630009CB37194A70BECB3CB480B90808E633B6
:101E730008E633601F181818D0E0FAD0E0FBD0E072
:101E8300FCD0E0FD22187D08CA27CA09CB37CB193D
:101E93003CD3808013F618E4B67F11F618B6FF0E14
:101EA300F618C60470D20808768080CAF618F618A9
:101EB300F680C5080808EAC0E0EBC0E086F0E7A4B6
:101EC300FA180986F0E7A42AFA180986F0E7A42A83
:101ED300FA180986F0E7A42AFA1986F0E7A4FBE5C5
:101EE300F02AFA190886F0E7A42BFBE5F03AFA1971
:101EF3000886F0E7A42BFBE5F03AFA18180986F0F8
:101F0300E7A4C5F02BFBE43AFA1908E7C5F0C6A429
:101F130026F6E5F03BFBE43AFA1886F0E7A4F6E58B
:101F2300F00826F6E43B08F6E43A08F6D0E0FBD0E6
:101F3300E0FA22E4CFC0E0E4CEC0E0E4CDC0E0E4C8
:101F4300CCC0E075F020E626F608E633F608E63363
:101F5300F608E633F6181818EC33FCED33FDEE33D0
:101F6300FEEF33FFC3EC9709ED9709EE9709EF975F
:101F7300191919400FFFEC97FC09ED97FD09EE972E
:101F8300FE191906D5F0BFECF709EDF709EEF709CD
:101F9300EFF7191919D0E0FCD0E0FDD0E0FED0E056
:101FA300FF22122010181818121F36121FFC1919BD
:101FB3001922121FFC191919080808E61818182005
:101FC300E7E0121F3612201018181822090909E732
:101FD30019191920E7DC080808E618181820E70380
:101FE300021F36122010181818121F36122010184C
:101FF3001818121FFC19191922E4C397F709E4975B
:10200300F709E497F709E497F722181818E4C39639
:10201300F608E496F608E496F608E496F6226017C6
:10202300080808C6A2E713C618C613C618C613C6FF
:1020330018C613C6D5E0E9226016080808C6C313FC
:10204300C618C613C618C613C618C613C6D5E0EA03
:10205300227009080808226016181818C6C333C668
:1020630008C633C608C633C608C633C6D5E0EA2257
:10207300E627F60809E637F60809E637F60809E61B
:1020830037F622E026F608A3E036F608A3E036F694
:1020930008A3E036F622E026F008A3E036F008A312
:1020A300E036F008A3E036F022C3E697F60809E627
:1020B30097F60809E697F60809E697F622C3E0C6FD
:1020C30096F608A3E0C696F608A3E0C696F608A31C
:1020D300E0C696F622C3E096F008A3E096F008A3C4
:1020E300E096F008A3E096F022E056F608A3E05647
:1020F300F608A3E056F608A3E056F622E056F008E9
:10210300A3E056F008A3E056F008A3E056F022E05F
:10211300F608A3E0F608A3E0F608A3E0F622E493AA
:10212300F608740193F608740293F608740393F6A1
:1021330022E6F008A3E6F008A3E6F008A3E6F022FF
:10214300E0FAA3E0FBA3E0FCA3E0FD22EAF0A3EBAB
:10215300F0A3ECF0A3EDF022E0FCA3E0FDA3E0FE8E
:10216300A3E0FF22ECF0A3EDF0A3EEF0A3EFF02247
:10217300E0F8A3E0F9A3E0FAA3E0FB22E8F0A3E987
:10218300F0A3EAF0A3EBF022CAC0E0E6F0A308DA7A
:10219300FAD0E0FA22CAC0E0E0A3C582CCC582C56A
:1021A30083CDC583F0A3C582CCC582C583CDC5834A
:1021B300DAE6D0E0CA22C3E498F8E499F91221FAE6
:1021C3008026C3E49AFAE49BFBE920E7E91221FAAB
:1021D300E498F8E499F922C3E498F8E499F9122110
:1021E300FAE498F8E499F9C3E49AFAE49BFB22EB46
:1021F30020E7CFE920E7E0B90010BB0008E88AF048
:1022030084F8AAF022E4FBC8FA22EB70227B10C800
:1022130033C8C933C9335007C39AC3DBF280069A64
:1022230050012ADBEAC833F4C8C933F4C9FA22756A
:10223300F008E4C833C8C933C933C99AC99B5004E9
:10224300C92AC93BD5F0ECFBC833F4C8E4C9FA2268
:10225300600D08C6A2E713C618C613C6D5E0F3225D
:10226300600C08C6C313C618C613C6D5E0F42270A3
:102273000422600D18C6C333C608C633C6D5E0F4BE
:102283001822251810AF08F518400C15198008F509
:102293001840021519D2AF2200C0D0251810AF087C
:1022A300F518500C05198008F51850020519D2AF1E
:1022B300D0D0222518F58210AF08F518400C151957
:1022C3008008F51840021519D2AF85198322251805
:1022D300F582E43519F583222518F8E43519F92236
:1022E3002518FAE43519FB222518FCE43519FD22DB
:1022F300E4732518C582C0E0E51934FFC583C0E047
:10230300E518C3958224F810AF08858319858218D0
:102313008008858319858218D2AFCEF0A3E520F01B
:10232300A37808E608F0A3DEFAEFF0A3E58124FA28
:10233300F8E608F0A3E608F0A3E608F0A30808E629
:1023430008F0A3E608F0A315811581D0E0FED0E0E4
:10235300F8158115811581E8C0E0EEC0E02225184B
:10236300C582C0E0E51934FFC583C0E0E518C39515
:102373008224F910AF088583198582188008858324
:1023830019858218D2AFCEF0A3E520F0A37808E632
:1023930008F0A3DEFAEFF0A3E58124FBF8E608F0EA
:1023A300A3E608F0A30808E608F0A3E608F0A315DF
:1023B300811581D0E0FED0E0F815811581E8C0E0F9
:1023C300EEC0E022851983851882E0A3FEE0A3F521
:1023D300207808E0A3F608DFFAE0A3FFE0A3C0E05B
:1023E300E0A3C0E0E0A3C0E0E0A3C0E0E0A3C0E05E
:1023F30010AF088582188583198008858218858324
:1024030019D2AFD083D08202013285198385188215
:10241300E0A3FEE0A3F5207808E0A3F608DFFAE0E6
:10242300A3FFE0A3C0E0E0A3C0E0E0A3C0E0E0A31B
:10243300C0E010AF0885821885831980088582184B
:10244300858319D2AFD083D08222C0D02518C5820C
:10245300C0E0E51934FFC583C0E0E518C3958224C5
:10246300F310AF0885831985821880088583198541
:102473008218D2AFC8F0A3E9F0A3EAF0A3EBF0A36C
:102483007908E709F0A3D8FAECF0A3EDF0A3EEF096
:10249300A3EFF0A3D0E0F0A3D0E0F0A3D0E0F0A34B
:1024A300E520F0A3E5F0F0A322851983851882E0E7
:1024B300C0E0A3E0F9A3E0FAA3E0FBA37808E0F609
:1024C30008A3DFFAE0FCA3E0FDA3E0FEA3E0FFA383
:1024D300E0C0E0A3E0C0E0A3E0F5D0A3E0F520A3D3
:1024E300E0A3F5F010AF088583198582188008856D
:1024F3008319858218D2AFD082D083D0E0F8D0E0A0
:102503003274048006740280027401C0E0F4041281
:1025130022B6D0E012218B2274048004740280005E
:10252300CCC0E0EDC0E0E518C39CCCAD1950011D53
:1025330010AF068C188D1980068C188D19D2AF1226
:102543002198D0E0FDD0E0FC22D083D082E9C0E026
:10255300E493A3C386F0C5F095F0F908E493A3864A
:10256300F0C5F095F0700BE493A3C3994005E9041B
:102573008002A3E475F002A42582F582E5F0358399
:10258300F583D0E0F9E493A3C0E0E493C0E022D064
:1025930083D082ECC0E0EDC0E0E493A3FCE493A31A
:1025A300FDED4C600D1225DEEC24FFFCED34FFFD48
:1025B30080EFE493A3FCE493A3FDED4C600D12269E
:1025C3001DEC24FFFCED34FFFD80EFD0E0FDD0E0F7
:1025D300FCE493A3C0E0E493C0E022C0E0C3E4932F
:1025E30096087401939618400FE493667008087474
:1025F3000193661870007019A3A3C3E4939608743B
:1026030001939618A3A3400DD0E0D0E0D0E00225BB
:10261300CEA3A3A3A3A3A3D0E022C0E0C0F088F07D
:10262300E4936670080874019366187000A8F0A319
:10263300A3700BD0F0D0E0D0E0D0E00225CEA3A36E
:10264300D0F0D0E02274F5122361EAFEEBFFEE2412
:1026530034F8EF3400F988088909EE2435F582EF60
:102663003400F583E0F8EE2437F582EF3400F58388
:10267300E0F50AEC850AF0A4FCAAF0850AF0EDA4C3
:102683002AFDE82CF8E43DF97A257B001221FAEAC9
:10269300850882850983F05407F87401B800028025
:1026A30004C333D8FCC0E0E0131313541FF8EE281F
:1026B300F8EF3400F9E8245DF582E93400F583D0BE
:1026C300E0F8E0586008EE2434F582EF801EEE2433
:1026D30036F582EF3400F583E0F5F0EA84A8F0EEF6
:1026E30028F8EF3400F9E82438F582E93400F5835B
:1026F300E0F97F0402240D74F5122361EAFEEBFF77
:10270300EE2434F582EF3400F583E0C0E0EE2435A7
:10271300F582EF3400F583D0E0F08E828F83A3A39C
:10272300A3A3A3A3A3C082C0838E828F83A3A3A3E7
:10273300A3A3E0F8A3E0F9D083D082E0C398F5081F
:10274300A3E099F509EE2480F582EF3400F583E0E8
:1027530064017069EE2481F582EF3400F583E0F8BB
:10276300A3E0F98E828F83A3A3A3A3A3A3A3E0FC77
:10277300A3E0FD8E828F83A3A3A3A3A3E0FAA3E028
:10278300FBC3EA9CEB9D5027C3EC98ED99402EC305
:10279300EA98EB9950277CAD7D09EEFAEFFB120C1A
:1027A30054EE2480F582EF3400F583E4F0800EC309
:1027B300EA98EB9940E0C3EC98ED9950D9EE2434B4
:1027C300F8EF3400F9E8FCE9FDEE2435F582EF3447
:1027D30000F583E0F8EE2437F582EF3400F583E06B
:1027E300F50AE508850AF0A4F508AAF0850AF0E5DC
:1027F30009A42AF509E82508F8E43509F97A257BBF
:10280300001221FAEA8C828D83F05407F87401B820
:1028130000028004C333D8FCC0E0E0131313541F39
:10282300F8EE28F8EF3400F9E8245DF582E9340086
:10283300F583D0E0F8E0586008EE2434F582EF80A9
:102843001EEE2436F582EF3400F583E0F5F0EA84DA
:10285300A8F0EE28F8EF3400F9E82438F582E934DB
:1028630000F583E0F91230F50226F5C082C08385B6
:102873001882851983E0F8A3E0F9C3EA9CEB9D5025
:1028830012C3EC98ED994019C3EA98EB9950127969
:10289300018010C3EA98EB9940F5C3EC98ED995089
:1028A300EE7900D083D08222EAC39CFAEB9DFB220F
:1028B300008521878522C622C0E0C0D0E8C0E0E9B8
:1028C300C0E0EAC0E0EBC0E0ECC0E0EDC0E0C0086F
:1028D300C009C00AC00BC082C083C0F0759B0090C2
:1028E3006182E0A2E64003022999E591A2E6400352
:1028F3000229997591BF900872E064057008120D62
:102903008C120D988003120D92752100120DF2E9BD
:10291300900873F07900120DE6120BCA7A017B005E
:10292300900871E0F91213E6907803E064426003C3
:102933000229E2900A0FE014F060030229E2C2AF19
:1029430012294600782AD0E0F618D0E0F6E59F5425
:1029530007F970059082838003908293780812218F
:1029630012E9C4C0E07829E65508F50808E65509D8
:10297300F509740B7808122263D0E02508F89062F9
:1029830070E0A2E740F8E8C333906272F09062709F
:10299300E0D2E0F08049E0A2E55024E591A2E550C1
:1029A3001E7591DF900872E0640D7013900894E037
:1029B30004F064287002E4F07A00E0F9120E6490E7
:1029C3006181E0A2E35009E5E9A2E3500375E9F769
:1029D300A3E0A2E75009E591A2E7500375917FD0E8
:1029E300F0D083D082D00BD00AD009D008D0E0FD3C
:1029F300D0E0FCD0E0FBD0E0FAD0E0F9D0E0F8D0B2
:102A0300D0D0E032C0E0C0D0C082C083906183E008
:102A1300A2E05009E5BFA2E0500375BFFEE0A2E1CA
:102A23005009E5BFA2E1500375BFFDE0A2E25009E2
:102A3300E5BFA2E2500375BFFBE0A2E35009E5BF87
:102A4300A2E3500375BFF7E0A2E45009E5BFA2E497
:102A5300500375BFEFE0A2E55009E5BFA2E55003BF
:102A630075BFDFE0A2E65009E5BFA2E6500375BFDC
:102A7300BFD083D0828088C0E0C0D0E8C0E0E9C086
:102A8300E0EAC0E0EBC0E0ECC0E0EDC0E0C0F0E5A0
:102A9300A7A2E6500FE5A1A2E6500953A7BF75A16F
:102AA300BF122ADFE5A7A2E5500CE5A1A2E5500677
:102AB30053A7DF75A1DFE5A7A2E15009E5A1A2E1D4
:102AC300500375A1FDE5A7A2E2500CE5A1A2E250D7
:102AD3000653A7FB75A1FBD0F00229F074F812236B
:102AE30061752101900872E064067015120D208A49
:102AF300828B83A3A3A3A3A3A3E0FAA3E0FB120DFA
:102B03007AA2AFE433FED2AF900878E06401701884
:102B13007A207B00900871E0F91215187A207B0067
:102B2300900871E0F91213EC906182E0D2E6F09024
:102B33000A0EE0602185C6228016900877E06401C2
:102B43007008E5C654F84405F5C653BEFC1228B414
:102B53007401652160E4EEA2E092AF7F0102240DCF
:102B6300008E238F248582288583278518828519E3
:102B730083E0CEA3E0CF852882852783EBC9EAC80B
:102B8300EDCBECCA75F010C3E833C8E933C9EA33B7
:102B9300CAEB33CBC3EA9EF526EB9FF525B350046E
:102BA300AB25AA26EC33CCED33CDD5F0DAAE23AF8B
:102BB300242274EB12236174FA1222858A088B098A
:102BC3008C148D15900872E024F7C3940550069079
:102BD30082FF022D17120D208A0A8B0BAE0AAF0B50
:102BE300EE4F7003022D14AC08AD098518828519C8
:102BF30083AA82AB83120DAA8E828F83A3A3780844
:102C03001221129082A378081220EC85188285196C
:102C130083780C1221129082A3780C1220EC78088E
:102C2300790C1216AC501F7808790C1220AC9082E4
:102C3300D378081216CC4047850810850911850AF8
:102C430012850B138041850C10850D11850E12859D
:102C53000F13781079081220AC9082D378101216D3
:102C6300CC501C7510007511007512007513017896
:102C730010790C1220AC7810790812207380089018
:102C830082FF781012211274097810122054908355
:102C930023780812211278107908121F368E828F3A
:102CA30083A3A3A3A3A3A3E0F8A3E0F97AD07B03B0
:102CB3001221FA88088909E4F50AF50B78107908D6
:102CC30012207374041222D1E0F8A3E0F97AD07BC6
:102CD300031221FAE8FA8A08E4F509781079081250
:102CE30016AC5007781079081220AC900872E06493
:102CF30008600AE064066005E06405701C9082BB0E
:102D030078101216CC50129082B778101220868059
:102D1300089082C378101221128514828515837856
:102D230010122134740612229B7F0E02240D74F7B5
:102D3300122361120DBC900A0CE0640170109062C2
:102D430045E4F0A3F053F4F343FE0C5390F3120D58
:102D530068E5C654804449F5C6E59E547F644970CE
:102D6300F8906185740FF0900A0AE0F47002A3E012
:102D7300604E900A0BE0600814601B14602E8040C4
:102D8300750801750900900A0AE07808122272E5B5
:102D930008F45280802A750801750900900A0AE038
:102DA3007808122272E508F45290801475080175B0
:102DB3000900900A0AE07808122272E508F452A08A
:102DC30079007F0202240D74F7122361E9FEEAFF02
:102DD30074016E700C7A807B00900871E0F9121315
:102DE300E6905C1CE493F46008E493F9120BBE8054
:102DF3000953C680E59E547F70FA120D6E900A0C3B
:102E0300E064017003120BD6900A0AE0F47002A387
:102E1300E0604B900A0BE0600814601A14602C8089
:102E23003D750801750900900A0AE07808122272BC
:102E3300E50842808028750801750900900A0AE0B8
:102E43007808122272E5084290801375080175090B
:102E530000900A0AE07808122272E50842A0120DD7
:102E6300BC120D208A088B09A808A909E849601536
:102E7300E5E170FCE82414F582E93400F583E0F41D
:102E83006003E0F5E174016F700A7A01900871E064
:102E9300F9121488022DC574F11223618A088B0973
:102EA3008C0A8D0B740F1222D1780C12211290828E
:102EB300A378081220EC9082A3780C1220EC7808F7
:102EC300790C1216AC50157808790C1220AC90824C
:102ED300D378081216CC401579018013780C790841
:102EE3001220AC9082D3780C1216CC40EB79007F81
:102EF3000802240D74ED1223618A088B098C0A8D54
:102F03000B74131222D1780C1221129082A3780829
:102F13001220EC9082A3780C1220EC780C79081222
:102F230016AC40117808790C1220ACAA08AB09AC96
:102F33000AAD0B8022751000751100751200751310
:102F4300017810790C1220AC78107908122073AA3A
:102F530010AB11AC12AD137F0C02240D9082A37839
:102F6300081221128A828B8378081220FF7F0402C1
:102F7300240D74F51223618C828D8378081221123B
:102F83008A828B8378081220D8EA2404F8EB340071
:102F9300F98C828D83A3A3A3A3E0FCA3E0FD888225
:102FA3008983C3E09CF0A3E09DF088828983C3E01A
:102FB3009420A3E0944E40229083037808122112B8
:102FC3008A828B8378081220998A828B83A3A3A396
:102FD300A3E02420F0A3E0344EF0808074F51223A4
:102FE30061E9FE9009C4E0FAA3E0FBEEC333F8E421
:102FF30033F9744928F582748139F583E02AF50899
:10300300A3E03BF50978081225089082E7122143D3
:10301300122B64740212229B8A088B098C0A8D0B73
:103023007410780812203BAA08AB097F0402240D10
:1030330074F11223618A0C8B0D8C0E8D0F740F1299
:1030430022D1E0FAA3E0FB74111222D1E0F508A328
:10305300E0F50974131222D1E0FEA3E0FF78081211
:103063002508EA2401F508EB3400F509E4F50AF52F
:103073000B780C7908121EB69082977808122112E9
:10308300780C7908121EB6AA0CAB0DAC0EAD0F125C
:103093002B64740212229B8B09EA450960047A01AE
:1030A30080027A00EC2AFCED3400FDECF8EDF97AAD
:1030B300717B021221FA88088909E4F50AF50B8E5F
:1030C300828F837808122134ECF8EDF97A717B0250
:1030D3001221FA8A088B09740578081222728E82EB
:1030E3008F83A3A3A3A3E508F0A3E509F07F080258
:1030F300240DC082C083E9906000F0D083D0822287
:10310300C0E074F212244DA2AFE433FED2AFE58ADD
:10311300A2E650251211C49015467401F0901303D2
:10312300F090130DE4F0901304E004F0C394044012
:1031330002E4F0121260121254758A00C2EB751A7F
:1031430000EEA2E092AF7F010224ACC0E074F21261
:10315300244DA2AFE433FED2AFE58BA2E0500312BD
:1031630011C4758B00C2E880D5C0E0C0D0E8C0E0D0
:10317300E9C0E0A9A8D2AFC2C7751A00E9A2E7E483
:1031830033F8E9A2E792AFD0E0F9D0E0F8D0D0D09D
:10319300E03200000000000000000000000000001A
:1031A300000000000000000000000000000000001C
:1031B300000000000000000000000000000000000C
:1031C30000000000000000000000000000000000FC
:1031D3000000000000000000E0E0E000000000004C
:1031E30000000000000000000FFF0F0000000000BF
:1031F30000000000000000000087800000000000C5
:1032030000000000000000000307070300000000A7
:10321300000000000080E0F8783880E0F87838009B
:10322300000000000403010000040301000000008B
:10323300000000000000000000000000000000008B
:10324300000000000000000000000000000000007B
:1032530000000000000000C0000000000000C000EB
:10326300000000181818F81F1818181818F81F1855
:103273001800003030F03F3030303030F03F303025
:1032830030000000000700000000000007000000FD
:103293000000000000000080C040F040408080003B
:1032A30000000000001E3F70E0C0FF80000C0F0F05
:1032B30000000000E0E060000001FF03070EFCF8DF
:1032C300000000000103020404043F04060201009D
:1032D30000000080C040C080000000000080C000EB
:1032E30000007FFF800080FF7F00C0308E8380005E
:1032F30000000000010181E01807FDFF010001FF4C
:10330300FC0000000006030000000003060406039F
:10331300000000000080C04040C0800000000000AA
:10332300000000003FFFC040603F0F80808080802E
:103333000000F8FE0301071E78E0C0C03807000054
:1033430080000003030604040402010306040402CC
:10335300010000003838F8F0000000000000000011
:10336300000000040602010000000000000000004D
:10337300000000000000000000000000000000004A
:10338300000000000000000000000000000000003A
:1033930000000000000000000000000080C02010BA
:1033A300080000000000000000E0FC1E0300000015
:1033B3000000000000000000001FFFE0000000000C
:1033C300000000000000000000000003070C1020B4
:1033D300400000081020C080000000000000000032
:1033E30000000000000000031EFCE00000000000DD
:1033F3000000000000000000E0FF1F0000000000CC
:103403000000004020100C07030000000000000033
:1034130000000000000000000000000000000000A9
:103423000000000030707060C086FF86C06070705E
:1034330030000000181C1C0C06C2FFC2060C1C1C2A
:10344300180000000000000000010100000000005F
:103453000000000000000000000000000000000069
:1034630000000000000000000000FE00000000005B
:1034730000000000010101010101FF01010101013F
:103483000100000000000000000000000000000038
:103493000000000000000000000000000000000029
:1034A3000000000000000000000000000000000019
:1034B3000000000000000000000000000000000009
:1034C30000000080C7473F1E00000000000000000E
:1034D30000000000000000000000000000000000E9
:1034E30000000000000000000000000000000000D9
:1034F30000000001010101010101010101010101BC
:1035030001000000000000000000000000000000B7
:1035130000000000000000000000000000000000A8
:103523000000000000000000000000000000000098
:103533000000000000808000000000000000000088
:103543000000000003070703000000000000000064
:103553000000000000000000000000000000C07038
:1035630018000000000000000000C0701C070100EC
:10357300000000000000C0701C07010000000000F4
:10358300000000301C0701000000000000000000E4
:103593000000000000000080C0404040C0800000E8
:1035A30000000000F0FE0F0100000000000107FE14
:1035B300F00000001FFFE000000000000000C0FF5B
:1035C3001F000000000001030604040406030100B9
:1035D30000000000000000000080C00000000000A8
:1035E300000000000001010101FFFF0000000000D6
:1035F300000000000000000000FFFF0000000000CA
:103603000000000000040404060707060404040085
:10361300000000000000804040404040C080800027
:10362300000000001E1900000000000000C17F3EE2
:10363300000000000080402010080402010000E0A8
:103643000000000007060606060606060606070132
:103653000000000000808040404040C080800000A7
:10366300000000000F0F0000808080C0613F1E003B
:1036730000000000E0E00000000000010103FE780C
:103683000000000001030204040404040203010017
:10369300000000000000000000000080C0C0000027
:1036A3000000000000008060300C02FFFFFF0000FC
:1036B300000000101C121110101010FFFFFF10105B
:1036C30010000000000000000808080F0F0F080892
:1036D300080000000000C0C0C0C0C0C0C0C0C0C05F
:1036E3000000000000F887402020202060C08000F8
:1036F30000000000E0610000000000000080FF7E89
:103703000000000001020404040404040203010095
:10371300000000000000000080C0404040408000E6
:1037230000000000E0FC0E818040404040C0830365
:10373300000000003FFFC30100000000000001FF84
:103743007E000000000001030604040404020301D8
:103753000000000000C0C0C0C0C0C0C0C0C0C0C026
:10376300000000000F030100000080601806010044
:103773000000000000000000E0FC03000000000067
:103783000000000000000000070700000000000028
:1037930000000000000080C040404040C0800000A6
:1037A300000000001E3F71E0C080808080613F1EEA
:1037B300000000F8FC06030100010103070EFCF8FA
:1037C30000000000010302040404040402030100D6
:1037D3000000000000808040404040408000000026
:1037E300000000FCFF030000000000000083FEF85F
:1037F30000000000818306040404040283F17F0FA8
:103803000000000003030404040406030100000095
:1038130000000000000000000000000000000000A5
:103823000000000000000000C0E0E0C00000000055
:103833000000000000000000008181000000000083
:103843000000000000000000030707030000000061
:103853000000000000000000000000000000000065
:103863000000000000000000606000000000000095
:103873000000000000000000000000000000000045
:103883000000000000000000661E000000000000B1
:103893000000000000000000000000000080402045
:1038A300000000000080C06030180C060300000018
:1038B300000000000103060C183060C08000000007
:1038C30000000000000000000000000001020408E6
:1038D30000000000000000000000000000000000E5
:1038E3000000002020202020202020202020202035
:1038F300200000080808080808080808080808083D
:1039030008000000000000000000000000000000AC
:1039130000000000204080000000000000000000C4
:103923000000000000000003060C183060C0800097
:103933000000000000000080C06030180C06030186
:103943000000000008040201000000000000000065
:103953000000000000804040202020202040C08044
:10396300000000001E1F1C0000000080C040603FDC
:103973001F00000000000000009E81000000000006
:103983000000000000000000030707030000000020
:103993000000000000000080C040404040808000E4
:1039A300000000F0FC0E0380E0780C04FCFC01072F
:1039B300F800001F7FE0001F3F20100C3F20308CD9
:1039C3004300000000010302040404040402030191
:1039D3000000000000000000C0C0E0000000000084
:1039E300000000000000C07C07013FFCC000000095
:1039F30000000000C07C0704040404077FFC80006F
:103A03000000040607040400000000000407070484
:103A13000400004040C0C04040404040C08080009F
:103A23000000000000FFFF8080808080C0613F1F96
:103A33000000000000FFFF0000000000000103FE83
:103A4300F800000404070704040404040406030143
:103A53000000000000000080C0404040408080C063
:103A6300000000E0FC0E0300000000000000010362
:103A73000C00001FFFE000000000000000000080B9
:103A830060000000000103020404040404020301B3
:103A93000000004040C0C040404040C08080000063
:103AA3000000000000FFFF000000000000010FFE07
:103AB300F000000000FFFF00000000000000E07FB6
:103AC3001F000004040707040404040602030100A2
:103AD3000000004040C0C040404040404040C0C0A3
:103AE3000000000000FFFF8080808080C0F00003A2
:103AF3000600000000FFFF000000000001070000B7
:103B0300C0000004040707040404040404040607B3
:103B13000000004040C0C040404040404040C0C062
:103B2300C000000000FFFF808080808080C0F00024
:103B33000306000000FFFF00000000000001070073
:103B43000000000404070704040000000000000054
:103B53000000000000008080C04040408080C00022
:103B6300000000E0FC0E0300000000000000030C56
:103B73000000001F7FE08000000000000404FCFC44
:103B8300040400000001030204040404040201010C
:103B930000004040C0C040400000004040C0C04062
:103BA30040000000FFFF00000000000000FFFF00D6
:103BB30000000000FFFF01010101010101FFFF00FF
:103BC30000000404070704040000000404070704BA
:103BD300040000000040404040C0C040404040005E
:103BE300000000000000000000FFFF0000000000D4
:103BF300000000000000000000FFFF0000000000C4
:103C03000000000000040404040707040404040083
:103C13000000000000000040404040C0C040404061
:103C23004000000000000000000000FFFF00000053
:103C33000000000000000000000000FFFF00000083
:103C430000000070F0F0808080C0603F1F00000023
:103C53000000004040C0C0404000000040C0C040E1
:103C63004000000000FFFF0080E0F00C06010000B0
:103C73000000000000FFFF030001071F7CF0C000ED
:103C830000000004040707040400000004040707FD
:103C93000404004040C0C040400000000000000099
:103CA3000000000000FFFF00000000000000000013
:103CB3000000000000FFFF00000000000000000003
:103CC300C0000004040707040404040404040607F2
:103CD30000004040C0C0C0000000000000C0C0C0E1
:103CE30040400000FF07FFF8800000C07C07FFFF93
:103CF30000000000FF00000FFFF078070000FFFF47
:103D0300000004040704040001070000040407077B
:103D130004044040C0C0C000000000004040C04058
:103D230040000000FF010F3FF8E080000000FF00AB
:103D330000000000FF00000000030F3EF8E0FF005A
:103D4300000004040704040000000000010707004A
:103D53000000000000008080404040408080000060
:103D6300000000F0FC0F01000000000000010FFC48
:103D7300F000001F7FE00000000000000000C07F93
:103D83001F000000000103020404040402030100F5
:103D93000000004040C0C0404040404040C0800060
:103DA3000000000000FFFF00000000000080C17F52
:103DB3003E00000000FFFF010101010101010000BD
:103DC30000000004040707040400000000000000D2
:103DD30000000000000080804040404080800000E0
:103DE300000000F0FE0F010000000000000107FCCE
:103DF300F000001FFFC08060202060C00000C0FFF3
:103E03003F00000000010302040404071F3A31309D
:103E13001800004040C0C04040404040C080800087
:103E23000000000000FFFF8080808080C0613F1F92
:103E33000000000000FFFF000001073FFCE000005E
:103E4300000000040407070404000000010707043E
:103E530004000000000080C040404040408080C01B
:103E6300000000001E7F61C0C08080800000010749
:103E730000000000608000000001010303070EFC46
:103E8300F80000000007030204040404040603010D
:103E930000000000C0C0404040C0C040404040C09F
:103EA300000000060100000000FFFF000000000109
:103EB300070000000000000000FFFF0000000000FA
:103EC30000000000000000040407070404000000D1
:103ED30000004040C0C04040000000004040C040DF
:103EE30040000000FFFF0000000000000000FF0092
:103EF30000000000FFFF0000000000000000FF00C2
:103F03000000000000030206040404040201000090
:103F13000000004040C0C04000000000004040C01E
:103F23004040000000033FFCC000000000C03C0311
:103F330000000000000000031FFEE0E01E0300007D
:103F43000000000000000000000107010000000065
:103F5300000040C0C040400040C0C040000040C01E
:103F6300C0400003FFFC000000F7FFF00000E01F6B
:103F730000000000017FFEF00F00017FFCF8070046
:103F83000000000000000700000000000700000020
:103F93000000004040C0C0404000004040C04040DE
:103FA3000000000000010F3FF8E0E01806010000E8
:103FB300000000000000C0300C030F3EF8C00000FA
:103FC30000000004040704040000000004070704C1
:103FD30004000040C0C0C040400000004040C0405A
:103FE3004000000000031F7CF08000C0380E010079
:103FF300000000000000000003FFFE0100000000BD
:10400300000000000000000404070704040000008F
:104013000000000000C0C0404040404040C0C040DD
:10402300000000000601000000C0F07C1E07010034
:104033000000000000C0F07C1F070100000000C06A
:104043000000000407070504040404040406070031
:104053000000000000000000F8080808080808082D
:104063000000000000000000FF000000000000004E
:104073000000000000000000FF000000000000003E
:1040830000000000000000003F202020202020200E
:104093000000000000E0C00000000000000000007D
:1040A300000000000000031E78C0000000000000B4
:1040B300000000000000000000030F78E000000093
:1040C300000000000000000000000000010F3C6041
:1040D3000000000008080808080808F800000000AD
:1040E3000000000000000000000000FF00000000CE
:1040F3000000000000000000000000FF00000000BE
:1041030000000000202020202020203F000000008D
:10411300000000000000402010180818182040007C
:10412300000000000000000000000000000000008C
:10413300000000000000000000000000000000007C
:10414300000000000000000000000000000000006C
:10415300000000000000000000000000000000005C
:10416300000000000000000000000000000000004C
:10417300000000000000000000000000000000003C
:10418300000080808080808080808080808080802C
:1041930080800000000000000000F008080808F01C
:1041A3000000000000000000000000010101010008
:1041B30000000000000000000000000000000000FC
:1041C30000000000000000000000000000000000EC
:1041D30000000000000000000000000000000000DC
:1041E3000000000080C0602020202060C08000000C
:1041F300000000C0F131180808040404FFFF0000A8
:10420300000000010306040404040202030704047B
:104213000300004040C0E000000000000000000078
:104223000000000000FFFF80404020202060C0808D
:104233000000000000FFFF0100000000000000FF7D
:104243007F000000000703030604040404020301C3
:10425300000000000000000000000000000000005B
:10426300000000000080C0406020202060C080006B
:10427300000000007EFF810000000000000303C077
:10428300000000000001030204040404040201000E
:1042930000000000000000000000004040C0E000FB
:1042A300000000000080C0602020202040FFFF00AD
:1042B300000000007EFF01000000000000FFFF007F
:1042C30000000000000103060404040201070302C6
:1042D30002000000000000000000000000000000D9
:1042E300000000000080C0402020202060C080002B
:1042F300000000007EFF88080808080808080F8EE1
:104303000000000000010302060404040402030089
:104313000000000000000000008080C040404040DA
:104323008080000020202020FEFF2020202020006D
:104333000303000000000000FFFF00000000000076
:104343000000000000040404070704040404000040
:10435300000000000000000000000000000000005A
:10436300000000000000C0402020202060C0A060AA
:104373006000000000C7FF3020202020301F0F0006
:1043830000000000387C43C38383838383C3467E5A
:104393003C00004040C0E0000000000000000000BE
:1043A3000000000000FFFF80406020202060C080EC
:1043B3000000000000FFFF00000000000000FFFFFE
:1043C30000000004040707040400000004040707B6
:1043D300040400000000000000C0C0C00000000092
:1043E300000000000020202020E1F1010000000077
:1043F300000000000000000000FFFF0000000000BC
:10440300000000000004040404070704040404007B
:1044130000000000000000000000000000C0C0C059
:1044230000000000000000000020202020E1F10136
:1044330000000000000000000000000000FFFF007B
:10444300000000000060E080808080C0603F1F00AB
:104453000000004040C0E000000000000000000039
:104463000000000000FFFF00000000A0E06020202B
:104473000000000000FFFF10080C3F71E080000007
:1044830000000004040707040400000005070704F4
:10449300040000000040404040C0E0000000000075
:1044A300000000000000000000FFFF00000000000B
:1044B300000000000000000000FFFF0000000000FB
:1044C30000000000000404040407070404040400BB
:1044D30000000000000000000000000000000000D9
:1044E30000000020E0F0402020E0C0402020E0C099
:1044F30000000000FFFF000000FFFF000000FFFFBF
:10450300000000040707040004070704000407076A
:104513000400000000000000000000000000000094
:104523000000002020E0F080404020202060C08078
:104533000000000000FFFF00000000000000FFFF7C
:104543000000000404070704040000000404070734
:104553000404000000000000000000000000000050
:10456300000000000000C040602020206040C080A8
:10457300000000007EFF810000000000000081FFBA
:104583007E0000000001030204040404040203018A
:104593000000000000000000000000000000000018
:1045A3000000002020E0F080402020202060C08018
:1045B3000000000000FFFF0000000000000080FF7B
:1045C3007E00008080FFFF83820404040402030151
:1045D30000000000000000000000000000000000D8
:1045E300000000000080C0402020202040C0C0E028
:1045F300000000007EFF0100000000000000FFFF3C
:104603000000000000010306040404048283FFFF8A
:104613008080000000000000000000000000000097
:1046230000000020202020F0F0008040602020E0E7
:10463300C0000000000000FFFF03000000000000B6
:104643000000000404040407070404040400000039
:104653000000000000000000000000000000000057
:10466300000000000080C060202020202040C0E027
:1046730000000000C003070C0C1818183030E0C10C
:1046830000000000070702040404040404060301F5
:104693000000000000000000000000000000000017
:1046A3000000000020202030F8FF202020202000E0
:1046B3000000000000000000FFFF00000000008079
:1046C30000000000000000000103060404040201CE
:1046D30000000000000000000000000000000000D7
:1046E3000000002020E0F000000000002020E0F0A7
:1046F3000000000000FFFF00000000000000FFFFBB
:10470300000000000001030604040404020107037F
:104713000202000000000000000000000000000092
:104723000000002020E0E0202000000020E06020C6
:104733000000000000010F7FF8C0C0380601000030
:10474300000000000000000003070100000000005B
:104753000000000000000000000000000000000056
:1047630000002060E0E020002060E0E0200020E086
:1047730060200000033FFCC0F00F0FFFF0C03C03BC
:104783000000000000000107010000010701000014
:104793000000000000000000000000000000000016
:1047A300000000002020E0E0E0200020A0602020A6
:1047B30000000000000000C1671F3C7AE180000098
:1047C30000000004040607040000000405070604B3
:1047D30004000000000000000000000000000000D2
:1047E3000000002020E0E0202000000020E0602006
:1047F300200000000000071FF8E000E01C03000099
:1048030000000000C0C08080403F0700000000009F
:104813000000000000000000000000000000000095
:1048230000000000E0602020202020A0E0E0200025
:10483300000000000100C0E0703C0E07010000C052
:10484300000000000607070504040404040607012A
:10485300000000000000000000000000E010080855
:104863000000000000000000000000807F00000046
:10487300000000000000000000010102FC00000035
:104883000000000000000000000000001F20404066
:1048930000000000000000000000FF000000000016
:1048A30000000000000000000000FF000000000006
:1048B30000000000000000000000FF0000000000F6
:1048C30000000000000000000000FF0000000000E6
:1048D30000000000080810E00000000000000000D5
:1048E300000000000000007F8000000000000000C6
:1048F30000000000000000FC0201010000000000B5
:10490300000000004040201F0000000000000000E5
:10491300000000180C020202040C1020404040303A
:10492300180000000000000000000000000000006C
:104933000000000000000000000000000000000074
:104943000000000000000000000000000000000064
:104953000000000000000000000000000000000054
:104963000000000000F800000000000000333000E9
:10497300000000100C06100C0600000000000000F0
:10498300000040C07840C0784000043F04043F0466
:104993000400007088FC08300000001820FF211E6E
:1049A3000000F008F000E018000000211C031E21A5
:1049B3001E0000F00888700000001E212324192720
:1049C30021100000003844443800000000000000BB
:1049D3000000000000E01804020000000007182097
:1049E300400000020418E000000000402018070007
:1049F3000000404080F0804040000202010F0102AD
:104A03000200000000F0000000000101011F01018D
:104A13000100000000000000000080B070000000F2
:104A2300000000000000000000000001010101017E
:104A33000101000000000000000000303000000011
:104A430000000000000080601804006018060100E8
:104A5300000000E010080810E000000F10202010F4
:104A63000F00001010F8000000000020203F20205D
:104A730000000070080808887000003028242221F4
:104A830030000030088888483000001820202011AA
:104A93000E000000C02010F8000000070424243F8B
:104AA300240000F808888808080000192120201134
:104AB3000E0000E0108888180000000F112020115C
:104AC3000E0000380808C83808000000003F000046
:104AD30000000070880808887000001C2221212231
:104AE3001C0000E010080810E00000003122221131
:104AF3000F00000000C0C0000000000000303000C4
:104B03000000000000800000000000008060000042
:104B1300000000008040201008000001020408107B
:104B2300200040404040404040000404040404048A
:104B33000400000810204080000000201008040238
:104B43000100007048080808F0000000003036013A
:104B53000000C030C828E810E000071827242314F9
:104B63000B000000C038E0000000203C23020227B5
:104B7300382008F8888888700000203F2020201102
:104B83000E00C0300808080838000718202020103D
:104B9300080008F808080810E000203F2020201033
:104BA3000F0008F88888E8081000203F2020232001
:104BB300180008F88888E8081000203F2000030048
:104BC3000000C03008080838000007182020221E03
:104BD300020008F808000008F808203F210101211D
:104BE3003F20000808F8080800000020203F20208C
:104BF300000000000808F8080800C08080807F00DB
:104C0300000008F888C028180800203F2001263833
:104C1300200008F8080000000000203F202020208A
:104C2300300008F8F800F8F80800203F003F003F84
:104C3300200008F830C00008F808203F20000718BB
:104C43003F00E01008080810E0000F10202020109B
:104C53000F0008F808080808F000203F21010101AF
:104C63000000E01008080810E0000F182424385052
:104C73004F0008F8888888887000203F2000030CC4
:104C830030200070880808083800003820212122CD
:104C93001C00180808F8080818000000203F20002E
:104CA300000008F808000008F808001F2020202052
:104CB3001F000878880000C83808000007380E0174
:104CC3000000F80800F80008F800033C0700073C60
:104CD3000300081868808068180820302C03032C10
:104CE30030200838C800C83808000000203F2000E2
:104CF300000010080808C8380800203826212020A2
:104D03001800000000FE020202000000007F404085
:104D13004000000C30C00000000000000001063815
:104D2300C00000020202FE000000004040407F007D
:104D33000000000004020202040000000000000062
:104D43000000000000000000000080808080808060
:104D53008080000202040000000000000000000048
:104D6300000000008080808000000019242222229D
:104D73003F2008F8008080000000003F1120201130
:104D83000E000000008080800000000E1120202013
:104D93001100000000808088F800000E1120201010
:104DA3003F200000808080800000001F22222222FA
:104DB3001300008080F0888888180020203F20207E
:104DC30000000000808080808000006B94949493A6
:104DD300600008F8008080800000203F2100002050
:104DE3003F2000809898000000000020203F2020F2
:104DF3000000000000809898000000C08080807F41
:104E0300000008F8000080808000203F24022D303D
:104E13002000000808F8000000000020203F2020A8
:104E230000008080808080808000203F20003F2021
:104E3300003F8080008080800000203F2100002010
:104E43003F200000808080800000001F2020202061
:104E53001F00808000808000000080FFA1202011BF
:104E63000E000000008080808000000E112020A032
:104E7300FF80808080008080800020203F212000F0
:104E830001000000808080808000003324242424DB
:104E93001900008080E0808000000000001F2020B7
:104EA30000008080000000808000001F2020201070
:104EB3003F20808080000080808000010E30080643
:104EC300010080800080008080800F300C030C3054
:104ED3000F0000808000808080000020312E0E3182
:104EE3002000808080000080808080818E70180682
:104EF300010000808080808080000021302C2221EE
:104F0300300000000000807C020200000000003F2F
:104F1300404000000000FF00000000000000FF0010
:104F230000000002027C800000000040403F0000BF
:104F3300000000060101020204040000000000005A
:104F4300000000000000000000000000000000005E
:104F5300000000000000000000000000000000004E
:104F6300000000000000000000000000000000003E
:104F7300000000000000000000000000000000002E
:104F8300000000000000000000000000000000001E
:104F9300000000000000000000000000000000000E
:104FA30000000000000000000000000000000000FE
:104FB30000000000000000000000000000000000EE
:104FC30000000000000000000000000000000000DE
:104FD30000000000000000000000000000000000CE
:104FE3000000000000C0F8CC7CFCF8F8F8F8F8F8F2
:104FF300F0F0F0F0F0F0E0E0C0000000000000008E
:10500300000000000000000000000000C0E0E0F02D
:10501300F0F0F0F0F0F8F8F8F8F8F8FC7CCCF88051
:10502300000000000000000000000000000000007D
:10503300000000000000000000000000000000006D
:10504300000000000000000000000000000000005D
:10505300000000000000000000000000000000004D
:1050630000000000E0FFFFFFFEF39FFFFFFFFFFFD5
:10507300FFFFFFFFFFFFFFFFFFFFFEFCF8F0C08015
:10508300000000000080E0F0F8FCFEFFFFFFFFFFE0
:10509300FFFFFFFFFFFFFFFFFFFF9FF3FEFFFFFF8A
:1050A300C00000000000000000000000000000003D
:1050B30000000000000000000000000000000000ED
:1050C30000000000000000000000000000000000DD
:1050D30000000000000000000000000000000000CD
:1050E300000000F0FFFFFFFFFFFFFFFCE73FFFFFB4
:1050F300FFFEFDFB0F1F3FFFFFFFFFFFFFFFFFFF54
:10510300FFFEFCFEFFFFFFFFFFFFFFFFFF7F3F1FD1
:105113000FFBFDFEFFFFFF3FE7FCFFFFFFFFFFFF6E
:10512300FFE000000000000000000000000000009D
:10513300000000000000000000000000000000006C
:10514300000000000000000000000000000000005C
:10515300000000000000000000000000000000004C
:105163000000F8FFFFFFFFFFFFFFFFFFFFFFFDF75B
:10517300BFFFFF1F000000000103070F3F7FFFFF7A
:10518300FFFFFFFFFFFFFF7F3F0F0703010000004B
:10519300003FFFFFBFF7FDFFFFFFFFFFFFFFFFFF25
:1051A300FFFFF0000000000000000000000000000E
:1051B30000000000000000000000000000000000EC
:1051C30000000000000000000000000000000000DC
:1051D30000000000000000000000000000000000CC
:1051E30000FCFFFFFFFFFFFF7F7F7F7F3F3F3F3FCE
:1051F3001F1E170000000000000000000000000157
:10520300070F1F0F03010000000000000000000053
:105213000000171E1F3F3F3F7F7F7F7FFFFFFFFF82
:10522300FFFFFFF800000000000000000000000086
:10523300000000000000000000000000000000006B
:105243000000000000000000000000000000C0C0DB
:10525300C0C0C08000C0C0C0C0C0C0000080C0C00B
:10526300C0C1C1C1C1800000C0C0C0C0C0C0C0C0F7
:10527300800000C0C0C0C0C0C0C0C00000000000AB
:105283000000000080C0C0C0C0C0C08000C0C0C05B
:10529300000000C0C0C0C00000000080C0C0C0C08B
:1052A300C101010100C0C0C0C000C0C0C0C0C0C0B7
:1052B30000C0C0C0C00000000000000000000000EB
:1052C30000000000000000000000000000003F3F5D
:1052D3003F031F1F1E1F073F3F3F3F000F1F3F3F5F
:1052E3003030303F3F1F0F003F3F3F3F0C1E3F3FDB
:1052F3003721003F3F3F3F3636363000060E0E0E55
:105303000E04000F1F3F3F3030303030003F3F3F2F
:105313000606063F3F3F3F00303C3F3F0F0D0D0F5A
:105323003F3F3C30003F3F3F3F003F3F3F3F071F72
:105333003F3D3F3F3F000000000000000000000031
:1053430000000000000000A04C450000803F0070FA
:1053530042450000004000D038450000404000C0F6
:105363002F4500008040002027450000A04000108A
:105373001F450000C040006017450000E0400020CA
:10538300104500000041004009450000104100C0E5
:105393000245000020410020F94400003041008014
:1053A300ED44000040410060E24400005041000031
:1053B300D844000060410000CE440000704100A0CA
:1053C300C4440000804100A0BB4400008841002089
:1053D300B344000090410020AB440000984100809A
:1053E300A3440000A04100409C440000A8410040A9
:1053F30095440000B04100C08E440000B8410080D5
:1054030088440000C04100A082440000C84100005D
:105413007A440000D04100406F440000D8410000AE
:1054230065440000E04100405B440000E8410000A7
:1054330052440000F041004049440000F84100C0DC
:1054430040440000004200C03844000004420040D1
:1054530031440000084200C0294400000C4200000F
:1054630023440000104200401C440000144200008A
:105473001644000018420000104400001C42004083
:105483000A440000204200C00444000024420000FB
:10549300FF43000028420000F54300002C42008037
:1054A300EB43000030420080E243000034420080BE
:1054B300D943000038420000D14300003C420000C1
:1054C300C943000040420080C14300004442000041
:1054D300BA43000048420000B34300004C4200803E
:1054E300AC43000050420000A643000054420000B9
:1054F300A0430000584200009A4300005C42008031
:1055030094430000604200008F43000064420000A7
:105513008A43000068420000854300006C4200009B
:105523008043000070420000774300007442000093
:105533006E43000078420000664300007C42000096
:105543005E43000080420000564300008242000098
:105553004F4300008442000047430000864200009E
:1055630041430000884200003A4300008A420000A1
:10557300344300008C4200002E4300008E420000A2
:1055830028430000904200002243000092420000A2
:105593001D4300009442000018430000964200009F
:1055A30013430000984200000E4300009A4200009B
:1055B300094300009C420000054300009E42000096
:1055C30000430000A0420000F8420000A242000095
:1055D300F0420000A4420000E8420000A64200009E
:1055E300E2420000A8420000DA420000AA420000A2
:1055F300D4420000AC420000CC420000AE420000A6
:10560300C6420000B0420000C0420000B2420000A7
:10561300BA420000B4420000B4420000B6420000A7
:10562300B0420000B8420000AA420000BA420000A3
:10563300A4420000BC420000A0420000BE420000A1
:105643009C420000C042000096420000C24200009B
:1056530092420000C44200008E420000C642000095
:105663008A420000C842000086420000CA4200008D
:1056730082420000CC4200007C420000CE42000087
:1056830074420000D04200006C420000D24200008D
:1056930068420000000000000000002F000000002E
:1056A3000700070000147F147F1400242A7F2A12A6
:1056B3000062640813230036495522500000050395
:1056C300000000001C224100000041221C000014C5
:1056D300083E08140008083E0808000000A0600007
:1056E3000008080808080000606000000020100897
:1056F3000402003E5149453E0000427F4000004203
:1057030061514946002141454B31001814127F1065
:10571300002745454539003C4A4949300001710994
:10572300050300364949493600064949291E000048
:1057330036360000000056360000000814224100EF
:10574300001414141414000041221408000201511F
:10575300090600324959513E007C1211127C007F28
:1057630049494936003E41414122007F4141221CC3
:10577300007F49494941007F09090901003E414928
:10578300497A007F0808087F0000417F410000201C
:1057930040413F01007F08142241007F40404040C8
:1057A300007F020C027F007F0408107F003E41410E
:1057B300413E007F09090906003E4151215E007FF9
:1057C300091929460046494949310001017F010170
:1057D300003F4040403F001F2040201F003F403813
:1057E300403F006314081463000708700807006152
:1057F3005149454300007F41410000552A552A5530
:10580300000041417F0000040201020400404040C7
:105813004040000001020400002054545478007FEB
:105823004844443800384444442000384444487FC2
:1058330000385454541800087E0901020018A4A427
:10584300A47C007F080404780000447D40000040ED
:1058530080847D00007F102844000000417F4000C9
:10586300007C04180478007C08040478003844445D
:10587300443800FC242424180018242418FC007C39
:105883000804040800485454542000043F444020B2
:10589300003C4040207C001C2040201C003C403049
:1058A300403C004428102844001CA0A0A07C0044D5
:1058B30064544C4414141414141400C0C101C303DD
:1058C30002C2C60607C705C5C404CC0C0DCD0FCF55
:1058D300CE0E0ACACB0BC90908C8D81819D91BDBC5
:1058E300DA1A1EDEDF1FDD1D1CDC14D4D515D71715
:1058F30016D6D21213D311D1D010F03031F133F3C5
:10590300F23236F6F737F53534F43CFCFD3DFF3F14
:105913003EFEFA3A3BFB39F9F83828E8E929EB2B44
:105923002AEAEE2E2FEF2DEDEC2CE42425E527E7D4
:10593300E62622E2E323E12120E0A06061A163A344
:10594300A26266A6A767A56564A46CACAD6DAF6FD4
:105953006EAEAA6A6BAB69A9A86878B8B979BB7B44
:105963007ABABE7E7FBF7DBDBC7CB47475B577B794
:10597300B67672B2B373B17170B0509091519353C4
:10598300529296565797559594549C5C5D9D5F9F94
:105993009E5E5A9A9B5B99595898884849894B8BC4
:1059A3008A4A4E8E8F4F8D4D4C8C44848545874754
:1059B3004686824243834181804000C1814001C0C9
:1059C300804101C0804100C1814001C0804100C1CC
:1059D300814000C1814001C0804101C0804100C1BC
:1059E300814000C1814001C0804100C1814001C0AC
:1059F300804101C0804100C1814001C0804100C19C
:105A0300814000C1814001C0804100C1814001C08B
:105A1300804101C0804100C1814000C1814001C07B
:105A2300804101C0804100C1814001C0804100C16B
:105A3300814000C1814001C0804101C0804100C15B
:105A4300814000C1814001C0804100C1814001C04B
:105A5300804101C0804100C1814000C1814001C03B
:105A6300804101C0804100C1814001C0804100C12B
:105A7300814000C1814001C0804100C1814001C01B
:105A8300804101C0804100C1814001C0804100C10B
:105A9300814000C1814001C0804101C0804100C1FB
:105AA300814000C1814001C0804100C1814001C0EB
:105AB300804101C0804100C181405F5F5F606060E1
:105AC30061616161616262626262636363636363B2
:105AD3006363646464646464646464646464646485
:105AE300646464646464636363636363636362627F
:105AF3006262626261616161606060605F5F5F5E9C
:105B03005E5E5D5D5D5C5C5C5B5B5A5A59595958DE
:105B13005857575656555554545352525151505045
:105B23004F4E4E4D4C4C4B4A4A49484847464545D3
:105B33004443424241403F3E3E3D3C3B3A39383884
