:020000040000FA
:0600000002011A022A2B86
:03002B000231A2FD
:0300330002318413
:03005300022A9EE0
:03007B0002312728
:100083000228DFE5C754F84401F5C77901220000CF
:100093000080FB120086B90003020104E479217891
:1000A30008B800028004F709D8FCE479297802B87B
:1000B30000028004F709D8FCE490028178EE7911FC
:1000C3008002F0A3D8FCD9FA781A90014A7A01BACF
:1000D30000028007E493A3F608DAF97A6E7B1390A3
:1000E300014B78A879048015E493A3AD82AE838A8B
:1000F300828B83F0A3AA82AB838D828E83D8E9D9C6
:10010300E77582577583AB740412012C7582917560
:100113008300740012012C75D00075813F7518811E
:10012300751902759F00020096C09FF59FE473D076
:100133009F22D083D082C09FE493C0E0740193C018
:10014300E0740293F59F2201FF0000B40000280031
:100153002800283075A000A000A000A0000008001F
:1001630008E001F000100010001000100010001053
:100173000050005000500010001000D00700000095
:100183000000000F0001000500307507001000019A
:100193000081FF0000FF140732071A07FF02020263
:1001A30008025000A0000000E80302F483010000ED
:1001B300598202F083010000C31302EA83010000A5
:1001C300620702F083010000C41302E88301000008
:1001D300780702F083010000C51302E683010000E3
:1001E3007A0702F083010000C61302E483080000CB
:1001F3007B0702F083010000C71302F683010000AE
:10020300C813FF0100FF2002F483010000E1830211
:10021300F0830100002C1402FA83000000000002A6
:100223000284030000C807F60CF60CF60CF60CF675
:100233000CF60CF60CF60CF60CF60CF60CF60CF6AB
:100243000C840F9C0F7E0F020202020202020202C2
:10025300010D000000100102F483010000DE83029F
:10026300F0830100006D14020E840100000B0C02E8
:10027300F0830100006E14020C840100000182026D
:10028300F0830100006F14020A84010000E581027B
:10029300F0830100007014020884010000858102CC
:1002A300F08301000071140204840100004F8102F5
:1002B300F0830100007214021484010000738102B0
:1002C300F08301000073140200840100003D8102E9
:1002D300F083010000741402FE83010000F3810225
:1002E300F083010000751402FC8301000076140101
:1002F300E803053F10FFFFFF00013075030201060D
:1003030000000000000000000000000000000000EA
:10031300000000000000000000000000FFFF0600D6
:10032300800CE803010B0953686F775747756172B7
:1003330064051240064006020A000201060302F0A9
:10034300FF426C7565546F6F746800000000000015
:10035300000000000000AE150000D8150A436861D4
:100363007261637465726973746963203100024357
:1003730068617261637465726973746963203200C2
:100383000843686172616374657269737469632099
:1003930033001043686172616374657269737469D1
:1003A3006320340002436861726163746572697328
:1003B3007469632035001643686172616374657202
:1003C30069737469632036001A43686172616374E8
:1003D3006572697374696320370002F48301000056
:1003E300DB8302F0830100008215021884030000FE
:1003F300141302EC83010000831502F08301000053
:100403009415021A84010000151302EC8301000005
:10041300951502F083010000A615021C840200005A
:10042300161302EC83010000A71502F083010000FC
:10043300B815021E84000000171302028403000093
:10044300181302EC83010000B91502F083010000C8
:10045300CA150220840400001E1302EC830100006D
:10046300CB1502F083010000DC1502228403000097
:100473002313020284030000371302EC83010000FC
:10048300DD1502F083010000EE1502EE8303000088
:100493003D13020284030000511302EC83010000A8
:1004A300EF1530313233343536373839414243442E
:1004B300454600286E756C6C20706F696E746572AA
:1004C3002900303132333435363738396162636469
:1004D3006566003F3F3F000000807F0000803FF9DA
:1004E300021550B743BA5100E7DB2E0000A04012BB
:1004F3000135CBEA0112013509F401120135D8F4B3
:1005030001120135D2F601120135C5F80112013588
:10051300BDF901120135929D04120135A99D041202
:100523000135D89D04120135119E04120135399EFF
:1005330004120135679E041201357E9E04120135B3
:10054300959E04120135AB9E04120135D29E04120E
:100553000135E59E04120135FB9E041201350E9F01
:1005630004120135339F041201358F9703120135AD
:100573008E9803120135C39803120135E4980312D0
:100583000135F49803120135159903120135219AA7
:1005930003120135EE9A03120135619B03120135F3
:1005A300E79B031201352A9C03120135619C031258
:1005B3000135E79C03120135B99D03120135179EDE
:1005C300031201352F9E03120135A99E0312013533
:1005D300AC9E03120135AF9E03120135569F0312E1
:1005E30001356E9F031201359E9F03120135BE9F95
:1005F30003120135ACA00312013562A103120135C8
:10060300AAE203120135D2E20312013500E3031219
:10061300013537E3031201359FE303120135E8E3A4
:100623000312013533E40312013571E4031201357A
:10063300AEE403120135DCE40312013583E5031252
:1006430001358DE5031201359AE503120135CDE538
:10065300031201358FE6031201359BE603120135C0
:10066300B3E603120135BDE603120135BCA704123C
:100673000135CAA704120135E2A704120135FAA70E
:1006830004120135389F02120135D69F021201353B
:100693004EA00212013563A1021201359DA102127F
:1006A300013546A2021201351BA3021201357FA4B4
:1006B30002120135D6A4021201355DA502120135DD
:1006C30044A60212013591A6021201351FA7021298
:1006D300013543A70212013518A90212013559A9A0
:1006E300021201357BA902120135FCA90212013560
:1006F300E6AA02120135ACAB0212013557C103124F
:10070300013529C203120135D2C20312013515C3C3
:1007130003120135A2C3031201352EC4031201359E
:100723000FC5031201353EC5031201353AC6031244
:10073300013582C60312013584C703120135C8C7C8
:1007430003120135EEC70312013577FF031201359A
:100753000080041201351680041201353C80041216
:1007630001356481041201356E8104120135C7829B
:1007730004120135C78304120135C6D303120135B0
:10078300FBD4031201352ED50312013578D503129C
:10079300013536D703120135DB8F021201353E9046
:1007A3000212013583910212013593910212013530
:1007B300B69102120135019202120135A69202127C
:1007C30001359C9302120135669402120135DE95C0
:1007D30002120135209602120135BE96021201352E
:1007E3000B97021201353197021201351F9902123C
:1007F3000135249902120135059B02120135599BDB
:1008030002120135BB9B02120135E39B0212013533
:10081300879C02120135499D021201357A9D02120D
:1008230001357D9D02120135C59D02120135079EDA
:10083300021201356E9E021201351893041201351E
:100843002B93041201354493041201358F93041240
:1008530001356A9404120135F99404120135449563
:1008630004120135545C00120135605C001201353D
:10087300995C00120135DE5C00120135955D0012B2
:1008830001351B5E00120135805E00120135AC5E3E
:1008930000120135E55E00120135F96000120135E1
:1008A300D56200120135C06400120135F7650012EC
:1008B3000135576800120135436900120135896A11
:1008C30000120135966B00120135B36B001201352E
:1008D300EB6B00120135056C001201356D6C0012D3
:1008E3000135077100120135A87100120135F97144
:1008F300001201352072001201356E7200120135AB
:100903008C7200120135E07200120135B9730012C6
:100913000135407500120135C8750012013500DE3E
:10092300031201350ADE03120135D5DE0312013548
:10093300F0DE0312013516DF031201355ADF03120D
:10094300013592DF03120135BBDF0312013534E0B9
:100953000312013549E0031201355EE0031201354C
:1009630095E003120135A9E003120135DAE0031221
:10097300013514E10312013540E10312013596E11B
:1009830003120135EAE10312013533E203120135A3
:100993005DE20312013582E20312013591F803127D
:1009A30001355BF9031201353EFA03120135B4FA3E
:1009B30003120135F6FA0312013523FC0312013544
:1009C3002EF30212013557F30212013570F30212AE
:1009D3000135B5F40212013593F502120135B2F572
:1009E300021201353FF60212013582F60212013579
:1009F300CFF7021201356EF802120135EDFA021239
:100A0300013584FB0212013558FC021201353AFD0F
:100A130002120135A6FE0212013539FF0212013519
:100A2300C8A30412013531A40412013585A40412AC
:100A33000135ACA404120135DCEB0312013549EC9A
:100A43000312013594EC0312013589ED03120135CC
:100A530085EE031201356FEF031201352F76001275
:100A630001357176001201354B7700120135247878
:100A7300001201351F7900120135FE79001201358C
:100A83006A7A00120135317B001201359C7B00121A
:100A93000135037C001201352E7C001201359F7C49
:100AA30000120135327D001201359B7D00120135A4
:100AB300B07D00120135F87D00120135117E001260
:100AC3000135767E00120135797E001201357DFCF9
:100AD30003120135A5FC03120135E3FC03120135B2
:100AE300A1FD031201350CFE0312013528FE03128A
:100AF300013550FE0312013580FE031201358FFECE
:100B03000312013509FF031201352FFF03120135CB
:100B13005FBC021201353CBE0212013537C002121E
:100B230001350AC10212013555C102120135A0C1B6
:100B330002120135B2C102120135F2C102120135AE
:100B430027C20212013573C202120135A2C2021278
:100B53000135C5C20212013512C3021201359BC30E
:100B630002120135A8C50212013593C702120135DD
:100B7300D6C7021201353BC9021201357CC90212E4
:100B83000135EFC9021201353BCA0212013566CAAB
:100B9300021201350080031201352B800312013547
:100BA300128703120135368903120135F18A0312C4
:100BB30001354E8C03120135278401120135BE84A1
:100BC30001120135EB840112013531850112013522
:100BD30070860112013507880112013581880112DF
:100BE30001359C8801120135118901120135408AB2
:100BF300011201359B8B011201359D8C01120135C8
:100C0300FA8D01120135138E01120135708E011216
:100C13000135528F01120135858F01120135F58F90
:100C2300011201356F9001120135BE900112013599
:100C33008A91011201358F92011201356E930112CF
:100C43000135F99301120135679401120135DB94E3
:100C530001120135049501120135C39501120135C5
:100C63003D97011201355A97011201357997011207
:100C730001350A98011201352F9801120135579851
:100C830001120135D298011201352C990112013557
:100C9300809A011201353D9B01120135109C01120E
:100CA300013590CA02120135E0CA02120135ECCABD
:100CB30002120135C9CB02120135F9CB02120135FB
:100CC30031CC02120135B0CC02120135E8CC02124C
:100CD30001353ACD0212013577CD021201359CCF91
:100CE30002120135C8D102120135C3D302120135F4
:100CF3009ED502120135E97F0012013583B201123C
:100D03000135CDB201120135ACB8011201352DBA4E
:100D1300011201358CC00112013587C10112013561
:100D2300C4C101120135E7C10112013529C2011203
:100D3300013532C2011201353CC20112013528C30B
:100D4300011201351CC4011201353E9C011201350B
:100D5300B6A601120135BCA601120135C8AD0112B8
:100D63000135D183041201356784041201357D8472
:100D730004120135F784041201354D85041201353F
:100D83008B8504120135E88504120135658604124A
:100D930001356E86041201357A86041201358D867B
:100DA30004120135C98604120135DF8604120135A8
:100DB3003E870412013531F0031201353EF0031270
:100DC300013558F00312013597F003120135D5F0C0
:100DD300031201353AF1031201354FF103120135C4
:100DE3005AF10312013567F1031201357EF1031243
:100DF30001358CF10312013597F103120135A3F18B
:100E030003120135B2F103120135BDF103120135AD
:100E1300E0F10312013589F20312013599F203124D
:100E23000135B3F203120135D0F203120135ECF2AE
:100E33000312013511F3031201351BF303120135BC
:100E43002FF3031201354EF303120135AFF30312EF
:100E53000135B5F303120135BBF303120135C1F3B9
:100E630003120135CDF30312013500F403120135EA
:100E730064D802120135E6D8021201358FD9021265
:100E83000135D7DA02120135E5DC02120135CBDD7B
:100E93000212013500DE0212013522DE0212013593
:100EA300CBDE021201359BE002120135C4E00212CF
:100EB30001353CE1021201356EE1021201357BE19D
:100EC30002120135C6E102120135EAE102120135CF
:100ED3003BE40212013545E502120135A1E5021298
:100EE3000135E1AD02120135F2AE02120135D6AF82
:100EF30002120135E0AF0212013502B002120135D0
:100F03000EB002120135B2B102120135DFB1021285
:100F13000135F5B2021201354AB30212013599B413
:100F2300021201356EB502120135CAB5021201353E
:100F330035B6021201356AB602120135ADB6021298
:100F4300013577B9021201358FB90212013520BA82
:100F5300021201352EBA021201357BBA0212013593
:100F630089BA02120135F5BA0212013570BB0212B9
:100F73000135C7BB02120135718C03120135938C05
:100F830003120135A48E0312013563910312013557
:100F93008D92031201354B930312013537940312DB
:100FA3000135D99B04120135FE9B04120135749C53
:100FB300041201353ABA0312013543BA031201355B
:100FC3004CBA0312013524BB03120135D5BC0312FD
:100FD300013505BD0312013530BD0312013560BD76
:100FE300031201358BBD03120135BFBD0312013559
:100FF300EBBD031201352EBE0312013559BE031298
:101003000135A0BE03120135F5BE0312013537BF0A
:101013000312013591BF03120135BCBF0312013521
:101023000BC0031201353BC00312013566C0031226
:10103300013594C003120135B7C0031201357BAAF1
:1010430004120135A7AA04120135D4AA04120135EA
:10105300DEAA04120135EEAA04120135B2AB041262
:101063000135FD8A04120135228B041201354C8BA4
:10107300041201356ACE031201356CCF0312013518
:1010830008D0031201354DD00312013555D1031297
:101093000135C5D2031201352BD30312013506AC3A
:1010A30004120135C4D801120135A4DA0112013545
:1010B30060DC011201354DDD01120135D4DD011271
:1010C30001354EDE011201357FDE01120135F6E1F5
:1010D3000112013572E20112013563E30112013598
:1010E3009BE301120135DEE30112013515E501121F
:1010F30001356AE501120135A1E50112013513E657
:10110300011201353AE60112013554E601120135A7
:1011130046E70112013556E701120135F2E80112E3
:10112300013509E9011201353BE9011201358CEA68
:101133000112013593A804120135A4A80412013544
:101143003FA904120135B0FF02120135EFFF02126D
:101153000135D7AC04120135DAA604120135EAA62B
:101163000412013502A704120135B6A70412013592
:10117300DDA40412013561A504120135C7A50412CB
:10118300013589F403120135B9F4031201350DF564
:1011930003120135A9F5031201356DF6031201356A
:1011A300E9F603120135459F041201356A9F0412C3
:1011B3000135D29F04120135F19F041201353BA082
:1011C3000412013594A004120135D3A00412013591
:1011D300D6A00412013502AA0312013527AA03126D
:1011E300013544AA0312013561AA0312013585AA08
:1011F30003120135B2AA03120135C5AA0312013540
:10120300D8AA03120135FCAA0312013527AB031236
:101213000135D9AB0312013557AC031201357BAC51
:1012230003120135C1AD0312013518AE03120135A6
:1012330041AF03120135BBAF0312013504B00312F2
:1012430001350DB0031201351AB00312013524B074
:10125300031201352EB00312013541B003120135DB
:101263004AB00312013553B00312013564B00312BF
:1012730001359DB103120135FCFA0112013513FB4F
:10128300011201358CFB0112013565FC0112013598
:1012930023FF0112013588FF01120135C7FF011237
:1012A3000135F87F00120135AC97041201352D99F1
:1012B300041201358E9904120135D49904120135B3
:1012C300F68D041201350F8E04120135398E041286
:1012D3000135538E04120135628E04120135798E65
:1012E30004120135888E041201359D8E04120135D6
:1012F300D48E04120135F68E041201351A8F0412AE
:101303000135598F04120135908F04120135E58F91
:1013130004120135279004120135E0A504120135AA
:1013230012A60412013531A6041201353DA604129A
:10133300013598A604120135C4A6041201356E873F
:1013430004120135C587041201359B890412013546
:101353009D7E00120135D87E001201357E7F00127A
:101363000135937F0012013556A2041201357FA285
:1013730004120135A8A20412013541A30412013558
:1013830083A304120135CDA103120135D7A10312A2
:10139300013517A20312013560A2031201359AA287
:1013A30003120135F4A20312013513A3031201350D
:1013B300B5A503120135BEA5031201350FA603120D
:1013C300013538A60312013542A603120135AEA634
:1013D3000312013542A703120135A1A703120135F8
:1013E300CFA7031201354FA80312013592A80312A8
:1013F3000135CDA803120135DFA803120135FEA87C
:101403000312013507A903120135D6A903120135C9
:10141300DFA00412013532A1041201359EA104128A
:10142300013506A204120135AD9004120135D7909F
:1014330004120135AC9104120135A0920412013556
:10144300ECD803120135E1D903120135FBD903129C
:1014530001350CDA0312013541DC0312013561DC7D
:1014630003120135D799041201350D9A041201357F
:10147300469A041201359F9B041201354AA90412AE
:10148300013560A9041201356AA904120135B4A912
:1014930004120135F8AA0412013527B203120135EB
:1014A300E4B2031201351FB30312013547B303122C
:1014B3000135A9B303120135F5B30312013559B44C
:1014C30003120135D3B403120135D5B50312013527
:1014D30088B7031201350AB8031201356FB8031236
:1014E300013586B8031201358FB903120135CDB921
:1014F3000312013552E7031201356BE7031201357D
:101503000CE8031201354CE80312013565E80312B8
:10151300013598E803120135E5E80312013519E9AD
:10152300031201355BE90312013565EB0312013543
:10153300CFEB03120135EEE50212013551E9021238
:101543000135CDEA0212013524EB0212013541EBDC
:1015530002120135BFEB021201354AED02120135C9
:101563002EEE02120135BBF1021201358BF202128B
:1015730001356E950412013578950412013588956D
:1015830004120135309604120135749604120135A4
:10159300BB96041201353B9704120135829704125E
:1015A300013534C60112013522CA01120135C7CAF9
:1015B30001120135DBCB01120135C7CC0112013514
:1015C3000DD2011201350FD30112013532D40112AC
:1015D3000135E8D40112013537D60112013563C84C
:1015E30003120135BEC803120135DBC803120135EE
:1015F3002FCA03120135DBCA03120135DACB0312FA
:101603000135BACD0312013509CE0312013500802D
:10161300021201351E850212013582AC0412013516
:10162300E5A9041201350FAA041201354BAC0412CB
:101633000135AEAC04120135DAFF01E7667010081C
:1016430009E766700A0809E76670040809E7662275
:10165300E066701008A3E066700A08A3E0667004F1
:1016630008A3E06622C3E7960809E7960809E79608
:101673000809E796A2D265D03322C3E09608A3E017
:101683009608A3E09608A3E096A2D265D03322C0C1
:1016930008C3E096F50808A3E096420808A3E0967D
:1016A300420808A3E0964208A2D265D033E5087049
:1016B30001D3D00822C3E7960809E7960809E796FD
:1016C3000809E79622C3E09608A3E09608A3E096EC
:1016D30008A3E09622C008C3E096F50808A3E096A5
:1016E300420808A3E096420808A3E0964508700163
:1016F300D3D00822080808E630E71112202E12176B
:101703000F080808C64480C618181822181818E9C4
:10171300799EC608CAC608CBC608CCC6C370207952
:1017230096CACBCC7019798ECBCC70137986CC70DA
:101733000EF9802ACA33CACB33CBCC33CC3319301E
:10174300E7F2CCCBCA3350147004EA30E00DE4CA9C
:101753003ACACB3BCBCC3CCC500209C3E913C6CC31
:10176300182313C6CB18C6CA18C6F9228A088B09D0
:101773008C0A8D0B78081217C430F03912180980BF
:10178300341217C420F01430E72B74FFFCFBFA74F7
:101793007F8022E4FCFBFA7480801AB48008BC00CA
:1017A300F2BB00EF800F50EBF9E4C39AFAE49BFB22
:1017B300E49CFCE499C6CC18C6CB18C6CA18C6F973
:1017C30022E4C9C608CAC608CBC6D3330308CCC6AD
:1017D3003392F0C3947F402E94184019C9B907047B
:1017E300CACBCC225025C309CA33CACB33CBCC33A3
:1017F300CC33D9F422F4600DC9CCC313CB13CBCAB9
:1018030013CAD9F6CC22E4FCFBFA2214FCFBFA221D
:10181300E62618461846184622E727194719471996
:101823004722181818E60846087009E626087005C6
:10183300E633F4220822191919E70947097009E761
:1018430027097005E733F4220922E6084608C31383
:101853004608336002E633F422E7094709C3134716
:1018630009336002E733F42212184D602512185C25
:101873006020121813700302181C080808E766702A
:10188300101819E766700A1819E76670041819E743
:101893006622F42212184D601C12185C601712188D
:1018A30013700712181C7001D322C0D012181C70B9
:1018B30006D0D0B322C32233D0D0501430E0F6C3C5
:1018C300E7960809E7960809E7960809E796B32219
:1018D30020E0D5E6970809E6970809E6970809E6A0
:1018E30097B32212184D601B12185C60161218135E
:1018F300700712181C600CB322C0D012181C70059C
:10190300D0D022C32233D0D0501330E0EBC3E796BC
:101913000809E7960809E7960809E7962220E0E414
:10192300E6970809E6970809E6970809E69722006B
:1019330012184D604F12185C6012E7548066F6125D
:101943001825701112181C703B090909F4F618F6D2
:1019530018F618F622121839701512181308080809
:1019630060EAE6447FF618768018E4F618F6221249
:101973001813601612181C7012E4F608F608F6081D
:10198300E65480F609090918181822EAC0E0EBC0EA
:10199300E0ECC0E0EDC0E0E687F0A4FBACF008E6C5
:1019A30087F0A42CFCE435F0FA1809E687F0A42CA0
:1019B3004B60027401CA35F0FCE433FB09E687F09F
:1019C300D2F7A42CCB35F0FC1908E687F0A42BCC76
:1019D30035F0FBE433FD0819E687F0D2E7A42C4A7F
:1019E300CB35F0CD3400FC09E687F0D2E7A42DCC4B
:1019F30035F0FDE433FA0918E687F0D2F7A42CCDCD
:101A030035F0CA3400FC08E687F0D2E7D2F7A42AFF
:101A1300CC35F07A7E20E70B0ACB33CBCD33CDCC5C
:101A230033CC33CB3350147004ED30E00ED2F1E4F9
:101A3300CD3DCDCC3CCC3B5005DA05C2F1EB547F18
:101A4300C63308E63392F0FBE73309E733C39A5012
:101A53002D2B70190C0D4C4D70151806E608C33369
:101A6300700D20F10AA2F013F6E418800B4024E471
:101A7300F630F002768018F618F618F68024D33B79
:101A830014501074FFA2F013F6187680E418F618B9
:101A9300F6800FA2F013F618E63303F618ECF618E7
:101AA300EDF6D0E0FDD0E0FCD0E0FBD0E0FA22126E
:101AB300185C604612184D603DE9687008F618F628
:101AC30018F618F622748067F7121AE609090974E2
:101AD3008067F72212184D601D12185C70051919E2
:101AE30019801A121825701F121839C37003E6677C
:101AF3003319191940071818182208080874FFF633
:101B030018F618F618F622121839601712181C70F6
:101B13002192F01218137019501720F014080808B6
:101B2300090909E7F61819E7F61819E7F61819E786
:101B3300F62212181360E6E869701F0808E624808D
:101B4300F608E436F618547FB47F0CE65480600739
:101B5300F6E418F618F622181822E9C6CC08C6CD02
:101B630008C6CE08C6CFC0E0E8C0E0EAC0E0EBC0DC
:101B7300E009E9F809E7FA09E7FBE6F918E6F8C32B
:101B8300EC98ED99EE9AEBC2E7F5F0EFC2E795F02A
:101B9300500E600CEBCFFBEACEFAE9CDF9E8CCF8B6
:101BA300EAA2E7D2E7FAEB33FB13F5F0EEA2E7D2B2
:101BB300E7FEEF33FFC5F013A2E730E601B313C529
:101BC300F0C3C0E0C0F07F00C39BFB605E9418606D
:101BD3000F401D14601AD0E023F9D0E0F8021CB8BE
:101BE3008AF0E9486003D2F0E4AFF0FAF9F8803BF9
:101BF300EB30E40D89F0EA6003D2F0E4AFF0F9CA08
:101C0300F8EB30E30D88F0EF6002D2F0AFF0E4CAF6
:101C1300C9F8EB54076014FBC3EA13FAE913F9E8B4
:101C230013F8EF135002D2E0FFDBEDD0E0C0E03059
:101C3300E739C3E49FFFF5F0EC98FC42F0ED99FD22
:101C430042F0EE9AFE42F0D0E0F9D0E0F8E5F06021
:101C53007AE923F9EE20E742D8028067C3EF33FF26
:101C6300EC33FCED33FDEE33FE80EAEC28FCED397A
:101C7300FDEE3AFED0E023F9D0E0F84002801BC32A
:101C8300EE13FEED13FDEC13FCEF135002D2E0FF55
:101C930008B800067F7F74FF802EEF3350178CF057
:101CA30020F00260100CBC000C0DBD00080EBE003D
:101CB3000408E860DFE933E813FFEE2313FE4F4D1A
:101CC3004C8008E95480FFE4FEFDFCEE33EF33F46F
:101CD3007004FCFD7E80D0E0FBD0E0FAD0E0F8D0C9
:101CE300E0CFC618CEC618CDC618CCC6F922121836
:101CF3004D70041818182212185C700D74FFF61832
:101D030019F61819F61819F622E7548066F6121810
:101D130013700F12181C70F014F608F608F608F684
:101D230080D112181C700CF608F608768008E64479
:101D33007F80EC12183C700C12182860BFE65480A8
:101D4300F6E480BB121828700519191980A5E869F3
:101D5300700C763F18768018F618F6E8F922E6CD6F
:101D6300C0E018ECC0E0E633CD33CDD313F6E7196A
:101D7300FCE7191933CC33C3947F400ECD9D502417
:101D830008E65480F6E418F6800FF4043D1450146A
:101D930008E6447FF6187680E418F618F6D0E0FCDF
:101DA300D0E0FD22CCD313CCFD18E4C6CBC0E018A1
:101DB300E4C6CAC0E00808ED08C633E613F618E423
:101DC30033C675F003C3CA97CA09CB97CB199C4096
:101DD300047D08802EBD0003021E9A16B6FF050679
:101DE30006081618C3CA33CACB33CB33CA27CA096A
:101DF300CB37CB193CC37D08803E187D0820E75CB8
:101E0300C633C6CA33CACB33CB33DDF1D5F0EB309F
:101E1300E77BCA97CA09CB974ACB199C406F4B7093
:101E230025E620E0218066187D08C3CA97CA09CB3E
:101E330097CB199CD3C633C6CA33CACB33CB3350E3
:101E4300C9DDE7D5F0E1D3E4C636C608C636C60811
:101E5300C636C608C636C61818188031C3CA97CA0C
:101E630009CB97CB199CB34097C633C6CA33CACBA9
:101E730033CB33DD34D5F02EC6A2E0C640C8CA2723
:101E8300CA09CB37194A70BECB3CB480B90808E6FF
:101E93003308E633601F181818D0E0FAD0E0FBD0FF
:101EA300E0FCD0E0FD22187D08CA27CA09CB37CB56
:101EB300193CD3808013F618E4B67F11F618B6FFE9
:101EC3000EF618C60470D20808768080CAF618F693
:101ED30018F680C5080808EAC0E0EBC0E086F0E722
:101EE300A4FA180986F0E7A42AFA180986F0E7A4E9
:101EF3002AFA180986F0E7A42AFA1986F0E7A4FB60
:101F0300E5F02AFA190886F0E7A42BFBE5F03AFA84
:101F1300190886F0E7A42BFBE5F03AFA18180986AE
:101F2300F0E7A4C5F02BFBE43AFA1908E7C5F0C6BD
:101F3300A426F6E5F03BFBE43AFA1886F0E7A4F6AC
:101F4300E5F00826F6E43B08F6E43A08F6D0E0FBB1
:101F5300D0E0FA22E4CFC0E0E4CEC0E0E4CDC0E0BC
:101F6300E4CCC0E075F020E626F608E633F608E692
:101F730033F608E633F6181818EC33FCED33FDEEB0
:101F830033FEEF33FFC3EC9709ED9709EE9709EFA3
:101F930097191919400FFFEC97FC09ED97FD09EE0E
:101FA30097FE191906D5F0BFECF709EDF709EEF71F
:101FB30009EFF7191919D0E0FCD0E0FDD0E0FED00D
:101FC300E0FF22122031181818121F5712201D1972
:101FD30019192212201D191919080808E6181818CA
:101FE30020E7E0121F571220311818182209090997
:101FF300E719191920E7DC080808E618181820E77C
:1020030003021F57122031181818121F57122031BC
:1020130018181812201D19191922E4C397F709E497
:1020230097F709E497F709E497F722181818E4C318
:1020330096F608E496F608E496F608E496F6226027
:1020430017080808C6A2E713C618C613C618C6138E
:10205300C618C613C6D5E0E9226016080808C6C329
:1020630013C618C613C618C613C618C613C6D5E0BA
:10207300EA227009080808226016181818C6C33324
:10208300C608C633C608C633C608C633C6D5E0EA93
:1020930022E627F60809E637F60809E637F60809BF
:1020A300E637F622E026F608A3E036F608A3E03684
:1020B300F608A3E036F622E026F008A3E036F0089F
:1020C300A3E036F008A3E036F022C3E697F608094A
:1020D300E697F60809E697F60809E697F622C3E0BD
:1020E300C696F608A3E0C696F608A3E0C696F608D9
:1020F300A3E0C696F622C3E096F008A3E096F008A4
:10210300A3E096F008A3E096F022E056F608A3E0D9
:1021130056F608A3E056F608A3E056F622E056F07A
:1021230008A3E056F008A3E056F008A3E056F02217
:10213300E0F608A3E0F608A3E0F608A3E0F622E43D
:1021430093F608740193F608740293F608740393E4
:10215300F622E6F008A3E6F008A3E6F008A3E6F00B
:1021630022E0FAA3E0FBA3E0FCA3E0FD22EAF0A354
:10217300EBF0A3ECF0A3EDF022E0FCA3E0FDA3E081
:10218300FEA3E0FF22ECF0A3EDF0A3EEF0A3EFF04B
:1021930022E0F8A3E0F9A3E0FAA3E0FB22E8F0A32E
:1021A300E9F0A3EAF0A3EBF022CAC0E0E6F0A3084B
:1021B300DAFAD0E0FA22CAC0E0E0A3C582CCC58235
:1021C300C583CDC583F0A3C582CCC582C583CDC5E8
:1021D30083DAE6D0E0CA22C3E498F8E499F912223C
:1021E3001B8026C3E49AFAE49BFBE920E7E9122269
:1021F3001BE498F8E499F922C3E498F8E499F912F6
:10220300221BE498F8E499F9C3E49AFAE49BFB22CD
:10221300EB20E7CFE920E7E0B90010BB0008E88A2C
:10222300F084F8AAF022E4FBC8FA22EB70227B10B8
:10223300C833C8C933C9335007C39AC3DBF2800616
:102243009A50012ADBEAC833F4C8C933F4C9FA2225
:1022530075F008E4C833C8C933C933C99AC99B5058
:1022630004C92AC93BD5F0ECFBC833F4C8E4C9FA66
:1022730022600D08C6A2E713C618C613C6D5E0F33D
:1022830022600C08C6C313C618C613C6D5E0F422D1
:10229300700422600D18C6C333C608C633C6D5E022
:1022A300F41822251810AF08F518400C15198008EA
:1022B300F51840021519D2AF2200C0D0251810AF6F
:1022C30008F518500C05198008F51850020519D2A5
:1022D300AFD0D0222518F58210AF08F518400C15A1
:1022E300198008F51840021519D2AF8519832225E4
:1022F30018F582E43519F583222518F8E43519F920
:10230300222518FAE43519FB222518FCE43519FDBA
:1023130022E4732518C582C0E0E51934FFC583C0E4
:10232300E0E518C3958224F810AF088583198582E8
:10233300188008858319858218D2AFCEF0A3E520D3
:10234300F0A37808E608F0A3DEFAEFF0A3E5812412
:10235300FAF8E608F0A3E608F0A3E608F0A30808F5
:10236300E608F0A3E608F0A315811581D0E0FED0BE
:10237300E0F8158115811581E8C0E0EEC0E0222563
:1023830018C582C0E0E51934FFC583C0E0E518C372
:10239300958224F910AF08858319858218800885F2
:1023A3008319858218D2AFCEF0A3E520F0A3780875
:1023B300E608F0A3DEFAEFF0A3E58124FBF8E608D4
:1023C300F0A3E608F0A30808E608F0A3E608F0A3E4
:1023D30015811581D0E0FED0E0F815811581E8C0A4
:1023E300E0EEC0E022851983851882E0A3FEE0A316
:1023F300F5207808E0A3F608DFFAE0A3FFE0A3C026
:10240300E0E0A3C0E0E0A3C0E0E0A3C0E0E0A3C03D
:10241300E010AF08858218858319800885821885A6
:102423008319D2AFD083D0820201328519838518F4
:1024330082E0A3FEE0A3F5207808E0A3F608DFFA24
:10244300E0A3FFE0A3C0E0E0A3C0E0E0A3C0E0E0BE
:10245300A3C0E010AF0885821885831980088582A0
:1024630018858319D2AFD083D08222C0D02518C556
:1024730082C0E0E51934FFC583C0E0E518C3958247
:1024830024F310AF08858319858218800885831982
:10249300858218D2AFC8F0A3E9F0A3EAF0A3EBF06A
:1024A300A37908E709F0A3D8FAECF0A3EDF0A3EEC3
:1024B300F0A3EFF0A3D0E0F0A3D0E0F0A3D0E0F0DE
:1024C300A3E520F0A3E5F0F0A32285198385188204
:1024D300E0C0E0A3E0F9A3E0FAA3E0FBA37808E0FF
:1024E300F608A3DFFAE0FCA3E0FDA3E0FEA3E0FF10
:1024F300A3E0C0E0A3E0C0E0A3E0F5D0A3E0F520B3
:10250300A3E0A3F5F010AF0885831985821880082E
:10251300858319858218D2AFD082D083D0E0F8D0DA
:10252300E03274048006740280027401C0E0F40493
:102533001222D7D0E01221AC2274048004740280EA
:1025430000CCC0E0EDC0E0E518C39CCCAD19500150
:102553001D10AF068C188D1980068C188D19D2AFFB
:102563001221B9D0E0FDD0E0FC22D083D082E9C0B3
:10257300E0E493A3C386F0C5F095F0F908E493A3D0
:1025830086F0C5F095F0700BE493A3C3994005E979
:10259300048002A3E475F002A42582F582E5F035F8
:1025A30083F583D0E0F9E493A3C0E0E493C0E02291
:1025B300D083D082ECC0E0EDC0E0E493A3FCE493CD
:1025C300A3FDED4C600D1225FFEC24FFFCED34FF61
:1025D300FD80EFE493A3FCE493A3FDED4C600D12A7
:1025E300263EEC24FFFCED34FFFD80EFD0E0FDD070
:1025F300E0FCE493A3C0E0E493C0E022C0E0C3E4C2
:102603009396087401939618400FE4936670080834
:10261300740193661870007019A3A3C3E49396081A
:102623007401939618A3A3400DD0E0D0E0D0E0024C
:1026330025EFA3A3A3A3A3A3D0E022C0E0C0F08807
:10264300F0E4936670080874019366187000A8F0AC
:10265300A3A3700BD0F0D0E0D0E0D0E00225EFA32D
:06266300A3D0F0D0E0223C
:10266C0074F5122382EAFEEBFFEE2434F8EF34000B
:10267C00F988088909EE2435F582EF3400F583E0FA
:10268C00F8EE2437F582EF3400F583E0F50AEC859B
:10269C000AF0A4FCAAF0850AF0EDA42AFDE82CF8B7
:1026AC00E43DF97A257B0012221BEA850882850914
:1026BC0083F05407F87401B800028004C333D8FCCB
:1026CC00C0E0E0131313541FF8EE28F8EF3400F9B0
:1026DC00E8245DF582E93400F583D0E0F8E0586039
:1026EC0008EE2434F582EF801EEE2436F582EF34AA
:1026FC0000F583E0F5F0EA84A8F0EE28F8EF34005A
:10270C00F9E82438F582E93400F583E0F97F040216
:10271C00242E74F5122382EAFEEBFFEE2434F582AC
:10272C00EF3400F583E0C0E0EE2435F582EF3400A1
:10273C00F583D0E0F08E828F83A3A3A3A3A3A3A3DE
:10274C00C082C0838E828F83A3A3A3A3A3E0F8A32C
:10275C00E0F9D083D082E0C398F508A3E099F5099D
:10276C00EE2480F582EF3400F583E064017069EEAD
:10277C002481F582EF3400F583E0F8A3E0F98E8232
:10278C008F83A3A3A3A3A3A3A3E0FCA3E0FD8E824A
:10279C008F83A3A3A3A3A3E0FAA3E0FBC3EA9CEB60
:1027AC009D5027C3EC98ED99402EC3EA98EB9950B5
:1027BC00277CAD7D09EEFAEFFB120C54EE2480F56C
:1027CC0082EF3400F583E4F0800EC3EA98EB994075
:1027DC00E0C3EC98ED9950D9EE2434F8EF3400F9BD
:1027EC00E8FCE9FDEE2435F582EF3400F583E0F8E2
:1027FC00EE2437F582EF3400F583E0F50AE5088521
:10280C000AF0A4F508AAF0850AF0E509A42AF5094E
:10281C00E82508F8E43509F97A257B0012221BEA31
:10282C008C828D83F05407F87401B800028004C3C5
:10283C0033D8FCC0E0E0131313541FF8EE28F8EF64
:10284C003400F9E8245DF582E93400F583D0E0F832
:10285C00E0586008EE2434F582EF801EEE2436F545
:10286C0082EF3400F583E0F5F0EA84A8F0EE28F866
:10287C00EF3400F9E82438F582E93400F583E0F907
:10288C00123119022719C082C083851882851983D9
:10289C00E0F8A3E0F9C3EA9CEB9D5012C3EC98ED71
:1028AC00994019C3EA98EB99501279018010C3EA48
:1028BC0098EB9940F5C3EC98ED9950EE7900D083E4
:1028CC00D08222EAC39CFAEB9DFB220085218785EE
:1028DC0022C622C0E0C0D0E8C0E0E9C0E0EAC0E017
:1028EC00EBC0E0ECC0E0EDC0E0C008C009C00AC01D
:1028FC000BC082C083C0F0759B00906182E0A2E6A1
:10290C0040030229BDE591A2E640030229BD759161
:10291C00BF900872E064057008120D8C120D98803F
:10292C0003120D92752100120DF2E9900873F079E3
:10293C0000120DE6120BCA7A017B00900871E0F9C7
:10294C001213E6907803E064426003022A06900AB0
:10295C000FE014F06003022A06C2AF12296A007855
:10296C002AD0E0F618D0E0F6E59F5407F9700590F0
:10297C00830C80039083087808122133E9C4C0E0EB
:10298C007829E65508F50808E65509F509740B7819
:10299C0008122284D0E02508F8906270E0A2E7408B
:1029AC00F8E8C333906272F0906270E0D2E0F0808D
:1029BC0049E0A2E55024E591A2E5501E7591DF9007
:1029CC000872E0640D7013900894E004F0642870B1
:1029DC0002E4F07A00E0F9120E64906181E0A2E367
:1029EC005009E5E9A2E3500375E9F7A3E0A2E7502B
:1029FC0009E591A2E7500375917FD0F0D083D08286
:102A0C00D00BD00AD009D008D0E0FDD0E0FCD0E04B
:102A1C00FBD0E0FAD0E0F9D0E0F8D0D0D0E032C072
:102A2C00E0C0D0C082C083906183E0A2E05009E591
:102A3C00BFA2E0500375BFFEE0A2E15009E5BFA2C2
:102A4C00E1500375BFFDE0A2E25009E5BFA2E250E0
:102A5C000375BFFBE0A2E35009E5BFA2E350037589
:102A6C00BFF7E0A2E45009E5BFA2E4500375BFEF45
:102A7C00E0A2E55009E5BFA2E5500375BFDFE0A277
:102A8C00E65009E5BFA2E6500375BFBFD083D082E4
:102A9C008088C0E0C0D0E8C0E0E9C0E0EAC0E0EB6C
:102AAC00C0E0ECC0E0EDC0E0C0F0E5A7A2E6500F3E
:102ABC00E5A1A2E6500953A7BF75A1BF122B03E5F0
:102ACC00A7A2E5500CE5A1A2E5500653A7DF75A11E
:102ADC00DFE5A7A2E15009E5A1A2E1500375A1FD34
:102AEC00E5A7A2E2500CE5A1A2E2500653A7FB75A4
:102AFC00A1FBD0F0022A1474F812238275210190E4
:102B0C000872E064067015120D208A828B83A3A3D1
:102B1C00A3A3A3A3E0FAA3E0FB120D7AA2AFE433C4
:102B2C00FED2AF900878E0640170187A207B009098
:102B3C000871E0F91215187A207B00900871E0F901
:102B4C001213EC906182E0D2E6F0900A0EE0602164
:102B5C0085C6228016900877E064017008E5C6549B
:102B6C00F84405F5C653BEFC1228D87401652160E3
:102B7C00E4EEA2E092AF7F0102242E008E238F247C
:102B8C00858228858327851882851983E0CEA3E06A
:102B9C00CF852882852783EBC9EAC8EDCBECCA75B3
:102BAC00F010C3E833C8E933C9EA33CAEB33CBC3FB
:102BBC00EA9EF526EB9FF525B35004AB25AA26EC2F
:102BCC0033CCED33CDD5F0DAAE23AF242274EB1237
:102BDC00238274FA1222A68A088B098C148D159004
:102BEC000872E024F7C39405500690833C022D3BF9
:102BFC00120D208A0A8B0BAE0AAF0BEE4F7003023C
:102C0C002D38AC08AD09851882851983AA82AB834F
:102C1C00120DAA8E828F83A3A3780812213390837E
:102C2C0034780812210D851882851983780C1221AD
:102C3C0033908334780C12210D7808790C1216B865
:102C4C00501F7808790C1220CD9083487808121602
:102C5C00D84047850810850911850A12850B138009
:102C6C0041850C10850D11850E12850F1378107986
:102C7C00081220CD90834878101216D8501C75106D
:102C8C00007511007512007513017810790C122063
:102C9C00CD78107908122094800890833C7810121B
:102CAC0021337409781012207590835C78081221F6
:102CBC003378107908121F578E828F83A3A3A3A396
:102CCC00A3A3E0F8A3E0F97AD07B0312221B8808B7
:102CDC008909E4F50AF50B7810790812209474042C
:102CEC001222F2E0F8A3E0F97AD07B0312221BE85F
:102CFC00FA8A08E4F509781079081216B8500778A2
:102D0C001079081220CD900872E06408600AE06423
:102D1C00066005E06405701C9082C478101216D809
:102D2C0050129082A878101220A780089082AC785C
:102D3C001012213385148285158378101221557455
:102D4C00061222BC7F0E02242E74F7122382120D5F
:102D5C00BC900A0CE064017010906245E4F0A3F0A2
:102D6C0053F4F343FE0C5390F3120D68E5C65480F4
:102D7C004449F5C6E59E547F644970F890618574AA
:102D8C000FF0900A0AE0F47002A3E0604E900A0B78
:102D9C00E0600814601B14602E80407508017509F2
:102DAC0000900A0AE07808122293E508F452808019
:102DBC002A750801750900900A0AE0780812229316
:102DCC00E508F452908014750801750900900A0A00
:102DDC00E07808122293E508F452A079007F0202F1
:102DEC00242E74F7122382E9FEEAFF74016E700C34
:102DFC007A807B00900871E0F91213E6905C50E445
:102E0C0093F46008E493F9120BBE800953C680E575
:102E1C009E547F70FA120D6E900A0CE064017003E0
:102E2C00120BD6900A0AE0F47002A3E0604B900AF1
:102E3C000BE0600814601A14602C803D7508017555
:102E4C000900900A0AE07808122293E50842808073
:102E5C0028750801750900900A0AE0780812229377
:102E6C00E50842908013750801750900900A0AE084
:102E7C007808122293E50842A0120DBC120D208A8C
:102E8C00088B09A808A909E8496015E5E170FCE878
:102E9C002414F582E93400F583E0F46003E0F5E1F5
:102EAC0074016F700A7A01900871E0F912148802AB
:102EBC002DE974F11223828A088B098C0A8D0B740C
:102ECC000F1222F2780C12213390833478081221DD
:102EDC000D908334780C12210D7808790C1216B8E9
:102EEC0050157808790C1220CD908348780812166A
:102EFC00D8401579018013780C79081220CD908375
:102F0C0048780C1216D840EB79007F0802242E74F6
:102F1C00ED1223828A088B098C0A8D0B74131222F2
:102F2C00F2780C122133908334780812210D90839F
:102F3C0034780C12210D780C79081216B8401178DF
:102F4C0008790C1220CDAA08AB09AC0AAD0B802273
:102F5C007510007511007512007513017810790C3D
:102F6C001220CD78107908122094AA10AB11AC1253
:102F7C00AD137F0C02242E90833478081221338AEF
:102F8C00828B8378081221207F0402242E74F51280
:102F9C0023828C828D8378081221338A828B8378EA
:102FAC00081220F9EA2404F8EB3400F98C828D83A2
:102FBC00A3A3A3A3E0FCA3E0FD88828983C3E09CC8
:102FCC00F0A3E09DF088828983C3E09420A3E09471
:102FDC004E40229082EC78081221338A828B8378BF
:102FEC00081220BA8A828B83A3A3A3A3E02420F027
:102FFC00A3E0344EF0808074F5122382E9FE900930
:10300C00C4E0FAA3E0FBEEC333F8E433F974A72869
:10301C00F582748139F583E02AF508A3E03BF509C4
:10302C007808122529908320122164122B887402AF
:10303C001222BC8A088B098C0A8D0B74107808122A
:10304C00205CAA08AB097F0402242E74F11223829F
:10305C008A0C8B0D8C0E8D0F740F1222F2E0FAA3DA
:10306C00E0FB74111222F2E0F508A3E0F5097413E9
:10307C001222F2E0FEA3E0FF7808122529EA2401CF
:10308C00F508EB3400F509E4F50AF50B780C790832
:10309C00121ED79082B47808122133780C7908125A
:1030AC001ED7AA0CAB0DAC0EAD0F122B88740212EE
:1030BC0022BC8B09EA450960047A0180027A00EC93
:1030CC002AFCED3400FDECF8EDF97A717B0212224A
:1030DC001B88088909E4F50AF50B8E828F83780822
:1030EC00122155ECF8EDF97A717B0212221B8A0839
:1030FC008B09740578081222938E828F83A3A3A365
:10310C00A3E508F0A3E509F07F0802242EC082C0D5
:10311C0083E9906000F0D083D08222C0E074F21278
:10312C00246EA2AFE433FED2AFE58AA2E65037128A
:10313C0011C490154AE064017006901306E004F087
:10314C0090154A7401F0901305F090130FE4F09071
:10315C001306E0C394064008E4F0121260121254F5
:10316C00121260121254758A00C2EB751A00EEA28C
:10317C00E092AF7F010224CDC0E074F212246EA263
:10318C00AFE433FED2AFE58BA2E050031211C4754D
:10319C008B00C2E880D5C0E0C0D0E8C0E0E9C0E058
:1031AC00A9A8D2AFC2C7751A00E9A2E7E433F8E9BF
:1031BC00A2E792AFD0E0F9D0E0F8D0D0D0E0320066
:1031CC0000000000000000000000000000000000F3
:1031DC0000000000000000000000000000000000E3
:1031EC0000000000000000000000000000000000D3
:1031FC0000000000000000000000000000000000C3
:10320C000000000000E0E0E0000000000000000012
:10321C0000000000000FFF0F000000000000000085
:10322C00000000000000878000000000000000008B
:10323C00000000000003070703000000000000006E
:10324C00000080E0F8783880E0F878380000000062
:10325C000004030100000403010000000000000052
:10326C000000000000000000000000000000000052
:10327C000000000000000000000000000000000042
:10328C0000000000C0000000000000C000000000B2
:10329C00181818F81F1818181818F81F1818000004
:1032AC003030F03F3030303030F03F3030300000D4
:1032BC0000000700000000000007000000000000F4
:1032CC000000000080C040F0404080800000000002
:1032DC0000001E3F70E0C0FF80000C0F0F000000CC
:1032EC0000E0E060000001FF03070EFCF8000000A6
:1032FC00000103020404043F040602010000000064
:10330C0080C040C080000000000080C00000007F32
:10331C00FF800080FF7F00C0308E838000000000A3
:10332C0000010181E01807FDFF010001FFFC000016
:10333C000000060300000000030604060300000062
:10334C00000080C04040C080000000000000000071
:10335C00003FFFC040603F0F80808080800000F8FD
:10336C00FE0301071E78E0C0C03807000080000093
:10337C000303060404040201030604040201000012
:10338C00003838F8F00000000000000000000000D9
:10339C000406020100000000000000000000000014
:1033AC000000000000000000000000000000000011
:1033BC000000000000000000000000000000000001
:1033CC0000000000000000000080C0201008000079
:1033DC00000000000000E0FC1E03000000000000E4
:1033EC000000000000001FFFE000000000000000D3
:1033FC00000000000000000003070C10204000003B
:10340C00081020C080000000000000000000000038
:10341C0000000000031EFCE00000000000000000A3
:10342C000000000000E0FF1F000000000000000092
:10343C004020100C070300000000000000000000FA
:10344C000000000000000000000000000000000070
:10345C000030707060C086FF86C0607070300000F5
:10346C0000181C1C0C06C2FFC2060C1C1C18000009
:10347C00000000000000010100000000000000003E
:10348C000000000000000000000000000000000030
:10349C0000000000000000FE000000000000000022
:1034AC0000010101010101FF010101010101000005
:1034BC000000000000000000000000000000000000
:1034CC0000000000000000000000000000000000F0
:1034DC0000000000000000000000000000000000E0
:1034EC0000000000000000000000000000000000D0
:1034FC0080C7473F1E0000000000000000000000D5
:10350C0000000000000000000000000000000000AF
:10351C00000000000000000000000000000000009F
:10352C000101010101010101010101010101000081
:10353C00000000000000000000000000000000007F
:10354C00000000000000000000000000000000006F
:10355C00000000000000000000000000000000005F
:10356C00000080800000000000000000000000004F
:10357C00000307070300000000000000000000002B
:10358C000000000000000000000000C070180000E7
:10359C0000000000000000C0701C070100000000CB
:1035AC00000000C0701C07010000000000000000BB
:1035BC00301C0701000000000000000000000000AB
:1035CC000000000080C0404040C0800000000000AF
:1035DC0000F0FE0F0100000000000107FEF00000EB
:1035EC00001FFFE000000000000000C0FF1F0000F3
:1035FC00000000010306040404060301000000009F
:10360C0000000000000080C000000000000000006E
:10361C00000001010101FFFF00000000000000009C
:10362C00000000000000FFFF000000000000000090
:10363C00000004040406070706040404000000004C
:10364C00000000804040404040C0808000000000EE
:10365C00001E1900000000000000C17F3E000000A9
:10366C00000080402010080402010000E00000006F
:10367C0000070606060606060606060701000000F9
:10368C000000808040404040C0808000000000006E
:10369C00000F0F0000808080C0613F1E0000000002
:1036AC0000E0E00000000000010103FE78000000D3
:1036BC0000010302040404040402030100000000DE
:1036CC00000000000000000080C0C00000000000EE
:1036DC000000008060300C02FFFFFF0000000000C3
:1036EC00101C121110101010FFFFFF101010000012
:1036FC0000000000000808080F0F0F080808000061
:10370C00000000C0C0C0C0C0C0C0C0C0C00000002D
:10371C000000F887402020202060C08000000000BE
:10372C0000E0610000000000000080FF7E0000004F
:10373C00000102040404040404020301000000005C
:10374C00000000000080C0404040408000000000AD
:10375C0000E0FC0E818040404040C083030000002C
:10376C00003FFFC30100000000000001FF7E0000CD
:10377C00000000010306040404040203010000001D
:10378C000000C0C0C0C0C0C0C0C0C0C0C0000000ED
:10379C00000F03010000008060180601000000000B
:1037AC000000000000E0FC0300000000000000002E
:1037BC0000000000000707000000000000000000EF
:1037CC0000000080C040404040C08000000000006D
:1037DC00001E3F71E0C080808080613F1E000000B1
:1037EC00F8FC06030100010103070EFCF8000000C1
:1037FC00000103020404040404020301000000009D
:10380C0000008080404040404080000000000000EC
:10381C00FCFF030000000000000083FEF800000025
:10382C0000818306040404040283F17F0F0000006E
:10383C00000303040404040603010000000000005C
:10384C00000000000000000000000000000000006C
:10385C000000000000C0E0E0C0000000000000001C
:10386C00000000000000818100000000000000004A
:10387C000000000000030707030000000000000028
:10388C00000000000000000000000000000000002C
:10389C00000000000060600000000000000000005C
:1038AC00000000000000000000000000000000000C
:1038BC000000000000661E00000000000000000078
:1038CC00000000000000000000008040200000000C
:1038DC00000080C06030180C0603000000000000DF
:1038EC00000103060C183060C080000000000000CE
:1038FC0000000000000000000001020408000000AD
:10390C0000000000000000000000000000000000AB
:10391C0020202020202020202020202020200000DB
:10392C00080808080808080808080808080800001B
:10393C00000000000000000000000000000000007B
:10394C00002040800000000000000000000000008B
:10395C000000000003060C183060C080000000005E
:10396C000000000080C06030180C0603010000004D
:10397C00000804020100000000000000000000002C
:10398C000000804040202020202040C0800000000B
:10399C00001E1F1C0000000080C040603F1F000084
:1039AC000000000000009E810000000000000000EC
:1039BC0000000000000307070300000000000000E7
:1039CC000000000080C040404040808000000000AB
:1039DC00F0FC0E0380E0780C04FCFC0107F80000FE
:1039EC001F7FE0001F3F20100C3F20308C43000055
:1039FC00000001030204040404040203010000009B
:103A0C000000000000C0C0E000000000000000004A
:103A1C00000000C07C07013FFCC00000000000005B
:103A2C0000C07C0704040404077FFC800000000431
:103A3C00060704040000000000040707040400004B
:103A4C004040C0C04040404040C08080000000006A
:103A5C000000FFFF8080808080C0613F1F0000005D
:103A6C000000FFFF0000000000000103FEF8000052
:103A7C000404070704040404040406030100000002
:103A8C000000000080C0404040408080C00000002A
:103A9C00E0FC0E030000000000000001030C00001D
:103AAC001FFFE0000000000000000000806000002C
:103ABC0000000103020404040404020301000000DA
:103ACC004040C0C040404040C0808000000000002A
:103ADC000000FFFF000000000000010FFEF00000DE
:103AEC000000FFFF00000000000000E07F1F00004E
:103AFC000404070704040404060203010000000088
:103B0C004040C0C040404040404040C0C000000069
:103B1C000000FFFF8080808080C0F0000306000062
:103B2C000000FFFF000000000001070000C00000C3
:103B3C00040407070404040404040406070000003A
:103B4C004040C0C040404040404040C0C0C0000069
:103B5C000000FFFF808080808080C0F000030600A2
:103B6C000000FFFF00000000000001070000000043
:103B7C00040407070404000000000000000000001B
:103B8C000000008080C04040408080C000000000E9
:103B9C00E0FC0E0300000000000000030C0000001D
:103BAC001F7FE08000000000000404FCFC04040003
:103BBC00000001030204040404040201010000409B
:103BCC0040C0C040400000004040C0C04040000029
:103BDC0000FFFF00000000000000FFFF00000000DD
:103BEC0000FFFF01010101010101FFFF00000004C2
:103BFC000407070404000000040407070404000081
:103C0C00000040404040C0C0404040400000000028
:103C1C00000000000000FFFF00000000000000009A
:103C2C00000000000000FFFF00000000000000008A
:103C3C00000004040404070704040404000000004A
:103C4C000000000040404040C0C0404040400000E8
:103C5C000000000000000000FFFF0000000000005A
:103C6C000000000000000000FFFF0000000000004A
:103C7C0070F0F0808080C0603F1F000000000000EA
:103C8C004040C0C0404000000040C0C04040000068
:103C9C000000FFFF0080E0F00C06010000000000B7
:103CAC000000FFFF030001071F7CF0C000000000B4
:103CBC0004040707040400000004040707040400BC
:103CCC004040C0C040400000000000000000000068
:103CDC000000FFFF000000000000000000000000DA
:103CEC000000FFFF000000000000000000C000000A
:103CFC000404070704040404040404060700004039
:103D0C0040C0C0C0000000000000C0C0C040400067
:103D1C0000FF07FFF8800000C07C07FFFF000000D9
:103D2C0000FF00000FFFF078070000FFFF00000409
:103D3C0004070404000107000004040707040440FE
:103D4C0040C0C0C000000000004040C04040000027
:103D5C0000FF010F3FF8E080000000FF00000000B2
:103D6C0000FF00000000030F3EF8E0FF000000041D
:103D7C000407040400000000000107070000000015
:103D8C000000008080404040408080000000000027
:103D9C00F0FC0F01000000000000010FFCF000001F
:103DAC001F7FE00000000000000000C07F1F00002B
:103DBC0000000103020404040402030100000000DB
:103DCC004040C0C0404040404040C0800000000027
:103DDC000000FFFF00000000000080C17F3E0000DB
:103DEC000000FFFF010101010101010000000000C2
:103DFC000404070704040000000000000000000099
:103E0C0000000080804040404080800000000000A6
:103E1C00F0FE0F010000000000000107FCF00000A4
:103E2C001FFFC08060202060C00000C0FF3F00006A
:103E3C000000010302040404071F3A31301800008B
:103E4C004040C0C04040404040C080800000000066
:103E5C000000FFFF8080808080C0613F1F00000059
:103E6C000000FFFF000001073FFCE0000000000025
:103E7C000404070704040000000107070404000001
:103E8C0000000080C040404040408080C0000000E6
:103E9C00001E7F61C0C08080800000010700000010
:103EAC0000608000000001010303070EFCF8000015
:103EBC0000000703020404040404060301000000CC
:103ECC0000C0C0404040C0C040404040C000000066
:103EDC00060100000000FFFF0000000001070000C9
:103EEC00000000000000FFFF0000000000000000C8
:103EFC000000000004040707040400000000004058
:103F0C0040C0C04040000000004040C040400000A5
:103F1C0000FFFF0000000000000000FF0000000098
:103F2C0000FFFF0000000000000000FF0000000088
:103F3C000000030206040404040201000000000057
:103F4C004040C0C04000000000004040C040400065
:103F5C000000033FFCC000000000C03C0300000058
:103F6C0000000000031FFEE0E01E03000000000044
:103F7C0000000000000001070100000000000040EC
:103F8C00C0C040400040C0C040000040C0C0400025
:103F9C0003FFFC000000F7FFF00000E01F00000032
:103FAC0000017FFEF00F00017FFCF807000000000D
:103FBC0000000007000000000007000000000000E7
:103FCC004040C0C0404000004040C04040000000A5
:103FDC000000010F3FF8E0E01806010000000000AF
:103FEC00000000C0300C030F3EF8C00000000000C1
:103FFC000404070404000000000407070404000084
:10400C0040C0C0C040400000004040C040400000E4
:10401C000000031F7CF08000C0380E01000000007F
:10402C00000000000003FFFE010000000000000083
:10403C000000000004040707040400000000000056
:10404C000000C0C0404040404040C0C040000000A4
:10405C00000601000000C0F07C1E070100000000FB
:10406C000000C0F07C1F070100000000C000000031
:10407C0004070705040404040404060700000000F8
:10408C000000000000F808080808080808000000F4
:10409C000000000000FF0000000000000000000015
:1040AC000000000000FF0000000000000000000005
:1040BC0000000000003F20202020202020000000D5
:1040CC000000E0C000000000000000000000000044
:1040DC00000000031E78C00000000000000000007B
:1040EC00000000000000030F78E00000000000005A
:1040FC00000000000000000000010F3C6000000008
:10410C000008080808080808F80000000000000073
:10411C000000000000000000FF0000000000000094
:10412C000000000000000000FF0000000000000084
:10413C0000202020202020203F0000000000000054
:10414C000000004020101808181820400000000043
:10415C000000000000000000000000000000000053
:10416C000000000000000000000000000000000043
:10417C000000000000000000000000000000000033
:10418C000000000000000000000000000000000023
:10419C000000000000000000000000000000000013
:1041AC000000000000000000000000000000008083
:1041BC008080808080808080808080808080800073
:1041CC0000000000000000F008080808F0000000E3
:1041DC0000000000000000000101010100000000CF
:1041EC0000000000000000000000000000000000C3
:1041FC0000000000000000000000000000000000B3
:10420C0000000000000000000000000000000000A2
:10421C000080C0602020202060C0800000000000D2
:10422C00C0F131180808040404FFFF00000000006E
:10423C00010306040404040202030704040300003F
:10424C004040C0E000000000000000000000000042
:10425C000000FFFF80404020202060C08000000054
:10426C000000FFFF0100000000000000FF7F0000C5
:10427C000000070303060404040402030100000009
:10428C000000000000000000000000000000000022
:10429C00000080C0406020202060C0800000000032
:1042AC00007EFF810000000000000303C00000003E
:1042BC0000000103020404040404020100000000D5
:1042CC0000000000000000004040C0E000000000C2
:1042DC00000080C0602020202040FFFF0000000074
:1042EC00007EFF01000000000000FFFF0000000046
:1042FC00000001030604040402010703020200008B
:10430C0000000000000000000000000000000000A1
:10431C00000080C0402020202060C08000000000F1
:10432C00007EFF88080808080808080F8E000000A7
:10433C000000010302060404040402030000000050
:10434C000000000000008080C040404040808000A1
:10435C000020202020FEFF2020202020000303002E
:10436C000000000000FFFF00000000000000000043
:10437C000000040404070704040404000000000007
:10438C000000000000000000000000000000000021
:10439C00000000C0402020202060C0A06060000011
:1043AC000000C7FF3020202020301F0F000000002D
:1043BC0000387C43C38383838383C3467E3C0000E5
:1043CC004040C0E0000000000000000000000000C1
:1043DC000000FFFF80406020202060C080000000B3
:1043EC000000FFFF00000000000000FFFF000000C5
:1043FC000404070704040000000404070704040075
:10440C00000000000000C0C0C00000000000000060
:10441C00000020202020E1F101000000000000003D
:10442C00000000000000FFFF000000000000000082
:10443C000000040404040707040404040000000042
:10444C0000000000000000000000C0C0C000000020
:10445C0000000000000020202020E1F101000000FD
:10446C0000000000000000000000FFFF0000000042
:10447C00000060E080808080C0603F1F0000000072
:10448C004040C0E000000000000000000000000000
:10449C000000FFFF00000000A0E0602020000000F2
:1044AC000000FFFF10080C3F71E0800000000000CE
:1044BC0004040707040400000005070704040000B7
:1044CC00000040404040C0E0000000000000000040
:1044DC00000000000000FFFF0000000000000000D2
:1044EC00000000000000FFFF0000000000000000C2
:1044FC000000040404040707040404040000000082
:10450C00000000000000000000000000000000009F
:10451C0020E0F0402020E0C0402020E0C00000005F
:10452C0000FFFF000000FFFF000000FFFF00000085
:10453C00040707040004070704000407070400002D
:10454C00000000000000000000000000000000005F
:10455C002020E0F080404020202060C0800000003F
:10456C000000FFFF00000000000000FFFF00000043
:10457C0004040707040400000004040707040400F3
:10458C00000000000000000000000000000000001F
:10459C00000000C040602020206040C0800000006F
:1045AC00007EFF810000000000000081FF7E000003
:1045BC0000000103020404040404020301000000CF
:1045CC0000000000000000000000000000000000DF
:1045DC002020E0F080402020202060C080000000DF
:1045EC000000FFFF0000000000000080FF7E0000C4
:1045FC008080FFFF83820404040402030100000096
:10460C00000000000000000000000000000000009E
:10461C00000080C0402020202040C0C0E0000000EE
:10462C00007EFF0100000000000000FFFF00000002
:10463C000000010306040404048283FFFF80800051
:10464C00000000000000000000000000000000005E
:10465C0020202020F0F0008040602020E0C00000EE
:10466C0000000000FFFF030000000000000000003D
:10467C000404040407070404040400000000000000
:10468C00000000000000000000000000000000001E
:10469C00000080C060202020202040C0E0000000EE
:1046AC0000C003070C0C1818183030E0C1000000D3
:1046BC0000070702040404040404060301000000BC
:1046CC0000000000000000000000000000000000DE
:1046DC000020202030F8FF202020202000000000A7
:1046EC000000000000FFFF00000000008000000040
:1046FC000000000000010306040404020100000095
:10470C00000000000000000000000000000000009D
:10471C002020E0F000000000002020E0F00000006D
:10472C000000FFFF00000000000000FFFF00000081
:10473C000000010306040404040201070302020042
:10474C00000000000000000000000000000000005D
:10475C002020E0E0202000000020E060200000008D
:10476C000000010F7FF8C0C03806010000000000F7
:10477C000000000000030701000000000000000022
:10478C0000000000000000000000000000000020FD
:10479C0060E0E020002060E0E0200020E0602000ED
:1047AC0000033FFCC0F00F0FFFF0C03C0300000003
:1047BC0000000001070100000107010000000000DB
:1047CC0000000000000000000000000000000000DD
:1047DC00002020E0E0E0200020A06020200000006D
:1047EC0000000000C1671F3C7AE18000000000005F
:1047FC000404060704000000040507060404000076
:10480C00000000000000000000000000000000009C
:10481C002020E0E0202000000020E06020200000AC
:10482C00000000071FF8E000E01C0300000000007F
:10483C0000C0C08080403F07000000000000000066
:10484C00000000000000000000000000000000005C
:10485C0000E0602020202020A0E0E02000000000EC
:10486C00000100C0E0703C0E07010000C000000019
:10487C0000060707050404040404060701000000F1
:10488C00000000000000000000E01008080000001C
:10489C000000000000000000807F0000000000000D
:1048AC00000000000000010102FC000000000000FC
:1048BC000000000000000000001F2040400000002D
:1048CC0000000000000000FF0000000000000000DD
:1048DC0000000000000000FF0000000000000000CD
:1048EC0000000000000000FF0000000000000000BD
:1048FC0000000000000000FF0000000000000000AD
:10490C0000080810E000000000000000000000009B
:10491C00000000007F80000000000000000000008C
:10492C0000000000FC02010100000000000000007B
:10493C00004040201F0000000000000000000000AC
:10494C00180C020202040C102040404030180000E9
:10495C00000000000000000000000000000000004B
:10496C00000000000000000000000000000000003B
:10497C00000000000000000000000000000000002B
:10498C00000000000000000000000000000000001B
:10499C000000F800000000000000333000000000B0
:1049AC00100C06100C060000000000000000004077
:1049BC00C07840C0784000043F04043F0404000069
:1049CC007088FC08300000001820FF211E0000F049
:1049DC0008F000E018000000211C031E211E00003E
:1049EC00F00888700000001E2123241927211000D4
:1049FC0000003844443800000000000000000000B3
:104A0C000000E0180402000000000718204000001D
:104A1C00020418E0000000004020180700000040CD
:104A2C004080F0804040000202010F0102020000B1
:104A3C000000F0000000000101011F010101000055
:104A4C000000000000000080B070000000000000BA
:104A5C000000000000000000010101010101010043
:104A6C0000000000000000003030000000000000DA
:104A7C0000000080601804006018060100000000AF
:104A8C00E010080810E000000F102020100F0000AC
:104A9C001010F8000000000020203F202000000033
:104AAC00700808088870000030282422213000008B
:104ABC00300888884830000018202020110E000093
:104ACC0000C02010F8000000070424243F2400003C
:104ADC00F80888880808000019212020110E000011
:104AEC00E0108888180000000F112020110E000023
:104AFC00380808C83808000000003F00000000001B
:104B0C0070880808887000001C222121221C0000DB
:104B1C00E010080810E0000000312222110F000004
:104B2C000000C0C000000000000030300000000099
:104B3C000000800000000000008060000000000009
:104B4C0000804020100800000102040810200040E2
:104B5C0040404040404000040404040404040000AD
:104B6C000810204080000000201008040201000002
:104B7C007048080808F0000000003036010000C042
:104B8C0030C828E810E0000718272423140B000075
:104B9C0000C038E0000000203C2302022738200827
:104BAC00F8888888700000203F202020110E00C05B
:104BBC0030080808083800071820202010080008C2
:104BCC00F808080810E000203F202020100F0008F3
:104BDC00F88888E8081000203F20202320180008BF
:104BEC00F88888E8081000203F200003000000C06F
:104BFC003008080838000007182020221E02000880
:104C0C00F808000008F808203F210101213F20008E
:104C1C000808F8080800000020203F2020000000B1
:104C2C00000808F8080800C08080807F0000000899
:104C3C00F888C028180800203F20012638200008DA
:104C4C00F8080000000000203F2020202030000841
:104C5C00F8F800F8F80800203F003F003F2000085B
:104C6C00F830C00008F808203F200007183F00E08B
:104C7C001008080810E0000F10202020100F00086A
:104C8C00F808080808F000203F210101010000E0AD
:104C9C001008080810E0000F18242438504F0008A2
:104CAC00F8888888887000203F2000030C30200092
:104CBC00708808080838000038202121221C0018B0
:104CCC000808F8080818000000203F200000000821
:104CDC00F808000008F808001F202020201F0008FA
:104CEC0078880000C83808000007380E010000F86A
:104CFC000800F80008F800033C0700073C03000814
:104D0C001868808068180820302C03032C30200889
:104D1C0038C800C83808000000203F2000000010F0
:104D2C00080808C838080020382621202018000060
:104D3C000000FE020202000000007F404040000024
:104D4C000C30C000000000000000010638C000005C
:104D5C00020202FE000000004040407F0000000004
:104D6C000004020202040000000000000000000029
:104D7C000000000000000080808080808080800027
:104D8C00020204000000000000000000000000000F
:104D9C00008080808000000019242222223F2008FD
:104DAC00F8008080000000003F112020110E000050
:104DBC0000008080800000000E11202020110000D7
:104DCC000000808088F800000E112020103F200089
:104DDC0000808080800000001F222222221300000D
:104DEC008080F0888888180020203F202000000058
:104DFC0000808080808000006B9494949360000805
:104E0C00F8008080800000203F210000203F20001F
:104E1C00809898000000000020203F202000000017
:104E2C000000809898000000C08080807F000008FF
:104E3C00F8000080808000203F24022D30200000EC
:104E4C000808F8000000000020203F20200000800F
:104E5C0080808080808000203F20003F20003F80A9
:104E6C0080008080800000203F210000203F200037
:104E7C0000808080800000001F202020201F0080E8
:104E8C008000808000000080FFA12020110E000017
:104E9C0000008080808000000E112020A0FF808008
:104EAC008080008080800020203F212000010000B5
:104EBC00008080808080000033242424241900008A
:104ECC008080E0808000000000001F202000008017
:104EDC0080000000808000001F202020103F2080D8
:104EEC008080000080808000010E30080601008068
:104EFC00800080008080800F300C030C300F00008D
:104F0C00808000808080000020312E0E31200080B7
:104F1C008080000080808080818E701806010000E7
:104F2C00808080808080000021302C222130000085
:104F3C00000000807C020200000000003F404000A6
:104F4C00000000FF00000000000000FF0000000057
:104F5C0002027C800000000040403F000000000086
:104F6C000601010202040400000000000000000021
:104F7C000000000000000000000000000000000025
:104F8C000000000000000000000000000000000015
:104F9C000000000000000000000000000000000005
:104FAC0000000000000000000000000000000000F5
:104FBC0000000000000000000000000000000000E5
:104FCC0000000000000000000000000000000000D5
:104FDC0000000000000000000000000000000000C5
:104FEC0000000000000000000000000000000000B5
:104FFC0000000000000000000000000000000000A5
:10500C000000000000000000000000000000000094
:10501C000000C0F8CC7CFCF8F8F8F8F8F8F0F0F0E8
:10502C00F0F0F0E0E0C00000000000000000000024
:10503C00000000000000000000C0E0E0F0F0F0F024
:10504C00F0F0F8F8F8F8F8F8FC7CCCF880000000E8
:10505C000000000000000000000000000000000044
:10506C000000000000000000000000000000000034
:10507C000000000000000000000000000000000024
:10508C000000000000000000000000000000000014
:10509C0000E0FFFFFFFEF39FFFFFFFFFFFFFFFFF9F
:1050AC00FFFFFFFFFFFFFFFEFCF8F0C080000000D9
:1050BC00000080E0F0F8FCFEFFFFFFFFFFFFFFFFAA
:1050CC00FFFFFFFFFFFFFF9FF3FEFFFFFFC000008E
:1050DC0000000000000000000000000000000000C4
:1050EC0000000000000000000000000000000000B4
:1050FC0000000000000000000000000000000000A4
:10510C000000000000000000000000000000000093
:10511C00F0FFFFFFFFFFFFFFFCE73FFFFFFFFEFD80
:10512C00FB0F1F3FFFFFFFFFFFFFFFFFFFFFFEFC1B
:10513C00FEFFFFFFFFFFFFFFFFFF7F3F1F0FFBFD8A
:10514C00FEFFFFFF3FE7FCFFFFFFFFFFFFFFE0005D
:10515C000000000000000000000000000000000043
:10516C000000000000000000000000000000000033
:10517C000000000000000000000000000000000023
:10518C00000000000000000000000000000000F81B
:10519C00FFFFFFFFFFFFFFFFFFFFFFFDF7BFFFFF5D
:1051AC001F000000000103070F3F7FFFFFFFFFFF01
:1051BC00FFFFFFFF7F3F0F070301000000003FFFD1
:1051CC00FFBFF7FDFFFFFFFFFFFFFFFFFFFFFFF03C
:1051DC0000000000000000000000000000000000C3
:1051EC0000000000000000000000000000000000B3
:1051FC0000000000000000000000000000000000A3
:10520C000000000000000000000000000000FCFF97
:10521C00FFFFFFFFFF7F7F7F7F3F3F3F3F1F1E173B
:10522C0000000000000000000000000001070F1F3C
:10523C000F03010000000000000000000000001738
:10524C001E1F3F3F3F7F7F7F7FFFFFFFFFFFFFFF63
:10525C00F80000000000000000000000000000004A
:10526C000000000000000000000000000000000032
:10527C000000000000000000000000C0C0C0C0C062
:10528C008000C0C0C0C0C0C0000080C0C0C0C1C1D0
:10529C00C1C1800000C0C0C0C0C0C0C0C080000080
:1052AC00C0C0C0C0C0C0C0C00000000000000000F2
:1052BC000080C0C0C0C0C0C08000C0C0C000000022
:1052CC00C0C0C0C00000000080C0C0C0C0C101018F
:1052DC000100C0C0C0C000C0C0C0C0C0C000C0C0C1
:1052EC00C0C0000000000000000000000000000032
:1052FC0000000000000000000000003F3F3F031FC3
:10530C001F1E1F073F3F3F3F000F1F3F3F303030F6
:10531C003F3F1F0F003F3F3F3F0C1E3F3F372100D9
:10532C003F3F3F3F3636363000060E0E0E0E040061
:10533C000F1F3F3F3030303030003F3F3F060606F6
:10534C003F3F3F3F00303C3F3F0F0D0D0F3F3F3C79
:10535C0030003F3F3F3F003F3F3F3F071F3F3D3F38
:10536C003F3F0000000000000000000000000000B3
:10537C0000000000A04C450000803F00704245003A
:10538C0000004000D038450000404000C02F4500D0
:10539C00008040002027450000A04000101F450061
:1053AC0000C040006017450000E0400020104500A0
:1053BC00000041004009450000104100C0024500BA
:1053CC000020410020F944000030410080ED4400F1
:1053DC000040410060E244000050410000D844000D
:1053EC000060410000CE440000704100A0C44400A5
:1053FC0000804100A0BB44000088410020B3440061
:10540C000090410020AB44000098410080A3440070
:10541C0000A04100409C440000A84100409544007D
:10542C0000B04100C08E440000B8410080884400A8
:10543C0000C04100A082440000C84100007A440032
:10544C0000D04100406F440000D84100006544008A
:10545C0000E04100405B440000E841000052440081
:10546C0000F041004049440000F84100C0404400B5
:10547C0000004200C03844000004420040314400A7
:10548C0000084200C0294400000C420000234400E4
:10549C0000104200401C440000144200001644005E
:1054AC000018420000104400001C4200400A440056
:1054BC0000204200C00444000024420000FF4300CE
:1054CC000028420000F54300002C420080EB430012
:1054DC000030420080E243000034420080D9430097
:1054EC000038420000D14300003C420000C9430098
:1054FC000040420080C143000044420000BA430017
:10550C000048420000B34300004C420080AC430012
:10551C000050420000A643000054420000A043008B
:10552C0000584200009A4300005C42008094430003
:10553C0000604200008F430000644200008A430078
:10554C000068420000854300006C4200008043006C
:10555C00007042000077430000744200006E43006C
:10556C000078420000664300007C4200005E43006D
:10557C00008042000056430000824200004F43006E
:10558C000084420000474300008642000041430073
:10559C0000884200003A4300008A42000034430075
:1055AC00008C4200002E4300008E42000028430075
:1055BC00009042000022430000924200001D430074
:1055CC000094420000184300009642000013430070
:1055DC0000984200000E4300009A4200000943006C
:1055EC00009C420000054300009E42000000430066
:1055FC0000A0420000F8420000A2420000F042006D
:10560C0000A4420000E8420000A6420000E2420072
:10561C0000A8420000DA420000AA420000D4420076
:10562C0000AC420000CC420000AE420000C642007A
:10563C0000B0420000C0420000B2420000BA42007A
:10564C0000B4420000B4420000B6420000B0420078
:10565C0000B8420000AA420000BA420000A4420076
:10566C0000BC420000A0420000BE4200009C420070
:10567C0000C042000096420000C24200009242006C
:10568C0000C44200008E420000C64200008A420064
:10569C0000C842000086420000CA4200008242005C
:1056AC0000CC4200007C420000CE4200007442005C
:1056BC0000D04200006C420000D242000068420060
:1056CC0000000000000000002F0000000007000791
:1056DC000000147F147F1400242A7F2A12006264B5
:1056EC000813230036495522500000050300000022
:1056FC00001C224100000041221C000014083E083E
:10570C00140008083E0808000000A060000008080B
:10571C000808080000606000000020100804020067
:10572C003E5149453E0000427F40000042615149D4
:10573C0046002141454B31001814127F10002745BB
:10574C00454539003C4A49493000017109050300BF
:10575C00364949493600064949291E0000363600AB
:10576C0000000056360000000814224100001414FA
:10577C0014141400004122140800020151090600FF
:10578C00324959513E007C1211127C007F49494923
:10579C0036003E41414122007F4141221C007F499D
:1057AC00494941007F09090901003E4149497A00F4
:1057BC007F0808087F0000417F4100002040413FE6
:1057CC0001007F08142241007F40404040007F02CE
:1057DC000C027F007F0408107F003E4141413E00D7
:1057EC007F09090906003E4151215E007F091929F4
:1057FC00460046494949310001017F0101003F4003
:10580C0040403F001F2040201F003F4038403F00D9
:10581C0063140814630007087008070061514945B8
:10582C004300007F41410000552A552A5500004194
:10583C00417F00000402010204004040404040004F
:10584C000001020400002054545478007F48444462
:10585C003800384444442000384444487F003854CD
:10586C0054541800087E0901020018A4A4A47C005A
:10587C007F080404780000447D4000004080847D53
:10588C0000007F102844000000417F4000007C0491
:10589C00180478007C080404780038444444380028
:1058AC00FC242424180018242418FC007C0804046C
:1058BC000800485454542000043F444020003C400D
:1058CC0040207C001C2040201C003C4030403C0010
:1058DC004428102844001CA0A0A07C004464544C14
:1058EC004414141414141400C0C101C30302C2C61E
:1058FC000607C705C5C404CC0C0DCD0FCFCE0E0AC0
:10590C00CACB0BC90908C8D81819D91BDBDA1A1E5F
:10591C00DEDF1FDD1D1CDC14D4D515D71716D6D22F
:10592C001213D311D1D010F03031F133F3F23236EF
:10593C00F6F737F53534F43CFCFD3DFF3F3EFEFAFF
:10594C003A3BFB39F9F83828E8E929EB2B2AEAEE3F
:10595C002E2FEF2DEDEC2CE42425E527E7E626226F
:10596C00E2E323E12120E0A06061A163A3A26266CF
:10597C00A6A767A56564A46CACAD6DAF6F6EAEAA3F
:10598C006A6BAB69A9A86878B8B979BB7B7ABABEDF
:10599C007E7FBF7DBDBC7CB47475B577B7B67672AF
:1059AC00B2B373B17170B0509091519353529296AF
:1059BC00565797559594549C5C5D9D5F9F9E5E5A7F
:1059CC009A9B5B99595898884849894B8B8A4A4EBF
:1059DC008E8F4F8D4D4C8C448485458747468682EF
:1059EC004243834181804000C1814001C08041011C
:1059FC00C0804100C1814001C0804100C181400094
:105A0C00C1814001C0804101C0804100C181400082
:105A1C00C1814001C0804100C1814001C080410171
:105A2C00C0804100C1814001C0804100C181400063
:105A3C00C1814001C0804100C1814001C080410151
:105A4C00C0804100C1814000C1814001C080410142
:105A5C00C0804100C1814001C0804100C181400033
:105A6C00C1814001C0804101C0804100C181400022
:105A7C00C1814001C0804100C1814001C080410111
:105A8C00C0804100C1814000C1814001C080410102
:105A9C00C0804100C1814001C0804100C1814000F3
:105AAC00C1814001C0804100C1814001C0804101E1
:105ABC00C0804100C1814001C0804100C1814000D3
:105ACC00C1814001C0804101C0804100C1814000C2
:105ADC00C1814001C0804100C1814001C0804101B1
:105AEC00C0804100C181405F5F5F60606061616147
:105AFC006161626262626263636363636363636472
:105B0C006464646464646464646464646464646449
:105B1C00646464636363636363636362626262624B
:105B2C006261616161606060605F5F5F5E5E5E5D6F
