:020000040000FA
:0600000002010A022703C1
:03002B00022B8421
:03003300022B6637
:03003B00022B9DF8
:03004300022B1A73
:030053000227760B
:03006B00022B4025
:100083000225B7E5C754F84401F5C77901220000FA
:100093000080FB120086B900030200F4E4792178A2
:1000A30008B800028004F709D8FCE479297802B87B
:1000B30000028004F709D8FCE490028178AE790944
:1000C3008002F0A3D8FCD9FA900B2EAA82AB8390BE
:1000D300013A788579048015E493A3AC82AD838AD1
:1000E300828B83F0A3AA82AB838C828D83D8E9D9D8
:1000F300E77582277583C6740312011C7582917597
:100103008300740012011C75D00075813F7518813E
:10011300751902759F00020096C09FF59FE473D086
:100123009F22D083D082C09FE493C0E0740193C028
:10013300E0740293F59F22FF0000B400002800281A
:1001430000283075A000A000A000A000000800084F
:10015300E001F0001000100010001000100010006B
:1001630050005000500010001000D00700000000A5
:1001730000000F00010005003075070010000100AA
:1001830081FF0000FFBC06DA06C206FF0202020876
:10019300025000A0000000E8030220850100000CCB
:1001A30085021A85010000830B021285010000B24B
:1001B30002021A85010000840B021685010000C8A3
:1001C30002021A85010000850B023285010000CA74
:1001D30002021A85010000860B023085080000CB5D
:1001E30002021A85010000870B02248501000088A2
:1001F3000BFF0100FF200220850100000385021A86
:1002030085010000EC0B021E8500000000000214B3
:10021300850300001803980C980C980C980C980C04
:10022300980C980C980C980C980C980C980C980CAB
:10023300140F2C0F0E0F0001010202030404050624
:10024300060707080909FFFF02020202020202026F
:1002530002010D0000001001022085010000098544
:10026300021A850100003F0C023A850100007A075B
:10027300021A85010000400C023885010000D18379
:10028300021A85010000410C023685010000C38378
:10029300021A85010000420C02348501000021830B
:1002A300021A85010000430C022E850100000F8312
:1002B300021A85010000440C022C85010000EB8228
:1002C300021A85010000450C022A85010000FD8207
:1002D300021A85010000460C022885010000B5833F
:1002E300021A85010000470C022685010000480C14
:1002F30001E803053F10FF0001307503020106000A
:1003030000000000000000000000000000000000EA
:100313000000000000000000000000FFFF06008056
:100323000CE803140953696D706C65424C455065C4
:10033300726970686572616C051214001400020A18
:10034300000201060302F0FF416D6F4D63752D44FA
:100353007331386232302D506572690000E2130048
:1003630000EE130A436861726163746572697374A2
:100373006963203100024368617261637465726965
:100383007374696320320008436861726163746542
:100393007269737469632033001043686172616327
:1003A300746572697374696320340002436861720F
:1003B30061637465726973746963203500164368F9
:1003C30061726163746572697374696320360002D4
:1003D30020850100000685021A850100005A0D02DE
:1003E3004485030000EB0A0218850100005B0D023F
:1003F3001A850100006C0D024685010000EC0A021B
:1004030018850100006D0D021A850100007E0D02A2
:100413004885020000ED0A0218850100007F0D02E5
:100423001A85010000900D024A85000000EE0A02C1
:100433001485030000EF0A021885010000910D02E4
:100443001A85010000A20D024C85040000F50A0282
:100453001885010000A30D021A85010000B40D02E6
:100463003E85030000FA0A0214850300000E0B0206
:100473001885010000B50D30313233343536373845
:100483003941424344454600286E756C6C20706FB9
:10049300696E74657229003F3F3F000000807F0052
:1004A30000803FF9021550B743BA5100E7DB2E0035
:1004B30000A04010000000080000001201254BB905
:1004C3000312012562B90312012591B90312012513
:1004D300CAB903120125F2B90312012520BA031286
:1004E300012537BA031201254EBA0312012564BA56
:1004F300031201258BBA031201259EBA03120125AB
:10050300B4BA03120125C7BA03120125ECBA0312C8
:10051300012540C1021201253FC20212012574C206
:100523000212012595C202120125A5C2021201255C
:10053300C6C202120125D2C3021201259FC40212B0
:10054300012512C50212012598C502120125DBC53A
:100553000212012512C60212012598C602120125B4
:100563006AC702120125C8C702120125E0C7021299
:1005730001255AC8021201255DC80212012560C86F
:100583000212012507C9021201251FC90212012502
:100593004FC9021201256FC9021201255DCA021259
:1005A300012513CB02120125AA8403120125D2844B
:1005B3000312012500850312012537850312012546
:1005C3009F8503120125E885031201253386031253
:1005D3000125718603120125AE8603120125DC86EF
:1005E300031201258387031201258D870312012539
:1005F3009A8703120125CD87031201258F880312E1
:1006030001259B8803120125B38803120125BD88A8
:10061300031201259CC103120125AAC1031201255E
:10062300C2C103120125DAC1031201258FCC0112C5
:1006330001252DCD01120125A5CD01120125BACE2B
:1006430001120125F4CE011201259DCF01120125CE
:1006530072D001120125D6D1011201252DD201122A
:100663000125B4D2011201259BD301120125E8D340
:100673000112012576D4011201259AD40112012514
:100683006FD601120125B0D601120125D2D601126F
:10069300012553D7011201253DD80112012503D9A4
:1006A3000112012553E40212012525E50212012559
:1006B300CEE50212012511E6021201259EE6021281
:1006C30001252AE7021201250BE8021201253AE867
:1006D3000212012536E9021201257EE902120125E3
:1006E30080EA02120125C4EA02120125EAEA021293
:1006F300012561C4031201251E9E03120125349EA8
:10070300031201255A9E03120125829F031201251C
:100713008C9F03120125E5A003120125E5A1031215
:1007230001255CF70212012591F802120125C4F894
:10073300021201250EF902120125CCFA021201253B
:1007430032BD0112012595BD01120125DABE011248
:100753000125EABE011201250DBF0112012558BF73
:1007630001120125FDBF01120125F3C0011201256C
:10077300BDC10112012535C30112012577C3011241
:10078300012515C40112012562C40112012588C483
:100793000112012576C6011201257BC6011201252E
:1007A3005CC801120125B0C80112012512C901124A
:1007B30001253AC901120125DEC901120125A0CA8A
:1007C30001120125D1CA01120125D4CA0112012542
:1007D3001CCB011201255ECB01120125C5CB0112F1
:1007E300012549AF031201255CAF0312012575AF43
:1007F30003120125C0AF031201259BB0031201258B
:100803002AB10312012575B103120125102C001220
:1008130001251C2C00120125552C001201259A2CB0
:1008230000120125512D00120125D72D001201259B
:100833003C2E00120125682E00120125A12E001264
:100843000125B530001201259132001201257C34B7
:1008530000120125B33500120125133800120125BA
:10086300FF3800120125453A00120125523B0012C0
:1008730001256F3B00120125A73B00120125C13B57
:1008830000120125293C00120125C3400012012555
:10089300644100120125B54100120125DC4100121B
:1008A30001252A42001201254842001201259C42DB
:1008B30000120125754300120125FC440012012595
:1008C3008445001201250080031201250A800312CA
:1008D3000125D58003120125F0800312012516811D
:1008E300031201255A810312012592810312012566
:1008F300BB810312012534820312012549820312AD
:1009030001255E8203120125958203120125A98226
:1009130003120125DA820312012514830312012530
:10092300408303120125968303120125EA830312F0
:1009330001253384031201255D840312012582847A
:1009430003120125329A03120125FC9A0312012591
:10095300DF9B03120125559C03120125979C03126B
:100963000125C49D031201254DA80212012576A875
:10097300021201258FA802120125D4A90212012512
:10098300B2AA02120125D1AA021201255EAB0212FC
:100993000125A1AB02120125EEAC021201258DAD9A
:1009A300021201250CB002120125A3B00212012587
:1009B30077B10212012559B202120125C5B3021201
:1009C300012558B40212012585BF03120125EEBF8C
:1009D3000312012542C00312012569C00312012538
:1009E300528903120125BF89031201250A8A0312C2
:1009F3000125FF8A03120125FB8B03120125E58CD8
:100A0300031201257ECB02120125C0CB0212012560
:100A13009ACC0212012573CD021201256ECE021269
:100A230001254DCF02120125B9CF0212012580D035
:100A330002120125EBD00212012552D10212012527
:100A43007DD102120125EED10212012581D20212BB
:100A53000125EAD202120125FFD20212012547D352
:100A63000212012560D302120125C5D3021201250A
:100A7300C8D3021201256BA90312012593A90312FE
:100A83000125D1A9031201258FAA03120125FAAA70
:100A93000312012516AB031201253EAB03120125F8
:100AA3006EAB031201257DAB03120125F7AB0312D5
:100AB30001251DAC03120125B6E90112012593EBB3
:100AC300011201258EED0112012561EE01120125AE
:100AD300ACEE01120125F7EE0112012509EF011217
:100AE300012549EF011201257EEF01120125CAEF0D
:100AF30001120125F9EF011201251CF00112012554
:100B030069F001120125F2F001120125FFF2011231
:100B13000125EAF4011201252DF50112012592F6B2
:100B230001120125D3F60112012546F70112012511
:100B330092F701120125BDF701120125CFB402126C
:100B43000125FAB402120125E1BB0212012505BEFB
:100B530002120125C0BF021201251DC10212012587
:100B6300EB4500120125824600120125C8460012FA
:100B730001250748001201259E4900120125184A44
:100B830000120125334A00120125A84A001201254B
:100B9300D74B00120125324D00120125344E0012AD
:100BA3000125914F00120125AA4F0012012507507C
:100BB30000120125E950001201251C5100120125E4
:100BC3008C510012012506520012012555520012C4
:100BD3000125215300120125265400120125055534
:100BE30000120125905500120125FE550012012522
:100BF3007256001201259B56001201255A57001206
:100C03000125D45800120125F1580012012510596D
:100C130000120125A15900120125C6590012012510
:100C2300EE5900120125695A00120125C35A001218
:100C33000125175C00120125D45C00120125A75D74
:100C430000120125008002120125508002120125A5
:100C53005C80021201253981021201256981021289
:100C63000125A18102120125208202120125588249
:100C730002120125AA8202120125E782021201252E
:100C83000C850212012538870212012533890212CD
:100C930001250E8B0212012545840112012532998B
:100CA300011201257C99011201255B9F0112012587
:100CB300DCA0011201253BA70112012536A8011270
:100CC300012573A80112012596A801120125D8A8B0
:100CD30001120125E1A801120125EBA8011201254A
:100CE300D7A901120125CBAA01120125D55D001256
:100CF30001254D68001201255368001201255F6F1D
:100D03000012012582FC0212012580FD0212012539
:100D1300D6FD0212012514FE0212012571FE0212F4
:100D23000125EEFE02120125F7FE0212012503FF43
:100D33000212012516FF0212012552FF021201259C
:100D430068FF02120125A78D03120125B48D03123A
:100D53000125CE8D031201250D8E031201254B8E25
:100D630003120125B08E03120125C58E031201253E
:100D7300D08E03120125DD8E03120125F48E03129A
:100D83000125028F031201250D8F03120125198FEF
:100D930003120125288F03120125338F0312012526
:100DA300568F03120125FF8F031201250F900312A3
:100DB3000125299003120125469003120125629013
:100DC3000312012587900312012591900312012537
:100DD300A59003120125C490031201252591031246
:100DE30001252B910312012531910312012537911E
:100DF3000312012543910312012576910312012564
:100E0300D48D02120125568E02120125FF8E021285
:100E130001254790021201255592021201253B93A9
:100E230002120125709302120125929302120125E9
:100E33003B94021201250B960212012534960212ED
:100E43000125AC9602120125DE9602120125EB96CE
:100E5300021201253697021201255A970212012523
:100E6300AB9902120125B59A02120125119B0212B8
:100E7300012538DB0112012549DC011201252DDD95
:100E83000112012537DD0112012559DD011201256A
:100E930065DD0112012509DF0112012536DF01128B
:100EA30001254CE001120125A1E001120125F0E129
:100EB30001120125C5E20112012521E301120125D9
:100EC3008CE301120125C1E30112012504E401129F
:100ED3000125CEE601120125E6E60112012577E799
:100EE3000112012585E701120125D2E7011201252F
:100EF300E0E7011201254CE801120125C7E80112C0
:100F030001251EE9011201251A74001201253C7402
:100F1300001201254D76001201250C7900120125DE
:100F2300367A00120125F47A00120125E07B0012C3
:100F3300012592B703120125B7B7031201252DB876
:100F430003120125E7F701120125F0F7011201252C
:100F5300F9F701120125D1F80112012582FA0112D4
:100F63000125B2FA01120125DDFA011201250DFB5B
:100F73000112012538FB011201256CFB0112012529
:100F830098FB01120125DBFB0112012506FC01126E
:100F930001254DFC01120125A2FC01120125E4FCEF
:100FA300011201253EFD0112012569FD01120125F2
:100FB300B8FD01120125E8FD0112012513FE0112FE
:100FC300012541FE0112012564FE01120125EAC437
:100FD3000312012516C50312012543C5031201257A
:100FE3004DC5031201255DC503120125D7B50312B3
:100FF3000125EFB5031201252BB6031201256DB6AA
:1010030003120125BDB603120125D5B6031201252E
:1010130022DC021201252CDC021201256DDC0212F6
:101023000125B6DC02120125F0DC0212012546DDA2
:101033000212012567DD0212012516E002120125C5
:101043001FE00212012573E0021201259CE0021247
:101053000125A6E00212012514E102120125A4E1F3
:1010630002120125FFE1021201252DE202120125E0
:10107300B5E202120125F4E20212012529E302126C
:1010830001253BE3021201255AE30212012563E322
:101093000212012525E40212012504FF0112012594
:1010A300E6B3031201251CB40312012550B4031245
:1010B30001259DB50312012567C5031201257DC5D1
:1010C3000312012587C50312012598FF021201258A
:1010D300F39103120125069203120125CA9203120A
:1010E30001250993031201252693031201255F931A
:1010F30003120125AC9303120125DE93031201258C
:1011030015940312012528960312012510BE03121C
:10111300012533BE0312012562BE03120125FABE67
:10112300031201253CBF0312012565AC03120125FF
:101133008AAC03120125B4AC03120125D1C50312F5
:101143000125528501120125308701120125CF881F
:10115300011201257A8901120125FA89011201255B
:101163007F8A01120125A88A01120125838E0112AB
:101173000125FA8E011201251190011201254B90D0
:10118300011201258C9001120125D3910112012531
:10119300299201120125729201120125E192011295
:1011A30001254D93011201257E930112012596938A
:1011B30001120125AF9401120125BF9401120125EB
:1011C3007596011201258C9601120125BE96011216
:1011D3000125609801120125F4980112012573C2BB
:1011E3000312012584C2031201257AC603120125C5
:1011F300B9C603120125EB7F00120125C4C30312F4
:101203000125D4C303120125EFC30312012557C4DB
:10121300031201259AC0031201251FC103120125E0
:1012230083C10312012596BC03120125BFBC03121F
:1012330001252ABD031201257BBD03120125D6BD5D
:10124300031201253596031201255A96031201252F
:10125300779603120125949603120125B99603127A
:101263000125DA9603120125049703120125C1977C
:10127300031201253F9803120125669803120125E5
:10128300709803120125A99903120125BAA5031227
:101293000125D1A5031201254BA6031201252FA772
:1012A3000312012506A903120125EFA1031201254B
:1012B3007FA20312012508A303120125A4A303128D
:1012C300012535A403120125E5A403120125F3A486
:1012D3000312012571A50312012584A5031201251B
:1012E3009AA503120125A4A503120125B7A503128C
:1012F3000125387F00120125A97F00120125B47F43
:1013030000120125C47F00120125CF7F00120125A1
:10131300FEBA0312012550BB03120125C3BB0312FE
:10132300012530BC031201259FB103120125C9B168
:101333000312012598B20312012574B30312012588
:10134300ECD302120125B8D402120125F9D40212FA
:10135300012533D50212012591D502120125E5D5C8
:101363000212012543D602120125D9D60212012504
:10137300E1D7021201256BD90212012509DA021203
:10138300012570DA0212012583DA0212012577DBC7
:1013930002120125C0DB021201255E9B0212012508
:1013A300909E0212012521A00212012578A00212AB
:1013B300012595A00212012515A10212012591A272
:1013C3000212012560A302120125CDA602120125F6
:1013D300B7A7021201255FEB02120125E4ED021209
:1013E300012568EE021201257EEF0212012531F07C
:1013F30002120125FAF0021201257BF102120125E6
:10140300CEF10212012512F2021201255EF202123E
:1014130001257BF202120125CAF3021201256AF4A7
:10142300021201258FF50212012518F70212012578
:10143300F9C60312012524C3031201254EC3031267
:101443000125C3C60312012526C7031201254EC772
:1014530003120125E3AC0112012501B201E066701C
:101463001008A3E066700A08A3E066700408A3E00E
:101473006622C008C3E096F50808A3E09642080870
:10148300A3E096420808A3E0964208A2D265D033AF
:10149300E5087001D3D00822C3E7960809E7960848
:1014A30009E7960809E79622C3E09608A3E09608A1
:1014B300A3E09608A3E09622C008C3E096F50808C7
:1014C300A3E096420808A3E096420808A3E09645E5
:1014D300087001D3D00822080808E630E711121D6E
:1014E300961214F2080808C64480C6181818221861
:1014F3001818E9799EC608CAC608CBC608CCC6C365
:1015030070207996CACBCC7019798ECBCC701379B5
:1015130086CC700EF9802ACA33CACB33CBCC33CCFA
:10152300331930E7F2CCCBCA3350147004EA30E0FD
:101533000DE4CA3ACACB3BCBCC3CCC500209C3E93D
:1015430013C6CC182313C6CB18C6CA18C6F9221261
:10155300159220F01430E72B74FFFCFBFA747F80A4
:1015630022E4FCFBFA7480801AB48008BC00F2BB4E
:1015730000EF800F50EBF9E4C39AFAE49BFBE49C81
:10158300FCE499C6CC18C6CB18C6CA18C6F922E41F
:10159300C9C608CAC608CBC6D3330308CCC6339220
:1015A300F0C3947F402E94184019C9B90704CACBDD
:1015B300CC225025C309CA33CACB33CBCC33CC336B
:1015C300D9F422F4600DC9CCC313CB13CBCA13CA0D
:1015D300D9F6CC22E4FCFBFA2214FCFBFA22E6C384
:1015E3003318461846184622E7C3331947194719D3
:1015F3004722181818E6084608700AE608C333702D
:1016030005E633F4220822191919E7094709700A74
:10161300E709C3337005E733F4220922E6084608D5
:10162300C3134608336002E633F422E7094709C3CC
:10163300134709336002E733F42212161F602512A1
:10164300162E60201215E170030215EB080808E757
:101653006670101819E766700A1819E7667004189F
:1016630019E76622F42212161F601C12162E601749
:101673001215E170071215EB7001D322C0D01215B9
:10168300EB7006D0D0B322C32233D0D0501430E055
:10169300F6C3E7960809E7960809E7960809E79667
:1016A300B32220E0D5E6970809E6970809E69708EC
:1016B30009E697B32212161F601B12162E6016122C
:1016C30015E170071215EB600CB322C0D01215EBB5
:1016D3007005D0D022C32233D0D0501330E0EBC3F7
:1016E300E7960809E7960809E7960809E79622208E
:1016F300E0E4E6970809E6970809E6970809E697FC
:10170300220012161F604F12162E6012E7548066D5
:10171300F61215F570111215EB703B090909F4F671
:1017230018F618F618F62212160A70151215E108A3
:10173300080860EAE6447FF618768018E4F618F69F
:10174300221215E160161215EB7012E4F608F60882
:10175300F608E65480F609090918181822EAC0E0C9
:10176300EBC0E0ECC0E0EDC0E0E687F0A4FBACF03A
:1017730008E687F0A42CFCE435F0FA1809E687F0B4
:10178300A42C4B60027401CA35F0FCE433FB09E678
:1017930087F0D2F7A42CCB35F0FC1908E687F0A428
:1017A3002BCC35F0FBE433FD0819E687F0D2E7A430
:1017B3002C4ACB35F0CD3400FC09E687F0D2E7A400
:1017C3002DCC35F0FDE433FA0918E687F0D2F7A4FF
:1017D3002CCD35F0CA3400FC08E687F0D2E7D2F707
:1017E300A42ACC35F07A7E20E70B0ACB33CBCD335A
:1017F300CDCC33CC33CB3350147004ED30E00ED268
:10180300F1E4CD3DCDCC3CCC3B5005DA05C2F1EB48
:10181300547FC63308E63392F0FBE73309E733C35B
:101823009A502D2B70190C0D4C4D70151806E608A7
:10183300C333700D20F10AA2F013F6E418800B40B5
:1018430024E4F630F002768018F618F618F68024B1
:10185300D33B14501074FFA2F013F6187680E418EB
:10186300F618F6800FA2F013F618E63303F618EC19
:10187300F618EDF6D0E0FDD0E0FCD0E0FBD0E0FAC6
:101883002212162E604612161F603DE9687008F694
:1018930018F618F618F622748067F71218B80909B3
:1018A30009748067F72212161F601D12162E700529
:1018B300191919801A1215F5701F12160AC370032D
:1018C300E66733191919400718181822080808740D
:1018D300FFF618F618F618F62212160A60171215F4
:1018E300EB702192F01215E17019501720F01408D3
:1018F3000808090909E7F61819E7F61819E7F618A9
:1019030019E7F6221215E160E6E869701F0808E698
:101913002480F608E436F618547FB47F0CE654802E
:101923006007F6E418F618F622181822E9C6CC0860
:10193300C6CD08C6CE08C6CFC0E0E8C0E0EAC0E026
:10194300EBC0E009E9F809E7FA09E7FBE6F918E66D
:10195300F8C3EC98ED99EE9AEBC2E7F5F0EFC2E726
:1019630095F0500E600CEBCFFBEACEFAE9CDF9E827
:10197300CCF8EAA2E7D2E7FAEB33FB13F5F0EEA2D9
:10198300E7D2E7FEEF33FFC5F013A2E730E601B37A
:1019930013C5F0C3C0E0C0F07F00C39BFB605B9442
:1019A30018600C401AD0E023F9D0E0F8021A878AB5
:1019B300F0E9486003D2F0E4AFF0FAF9F8803BEBCA
:1019C30030E40D89F0EA6003D2F0E4AFF0F9CAF82D
:1019D300EB30E30D88F0EF6002D2F0AFF0E4CAC958
:1019E300F8EB54076014FBC3EA13FAE913F9E8139D
:1019F300F8EF135002D2E0FFDBEDD0E0C0E030E7B8
:101A030039C3E49FFFF5F0EC98FC42F0ED99FD42F9
:101A1300F0EE9AFE42F0D0E0F9D0E0F8E5F0607A1B
:101A2300E923F9EE20E742D8028067C3EF33FFECE6
:101A330033FCED33FDEE33FE80EAEC28FCED39FD9B
:101A4300EE3AFED0E023F9D0E0F84002801BC3EE6B
:101A530013FEED13FDEC13FCEF135002D2E0FF086D
:101A6300B800067F7F74FF802EEF3350178CF02071
:101A7300F00260100CBC000C0DBD00080EBE00048B
:101A830008E860DFE933E813FFEE2313FE4F4D4C04
:101A93008008E95480FFE4FEFDFCEE33EF33F4707D
:101AA30004FCFD7E80D0E0FBD0E0FAD0E0F8D0E08B
:101AB300CFC618CEC618CDC618CCC6F92212161F2B
:101AC30070041818182212162E700D74FFF61819C8
:101AD300F61819F61819F622E7548066F61215E17E
:101AE300700F1215EB70F014F608F608F608F6807E
:101AF300D11215EB700CF608F608768008E6447FE1
:101B030080EC12160D700C1215F860BFE65480F6C7
:101B1300E480BB1215F8700519191980A5E86970DE
:101B23000C763F18768018F618F6E8F922E6CDC051
:101B3300E018ECC0E0E633CD33CDD313F6E719FC60
:101B4300E7191933CC33C3947F400ECD9D5024083D
:101B5300E65480F6E418F6800FF4043D145014089C
:101B6300E6447FF6187680E418F618F6D0E0FCD049
:101B7300E0FD22CCD313CCFD18E4C6CBC0E018E4BF
:101B8300C6CAC0E00808ED08C633E613F618E43306
:101B9300C675F003C3CA97CA09CB97CB199C4004F7
:101BA3007D08802EBD0003021C6916B6FF050606DC
:101BB300081618C3CA33CACB33CB33CA27CA09CBD7
:101BC30037CB193CC37D08803E187D0820E75CC6EF
:101BD30033C6CA33CACB33CB33DDF1D5F0EB30E7B1
:101BE3007BCA97CA09CB974ACB199C406F4B702588
:101BF300E620E0218066187D08C3CA97CA09CB97FF
:101C0300CB199CD3C633C6CA33CACB33CB3350C9E3
:101C1300DDE7D5F0E1D3E4C636C608C636C608C646
:101C230036C608C636C61818188031C3CA97CA09FB
:101C3300CB97CB199CB34097C633C6CA33CACB33B1
:101C4300CB33DD34D5F02EC6A2E0C640C8CA27CABE
:101C530009CB37194A70BECB3CB480B90808E633C8
:101C630008E633601F181818D0E0FAD0E0FBD0E084
:101C7300FCD0E0FD22187D08CA27CA09CB37CB194F
:101C83003CD3808013F618E4B67F11F618B6FF0E26
:101C9300F618C60470D20808768080CAF618F618BB
:101CA300F680C5080808EAC0E0EBC0E086F0E7A4C8
:101CB300FA180986F0E7A42AFA180986F0E7A42A95
:101CC300FA180986F0E7A42AFA1986F0E7A4FBE5D7
:101CD300F02AFA190886F0E7A42BFBE5F03AFA1983
:101CE3000886F0E7A42BFBE5F03AFA18180986F00A
:101CF300E7A4C5F02BFBE43AFA1908E7C5F0C6A43C
:101D030026F6E5F03BFBE43AFA1886F0E7A4F6E59D
:101D1300F00826F6E43B08F6E43A08F6D0E0FBD0F8
:101D2300E0FA22E4CFC0E0E4CEC0E0E4CDC0E0E4DA
:101D3300CCC0E075F020C3E633F608E633F608E6D8
:101D430033F608E633F6181818EC33FCED33FDEEE2
:101D530033FEEF33FFC3EC9709ED9709EE9709EFD5
:101D630097191919400FFFEC97FC09ED97FD09EE40
:101D730097FE191906D5F0BEECF709EDF709EEF752
:101D830009EFF7191919D0E0FCD0E0FDD0E0FED03F
:101D9300E0FF22181818E4C396F608E496F608E460
:101DA30096F608E496F6226016080808C6C313C61A
:101DB30018C613C618C613C618C613C6D5E0EA223A
:101DC3007009080808226016181818C6C333C60815
:101DD300C633C608C633C608C633C6D5E0EA22E60C
:101DE30027F60809E637F60809E637F60809E6375D
:101DF300F622E026F608A3E036F608A3E036F60856
:101E0300A3E036F622E026F008A3E036F008A3E0CC
:101E130036F008A3E036F022C3E697F60809E69702
:101E2300F60809E697F60809E697F622C3E096F066
:101E330008A3E096F008A3E096F008A3E096F0224A
:101E4300E056F608A3E056F608A3E056F608A3E02A
:101E530056F622E056F008A3E056F008A3E056F049
:101E630008A3E056F022E0F608A3E0F608A3E0F6A4
:101E730008A3E0F622E6F008A3E6F008A3E6F008DC
:101E8300A3E6F022E0FAA3E0FBA3E0FCA3E0FD223B
:101E9300EAF0A3EBF0A3ECF0A3EDF022CAC0E0E676
:101EA300F0A308DAFAD0E0FA22CAC0E0E0A3C582C0
:101EB300CCC582C583CDC583F0A3C582CCC582C5FD
:101EC30083CDC583DAE6D0E0CA22C3E498F8E49967
:101ED300F9121F0E8026C3E49AFAE49BFBE920E77C
:101EE300E9121F0EE498F8E499F922C3E498F8E4A0
:101EF30099F9121F0EE498F8E499F9C3E49AFAE405
:101F03009BFB22EB20E7CFE920E7E0B90010BB0001
:101F130008E88AF084F8AAF022E4FBC8FA22EB70FE
:101F2300227B10C833C8C933C9335007C39AC3DBF4
:101F3300F280069A50012ADBEAC833F4C8C933F4A5
:101F4300C9FA2275F008E4C833C8C933C933C99A3A
:101F5300C99B5004C92AC93BD5F0ECFBC833F4C86C
:101F6300E4C9FA22600D08C6A2E713C618C613C651
:101F7300D5E0F322600C08C6C313C618C613C6D532
:101F8300E0F422700422600D18C6C333C608C633BA
:101F9300C6D5E0F41822251810AF08F5184002152D
:101FA300198008F51840021519D2AF22C0D02518A0
:101FB30010AF08F518500205198008F518500205EE
:101FC30019D2AFD0D0222518F58210AF08F51840EA
:101FD3000215198008F51840021519D2AF85198327
:101FE300222518F582E43519F58322E4732518C5F3
:101FF30082C0E0E51934FFC583C0E0E518C39582CC
:1020030024F810AF08858319858218800885831901
:10201300858218D2AFCEF0A3E520F0A37808E608B6
:10202300F0A3DEFAEFF0A3E58124FAF8E608F0A3C3
:10203300E608F0A3E608F0A30808E608F0A3E6081C
:10204300F0A315811581D0E0FED0E0F8158115814C
:102053001581E8C0E0EEC0E0222518C582C0E0E5A6
:102063001934FFC583C0E0E518C3958224F910AF86
:10207300088583198582188008858319858218D27B
:10208300AFCEF0A3E520F0A37808E608F0A3DEFACC
:10209300EFF0A3E58124FBF8E608F0A3E608F0A33C
:1020A3000808E608F0A3E608F0A315811581D0E03F
:1020B300FED0E0F815811581E8C0E0EEC0E022858E
:1020C3001983851882E0A3FEE0A3F5207808E0A336
:1020D300F608DFFAE0A3FFE0A3C0E0E0A3C0E0E07E
:1020E300A3C0E0E0A3C0E0E0A3C0E010AF08858296
:1020F300188583198008858218858319D2AFD08308
:10210300D082020122851983851882E0A3FEE0A311
:10211300F5207808E0A3F608DFFAE0A3FFE0A3C008
:10212300E0E0A3C0E0E0A3C0E0E0A3C0E010AF089C
:102133008582188583198008858218858319D2AF13
:10214300D083D08222C0D02518C582C0E0E51934DF
:10215300FFC583C0E0E518C3958224F310AF08855B
:1021630083198582188008858319858218D2AFC8A0
:10217300F0A3E9F0A3EAF0A3EBF0A37908E709F0F1
:10218300A3D8FAECF0A3EDF0A3EEF0A3EFF0A3D005
:10219300E0F0A3D0E0F0A3D0E0F0A3E520F0A3E5C6
:1021A300F0F0A322851983851882E0C0E0A3E0F94B
:1021B300A3E0FAA3E0FBA37808E0F608A3DFFAE0C4
:1021C300FCA3E0FDA3E0FEA3E0FFA3E0C0E0A3E0E7
:1021D300C0E0A3E0F5D0A3E0F520A3E0A3F5F01061
:1021E300AF0885831985821880088583198582182D
:1021F300D2AFD082D083D0E0F8D0E032740480062E
:10220300740280027401C0E0F404121FC9D0E0120A
:102213001E9F227404800474028000CCC0E0EDC0D1
:10222300E0E518C39CCCAD1950011D10AF068C1806
:102233008D1980068C188D19D2AF121EACD0E0FD1B
:10224300D0E0FC22D083D082E9C0E0E493A3C3862C
:10225300F0C5F095F0F908E493A386F0C5F095F086
:10226300700BE493A3C3994005E9048002A3E475CA
:10227300F002A42582F582E5F03583F583D0E0F9F9
:10228300E493A3C0E0E493C0E022D083D082ECC007
:10229300E0EDC0E0E493A3FCE493A3FDED4C600DFB
:1022A3001222D9EC24FFFCED34FFFD80EFE493A36D
:1022B300FCE493A3FDED4C600D122318EC24FFFC0A
:1022C300ED34FFFD80EFD0E0FDD0E0FCE493A3C04C
:1022D300E0E493C0E022C0E0C3E493960874019362
:1022E3009618400FE493667008087401936618709B
:1022F300007019A3A3C3E49396087401939618A3DB
:10230300A3400DD0E0D0E0D0E00222C9A3A3A3A351
:10231300A3A3D0E022C0E0C0F088F0E49366700885
:102323000874019366187000A8F0A3A3700BD0F093
:10233300D0E0D0E0D0E00222C9A3A3D0F0D0E022C5
:1023440074F512205CEAFEEBFFEE2434F8EF34005F
:10235400F988088909EE2435F582EF3400F583E025
:10236400F8EE2437F582EF3400F583E0F50AEC85C6
:102374000AF0A4FCAAF0850AF0EDA42AFDE82CF8E2
:10238400E43DF97A257B00121F0EEA85088285094F
:1023940083F05407F87401B800028004C333D8FCF6
:1023A400C0E0E0131313541FF8EE28F8EF3400F9DB
:1023B400E8245DF582E93400F583D0E0F8E0586064
:1023C40008EE2434F582EF801EEE2436F582EF34D5
:1023D40000F583E0F5F0EA84A8F0EE28F8EF340085
:1023E400F9E82438F582E93400F583E0F97F040242
:1023F400210874F512205CEAFEEBFFEE2434F5822A
:10240400EF3400F583E0C0E0EE2435F582EF3400CC
:10241400F583D0E0F08E828F83A3A3A3A3A3A3A309
:10242400C082C0838E828F83A3A3A3A3A3E0F8A357
:10243400E0F9D083D082E0C398F508A3E099F509C8
:10244400EE2480F582EF3400F583E064017069EED8
:102454002481F582EF3400F583E0F8A3E0F98E825D
:102464008F83A3A3A3A3A3A3A3E0FCA3E0FD8E8275
:102474008F83A3A3A3A3A3E0FAA3E0FBC3EA9CEB8B
:102484009D5027C3EC98ED99402EC3EA98EB9950E0
:10249400277CFD7D04EEFAEFFB120BF6EE2480F5AB
:1024A40082EF3400F583E4F0800EC3EA98EB9940A0
:1024B400E0C3EC98ED9950D9EE2434F8EF3400F9E8
:1024C400E8FCE9FDEE2435F582EF3400F583E0F80D
:1024D400EE2437F582EF3400F583E0F50AE508854C
:1024E4000AF0A4F508AAF0850AF0E509A42AF5097A
:1024F400E82508F8E43509F97A257B00121F0EEA6D
:102504008C828D83F05407F87401B800028004C3F0
:1025140033D8FCC0E0E0131313541FF8EE28F8EF8F
:102524003400F9E8245DF582E93400F583D0E0F85D
:10253400E0586008EE2434F582EF801EEE2436F570
:1025440082EF3400F583E0F5F0EA84A8F0EE28F891
:10255400EF3400F9E82438F582E93400F583E0F932
:10256400122B0C0223F1C082C08385188285198343
:10257400E0F8A3E0F9C3EA9CEB9D5012C3EC98ED9C
:10258400994019C3EA98EB99501279018010C3EA73
:1025940098EB9940F5C3EC98ED9950EE7900D0830F
:1025A400D08222EAC39CFAEB9DFB22008521878519
:1025B40022C622C0E0C0D0E8C0E0E9C0E0EAC0E042
:1025C400EBC0E0ECC0E0EDC0E0C008C009C00AC048
:1025D4000BC082C083C0F0759B00906182E0A2E6CC
:1025E4004003022695E591A2E640030226957591E3
:1025F400BF9003C2E064057008120D22120D2E80F4
:1026040003120D28752100120D82E99003C3F0799D
:1026140000120D76120B6C7A017B009003C1E0F975
:10262400121070907803E0644260030226DE900585
:102634005FE014F060030226DEC2AF122642007887
:102644002AD0E0F618D0E0F6E59F5407F97005901B
:1026540084A780039084E37808121E69E9C4C0E06B
:102664007829E65508F50808E65509F509740B7844
:1026740008121F77D0E02508F8906270E0A2E740C6
:10268400F8E8C333906272F0906270E0D2E0F080B8
:1026940049E0A2E55024E591A2E5501E7591DF9032
:1026A40003C2E0640D70139003E4E004F064287046
:1026B40002E4F07A00E0F9120DF4906181E0A2E303
:1026C4005009E5E9A2E3500375E9F7A3E0A2E75056
:1026D40009E591A2E7500375917FD0F0D083D082B1
:1026E400D00BD00AD009D008D0E0FDD0E0FCD0E077
:1026F400FBD0E0FAD0E0F9D0E0F8D0D0D0E032C09E
:10270400E0C0D0C082C083906183E0A2E05009E5BC
:10271400BFA2E0500375BFFEE0A2E15009E5BFA2ED
:10272400E1500375BFFDE0A2E25009E5BFA2E2500B
:102734000375BFFBE0A2E35009E5BFA2E3500375B4
:10274400BFF7E0A2E45009E5BFA2E4500375BFEF70
:10275400E0A2E55009E5BFA2E5500375BFDFE0A2A2
:10276400E65009E5BFA2E6500375BFBFD083D0820F
:102774008088C0E0C0D0E8C0E0E9C0E0EAC0E0EB97
:10278400C0E0ECC0E0EDC0E0C0F0E5A7A2E6500F69
:10279400E5A1A2E6500953A7BF75A1BF1227DBE547
:1027A400A7A2E5500CE5A1A2E5500653A7DF75A149
:1027B400DFE5A7A2E15009E5A1A2E1500375A1FD5F
:1027C400E5A7A2E2500CE5A1A2E2500653A7FB75CF
:1027D400A1FBD0F00226EC74F812205C7521019064
:1027E40003C2E064067015120CC28A828B83A3A311
:1027F400A3A3A3A3E0FAA3E0FB120D10A2AFE4335A
:10280400FED2AF9003C8E0640170187A207B009078
:1028140003C1E0F91210F47A207B009003C1E0F9BF
:10282400121076906182E0D2E6F090055EE06021BD
:1028340085C62280169003C7E064017008E5C6547B
:10284400F84405F5C653BEFC1225B0740165216039
:10285400E4EEA2E092AF7F01022108008E238F24D0
:10286400858228858327851882851983E0CEA3E095
:10287400CF852882852783EBC9EAC8EDCBECCA75DE
:10288400F010C3E833C8E933C9EA33CAEB33CBC326
:10289400EA9EF526EB9FF525B35004AB25AA26EC5A
:1028A40033CCED33CDD5F0DAAE23AF242274F1125C
:1028B400205C8A088B098C0A8D0B740F121FE47834
:1028C4000C121E699084C37808121E439084C37846
:1028D4000C121E437808790C12149B501578087951
:1028E4000C121E1B9084E778081214BB4015790162
:1028F4008013780C7908121E1B9084E7780C12144C
:10290400BB40EB79007F0802210874ED12205C8A39
:10291400088B098C0A8D0B7413121FE4780C121E99
:10292400699084C37808121E439084C3780C121EE5
:1029340043780C790812149B40117808790C121E04
:102944001BAA08AB09AC0AAD0B80227510007511E7
:10295400007512007513017810790C121E1B781083
:102964007908121DE2AA10AB11AC12AD137F0C0250
:1029740021089084C37808121E698A828B837808A0
:10298400121E567F0402210874F512205C8C828D7D
:10299400837808121E698A828B837808121E2FEAB4
:1029A4002404F8EB3400F98C828D83A3A3A3A3E061
:1029B400FCA3E0FD88828983C3E09CF0A3E09DF042
:1029C40088828983C3E09420A3E0944E40229084BB
:1029D400DB7808121E698A828B837808121E088AA3
:1029E400828B83A3A3A3A3E02420F0A3E0344EF0BE
:1029F400808074F512205CE9FE900514E0FAA3E0EF
:102A0400FBEEC333F8E433F9749628F58274833902
:102A1400F583E02AF508A3E03BF5097808122203C0
:102A24009084D7121E871228607402121FAF8A087E
:102A34008B098C0A8D0B74107808121DAAAA08AB96
:102A4400097F0402210874F112205C8A0C8B0D8C1E
:102A54000E8D0F740F121FE4E0FAA3E0FB74111241
:102A64001FE4E0F508A3E0F5097413121FE4E0FE87
:102A7400A3E0FF7808122203EA2401F508EB3400EE
:102A8400F509E4F50AF50B780C7908121CA6908474
:102A9400A37808121E69780C7908121CA6AA0CAB3C
:102AA4000DAC0EAD0F1228607402121FAF8B09EA31
:102AB400450960047A0180027A00EC2AFCED3400B6
:102AC400FDECF8EDF97A717B02121F0E8808890972
:102AD400E4F50AF50B8E828F837808121E78ECF8E1
:102AE400EDF97A717B02121F0E8A088B097405783E
:102AF40008121F868E828F83A3A3A3A3E508F0A3E5
:102B0400E509F07F08022108C082C083E9906000D3
:102B1400F0D083D08222C0E074F2122148A2AFE444
:102B240033FED2AFC2C0E5D1A2E4500653D1EF12B6
:102B340012ECEEA2E092AF7F010221A7C0E074F292
:102B4400122148A2AFE433FED2AFE589A2E15003DB
:102B540012123E758900C2C5EEA2E092AF7F010257
:102B640021A7C0E074F2122148A2AFE433FED2AF31
:102B7400E58BA2E0500312123E758B00C2E880D8A8
:102B8400C0E0C0D0E8C0E0E5A8D2AFC2C7A2E792D7
:102B9400AFD0E0F8D0D0D0E032C0E0C0D0E8C0E0A0
:102BA400E9C0E0C008C009C082C083A2AFE433F921
:102BB400D2AF900A08E0F8A3E0687008539AFBA328
:102BC40074018026C2E9900A08E0F508740125081A
:102BD400F074882508F58274093400F583E0F5C1A2
:102BE400900A08E0C394804002E4F0E9A2E092AFC6
:102BF400D083D082D009D008D0E0F9D0E0F8D0D08A
:032C0400D0E032EB
:102C0800FFFFFFFFFFFFFFFFC082C083E9900BEBD0
:102C1800F0022E9474F7121FF0E99002E0F07C188D
:102C28007D037AFF7BFF12089C9002E174FFF0A3FA
:102C3800F0A3E4F0A3F079051208249002E0E0F98B
:102C480012074C7ABA7B08120A7C023BA274F4126F
:102C58001FF08A088B09EB548060309002E0E0F99D
:102C68001210588A0A8B0BAE0AAF0BEE4F60138E08
:102C7800828F83E064B0700312083CEEFAEFFB1217
:102C88001046AA08E5096480FB80047A007B0002EC
:102C98002E6374F2121FF074FC121F99EAFEEBFF08
:102CA8007412121FE4124089EE4F7003022D3D7416
:102CB80002121FE4EEF0A3EF12309EECF0A3ED1227
:102CC800309EAA82AB83120746E9F50A706AE508C6
:102CD800450960648E828F8312406FEE4F60567A8A
:102CE800067B001210AC8A0C8B0DA80CA90DE849C4
:102CF8007005750A13804188828983E4122D4AEE93
:102D0800F0A3EF12409AE508F0A3E509F09002E677
:102D1800122DD19002E67005123B4C801B123B3AF3
:102D28008003EAFCEBFD8C828D83122DD170F38C2D
:102D3800828D8380E3750A02A90A7404121FAF0208
:102D48004289F0A3124040A32274F2121FF0890AAC
:102D5800E975F017A4FEAFF09002E5E4F09002E305
:102D6800122DD1600A1210B29002E3E4F0A3F0EE43
:102D7800FAEFFB1210AC8A088B09EA4509602FEEBE
:102D8800FCEFFD790012102E9002E3E508F0A3E5B0
:102D980009F07B008008122DBBE4F0A3F00BEBC315
:102DA800950A40F2E50A9002E5F07900800279136D
:102DB800024289EB75F017A4F8A9F09002E3E02825
:102DC800FAA3E0398A82F583221237DEEA4B2274AD
:102DD800F4121FF0740C121FE4124064FEE9FF7530
:102DE8000800750900800CE5082401F508E5093498
:102DF80000F509C3E5089CE5099D503285080A8558
:102E0800090B7403780A121F86EA250AF8EB350BBA
:102E1800F988828983A3A3A3A3A3A3123C21EE6507
:102E28000A7003EF650B70BFE8FAE9FB80047A00CB
:102E38007B00802774F4121FF07900EAA2E0501B8F
:102E480075086C75098478081222037C047D007A61
:102E5800ED7B0B12081E7402121FAF7F040220C202
:102E6800C082C0839002E6122E9B601C88828983F0
:102E7800A3A3E06A7003A3E06B8882898370E8A348
:102E8800A3A3A31237DA80047A007B00D083D08210
:102E980002012212436FE8492274EE121FF074FCFB
:102EA800121F99EAFEEBFF851882851983E4F0A3C7
:102EB800F0EE2402123B2CEE2405124047EE2404C7
:102EC800F50EEF123453E024FE603924FC604624EA
:102ED800FE605224FE605E24FE7003022FB424FEBE
:102EE800700302301824FE700302302724FE70039A
:102EF80002303624FC700302304524FE7003023091
:102F0800540230919002FF7417F0A3E41230A61215
:102F180004C4023091851882851983AC82AD83126E
:102F28000842023061851882851983AC82AD83120C
:102F38000848023061850C08850D097402121FE4E7
:102F4800AC82AD838508828509831237DA12076A55
:102F58008A0C8B0DAC0CAD0DEC4D603BE4F50CF51B
:102F68000D780C122203750CFF750D02780C1222D5
:102F780003750C00750D03780C1222037408121FD8
:102F8800E412221A1244EB121FAFE9F50C700B126F
:102F980037D01204DC800F750C01850882850983FF
:102FA800123094123B4C850C080230647402121FD4
:102FB800E4AC82AD83850C82850D831235A5603C17
:102FC800850C82850D83A3A312221A7510FF751133
:102FD800027810122203751000751103781012225E
:102FE800037408121FE412221A1244EB121FAFE9ED
:102FF800F509700B1237D01204E2800F75090185AC
:103008000C82850D83123094123B4C850908804C44
:10301800851882851983AC82AD8312084E803A8563
:103028001882851983AC82AD83120854802B8518C9
:1030380082851983AC82AD8312085A801C85188258
:10304800851983AC82AD83120860800D851882854E
:103058001983AC82AD83120866E9F508E508602992
:103068008E828F83A3E06414601F850E82850F8390
:10307800E09002FF12309E12436B900300123B4C0B
:10308800E508A31230A61204BE023A3B12436F852C
:10309800188285198322F085188285198322F07C8D
:1030A800FF7D02850A82850B831237DE2274EE12B9
:1030B8001FF074FC121F998A0A8B0B8C0E8D0FEA75
:1030C8002405F508EB3400F5097C157D0079007AB4
:1030D800FF7B0212102EE5082402F50CE5091240C8
:1030E8004A85188285198385821085831178101284
:1030F8002203850882850983A3A3A3A312359C1202
:103108002203E5082405F510E5093400F5117810C7
:10311800122203850C82850D831238F1120764741C
:1031280006121FAF8A108B11AE10AF11E50A2402E8
:10313800F50AE50B123B2FEE4F700302327380172E
:103148007402121FE41237DA88828983EAF0A3EB4B
:10315800F09002FFE004F09002FFE0C39405400302
:10316800023273E4F510F51178101222037510E895
:1031780075110278101222037510E9751102781082
:103188001222037406121FE412221A7910EEFCEFC1
:10319800FD1244ED121FAFE9705E85088285098330
:1031A800A3A3A3A3A3A3A3E0F89002E8E068704850
:1031B80012359C1222037CE97D02E5082408FAE511
:1031C800093400FB1210287402121FAFE960298E1F
:1031D800828F83A3A3A3A31237DA9002FFE0F5102E
:1031E80074027810121F8674002510F58274033556
:1031F80011F583EAF0A3EBF07402121FE485821044
:1032080085831178101222037402121FE412221A05
:10321800850C82850D83123800121FAF8A108B111E
:10322800AE10AF119002FFE0F5107511007402782E
:1032380010121F8674FF2510F874023511F9888260
:103248008983A3122DD1700302313FE824030808B3
:1032580008E93400F9EE4F60030231488882898317
:1032680074FFF0A3F09002FFE004F09002FFE0602A
:103278000A1237D01204D07900800B85088285099C
:1032880083123B43790A023A3B74EA121FF074FE38
:10329800121F998C128D13EA2405F50CEB1244D5F4
:1032A800124073750800750900EA2402F510EB3422
:1032B80000F51185188285198385820A85830B7824
:1032C8000A122203850C82850D83A3A3A3A31234BB
:1032D80069122203E50C2405F50AE50D123B2F7847
:1032E8000A122203850C82850D8312346D1207643D
:1032F8007406121FAF8A0A8B0BEA450B700302345F
:103308000EEA2404F50EEB1234531240738A828BB2
:1033180083A3A3A3E0F98510828511831237E460A3
:103328000302340EE4F514F515781412220375140B
:10333800E875150278141222037514E975150278D8
:10334800141222037406121FE412221A7913AC0A0B
:10335800AD0B8510828511831244F3121FAFE9F576
:1033680009600302340E9002E8E0F8E5087009E00D
:103378002402900300F08014900300E0FCE824028B
:10338800FAE43400FBEA6C7001EB707E850882AACF
:1033980082123593941412358B506B850E82850FEB
:1033A80083E0C0E074012A12344AD0E0F0050885B1
:1033B8000E82850F83A3E0C0E085080A7401250A00
:1033C80012344AD0E0F005089002E812346912225B
:1033D800037CE97D0285080A7401250A12345D120E
:1033E8001FAF9002E8E02508F50874FF6E700374BB
:1033F800FF6F6012EE24010EEF3400FFE508C3945E
:103408001450030232BBE50860131237EE851082B0
:103418008511831237DA1204D679008014E5097011
:103428000375090A851282851383EEF0A3EFF0A9CC
:10343800097402121FAF7F0E0220C285080C7401A6
:10344800250CF58274033400F583223400F50F85CA
:103458000E82F58322FA74033400FB1210167402EC
:10346800221240A922A3A312347322123B3AFDEE82
:10347800FAEFFB2274EE121FF074FE121F998C0EE5
:103488008D0FEA2405F50CEB12404A750B009002EB
:10349800FFE4F0F50AEA2402F508EB3400F50980A8
:1034A800449002FFE0FA9002E8E0F812359394178E
:1034B80012358B400D9002FFE0F87416C398900205
:1034C800E8F012359C1222037CE97D0274002AFA86
:1034D8007403123460121FAF9002E8E0F89002FF04
:1034E800E028F0050AE50C2416F582E50D12344EA5
:1034F800E0F8E50AC39850749002FFE0C3941650B0
:103508006BE50AC333F8E433F9E50C28FEE50D3919
:10351800FF851882851983AC82AD838E828F8312D2
:1035280035A57008750B01123B3F8050E4F510F586
:103538001178101222037510E87511027810122202
:10354800037510E975110278101222037406121F10
:10355800E412221A79168508828509831244F31227
:103568001FAFE9F50B70030234A980BB7CFF7D0215
:103578008508828509831237DA1204E8A90B7402D8
:10358800023A3DE99400C365D03322EA28F8E434CE
:1035980000F9E822E0F510751100781022123A328D
:1035A8008A108B11AC10AD11EC4D2274EA121FF089
:1035B80074FC121F998A0C8B0D8C128D13EA24054A
:1035C800F50AEB123B2F750800750900E50A24027D
:1035D800F510E50B3400F5117402121FE485820E14
:1035E80085830F780E122203850A82850B83A3A395
:1035F800A3A312404F122203E50A2405F50EE50B9A
:103608003400F50F780E122203851082851183127B
:103618003B351237D41207647406121FAF8A0E8B1B
:103628000FAE0EAF0FE50C2402F50EE50D3400F5D4
:103638000F80388882898374FFF005081234437438
:10364800FFF005089002E8E0F50C750D00780C1203
:1036580022037CE97D0285080C7401250C12345D77
:10366800121FAF9002E8E02508F508EE4F60278E9C
:10367800828F83A3A3A3E0F9850E82850F83123777
:10368800E4EE2404124047E96027850C82850D8307
:103698001237C6123B4CE50870030237AC1237EEFE
:1036A800850E82850F831237DA1204EE790002370D
:1036B800C1E4F514F51578141222037514E875158C
:1036C8000278141222037514E9751502781412226F
:1036D800037408121FE412221A7911EEFCEFFD851B
:1036E8000E82850F831244F3121FAFE9F509709A11
:1036F800850882AA82EA9002E87009E0240490030F
:1037080000F08025E0F8900300E0F514E82404FCBC
:10371800E43400FDEC65147001ED7081123593946A
:103728001212358B40030236A5850C82850D83E085
:10373800C0E074012A12344AD0E0F00508850C82F2
:10374800850D83A3E0C0E0123443D0E01238098528
:10375800820C85830D780C1222037404121FE41264
:10376800221A851082851183123800121FAF8A0C25
:103778008B0DAE0CAF0D85080C7401250CF8740385
:103788003400F9EE4F700302363B851882851983A1
:10379800E088828983123809A3E0C0E0123443D05C
:1037A800E0023649E509700375090A850A82850B26
:1037B800831237C6123B4CA909740402343B1243E6
:1037C8006F851282851383227CFF7D02850A82859C
:1037D8000B831237DE22E0FAA3E0FB221237DE1257
:1037E8000752E9F50922900300E0F5F0E508849016
:1037F80002FFF07CFF7D02221234731207707404FA
:1038080022F005088518828519832274EC121FF0AE
:1038180074FE121F998A088B098C0E8D0FEA2405F5
:10382800FEEB3400FF123A1CEE2418124047EA451A
:103838000B70030238BF123A0550291238E48A1077
:103848008B11EA4511606B7912AC0AAD0B850882C1
:103858008509831237DA851082851183121FEEE9F4
:10386800F50A7058E4F50AF50B780A1222038E82DD
:103878008F83A3A3E0F50A780A122203EE24031229
:103888003B2C780A1222038E828F831238F1120899
:103898008A7406121FAFE9F50A7021850C82850D1E
:1038A80083E0701F8508828509831237DA1204F4D1
:1038B8008011750A0E8009750A018004E50A600303
:1038C800123B3F850C82850D83E0600479008002FD
:1038D800A90A7402121FAF7F0C0220C285188285C4
:1038E80019831237DE12087822123B3AFD850882C6
:1038F8008509831237DE2274EE121FF074FE121F40
:10390800998A088B098C0C8D0DEA2405FEEB34008E
:10391800FF750E00123A1CEA450B70030239E312D8
:103928003A05502C1238E48A0E8B0FEA450F604A8C
:103938007912AC0AAD0B8508828509831237DA85BE
:103948000E82850F83121FEEE9F50E60030239E639
:10395800850882850983123C21AA0AFB1239F7706F
:10396800147AFF7BFF1239F7606C88828983E50A35
:10397800F0A3E50BF0750A008007750E0E805F0551
:103988000A9002E5E0FAE50AC39A504AE50A75F09A
:1039980017A4FAABF088828983A3A3E02AFAA3E0EC
:1039A8003BFB8A828B83123B35EC4D70D2750A172C
:1039B800750B00780A122203EEFCEFFD1210167444
:1039C80002121FAFEEFCEFFD8508828509831237CE
:1039D800DA1204FA8014750E098003750E01124379
:1039E80067850C82850D83123B4CA90E0235861221
:1039F800086C8A108B11A810A911E84922E508243F
:103A080002F508E5093400F5098A828B83A3A3A38C
:103A1800E0A2E522851882851983AC82AD838E8267
:103A28008F83123A328A0A8B0B22E0FAA3E0FB1248
:103A3800076A227404121FAF7F0A0220C274EC12B4
:103A48001FF08C108D11EA2405F50CEB12404A7515
:103A58000F00EA2402F50AEB123B2F850A82F58350
:103A68001237DA1245797003023B21750E00807116
:103A7800850C82850D83E06401704F8E828F83A34D
:103A8800A312221A8E828F83A3A3A3A3E0F5127533
:103A980013007812122203EE2405F512EF3400F514
:103AA8001378121222031237D412088A7406121FCE
:103AB800AFE9F50F6014850C82850D83E4F012439D
:103AC80067851082851183123B4C7C177D00790035
:103AD800EEFAEFFB12102E8E828F83E4F0A3F0052E
:103AE8000E9002E5E0F8E50EC398501EE50E75F05D
:103AF80017A4F8A9F0850882850983A3A31244DFD7
:103B0800123B35EC4D6003023A78850882850983BB
:103B180074FFF0A3F0E50F70061237D4120500A960
:103B28000F0238DFF50AEF3400F50B22A3123B3AF7
:103B3800FD22E0FCA3E0228E828F8312436F850E64
:103B480082850F83E8F0A3E9F022C082C083900247
:103B5800E1E06A7003A3E06B70067AE17B028004FF
:103B68007A007B00022E9474F7121FF07F00EF7525
:103B7800F003A4F8A9F0EC28F8ED39F988828983D4
:103B8800E06A7003A3E06B7006E8FAE9FB800B0FAC
:103B9800EFC3940240D87A007B007F010220C274F0
:103BA800F6121FF012415870067A007B008007A3B6
:103BB800A3A3A31237DA02421974F2121FF0E9FE26
:103BC800740E121FE4123C217410121FE412408973
:103BD8008C828D83E06402703BA312436B888289D8
:103BE80083E0F50CA3E0F9A80C740268700374294B
:103BF800697021750C02750D00780C122203780883
:103C0800122203780A122203EEF91208AE74061281
:103C18001FAF80027901024289E0F50AA3E0F50BA3
:103C28002274E8121FF074FB121F99E98518828527
:103C38001983F08A168B178C0E8D0F741F121FE4D0
:103C48001240897421121FE4123C217423121FE4CC
:103C58001240737510008C828D83A3A3A3E0A2E4A5
:103C6800502A741D121FE41238EA8A828B83E58277
:103C780045837003023D35790AAC0EAD0FAA16AB29
:103C880017121FEEE9F5106003023D38850E828594
:103C98000F83E064026003023FEEA312436B8508C2
:103CA80082850983A3858212858313E50E2406F590
:103CB8000CE50F12404A88828983E0FAA3E0F9EA0A
:103CC8002400F514E439F515781412228D0100004A
:103CD800280128FD3C07000228D43D0328443D0064
:103CE80029FE3E0129263F0229CD3E0329FE3E0436
:103CF800298F3FEE3FEE4F703E850C82850D831273
:103D08004064FAE9FB8A828B83E0850A82850B830B
:103D18001240A01222038A828B83A3123B3AFDAA87
:103D280008AB091210167402121FAF800375100E2B
:103D3800A91074050244CD75100B80F4EE4F70F78E
:103D4800850A82850B837401F01240798508828583
:103D58000983F07C007D00850E82850F83A3A3A3D1
:103D6800A3E02401FAA3E03400FB12076AEA4B60DF
:103D7800418A828B83E02402F8850A82850B83E0DE
:103D880028F0EA2404F8EB3400F988828983E08576
:103D980012828513831240B21240A01222038A8233
:103DA8008B83123B34E5082403FAE5093400FB024F
:103DB8003D2B850A82850B83E02404F07C047D007A
:103DC8007900AA12AB1312102E023D38EE4F600391
:103DD800023D3F124079FEA3E0FF850A82850B83EE
:103DE8007404F0EE850882850983F0EF85128285D8
:103DF8001383F07403121FE4AC82AD83EEFAEFFB79
:103E08001241467003023EAA8A828B83A3A3124002
:103E18006F7401121FE485820E85830F780E1222BB
:103E2800037405121FE412221A7CFF7DFF1207702B
:103E38007404121FAF8B0FEA450F7033850C82850F
:103E48000D8312404F122203850C82850D83A31225
:103E5800221A7C027D007A1C7B8512059C74041250
:103E68001FAFE9700A7401121FE474FFF0A3F08E0B
:103E7800828F83E064027034750C02750D00780C33
:103E88001222038E828F83123B34E5082404FAE55C
:103E980009123460121FAF850A82850B83E0240261
:103EA80080097401121FE4EEF0A3EFF07401121FF1
:103EB800E4124060F07401121FE4A3124058A3A357
:103EC800A3F0023D38EE4F6003023D3F850C82852A
:103ED8000D83123B35AA16AB171208A2850A8285F4
:103EE8000B837402F0EA850882850983F0851282C3
:103EF800851383EB80CBEE4F6003023D3F12407980
:103F0800F8A3E0F9850A82850B837402F0E8850836
:103F180082850983F0E985128285138380A3850C45
:103F280082850D831237DA121010EAFC8C82A8827F
:103F3800C39EE49F404BE86E7001EF70047C0080E4
:103F48001F851882851983E0FAEE2AFAEF3400FB00
:103F5800C3EA98EB94005003E08004EECCC39CFCC9
:103F6800EC850A82850B83F08C0A750B00780A129F
:103F78002203850C82850D83E02EFCA3E03F023DE1
:103F880026751007023D38EE4F6003023D3F850C51
:103F980082850D8312436B850A82850B837407F033
:103FA80088828983124058124040E0851282851326
:103FB80083F0E82402FAE93400FB8A828B831240FA
:103FC80058124091124060A312409A124069F0E8DA
:103FD8002405F8E93400F988828983124069A3121C
:103FE80040B2A3023EC6741D121FE4124151700371
:103FF800023D3512436B880C890DE8450D700302AC
:104008003D358E108F117810122203780A12220380
:1040180078081222037406121FE4E0F9AC0EAD0F03
:10402800AA16AB17850C82850D83121FEE74061233
:104038001FAFE9F510023D38F088828983A322F585
:104048000CEF3400F50D22E0F50E750F00780E2206
:10405800E0850882850983221240B92212436FE85D
:10406800221240B9A3A322A3A3A3A3E0FEA3E0FFC7
:1040780022850C82850D83E0F8A3E0F5838882E031
:1040880022E0F508A3E0F50922A3A3F08A828B8336
:10409800A322122D4CA3A322F08A828B831240A95B
:1040A80022E0F50A750B00780A221240401240B946
:1040B80022E0850882850983A3A32274EE121FF0EB
:1040C80074FE121F998A0A8B0BECFAEDFB7414121A
:1040D8001FE4E0F510A3E0F5117416121FE4E0FEEA
:1040E8007418121FE4E0F50EA3E0F50F8518828519
:1040F8001983AC82AD83124146603E8518828519CA
:1041080083124151602FA3A3124089E50845096035
:1041180024780E1222037810122203EEF9AC0CADAB
:104128000DAA0AAB0B850882850983121FEE740459
:10413800121FAF8006790E800279010235861207B8
:104148006A8A0C8B0DEA450D221237DE124158227D
:104158001208368A828B83E58245832274F6121F01
:10416800F074FE121F99740C121FE4124064851833
:1041780082851983F07401121FE4E9F0E4F508F56B
:1041880009780812220375080278081222037404B9
:10419800121FE48582088583097808122203120811
:1041A8008A7406121FAF7402121FAF806474F7126C
:1041B8001FF0EAFEEBFF89087C187D031208A2EACB
:1041C8005402600BA908EEFAEFFB12075E80027931
:1041D80001023BA274F6121FF074FF6A700374FFA9
:1041E8006B701C7B00EB75F003A4F8A9F0EC28F8C1
:1041F800ED39F912421E0BEBC39402501480E612FB
:1042080008728A088B09A808A909E84960031242BC
:104218001E7F020220C28882898374FF122D4AE41D
:10422800F02274F6121FF01208728A828B83E582DC
:1042380045836006A3A3E0FA80027A007B0080D160
:1042480074F2121FF08A088B09ECFEEDFF740E124F
:104258001FE4E0F50A12428E701CEEFCEFFD7AFFB7
:104268007BFF12428E70047911801688828983E55B
:1042780008F0A3E509F088828983A3A3E50AF07909
:10428800007F060220C21208728A0C8B0DA80CA9A6
:104298000DE8492274EE121FF0EAFEEBFF8C088D40
:1042A80009890C7412121FE412436B7414121FE470
:1042B800123B357416121FE41237DA750D00EC4DF7
:1042C800600302435F7402650C600302435A8882EC
:1042D8008983123B3AF9EC2400F50EE439F50FEA2C
:1042E800F4F8EBF4F9EC58F8E50F59F9E849705D82
:1042F800E5082406F8E5093400F9880A890B88825C
:10430800F58312346F1208A28A108B11E50E65101E
:104318007004E50F65116042780E122203850A8247
:10432800850B8312346F1208A87402121FAFE9F5C7
:104338000D7027780E122203850882850983A3A3AE
:1043480012346D1208C07402121FAF800D750D80F3
:104358008008750D0D8003750D0BA90D023A408E6E
:10436800828F8312436F22E0F8A3E0F92274E812E7
:104378001FF074E7121F99851882851983EAF0A344
:10438800EBF08C168D17890E7431121FE4E0F512CC
:10439800A3E0F5137433121FE4E0F514A3E0F51558
:1043A8007435121FE4E0F50F750800750900E5097A
:1043B80075F003A4F8A9F08518828519831244DFE3
:1043C800E0F47003A3E0F470030244BDEE2402F5A8
:1043D8000CEF1244D5E070030244BD85160A851718
:1043E8000B780A122203AC14AD15AA12AB131208EB
:1043F8002A7402121FAF8A0A8B0BEA450B7003025C
:1044080044BDE4F510F51178101222037406121F4A
:10441800E485821085831178101222037409121F13
:10442800E485821085831178101222038512828513
:104438001383A3A3A3A312221A7914AC0AAD0B8E7B
:10444800828F831244F3121FAFE97069850A82854F
:104458000B83A3A3A3A312436B7402121FE4123BA2
:104468004C850C82850D83E0A2E05018A90E7402D9
:10447800121FE4AC82AD838E828F831237DA120763
:1044880082E94208850C82850D83E0A2E15026E589
:104498000FF50A780A122207A90E7403121FE4AC5A
:1044A80082AD838E828F831237DA12077C740112F1
:1044B8001FAFE942080509E509C394025003024306
:1044C800B6A9087419121FAF7F100220C23400F574
:1044D8000D850C82F58322E028FEA3E039FF8E8249
:1044E8008F83227916850A82850B831237DE12089C
:1044F8008474082274F2121FF0EAFEEBFF890B7431
:1045080001650B600E7402650B70637901120A9ADB
:10451800E9705BEEFAEFFB1245796047750A008097
:104528000B7C177D00790012102E050A9002E5E039
:10453800F8E50AC3985021E50A75F017A4F8A9F020
:10454800850882850983A3A3E028FAA3E039FB8ABA
:10455800828B83122E9B70C985088285098374FF1C
:10456800F0A3F07C187D03EEFAEFFB12089C0242E0
:104578008912086C8A088B09EA45092274F2121F0D
:10458800F08A088B09ECFEEDFF740E121FE4123C52
:1045980021900BEBE0F4603D7A097B00121040EAB1
:1045A8004B60328A828B8374B1F0A3E4124093A3E8
:1045B800124091A3E508F0A3E5091245E0EEF0A347
:1045C800EF1245E0A3A3E50AF0A3E50BF0900BEB8F
:1045D800E0F912104C024289F08A828B83A3A3A3CC
:1045E800A3A322C082C0839061907404F0A374488E
:1045F800F0A37402F09061807440F09061BC740381
:10460800F09061877419F0906265741BF090619C5A
:10461800740DF090619A7433F0A37455F09061A012
:10462800743AF090055CE064017009C2919003C689
:10463800746780059003C67461F0902C0EE4939023
:104648006186F0902C08E493F46027E493540FF803
:10465800906185E0686012E5C654804449F5C6E576
:104668009E547F644970F8E8F053C680E59E547FF5
:1046780070FA7905120DD6024800C082C083E5A8F9
:10468800F853A87E906181E4F0A3F0A3F0C2BA5376
:104698009AFEC289759B00C2C275E90075910075C2
:1046A800BF0075A91175B905906181F0A374C0F0B8
:1046B800A3E4F0D2BA439A0174805842A802480091
:1046C800C082C08374F8121F999003C4E0F8A3E075
:1046D800F9E84970030247F69003C4E054406023A8
:1046E8007908851882851983AA82AB83120C5085B4
:1046F8001882851983AA82AB8312092C9003C4E01F
:1047080054BFF0E054806010790C7A807B05120C5D
:10471800509003C4E0547FF0E0A2E0503190619AD9
:104728007433F0A37455F09061A0743AF090055C6E
:10473800E064017009C2919003C674678005900314
:10474800C67461F01209329003C4E054FEF0E054DC
:1047580002603190619A743FF0A3745AF09061A09E
:10476800747FF090055CE064017009D2919003C6F3
:10477800747180059003C6746AF01209329003C4FC
:10478800E054FDF0E054046013902C0CE493906125
:1047980086F01209389003C4E054FBF0E054086036
:1047A80013902C0DE493906186F01209389003C49D
:1047B800E054F7F0E054106013902C0EE4939061ED
:1047C80086F01209389003C4E054EFF0E0542060FA
:1047D8000A1209389003C4E054DFF0A3E0540160E2
:1047E8000D120B7812093E9003C5E054FEF07408D0
:1047F800121FAF8003F0A3F0D083D082020122748D
:10480800EC121FF074F4121F99851882851983AC75
:1048180082AD837583847582BB7404121EAC902CA0
:104828000C93F46003024994907808E0C394025012
:10483800030249747404121FE4AC82AD8375838447
:104848007582357408121EAC851882851983858295
:10485800128583137404121FE4AC82AD83750EFFB6
:10486800750FFF7FFF7E00750C48750D78801574F5
:10487800086E700302490774096E700302490774D1
:104888000A6E607B850C82850D837808121E698C00
:10489800828D83A909E50AC9F88810741878081266
:1048A8001DAAE5104508F8C3E098A3E099850C8295
:1048B800850D837808121E6940188C828D837418C0
:1048C8007808121DAAE5104508F8E0C398F8A3E097
:1048D800801C74187808121DAAE5104508FAE9FB2F
:1048E8008C828D83E0F8A3E0F9EAC398F8EB99F994
:1048F800C3E8950EE9950F5006880E890FEEFF0E56
:10490800E50C2404F50CE50D3400F50DEEC3941305
:10491800500302487774FF650E700474FF650F60DA
:10492800238F0874027808121F8674482508F582B8
:1049380074783509F5837808121E69851282851303
:1049480083E508F0EC24020C0CED3400FD8512829E
:10495800851383A3858212858313740C121FE4E5E3
:10496800826C7003E5836D60030248657508017504
:10497800090078081222037402121FE4AC82AD8386
:104988007A037B0B12121A7402121FAF740C121FD7
:10499800AF7F0C0220C2C082C0839061AE7468F001
:1049A800A3746AF090624574FBF0A304F053F4FD1D
:1049B80043FE0290055C7401F09061A0E0643A90B7
:1049C800619A70237433F0A37455F09061A0743A1F
:1049D800F0740164017009C2919003C6746780285D
:1049E8009003C674618021743FF0A3745AF09061FB
:1049F800A0747FF0740164017009D2919003C674A9
:104A08007180059003C6746A0247FF7F040220C2C2
:104A1800C082C08390050EE06401700A900513E01F
:104A28006004790C80027900024800C082C0837556
:104A3800E1F1900511E060551460081460591460A4
:104A4800518059120B8A900507E0F97A087B051204
:104A58000D5890847B121E87120D8E9084CB121EE7
:104A680087120D64900512E0F9120D707901120D8C
:104A7800CA900505E02416F8A3E03400F988828975
:104A88008374A2F0A3740BF07900024800120B9013
:104A980080B4120B9680AF120B9C80AA791280EA20
:104AA80074F4121FF075D90D9004F6E0A2E0E43317
:104AB8001313F8900507E0C4333354C0484401F594
:104AC800D97805790588828983A3A3A3E0F5D988D5
:104AD800828983A3A882A983E8640B7003E964052B
:104AE80070E378F6790488828983A3E0F5D988820F
:104AF8008983A3A882A983E864FC7003E96404702D
:104B0800E575E1959004F6E0F97AF77B04120D5EFD
:104B1800900C0D743CF0A3740BF0A37498F0A3747C
:104B28000CF0A37498F0A3740CF0A37498F0A37419
:104B38000CF0A37442F0A3740BF0A37498F0A37460
:104B48000CF0A3745AF0A3740BF0900C1B7498F03B
:104B5800A3740CF0A37498F0A3740CF0A37498F0E9
:104B6800A3740CF0A37498F0A3740CF0A37498F0D9
:104B7800A3740CF0A37498F0A3740CF0900505E0EE
:104B8800F8A3E0F5838882A3A37808121E699084AD
:104B98009B7808121DF59084C37808121E4390056F
:104BA80005E0240EF8A3E03400F9888289837808A8
:104BB800121E78900505E02414F8A3E03400F98863
:104BC8008289837413F09003C27402F0024A13C0FE
:104BD80082C083900517E02407F5D9900507E0C443
:104BE800333354C0F5D97805790588828983A3A31E
:104BF800A3E0F5D988828983A3A882A983E8640BF6
:104C08007003E9640570E3900517E0601F78057983
:104C180005FAE82413F582E93400F583E0F5D9882C
:104C2800828983A3A882A9831AEA70E6900537E0EF
:104C38002407F5D9900507E0C4333354C04404F57C
:104C4800D97805790588828983A3A3A3E0F5D98853
:104C5800828983A3A882A983E8640B7003E96405A9
:104C680070E3900537E0601F78057905FAE824338A
:104C7800F582E93400F583E0F5D988828983A3A811
:104C880082A9831AEA70E675E195900C0D7448F0D4
:104C9800A3740BF0A37498F0A3740CF0A37498F0A9
:104CA800A3740CF0A37498F0A3740CF0A37442F0EE
:104CB800A3740BF0A37498F0A3740CF0A3745AF0C7
:104CC800A3740BF0900C1B7498F0A3740CF0A374ED
:104CD80098F0A3740CF0A37498F0A3740CF0A37468
:104CE80098F0A3740CF0A37498F0A3740CF0A37458
:104CF80098F0A3740CF09084DB121E87900505E0F1
:104D0800240EF8A3E03400F988828983121E939058
:104D18000505E02414F8A3E03400F9888289837437
:104D280012F09003C274010247FFC082C08390054D
:104D380017E02407F5D9900507E0C4333354C0447D
:104D480002F5D97805790588828983A3A3A3E0F5BC
:104D5800D988828983A3A882A983E8640B7003E9B0
:104D6800640570E3900517E0601F78057905FAE897
:104D78002413F582E93400F583E0F5D98882898324
:104D8800A3A882A9831AEA70E675E195900C0D74C0
:104D980054F0A3740BF0A37454F0A3740BF0A37431
:104DA80054F0A3740BF0A37454F0A3740BF0A37421
:104DB80054F0A3740BF0A37454F0A3740BF0A37411
:104DC8005AF0A3740BF0900C1B7498F0A3740CF0B9
:104DD800A37498F0A3740CF0A37498F0A3740CF067
:104DE800A37498F0A3740CF0A37498F0A3740CF057
:104DF800A37498F0A3740CF09084DB121E879005BE
:104E080005E0240EF8A3E03400F988828983121E95
:104E180093900505E02414F8A3E03400F98882890A
:104E2800837414F09003C274040247FFC082C083E5
:104E3800900517E02407F5D9900507E0C4333354EB
:104E4800C04406F5D97805790588828983A3A3A388
:104E5800E0F5D988828983A3A882A983E8640B70C6
:104E680003E9640570E3900517E0601F780579058C
:104E7800FAE82413F582E93400F583E0F5D988824D
:104E88008983A3A882A9831AEA70E6900537E024EB
:104E980007F5D9900507E0C4333354C04404F5D965
:104EA8007805790588828983A3A3A3E0F5D9888248
:104EB8008983A3A882A983E8640B7003E964057059
:104EC800E3900537E0601F78057905FAE82433F5A3
:104ED80082E93400F583E0F5D988828983A3A88222
:104EE800A9831AEA70E675E195900C0D744EF0A34B
:104EF800740BF0A37498F0A3740CF0A37498F0A347
:104F0800740CF0A37498F0A3740CF0A37498F0A335
:104F1800740CF0A37498F0A3740CF0A3745AF0A363
:104F2800740BF0900C1B7498F0A3740CF0A3749895
:104F3800F0A3740CF0A37498F0A3740CF0A3749805
:104F4800F0A3740CF0A37498F0A3740CF0A37498F5
:104F5800F0A3740CF09084DB121E87900505E02402
:104F68000EF8A3E03400F988828983121E93900515
:104F780005E02414F8A3E03400F9888289837415C5
:104F8800F09003C274030247FFC082C083900505F6
:104F9800E0F8A3E0F5838882A3A3A3A3A3A3E40274
:104FA80047FD74F7121FF09003F0E0F875F004A4C1
:104FB800C8AAF02AF974F228F8740339F9E8240524
:104FC800FAE93400FB8A828B83E0FCA3E0FD888247
:104FD8008983A3A3A3A3A3A3A3A3A3ECF0A3EDF0A6
:104FE80088828983A3A3A3A3A3A3A3E024FFF8A390
:104FF800E034FFF98A828B83E8F0A3E902524F7408
:10500800F7121FF0EAFEEBFF9061D0E06003025058
:10501800E475D90E75D90375D904EE248CF582EFA1
:105028003400F583E5822408F8E5833400F9E0F5D7
:10503800D9A3E865827003E9658370F2EE2484F5EC
:1050480082EF3400F583E5822404F8E5833400F91F
:10505800E0F5D9A3E865827003E9658370F275E12C
:10506800957908EE248CFAEF3400FB120C4479048D
:10507800EE2484FAEF3400FB120C447C00EEF8EFC7
:10508800F9ECFAC3E49AFA95E0FBEE2AFAEF3BFB57
:10509800EA248BF582EB3400F583E0C0E0E824AB2A
:1050A800F582E93400F583D0E0F00C88828983A387
:1050B800A882A983ECC3940840C7EE2470F582EF58
:1050C8003400F583E0F8A3E0F9EE2472F582EF34BA
:1050D80000F583E8F0A3E9F0790180027900025233
:1050E80050C082C08375D90275D90375D90575E199
:1050F80095EA2470F582EB3400F583E0F8A3E0F933
:10510800EA2472F582EB3400F583E8F0A3E9F0793C
:105118000102480074F6121FF0EAFEEBFF900560EA
:105128007406F075086075090578081222037C0179
:105138007903120C8C7402121FAF75D90675D90346
:10514800758260758305E0F5D9A3E582646570040E
:10515800E583640570F075E1959003C2E06408701A
:105168001EEE2470F582EF3400F583E0F8A3E0F931
:10517800EE2472F582EF3400F583E8F0A3E9F079C4
:105188000102531C74F6121FF0EAFEEBFF9061D087
:10519800E070667801900560740BF09003C2E064DB
:1051A80007701975086075090578081222037C01D3
:1051B8007903120C8C7402121FAF7805740128F55C
:1051C800D975D903758260758305E8FAE0F5D9A326
:1051D8001AEA70F875E195EE2470F582EF3400F55F
:1051E80083E0F8A3E0F9EE2472F582EF3400F5834A
:1051F800E8F0A3E9F079018002790002531C74F702
:10520800121FF0EAFEEBFF75D90375D90375D90DA6
:10521800EE24DEF582EF3400F583E0F5D975E195EB
:105228007904120D94EE2470F582EF3400F583E0D2
:10523800F8A3E0F9EE2472F582EF3400F583E8F084
:10524800A3E9F079018001F07F010220C274F6120F
:105258001FF0EAFEEBFF9061D0E0F87480C398FA83
:10526800EE2483F582EF3400F583E060047804804F
:10527800027800E8240BF8EAC398500302531A7D19
:1052880009900560EDF0EE24E3F8EF3400F97A6157
:105298007B057C0888828983E08A828B83F08882F8
:1052A8008983A3A882A9838A828B83A3AA82AB83DA
:1052B8001CEC70E0EE2483F582EF3400F583E060A7
:1052C8001D75086075090578081222037C097903A1
:1052D800EEFAEFFB120C8C7402121FAF7D0D7401F5
:1052E8002DF5D975D9037582607583058D08E0F5AC
:1052F800D9A31508E50870F675E1957904120D949F
:10530800EE241DF582EF3400F583E4F0A3F0790173
:10531800800279007F020220C274F6121FF0EAFEB2
:10532800EBFF9061D0E0F87480C398FAEE2483F51F
:1053380082EF3400F583E06004780480027800E8A6
:105348002408F8EAC39850030254217D06900560AA
:10535800740CF09003DFE0900561F07AE07B03784D
:105368006279057C028A828B83E088828983F08A4D
:10537800828B83A3AA82AB8388828983A3A882A90C
:10538800831CEC70E07AE27B037C028A828B83E0E8
:1053980088828983F08A828B83A3AA82AB838882DE
:1053A8008983A3A882A9831CEC70E0EE2483F5828C
:1053B800EF3400F583E0601D75086075090578080D
:1053C8001222037C067903EEFAEFFB120C8C7402AE
:1053D800121FAF7D0A74012DF5D975D90375826046
:1053E8007583058D08E0F5D9A31508E50870F675ED
:1053F800E1957904120D94EE2470F582EF3400F5EE
:1054080083E0F8A3E0F9EE2472F582EF3400F58327
:10541800E8F0A3E9F079018002790002531C74F6E0
:10542800121FF0EAFEEBFF9061D0E0F87480C39899
:10543800FAEE2483F582EF3400F583E06004780403
:1054480080027800E82404F8EAC398500302550063
:105458007802900560E8F0EE24F5F582EF3400F567
:1054680083E0900561F0EE2483F582EF3400F58344
:10547800E0601B75086075090578081222037C0234
:105488007903EEFA120C8C7402121FAF78067401BD
:1054980028F5D975D9037582607583058808E0F504
:1054A800D9A31508E50870F675E195EE2474F58220
:1054B800EF3400F583E4F0EE2480F582EF3400F554
:1054C80083E4F0EE241DF582EF3400F583E4F0A3C5
:1054D800F07904120D94EE240DF582EF3400F58373
:1054E800E0F8A3E0F9EE2472F582EF3400F583E8E2
:1054F800F0A3E9F079018002790002531C74F612D6
:105508001FF09061D0E0F87480C398FCEA2483F51A
:1055180082EB3400F583E06004780480027800E8C8
:105528002404F8ECC398405B79029005607407F096
:10553800EA24F6F582EB3400F583E0900561F0EAA1
:105548002483F582EB3400F583E0601875086075F4
:10555800090578081222037C0209120C8C740212C5
:105568001FAF7906740129F5D975D903758260755D
:105578008305E9F8E0F5D9A318E870F875E195799D
:10558800018002790002531C74F5121FF0E9FCA295
:10559800AFE433F50AC2AF7D0080010DEA246FF550
:1055A80082EB3400F583E0F8EDC398501A8D08EAD1
:1055B8002508F8EB3400F9E8246BF582E93400F5A6
:1055C80083E06C70D68024EA246FF8EB3400F9E0AD
:1055D800FEEA2EFAEB3400FBEA246BF582EB34008A
:1055E800F583ECF088828983E004F0E50AA2E09272
:1055F800AF7F030220C274F6121FF0A2AFE433FD9E
:10560800C2AFEA246FF582EB3400F583E014F07C36
:105618000060368C08EA2508F8EB3400F9E8246CB9
:10562800F582E93400F583E0C0E0E8246BF582E90F
:105638003400F583D0E0F00CEA246FF582EB3400F7
:10564800F583E0F8ECC39840CAEA246EF582EB349F
:1056580000F58374FFF0EA246AF582EB3400F583E1
:10566800E4F0EDA2E092AF02531CC082C083E5A82B
:10567800F8C2AFEA246BF582EB3400F583E9F0EA6F
:10568800246AF582EB3400F583E4F0E8A2E792AFF0
:1056980002480074F3121FF0EAFEEBFFECFAEDFB90
:1056A8008A828B83A3A3A3A3E0541FF0EE2436F5CC
:1056B80082EF3400F583E4F0F50AEEFCEFFD8A8210
:1056C8008B83E0C0E0EC245DF582ED3400F583D0F7
:1056D800E0F0750B00E50A33333354F8F50C8A8291
:1056E8008B83E0F508750900E50B7808121F67E55C
:1056F80008A2E0502FEE2436F8EF3400F9888289AA
:1057080083E0F508EE2508F508EF3400F509E5080B
:105718002438F582E5093400F583E50CF0888289A0
:1057280083E004F0050B050CE50BC3940840AF05B6
:105738000A8A828B83A3AA82AB838C828D83A3ACD3
:1057480082AD83E50AC3940550030256C67F05025D
:1057580020C274F7121FF09003EEE0640170077A1C
:10576800007B000258D17E009003F4E070F17401D0
:10577800F0A3E4F0A3F090045404F0900457E4F08C
:10578800A3F090045A04F09003F7E4F0A3F0A3F018
:10579800A3F090040104F0900427E4F090848312AD
:1057A8001E8790040A121E9390040EE4F0A3F0A33F
:1057B800F0900472F0900466F090045B7480F0A39B
:1057C800E4F0900461F0900459F09004DDF0A3F047
:1057D800A3F0A3F0A3F0A3F0A3F0A3F09004E6F0E5
:1057E800900475F09004C5F0A3F0908483121E878E
:1057F8009004C7121E93908483121E879004CB12C4
:105808001E939004D1E4F09004D3F09004CFF0906C
:1058180004E9F0A3F0A3F0A3F0A3F0A3F0A3F0A38E
:10582800F078EE7903E8246FF582E93400F58374A3
:10583800FFF00E88828983A3A882A983EEC394040B
:1058480040E37AEE7B0378FD790488828983E0C09F
:10585800E0EA2461F582EB3400F583D0E0F0888239
:105868008983A3A882A9838A828B83A3AA82AB8314
:10587800E864027003E9640570D07AEE7B0378D59A
:10588800790388828983A3E0C0E0EA24E7F582EB04
:105898003400F583D0E0F088828983A3A882A983A5
:1058A8008A828B83A3AA82AB83E864DD7003E964F0
:1058B8000370CF9003EEE004F0640170089003F6E3
:1058C800E09003F0F07AF27B03025250C082C0836A
:1058D8009003F5E4F09003F4F09003EEF0A3F0A346
:1058E80074FFF075E1F1024800C082C08378007946
:1058F800009003F5E0600478F2790388828983A335
:10590800A3A3A3E0F902480074F6121FF0EAFEEB25
:10591800FF8E828F83A3A3A3E0600F8E828F83A361
:10592800A3A3E4F09003EFE014F09003EEE014F08A
:1059380070069003F074FFF08E828F83A3A3E4F0C7
:10594800900502E0700D9003EFE0640170057900A6
:10595800120D76EE2465F582EF3400F583E0F8A3A6
:10596800E0F9E8496029EE2465F8EF3400F9880881
:1059780089098882F583E0FCA3E0FD9003F0E0FA52
:105988007B00120962850882850983E4F0A3F0EEA2
:10599800FAEFFB120CBC02531C74F7121FF0EAFE5C
:1059A800EBFF8E828F83A3A3A3A3E0FA7B001209E7
:1059B800A4EEFAEFFB120C0E120CA4025250C08295
:1059C800C08378D5790388828983A3E4F0888289A3
:1059D80083A3A882A983E864DD7003E9640370E601
:1059E8009003D6024D2D74F6121FF0EAFEEBFFEC81
:1059F8002403F8ED3400F988088909EC2407F8ED48
:105A08003400F9E8FCE9FD8C828D83E0F8A3E0F925
:105A1800850882850983E0FAA3E0FB121F0EEE24B5
:105A28000DF582EF3400F583E8F0A3E9F08C828D60
:105A380083E0F8A3E0F9850882850983E0FAA3E00A
:105A4800FB121F0E8B09EA45096013EE240DF5823F
:105A5800EF3400F583E02401F0A3E03400F00253B2
:105A68001C74F6121FF0EAFEEBFFEE242EF582EF0F
:105A78003400F583E0FCA3E0FD780079FAECFAED58
:105A8800FB121F0EEE2470F582EF3400F583E8F068
:105A9800A3E9F0780079FAECFAEDFB121F0E8B09F6
:105AA800EA45096013EE2470F582EF3400F583E0CF
:105AB8002401F0A3E03400F002531C74F0121FF02C
:105AC800EAFEEBFF7410121FE47808121E69120D2B
:105AD8003A8A0C8B0D8C0E8D0F90849F780C121DBA
:105AE800F59084C3780C121E43780C1221FF8E8225
:105AF8008F83E0F8A3E0F5838882A3A3121E8712A0
:105B080028B17404121FAFE96003025C108E828F03
:105B180083E02402F8A3E03400F9E8FAE9FB8A827A
