:020000040000FA
:0600000002011A022A0FA2
:03002B0002318F10
:0300330002317126
:03005300022A82FC
:03007B0002310B44
:100083000228C3E5C754F84401F5C77901220000EB
:100093000080FB120086B90003020104E479217891
:1000A30008B800028004F709D8FCE479297802B87B
:1000B30000028004F709D8FCE490028178F67911F4
:1000C3008002F0A3D8FCD9FA781A90014A7A01BACF
:1000D30000028007E493A3F608DAF97A767B13909B
:1000E300014B78A879048015E493A3AD82AE838A8B
:1000F300828B83F0A3AA82AB838D828E83D8E9D9C6
:10010300E77582587583AB740412012C758291755F
:100113008300740012012C75D00075813F7518811E
:10012300751902759F00020096C09FF59FE473D076
:100133009F22D083D082C09FE493C0E0740193C018
:10014300E0740293F59F2201FF0000B40000280031
:100153002800283075A000A000A000A0000008001F
:1001630008E001F000100010001000100010001053
:100173000050005000500010001000D00700000095
:100183000000000F0001000500307507001000019A
:100193000081FF0000FF140732071A07FF02020263
:1001A30008025000A0000000E803028A8301000057
:1001B3006C83028683010000CB1302968301000047
:1001C3006207028683010000CC13028083010000D2
:1001D3007807028683010000CD13027E83010000AD
:1001E3007A07028683010000CE13027A8308000097
:1001F3007B07028683010000CF130278830100008E
:10020300D013FF0100FF20028A83010000758302DF
:1002130086830100003414028C8300000000000276
:100223008283030000C807F60CF60CF60CF60CF6F6
:100233000CF60CF60CF60CF60CF60CF60CF60CF6AB
:100243000C840F9C0F7E0F020202020202020202C2
:10025300010D0000001001028A830100006F830278
:100263008683010000751402A2830100000B0C02B7
:100273008683010000761402A083010000938102AB
:1002830086830100007714029E83010000858102AA
:1002930086830100007814029C83010000E1800240
:1002A30086830100007914029A83010000CF800243
:1002B30086830100007A14029883010000058102FD
:1002C30086830100007B1402A883010000F38002EF
:1002D30086830100007C140294830100007781026D
:1002E30086830100007D140292830100007E1401C5
:1002F300E803053F10FFFFFF00013075030201060D
:1003030000000000000000000000000000000000EA
:10031300000000000000000000000000FFFF0600D6
:10032300800CE803010B0953686F775747756172B7
:1003330064051220032003020A000201060302F0EF
:10034300FF426C7565546F6F746800000000000015
:10035300000000000000A8150000D2150A436861E0
:100363007261637465726973746963203100024357
:1003730068617261637465726973746963203200C2
:100383000843686172616374657269737469632099
:1003930033001043686172616374657269737469D1
:1003A3006320340002436861726163746572697328
:1003B3007469632035001643686172616374657202
:1003C30069737469632036001A43686172616374E8
:1003D30065726973746963203700028A83010000C0
:1003E30072830286830100008A1502AC8303000036
:1003F3001C130284830100008B1502868301000015
:100403009C1502AE830100001D13028483010000CA
:100413009D15028683010000AE1502B08302000021
:100423001E13028483010000AF15028683010000BE
:10043300C01502B2830000001F1302828303000071
:100443002013028483010000C1150286830100008A
:10045300D21502B483040000261302848301000032
:10046300D315028683010000E41502B6830300005E
:100473002B130282830300003F13028483010000D5
:10048300E515028683010000F615027C8303000054
:100493004513028283030000591302848301000081
:1004A300F715303132333435363738394142434426
:1004B300454600286E756C6C20706F696E746572AA
:1004C3002900303132333435363738396162636469
:1004D3006566003F3F3F000000807F0000803FF9DA
:1004E300021550B743BA5100E7DB2E0000A04012BB
:1004F300013568EB01120135A6F40112013575F5DA
:10050300011201356FF70112013562F9011201354C
:100513005AFA011201350A9D04120135219D041274
:100523000135509D04120135899D04120135B19D99
:1005330004120135DF9D04120135F69D04120135C5
:100543000D9E04120135239E041201354A9E0412A6
:1005530001355D9E04120135739E04120135869E9A
:1005630004120135AB9E041201358F970312013536
:100573008E9803120135C39803120135E4980312D0
:100583000135F49803120135159903120135219AA7
:1005930003120135EE9A03120135619B03120135F3
:1005A300E79B031201352A9C03120135619C031258
:1005B3000135E79C03120135B99D03120135179EDE
:1005C300031201352F9E03120135A99E0312013533
:1005D300AC9E03120135AF9E03120135569F0312E1
:1005E30001356E9F031201359E9F03120135BE9F95
:1005F30003120135ACA00312013562A103120135C8
:1006030088E703120135B0E703120135DEE7031271
:10061300013515E8031201357DE803120135C6E8FB
:100623000312013511E9031201354FE903120135B4
:100633008CE903120135BAE90312013561EA0312A9
:1006430001356BEA0312013578EA03120135ABEA8F
:10065300031201356DEB0312013579EB03120135FA
:1006630091EB031201359BEB0312013534A70412FE
:10067300013542A7041201355AA70412013572A7A6
:1006830004120135389F02120135D69F021201353B
:100693004EA00212013563A1021201359DA102127F
:1006A300013546A2021201351BA3021201357FA4B4
:1006B30002120135D6A4021201355DA502120135DD
:1006C30044A60212013591A6021201351FA7021298
:1006D300013543A70212013518A90212013559A9A0
:1006E300021201357BA902120135FCA90212013560
:1006F300E6AA02120135ACAB0212013557C103124F
:10070300013529C203120135D2C20312013515C3C3
:1007130003120135A2C3031201352EC4031201359E
:100723000FC5031201353EC5031201353AC6031244
:10073300013582C60312013584C703120135C8C7C8
:1007430003120135EEC703120135F3A90412013573
:100753000080041201351680041201353C80041216
:1007630001356481041201356E8104120135C7829B
:1007730004120135C78304120135C6D303120135B0
:10078300FBD4031201352ED50312013578D503129C
:10079300013536D703120135DB8F021201353E9046
:1007A3000212013583910212013593910212013530
:1007B300B69102120135019202120135A69202127C
:1007C30001359C9302120135669402120135DE95C0
:1007D30002120135209602120135BE96021201352E
:1007E3000B97021201353197021201351F9902123C
:1007F3000135249902120135059B02120135599BDB
:1008030002120135BB9B02120135E39B0212013533
:10081300879C02120135499D021201357A9D02120D
:1008230001357D9D02120135C59D02120135079EDA
:10083300021201356E9E021201351893041201351E
:100843002B93041201354493041201358F93041240
:1008530001356A9404120135F99404120135449563
:1008630004120135405C001201354C5C0012013565
:10087300855C00120135CA5C00120135815D0012EE
:100883000135075E001201356C5E00120135985E7A
:1008930000120135D15E00120135E5600012013509
:1008A300C16200120135AC6400120135E365001228
:1008B30001354368001201352F6900120135756A4D
:1008C30000120135826B001201359F6B0012013556
:1008D300D76B00120135F16B00120135596C001210
:1008E3000135F37000120135947100120135E57181
:1008F300001201350C72001201355A7200120135D3
:10090300787200120135CC7200120135A573001202
:1009130001352C7500120135B47500120135DEE284
:1009230003120135E8E203120135B3E30312013583
:10093300CEE303120135F4E30312013538E4031265
:10094300013570E40312013599E40312013512E510
:100953000312013527E5031201353CE50312013586
:1009630073E50312013587E503120135B8E5031278
:100973000135F2E5031201351EE60312013574E673
:1009830003120135C8E60312013511E703120135DD
:100993003BE70312013560E7031201351AF903122D
:1009A3000135E4F903120135C7FA031201353DFBA2
:1009B300031201357FFB03120135ACFC0312013531
:1009C3002EF30212013557F30212013570F30212AE
:1009D3000135B5F40212013593F502120135B2F572
:1009E300021201353FF60212013582F60212013579
:1009F300CFF7021201356EF802120135EDFA021239
:100A0300013584FB0212013558FC021201353AFD0F
:100A130002120135A6FE0212013539FF0212013519
:100A230040A304120135A9A304120135FDA3041246
:100A3300013524A40412013599FB0112013506FC8A
:100A43000112013551FC0112013546FD0112013538
:100A530042FE011201352CFF011201351B760012F3
:100A630001355D76001201353777001201351078B4
:100A7300001201350B7900120135EA7900120135B4
:100A8300567A001201351D7B00120135887B001256
:100A93000135EF7B001201351A7C001201358B7C86
:100AA300001201351E7D00120135877D00120135CC
:100AB3009C7D00120135E47D00120135FD7D00129D
:100AC3000135627E00120135657E0012013506FD97
:100AD300031201352EFD031201356CFD031201359E
:100AE3002AFE0312013595FE03120135B1FE0312EE
:100AF3000135D9FE0312013509FF0312013518FF31
:100B03000312013592FF03120135B8FF03120135B9
:100B13005FBC021201353CBE0212013537C002121E
:100B230001350AC10212013555C102120135A0C1B6
:100B330002120135B2C102120135F2C102120135AE
:100B430027C20212013573C202120135A2C2021278
:100B53000135C5C20212013512C3021201359BC30E
:100B630002120135A8C50212013593C702120135DD
:100B7300D6C7021201353BC9021201357CC90212E4
:100B83000135EFC9021201353BCA0212013566CAAB
:100B9300021201350080031201352B800312013547
:100BA300128703120135368903120135F18A0312C4
:100BB30001354E8C03120135BA830112013551847C
:100BC300011201357E8401120135C48401120135FD
:100BD3000386011201359A87011201351488011227
:100BE30001352F8801120135A48801120135D389FB
:100BF300011201352E8B01120135308C01120135A2
:100C03008D8D01120135A68D01120135038E01125E
:100C13000135E58E01120135188F01120135888FD8
:100C23000112013502900112013551900112013573
:100C33001D91011201352292011201350193011216
:100C430001358C9301120135FA93011201356E942B
:100C530001120135979401120135569501120135A0
:100C6300D09601120135ED96011201350C97011250
:100C730001359D9701120135C29701120135EA979B
:100C830001120135659801120135BF980112013532
:100C9300139A01120135D09A01120135A39B011257
:100CA300013590CA02120135E0CA02120135ECCABD
:100CB30002120135C9CB02120135F9CB02120135FB
:100CC30031CC02120135B0CC02120135E8CC02124C
:100CD30001353ACD0212013577CD021201359CCF91
:100CE30002120135C8D102120135C3D302120135F4
:100CF3009ED502120135F37F0012013516B201129F
:100D0300013560B2011201353FB801120135C0B996
:100D1300011201351FC0011201351AC1011201353B
:100D230057C1011201357AC101120135BCC101124B
:100D33000135C5C101120135CFC101120135BBC255
:100D430001120135AFC301120135D19B01120135E7
:100D530049A6011201354FA6011201355BAD0112FF
:100D63000135D183041201356784041201357D8472
:100D730004120135F784041201354D85041201353F
:100D83008B8504120135E88504120135658604124A
:100D930001356E86041201357A86041201358D867B
:100DA30004120135C98604120135DF8604120135A8
:100DB3003E8704120135BAF003120135C7F003125E
:100DC3000135E1F00312013520F1031201355EF123
:100DD30003120135C3F103120135D8F103120135B2
:100DE300E3F103120135F0F10312013507F20312A7
:100DF300013515F20312013520F2031201352CF2ED
:100E0300031201353BF20312013546F20312013599
:100E130069F20312013512F30312013522F30312AF
:100E230001353CF30312013559F30312013575F310
:100E3300031201359AF303120135A4F303120135AA
:100E4300B8F303120135D7F30312013538F4031253
:100E530001353EF40312013544F4031201354AF41B
:100E63000312013556F40312013589F403120135D7
:100E730064D802120135E6D8021201358FD9021265
:100E83000135D7DA02120135E5DC02120135CBDD7B
:100E93000212013500DE0212013522DE0212013593
:100EA300CBDE021201359BE002120135C4E00212CF
:100EB30001353CE1021201356EE1021201357BE19D
:100EC30002120135C6E102120135EAE102120135CF
:100ED3003BE40212013545E502120135A1E5021298
:100EE3000135E1AD02120135F2AE02120135D6AF82
:100EF30002120135E0AF0212013502B002120135D0
:100F03000EB002120135B2B102120135DFB1021285
:100F13000135F5B2021201354AB30212013599B413
:100F2300021201356EB502120135CAB5021201353E
:100F330035B6021201356AB602120135ADB6021298
:100F4300013577B9021201358FB90212013520BA82
:100F5300021201352EBA021201357BBA0212013593
:100F630089BA02120135F5BA0212013570BB0212B9
:100F73000135C7BB02120135718C03120135938C05
:100F830003120135A48E0312013563910312013557
:100F93008D92031201354B930312013537940312DB
:100FA30001359B9904120135C09904120135369A13
:100FB300041201353ABA0312013543BA031201355B
:100FC3004CBA0312013524BB03120135D5BC0312FD
:100FD300013505BD0312013530BD0312013560BD76
:100FE300031201358BBD03120135BFBD0312013559
:100FF300EBBD031201352EBE0312013559BE031298
:101003000135A0BE03120135F5BE0312013537BF0A
:101013000312013591BF03120135BCBF0312013521
:101023000BC0031201353BC00312013566C0031226
:10103300013594C003120135B7C0031201357CAAF0
:1010430004120135A8AA04120135D5AA04120135E8
:10105300DFAA04120135EFAA04120135B3AB04125F
:101063000135FD8A04120135228B041201354C8BA4
:10107300041201356ACE031201356CCF0312013518
:1010830008D0031201354DD00312013555D1031297
:101093000135C5D2031201352BD30312013507AC39
:1010A3000412013561D90112013541DB0112013509
:1010B300FDDC01120135EADD0112013571DE011299
:1010C3000135EBDE011201351CDF0112013593E21C
:1010D300011201350FE30112013500E4011201355C
:1010E30038E4011201357BE401120135B2E5011246
:1010F300013507E6011201353EE601120135B0E67E
:1011030001120135D7E601120135F1E6011201356D
:10111300E3E701120135F3E7011201358FE901120B
:101123000135A6E901120135D8E90112013529EB90
:10113300011201350BA8041201351CA80412013554
:10114300B7A804120135B0FF02120135EFFF0212F6
:101153000135EEFF0112013552A60412013562A6D4
:10116300041201357AA6041201352EA704120135A3
:1011730055A404120135D9A4041201353FA5041264
:10118300013512F50312013542F50312013596F5C7
:101193000312013532F603120135F6F60312013557
:1011A30072F703120135BD9E04120135E29E04124B
:1011B30001354A9F04120135699F04120135B39F1B
:1011C300041201350CA0041201354BA004120135A1
:1011D3004EA00412013502AA0312013527AA0312F5
:1011E300013544AA0312013561AA0312013585AA08
:1011F30003120135B2AA03120135C5AA0312013540
:10120300D8AA03120135FCAA0312013527AB031236
:101213000135D9AB0312013557AC031201357BAC51
:1012230003120135C1AD0312013518AE03120135A6
:1012330041AF03120135BBAF0312013504B00312F2
:1012430001350DB0031201351AB00312013524B074
:10125300031201352EB00312013541B003120135DB
:101263004AB00312013553B00312013564B00312BF
:1012730001359DB10312013500DE0312013517DE7E
:101283000312013590DE0312013569DF03120135C4
:1012930027E2031201358CE203120135CBE203127C
:1012A3000135F87F001201356E9504120135EF9672
:1012B3000412013550970412013596970412013533
:1012C300F68D041201350F8E04120135398E041286
:1012D3000135538E04120135628E04120135798E65
:1012E30004120135888E041201359D8E04120135D6
:1012F300D48E04120135F68E041201351A8F0412AE
:101303000135598F04120135908F04120135E58F91
:101313000412013527900412013558A50412013532
:101323008AA504120135A9A504120135B5A5041235
:10133300013510A6041201353CA6041201356E874F
:1013430004120135C587041201359B890412013546
:10135300897E00120135C47E001201356A7F0012B6
:1013630001357F7F00120135CEA104120135F7A1AB
:101373000412013520A204120135B9A20412013569
:10138300FBA204120135CDA103120135D7A103122B
:10139300013517A20312013560A2031201359AA287
:1013A30003120135F4A20312013513A3031201350D
:1013B300B5A503120135BEA5031201350FA603120D
:1013C300013538A60312013542A603120135AEA634
:1013D3000312013542A703120135A1A703120135F8
:1013E300CFA7031201354FA80312013592A80312A8
:1013F3000135CDA803120135DFA803120135FEA87C
:101403000312013507A903120135D6A903120135C9
:1014130057A004120135AAA00412013516A1041223
:1014230001357EA104120135AD9004120135D79028
:1014330004120135AC9104120135A0920412013556
:10144300ECD803120135E1D903120135FBD903129C
:1014530001350CDA0312013541DC0312013561DC7D
:1014630003120135999704120135CF970412013500
:10147300089804120135619904120135C2A80412B7
:101483000135D8A804120135E2A8041201352CA9AC
:1014930004120135F9AA0412013527B203120135EA
:1014A300E4B2031201351FB30312013547B303122C
:1014B3000135A9B303120135F5B30312013559B44C
:1014C30003120135D3B403120135D5B50312013527
:1014D30088B7031201350AB8031201356FB8031236
:1014E300013586B8031201358FB903120135CDB921
:1014F3000312013530EC0312013549EC03120135B7
:10150300EAEC031201352AED0312013543ED031210
:10151300013576ED03120135C3ED03120135F7ED05
:101523000312013539EE0312013543F0031201357D
:10153300ADF003120135EEE50212013551E9021255
:101543000135CDEA0212013524EB0212013541EBDC
:1015530002120135BFEB021201354AED02120135C9
:101563002EEE02120135BBF1021201358BF202128B
:101573000135549B041201355E9B041201356E9BA9
:1015830004120135169C041201355A9C04120135CC
:10159300A19C04120135E09C04120135C7C5011258
:1015A30001357DC90112013522CA0112013536CB3D
:1015B3000112013581CD01120135B0D2011201357D
:1015C300ADD301120135D2D40112013588D50112F0
:1015D3000135CBD60112013563C803120135BEC8EC
:1015E30003120135DBC8031201352FCA031201357B
:1015F300DBCA03120135DACB03120135BACD03126C
:10160300013509CE031201350080021201351E8512
:101613000212013583AC041201355DA904120135B0
:1016230087A9041201354CAC04120135AFAC041286
:101633000135D57F00E76670100809E766700A0870
:1016430009E76670040809E76622E066701008A3DC
:10165300E066700A08A3E066700408A3E06622C38C
:10166300E7960809E7960809E7960809E796A2D2DC
:1016730065D03322C3E09608A3E09608A3E096085A
:10168300A3E096A2D265D03322C008C3E096F50842
:1016930008A3E096420808A3E096420808A3E09650
:1016A3004208A2D265D033E5087001D3D00822C323
:1016B300E7960809E7960809E7960809E79622C31B
:1016C300E09608A3E09608A3E09608A3E09622C05C
:1016D30008C3E096F50808A3E096420808A3E0963D
:1016E300420808A3E09645087001D3D008220808F1
:1016F30008E630E711122013121709080808C64438
:1017030080C618181822181818E9799EC608CAC680
:1017130008CBC608CCC6C370207996CACBCC701947
:10172300798ECBCC70137986CC700EF9802ACA33AC
:10173300CACB33CBCC33CC331930E7F2CCCBCA335F
:1017430050147004EA30E00DE4CA3ACACB3BCBCC68
:101753003CCC500209C3E913C6CC182313C6CB18DB
:10176300C6CA18C6F9221217A920F01430E72B7441
:10177300FFFCFBFA747F8022E4FCFBFA7480801A7E
:10178300B48008BC00F2BB00EF800F50EBF9E4C358
:101793009AFAE49BFBE49CFCE499C6CC18C6CB18EC
:1017A300C6CA18C6F922E4C9C608CAC608CBC6D336
:1017B300330308CCC63392F0C3947F402E94184071
:1017C30019C9B90704CACBCC225025C309CA33CAE5
:1017D300CB33CBCC33CC33D9F422F4600DC9CCC397
:1017E30013CB13CBCA13CAD9F6CC22E4FCFBFA22DF
:1017F30014FCFBFA22E62618461846184622E72769
:1018030019471947194722181818E6084608700996
:10181300E626087005E633F4220822191919E709A8
:1018230047097009E727097005E733F4220922E61F
:10183300084608C3134608336002E633F422E70977
:101843004709C3134709336002E733F422121832FE
:10185300602512184160201217F87003021801085E
:101863000808E76670101819E766700A1819E76622
:1018730070041819E76622F422121832601C121839
:101883004160171217F870071218017001D322C0B4
:10189300D01218017006D0D0B322C32233D0D05057
:1018A3001430E0F6C3E7960809E7960809E79608B7
:1018B30009E796B32220E0D5E6970809E6970809D9
:1018C300E6970809E697B322121832601B121841F3
:1018D30060161217F87007121801600CB322C0D0FB
:1018E3001218017005D0D022C32233D0D050133048
:1018F300E0EBC3E7960809E7960809E7960809E7C6
:10190300962220E0E4E6970809E6970809E6970897
:1019130009E6972200121832604F1218416012E74D
:10192300548066F612180A7011121801703B0909E7
:1019330009F4F618F618F618F62212181E70151286
:1019430017F808080860EAE6447FF618768018E47A
:10195300F618F6221217F860161218017012E4F640
:1019630008F608F608E65480F6090909181818223B
:10197300EAC0E0EBC0E0ECC0E0EDC0E0E687F0A435
:10198300FBACF008E687F0A42CFCE435F0FA180968
:10199300E687F0A42C4B60027401CA35F0FCE433F3
:1019A300FB09E687F0D2F7A42CCB35F0FC1908E647
:1019B30087F0A42BCC35F0FBE433FD0819E687F060
:1019C300D2E7A42C4ACB35F0CD3400FC09E687F0EE
:1019D300D2E7A42DCC35F0FDE433FA0918E687F0FD
:1019E300D2F7A42CCD35F0CA3400FC08E687F0D238
:1019F300E7D2F7A42ACC35F07A7E20E70B0ACB3363
:101A0300CBCD33CDCC33CC33CB3350147004ED304A
:101A1300E00ED2F1E4CD3DCDCC3CCC3B5005DA0514
:101A2300C2F1EB547FC63308E63392F0FBE7330988
:101A3300E733C39A502D2B70190C0D4C4D701518AC
:101A430006E608C333700D20F10AA2F013F6E4187A
:101A5300800B4024E4F630F002768018F618F6186E
:101A6300F68024D33B14501074FFA2F013F61876BB
:101A730080E418F618F6800FA2F013F618E6330385
:101A8300F618ECF618EDF6D0E0FDD0E0FCD0E0FB64
:101A9300D0E0FA221218416046121832603DE9681C
:101AA3007008F618F618F618F622748067F7121AFB
:101AB300CB090909748067F722121832601D1218C6
:101AC300417005191919801A12180A701F12181E6D
:101AD300C37003E667331919194007181818220849
:101AE300080874FFF618F618F618F62212181E6086
:101AF30017121801702192F01217F870195017205D
:101B0300F014080808090909E7F61819E7F618197F
:101B1300E7F61819E7F6221217F860E6E869701F6E
:101B23000808E62480F608E436F618547FB47F0CE0
:101B3300E654806007F6E418F618F622181822E92E
:101B4300C6CC08C6CD08C6CE08C6CFC0E0E8C0E004
:101B5300EAC0E0EBC0E009E9F809E7FA09E7FBE6C8
:101B6300F918E6F8C3EC98ED99EE9AEBC2E7F5F0B5
:101B7300EFC2E795F0500E600CEBCFFBEACEFAE92B
:101B8300CDF9E8CCF8EAA2E7D2E7FAEB33FB13F599
:101B9300F0EEA2E7D2E7FEEF33FFC5F013A2E73082
:101BA300E601B313C5F0C3C0E0C0F07F00C39BFBE5
:101BB300605E9418600F401D14601AD0E023F9D0C2
:101BC300E0F8021C9D8AF0E9486003D2F0E4AFF02C
:101BD300FAF9F8803BEB30E40D89F0EA6003D2F0C8
:101BE300E4AFF0F9CAF8EB30E30D88F0EF6002D20E
:101BF300F0AFF0E4CAC9F8EB54076014FBC3EA136F
:101C0300FAE913F9E813F8EF135002D2E0FFDBED22
:101C1300D0E0C0E030E739C3E49FFFF5F0EC98FC77
:101C230042F0ED99FD42F0EE9AFE42F0D0E0F9D099
:101C3300E0F8E5F0607AE923F9EE20E742D8028084
:101C430067C3EF33FFEC33FCED33FDEE33FE80EA85
:101C5300EC28FCED39FDEE3AFED0E023F9D0E0F8B4
:101C63004002801BC3EE13FEED13FDEC13FCEF13D8
:101C73005002D2E0FF08B800067F7F74FF802EEF8A
:101C83003350178CF020F00260100CBC000C0DBD1B
:101C930000080EBE000408E860DFE933E813FFEE36
:101CA3002313FE4F4D4C8008E95480FFE4FEFDFCF6
:101CB300EE33EF33F47004FCFD7E80D0E0FBD0E024
:101CC300FAD0E0F8D0E0CFC618CEC618CDC618CCEF
:101CD300C6F922121832700418181822121841700B
:101CE3000D74FFF61819F61819F61819F622E754A9
:101CF3008066F61217F8700F12180170F014F608C8
:101D0300F608F608F680D1121801700CF608F608EA
:101D1300768008E6447F80EC121821700C12180DAF
:101D230060BFE65480F6E480BB12180D70051919E4
:101D33001980A5E869700C763F18768018F618F6B6
:101D4300E8F922E6CDC0E018ECC0E0E633CD33CDB0
:101D5300D313F6E719FCE7191933CC33C3947F4047
:101D63000ECD9D502408E65480F6E418F6800FF457
:101D7300043D14501408E6447FF6187680E418F600
:101D830018F6D0E0FCD0E0FD22CCD313CCFD18E450
:101D9300C6CBC0E018E4C6CAC0E00808ED08C633E5
:101DA300E613F618E433C675F003C3CA97CA09CB22
:101DB30097CB199C40047D08802EBD0003021E7F33
:101DC30016B6FF050606081618C3CA33CACB33CBAB
:101DD30033CA27CA09CB37CB193CC37D08803E18C9
:101DE3007D0820E75CC633C6CA33CACB33CB33DDA9
:101DF300F1D5F0EB30E77BCA97CA09CB974ACB19E9
:101E03009C406F4B7025E620E0218066187D08C357
:101E1300CA97CA09CB97CB199CD3C633C6CA33CA50
:101E2300CB33CB3350C9DDE7D5F0E1D3E4C636C6B7
:101E330008C636C608C636C608C636C61818188079
:101E430031C3CA97CA09CB97CB199CB34097C63302
:101E5300C6CA33CACB33CB33DD34D5F02EC6A2E0AA
:101E6300C640C8CA27CA09CB37194A70BECB3CB48F
:101E730080B90808E63308E633601F181818D0E065
:101E8300FAD0E0FBD0E0FCD0E0FD22187D08CA27A1
:101E9300CA09CB37CB193CD3808013F618E4B67F3D
:101EA30011F618B6FF0EF618C60470D2080876802D
:101EB30080CAF618F618F680C5080808EAC0E0EBF1
:101EC300C0E086F0E7A4FA180986F0E7A42AFA1816
:101ED3000986F0E7A42AFA180986F0E7A42AFA1972
:101EE30086F0E7A4FBE5F02AFA190886F0E7A42BAD
:101EF300FBE5F03AFA190886F0E7A42BFBE5F03A84
:101F0300FA18180986F0E7A4C5F02BFBE43AFA198E
:101F130008E7C5F0C6A426F6E5F03BFBE43AFA1859
:101F230086F0E7A4F6E5F00826F6E43B08F6E43A83
:101F330008F6D0E0FBD0E0FA22E4CFC0E0E4CEC064
:101F4300E0E4CDC0E0E4CCC0E075F020E626F6087E
:101F5300E633F608E633F608E633F6181818EC33DA
:101F6300FCED33FDEE33FEEF33FFC3EC9709ED9742
:101F730009EE9709EF97191919400FFFEC97FC0920
:101F8300ED97FD09EE97FE191906D5F0BFECF70999
:101F9300EDF709EEF709EFF7191919D0E0FCD0E0D6
:101FA300FDD0E0FED0E0FF22122016181818121FF1
:101FB3003C122002191919221220021919190808B2
:101FC30008E618181820E7E0121F3C12201618180C
:101FD3001822090909E719191920E7DC080808E696
:101FE30018181820E703021F3C122016181818129D
:101FF3001F3C12201618181812200219191922E46E
:10200300C397F709E497F709E497F709E497F722E9
:10201300181818E4C396F608E496F608E496F6084A
:10202300E496F6226017080808C6A2E713C618C686
:1020330013C618C613C618C613C6D5E0E922601620
:10204300080808C6C313C618C613C618C613C6188D
:10205300C613C6D5E0EA22700908080822601618DC
:102063001818C6C333C608C633C608C633C608C65F
:1020730033C6D5E0EA22E627F60809E637F608096B
:10208300E637F60809E637F622E026F608A3E03637
:10209300F608A3E036F608A3E036F622E026F008B9
:1020A300A3E036F008A3E036F008A3E036F022C33D
:1020B300E697F60809E697F60809E697F60809E6AB
:1020C30097F622C3E0C696F608A3E0C696F608A3E1
:1020D300E0C696F608A3E0C696F622C3E096F0089B
:1020E300A3E096F008A3E096F008A3E096F022E0C0
:1020F30056F608A3E056F608A3E056F608A3E05602
:10210300F622E056F008A3E056F008A3E056F008E4
:10211300A3E056F022E0F608A3E0F608A3E0F608F1
:10212300A3E0F622E493F608740193F6087402938D
:10213300F608740393F622E6F008A3E6F008A3E694
:10214300F008A3E6F022E0FAA3E0FBA3E0FCA3E09F
:10215300FD22EAF0A3EBF0A3ECF0A3EDF022E0FC08
:10216300A3E0FDA3E0FEA3E0FF22ECF0A3EDF0A3C8
:10217300EEF0A3EFF022E0F8A3E0F9A3E0FAA3E086
:10218300FB22E8F0A3E9F0A3EAF0A3EBF022CAC034
:10219300E0E6F0A308DAFAD0E0FA22CAC0E0E0A34E
:1021A300C582CCC582C583CDC583F0A3C582CCC50A
:1021B30082C583CDC583DAE6D0E0CA22C3E498F8AA
:1021C300E499F91222008026C3E49AFAE49BFBE91E
:1021D30020E7E9122200E498F8E499F922C3E4988D
:1021E300F8E499F9122200E498F8E499F9C3E49A1F
:1021F300FAE49BFB22EB20E7CFE920E7E0B90010EC
:10220300BB0008E88AF084F8AAF022E4FBC8FA22AB
:10221300EB70227B10C833C8C933C9335007C39A44
:10222300C3DBF280069A50012ADBEAC833F4C8C93B
:1022330033F4C9FA2275F008E4C833C8C933C93383
:10224300C99AC99B5004C92AC93BD5F0ECFBC833D2
:10225300F4C8E4C9FA22600D08C6A2E713C618C67B
:1022630013C6D5E0F322600C08C6C313C618C61301
:10227300C6D5E0F422700422600D18C6C333C60825
:10228300C633C6D5E0F41822251810AF08F5184058
:102293000C15198008F51840021519D2AF2200C099
:1022A300D0251810AF08F518500C05198008F5183B
:1022B30050020519D2AFD0D0222518F58210AF08ED
:1022C300F518400C15198008F51840021519D2AFFE
:1022D300851983222518F582E43519F583222518FB
:1022E300F8E43519F9222518FAE43519FB222518E3
:1022F300FCE43519FD22E4732518C582C0E0E51915
:1023030034FFC583C0E0E518C3958224F810AF08F5
:102313008583198582188008858319858218D2AF31
:10232300CEF0A3E520F0A37808E608F0A3DEFAEFE9
:10233300F0A3E58124FAF8E608F0A3E608F0A3E6A3
:1023430008F0A30808E608F0A3E608F0A315811532
:1023530081D0E0FED0E0F8158115811581E8C0E059
:10236300EEC0E0222518C582C0E0E51934FFC5831D
:10237300C0E0E518C3958224F910AF088583198559
:1023830082188008858319858218D2AFCEF0A3E521
:1023930020F0A37808E608F0A3DEFAEFF0A3E581C6
:1023A30024FBF8E608F0A3E608F0A30808E608F023
:1023B300A3E608F0A315811581D0E0FED0E0F8155F
:1023C300811581E8C0E0EEC0E0228519838518827B
:1023D300E0A3FEE0A3F5207808E0A3F608DFFAE027
:1023E300A3FFE0A3C0E0E0A3C0E0E0A3C0E0E0A35C
:1023F300C0E0E0A3C0E010AF088582188583198090
:1024030008858218858319D2AFD083D08202013226
:10241300851983851882E0A3FEE0A3F5207808E000
:10242300A3F608DFFAE0A3FFE0A3C0E0E0A3C0E067
:10243300E0A3C0E0E0A3C0E010AF08858218858365
:10244300198008858218858319D2AFD083D0822260
:10245300C0D02518C582C0E0E51934FFC583C0E0AC
:10246300E518C3958224F310AF0885831985821874
:102473008008858319858218D2AFC8F0A3E9F0A339
:10248300EAF0A3EBF0A37908E709F0A3D8FAECF09C
:10249300A3EDF0A3EEF0A3EFF0A3D0E0F0A3D0E020
:1024A300F0A3D0E0F0A3E520F0A3E5F0F0A32285AC
:1024B3001983851882E0C0E0A3E0F9A3E0FAA3E062
:1024C300FBA37808E0F608A3DFFAE0FCA3E0FDA392
:1024D300E0FEA3E0FFA3E0C0E0A3E0C0E0A3E0F5DB
:1024E300D0A3E0F520A3E0A3F5F010AF088583198E
:1024F3008582188008858319858218D2AFD082D04F
:1025030083D0E0F8D0E03274048006740280027451
:1025130001C0E0F4041222BCD0E012219122740421
:10252300800474028000CCC0E0EDC0E0E518C39CD9
:10253300CCAD1950011D10AF068C188D1980068C77
:10254300188D19D2AF12219ED0E0FDD0E0FC22D02D
:1025530083D082E9C0E0E493A3C386F0C5F095F08D
:10256300F908E493A386F0C5F095F0700BE493A308
:10257300C3994005E9048002A3E475F002A425820F
:10258300F582E5F03583F583D0E0F9E493A3C0E069
:10259300E493C0E022D083D082ECC0E0EDC0E0E45D
:1025A30093A3FCE493A3FDED4C600D1225E4EC240E
:1025B300FFFCED34FFFD80EFE493A3FCE493A3FD64
:1025C300ED4C600D122623EC24FFFCED34FFFD805F
:1025D300EFD0E0FDD0E0FCE493A3C0E0E493C0E0DF
:1025E30022C0E0C3E49396087401939618400FE465
:1025F3009366700808740193661870007019A3A39A
:10260300C3E49396087401939618A3A3400DD0E0F6
:10261300D0E0D0E00225D4A3A3A3A3A3A3D0E022B8
:10262300C0E0C0F088F0E493667008087401936614
:10263300187000A8F0A3A3700BD0F0D0E0D0E0D0C6
:0B264300E00225D4A3A3D0F0D0E022D9
:1026500074F5122367EAFEEBFFEE2434F8EF340042
:10266000F988088909EE2435F582EF3400F583E016
:10267000F8EE2437F582EF3400F583E0F50AEC85B7
:102680000AF0A4FCAAF0850AF0EDA42AFDE82CF8D3
:10269000E43DF97A257B00122200EA85088285094B
:1026A00083F05407F87401B800028004C333D8FCE7
:1026B000C0E0E0131313541FF8EE28F8EF3400F9CC
:1026C000E8245DF582E93400F583D0E0F8E0586055
:1026D00008EE2434F582EF801EEE2436F582EF34C6
:1026E00000F583E0F5F0EA84A8F0EE28F8EF340076
:1026F000F9E82438F582E93400F583E0F97F040233
:10270000241374F5122367EAFEEBFFEE2434F582FE
:10271000EF3400F583E0C0E0EE2435F582EF3400BD
:10272000F583D0E0F08E828F83A3A3A3A3A3A3A3FA
:10273000C082C0838E828F83A3A3A3A3A3E0F8A348
:10274000E0F9D083D082E0C398F508A3E099F509B9
:10275000EE2480F582EF3400F583E064017069EEC9
:102760002481F582EF3400F583E0F8A3E0F98E824E
:102770008F83A3A3A3A3A3A3A3E0FCA3E0FD8E8266
:102780008F83A3A3A3A3A3E0FAA3E0FBC3EA9CEB7C
:102790009D5027C3EC98ED99402EC3EA98EB9950D1
:1027A000277CAD7D09EEFAEFFB120C54EE2480F588
:1027B00082EF3400F583E4F0800EC3EA98EB994091
:1027C000E0C3EC98ED9950D9EE2434F8EF3400F9D9
:1027D000E8FCE9FDEE2435F582EF3400F583E0F8FE
:1027E000EE2437F582EF3400F583E0F50AE508853D
:1027F0000AF0A4F508AAF0850AF0E509A42AF5096B
:10280000E82508F8E43509F97A257B00122200EA68
:102810008C828D83F05407F87401B800028004C3E1
:1028200033D8FCC0E0E0131313541FF8EE28F8EF80
:102830003400F9E8245DF582E93400F583D0E0F84E
:10284000E0586008EE2434F582EF801EEE2436F561
:1028500082EF3400F583E0F5F0EA84A8F0EE28F882
:10286000EF3400F9E82438F582E93400F583E0F923
:102870001230FD0226FDC082C0838518828519832F
:10288000E0F8A3E0F9C3EA9CEB9D5012C3EC98ED8D
:10289000994019C3EA98EB99501279018010C3EA64
:1028A00098EB9940F5C3EC98ED9950EE7900D08300
:1028B000D08222EAC39CFAEB9DFB2200852187850A
:1028C00022C622C0E0C0D0E8C0E0E9C0E0EAC0E033
:1028D000EBC0E0ECC0E0EDC0E0C008C009C00AC039
:1028E0000BC082C083C0F0759B00906182E0A2E6BD
:1028F00040030229A1E591A2E640030229A17591B6
:10290000BF900872E064057008120D8C120D98805B
:1029100003120D92752100120DF2E9900873F079FF
:1029200000120DE6120BCA7A017B00900871E0F9E3
:102930001213E6907803E0644260030229EA900AE9
:102940000FE014F060030229EAC2AF12294E0078AA
:102950002AD0E0F618D0E0F6E59F5407F97005900C
:1029600082D080039082CC7808122118E9C4C0E09C
:102970007829E65508F50808E65509F509740B7835
:1029800008122269D0E02508F8906270E0A2E740C2
:10299000F8E8C333906272F0906270E0D2E0F080A9
:1029A00049E0A2E55024E591A2E5501E7591DF9023
:1029B0000872E0640D7013900894E004F0642870CD
:1029C00002E4F07A00E0F9120E64906181E0A2E383
:1029D0005009E5E9A2E3500375E9F7A3E0A2E75047
:1029E00009E591A2E7500375917FD0F0D083D082A2
:1029F000D00BD00AD009D008D0E0FDD0E0FCD0E068
:102A0000FBD0E0FAD0E0F9D0E0F8D0D0D0E032C08E
:102A1000E0C0D0C082C083906183E0A2E05009E5AD
:102A2000BFA2E0500375BFFEE0A2E15009E5BFA2DE
:102A3000E1500375BFFDE0A2E25009E5BFA2E250FC
:102A40000375BFFBE0A2E35009E5BFA2E3500375A5
:102A5000BFF7E0A2E45009E5BFA2E4500375BFEF61
:102A6000E0A2E55009E5BFA2E5500375BFDFE0A293
:102A7000E65009E5BFA2E6500375BFBFD083D08200
:102A80008088C0E0C0D0E8C0E0E9C0E0EAC0E0EB88
:102A9000C0E0ECC0E0EDC0E0C0F0E5A7A2E6500F5A
:102AA000E5A1A2E6500953A7BF75A1BF122AE7E529
:102AB000A7A2E5500CE5A1A2E5500653A7DF75A13A
:102AC000DFE5A7A2E15009E5A1A2E1500375A1FD50
:102AD000E5A7A2E2500CE5A1A2E2500653A7FB75C0
:102AE000A1FBD0F00229F874F81223677521019038
:102AF0000872E064067015120D208A828B83A3A3EE
:102B0000A3A3A3A3E0FAA3E0FB120D7AA2AFE433E0
:102B1000FED2AF900878E0640170187A207B0090B4
:102B20000871E0F91215187A207B00900871E0F91D
:102B30001213EC906182E0D2E6F0900A0EE0602180
:102B400085C6228016900877E064017008E5C654B7
:102B5000F84405F5C653BEFC1228BC74016521601B
:102B6000E4EEA2E092AF7F01022413008E238F24B3
:102B7000858228858327851882851983E0CEA3E086
:102B8000CF852882852783EBC9EAC8EDCBECCA75CF
:102B9000F010C3E833C8E933C9EA33CAEB33CBC317
:102BA000EA9EF526EB9FF525B35004AB25AA26EC4B
:102BB00033CCED33CDD5F0DAAE23AF242274EB1253
:102BC000236774FA12228B8A088B098C148D159056
:102BD0000872E024F7C3940550069082D4022D1F9A
:102BE000120D208A0A8B0BAE0AAF0BEE4F70030258
:102BF0002D1CAC08AD09851882851983AA82AB8388
:102C0000120DAA8E828F83A3A378081221189083B5
:102C10004478081220F2851882851983780C1221D5
:102C200018908344780C1220F27808790C1216B2AE
:102C3000501F7808790C1220B290824C7808121636
:102C4000D24047850810850911850A12850B13802B
:102C500041850C10850D11850E12850F13781079A2
:102C6000081220B290824C78101216D2501C7510A7
:102C7000007511007512007513017810790C12207F
:102C8000B27810790812207980089082D4781012D6
:102C900021187409781012205A9082F078081221B5
:102CA0001878107908121F3C8E828F83A3A3A3A3E8
:102CB000A3A3E0F8A3E0F97AD07B031222008808EE
:102CC0008909E4F50AF50B78107908122079740463
:102CD0001222D7E0F8A3E0F97AD07B03122200E8B1
:102CE000FA8A08E4F509781079081216B2500778C4
:102CF0001079081220B2900872E06408600AE0645B
:102D0000066005E06405701C90824478101216D2AB
:102D100050129082F4781012208C800890825C7897
:102D200010122118851482851583781012213A74A7
:102D3000061222A17F0E02241374F7122367120DCC
:102D4000BC900A0CE064017010906245E4F0A3F0BE
:102D500053F4F343FE0C5390F3120D68E5C6548010
:102D60004449F5C6E59E547F644970F890618574C6
:102D70000FF0900A0AE0F47002A3E0604E900A0B94
:102D8000E0600814601B14602E804075080175090E
:102D900000900A0AE07808122278E508F452808050
:102DA0002A750801750900900A0AE078081222784D
:102DB000E508F452908014750801750900900A0A1C
:102DC000E07808122278E508F452A079007F020228
:102DD000241374F7122367E9FEEAFF74016E700C86
:102DE0007A807B00900871E0F91213E6905C3CE475
:102DF00093F46008E493F9120BBE800953C680E592
:102E00009E547F70FA120D6E900A0CE064017003FC
:102E1000120BD6900A0AE0F47002A3E0604B900A0D
:102E20000BE0600814601A14602C803D7508017571
:102E30000900900A0AE07808122278E508428080AA
:102E400028750801750900900A0AE07808122278AE
:102E5000E50842908013750801750900900A0AE0A0
:102E60007808122278E50842A0120DBC120D208AC3
:102E7000088B09A808A909E8496015E5E170FCE894
:102E80002414F582E93400F583E0F46003E0F5E111
:102E900074016F700A7A01900871E0F912148802C7
:102EA0002DCD74F11223678A088B098C0A8D0B745F
:102EB0000F1222D7780C1221189083447808122020
:102EC000F2908344780C1220F27808790C1216B232
:102ED00050157808790C1220B290824C780812169E
:102EE000D2401579018013780C79081220B29082B3
:102EF0004C780C1216D240EB79007F080224137430
:102F0000ED1223678A088B098C0A8D0B7413122229
:102F1000D7780C12211890834478081220F29083FD
:102F200044780C1220F2780C79081216B24011780D
:102F300008790C1220B2AA08AB09AC0AAD0B8022AA
:102F40007510007511007512007513017810790C59
:102F50001220B278107908122079AA10AB11AC12A5
:102F6000AD137F0C02241390834478081221188A31
:102F7000828B8378081221057F0402241374F512D2
:102F800023678C828D8378081221188A828B83783C
:102F9000081220DEEA2404F8EB3400F98C828D83D9
:102FA000A3A3A3A3E0FCA3E0FD88828983C3E09CE4
:102FB000F0A3E09DF088828983C3E09420A3E0948D
:102FC0004E402290829078081221188A828B837852
:102FD0000812209F8A828B83A3A3A3A3E02420F05E
:102FE000A3E0344EF0808074F5122367E9FE900967
:102FF000C4E0FAA3E0FBEEC333F8E433F9743928F4
:10300000F582748139F583E02AF508A3E03BF509E0
:10301000780812250E9082B4122149122B6C74028A
:103020001222A18A088B098C0A8D0B741078081261
:103030002041AA08AB097F0402241374F11223670C
:103040008A0C8B0D8C0E8D0F740F1222D7E0FAA311
:10305000E0FB74111222D7E0F508A3E0F509741320
:103060001222D7E0FEA3E0FF780812250EEA240121
:10307000F508EB3400F509E4F50AF50B780C79084E
:10308000121EBC9082487808122118780C79081218
:103090001EBCAA0CAB0DAC0EAD0F122B6C74021241
:1030A00022A18B09EA450960047A0180027A00ECCA
:1030B0002AFCED3400FDECF8EDF97A717B02122266
:1030C0000088088909E4F50AF50B8E828F83780859
:1030D00012213AECF8EDF97A717B021222008A088B
:1030E0008B09740578081222788E828F83A3A3A39C
:1030F000A3E508F0A3E509F07F08022413C082C00D
:1031000083E9906000F0D083D08222C0E074F21294
:103110002453A2AFE433FED2AFE58AA2E6504012B8
:1031200011C4901552E06401700690130AE004F097
:103130009015527401F0901309F0901317E4F09079
:10314000130AE0C394064008E4F01212601212540D
:1031500090130AE0C39404500612126012125475C0
:103160008A00C2EB751A00EEA2E092AF7F01022442
:10317000B2C0E074F2122453A2AFE433FED2AFE542
:103180008BA2E050031211C4758B00C2E880D5C039
:10319000E0C0D0E8C0E0E9C0E0A9A8D2AFC2C775DE
:1031A0001A00E9A2E7E433F8E9A2E792AFD0E0F928
:1031B000D0E0F8D0D0D0E0320000000000000000E5
:1031C00000000000000000000000000000000000FF
:1031D00000000000000000000000000000000000EF
:1031E00000000000000000000000000000000000DF
:1031F0000000000000000000000000000000E0E00F
:10320000E0000000000000000000000000000FFFD0
:103210000F00000000000000000000000000008718
:103220008000000000000000000000000000030714
:10323000070300000000000000000080E0F878387C
:1032400080E0F8783800000000000403010000046A
:10325000030100000000000000000000000000006A
:10326000000000000000000000000000000000005E
:1032700000000000000000000000000000C000008E
:1032800000000000C000000000181818F81F1818EF
:10329000181818F81F181800003030F03F30303080
:1032A0003030F03F303030000000000700000000F8
:1032B0000000070000000000000000000080C04087
:1032C000F0404080800000000000001E3F70E0C021
:1032D000FF80000C0F0F00000000E0E06000000124
:1032E000FF03070EFCF800000000010302040404C1
:1032F0003F040602010000000080C040C0800000C2
:1033000000000080C00000007FFF800080FF7F0081
:10331000C0308E83800000000000010181E01807AA
:10332000FDFF010001FFFC0000000006030000009B
:10333000000306040603000000000080C04040C0F7
:10334000800000000000000000003FFFC040603F20
:103350000F80808080800000F8FE0301071E78E067
:10336000C0C0380700008000000303060404040204
:10337000010306040402010000003838F8F00000E0
:103380000000000000000000000406020100000030
:10339000000000000000000000000000000000002D
:1033A000000000000000000000000000000000001D
:1033B000000000000000000000000000000000000D
:1033C000000080C02010080000000000000000E0A5
:1033D000FC1E030000000000000000000000001FB1
:1033E000FFE00000000000000000000000000000FE
:1033F0000003070C1020400000081020C0800000CF
:1034000000000000000000000000000000031EFC9F
:10341000E000000000000000000000000000E0FFED
:103420001F00000000000000004020100C070300F7
:10343000000000000000000000000000000000008C
:103440000000000000000000000030707060C086C6
:10345000FF86C060707030000000181C1C0C06C293
:10346000FFC2060C1C1C1800000000000000000138
:10347000010000000000000000000000000000004B
:10348000000000000000000000000000000000003C
:10349000FE00000000000000000001010101010128
:1034A000FF01010101010100000000000000000017
:1034B000000000000000000000000000000000000C
:1034C00000000000000000000000000000000000FC
:1034D00000000000000000000000000000000000EC
:1034E00000000000000000000080C7473F1E0000F1
:1034F00000000000000000000000000000000000CC
:1035000000000000000000000000000000000000BB
:1035100000000000000000000001010101010101A4
:103520000101010101010100000000000000000094
:10353000000000000000000000000000000000008B
:10354000000000000000000000000000000000007B
:10355000000000000000000000000080800000006B
:103560000000000000000000000003070703000047
:10357000000000000000000000000000000000004B
:1035800000000000C07018000000000000000000F3
:10359000C0701C070100000000000000C0701C0784
:1035A000010000000000000000301C0701000000C6
:1035B0000000000000000000000000000080C0408B
:1035C0004040C080000000000000F0FE0F0100003D
:1035D0000000000107FEF00000001FFFE0000000F7
:1035E00000000000C0FF1F000000000001030604EF
:1035F0000404060301000000000000000000008039
:10360000C00000000000000000000001010101FFF7
:10361000FF0000000000000000000000000000FFAC
:10362000FF00000000000000000000040404060782
:103630000706040404000000000000008040404031
:103640004040C0808000000000001E190000000003
:10365000000000C17F3E00000000008040201008F4
:103660000402010000E0000000000706060606064E
:10367000060606060701000000000080804040406A
:1036800040C080800000000000000F0F000080801C
:1036900080C0613F1E0000000000E0E0000000006C
:1036A00000010103FE78000000000103020404048D
:1036B00004040203010000000000000000000000FC
:1036C0000080C0C000000000000000008060300CDE
:1036D00002FFFFFF0000000000101C12111010106C
:1036E00010FFFFFF1010100000000000000008088D
:1036F000080F0F0F0808080000000000C0C0C0C07D
:10370000C0C0C0C0C0C00000000000F8874020203A
:10371000202060C0800000000000E0610000000088
:1037200000000080FF7E0000000001020404040489
:10373000040402030100000000000000000080C03B
:1037400040404040800000000000E0FC0E818040CE
:10375000404040C08303000000003FFFC301000061
:103760000000000001FF7E000000000001030604CD
:103770000404040203010000000000C0C0C0C0C077
:10378000C0C0C0C0C0C0000000000F0301000000A6
:103790008060180601000000000000000000E0FC4E
:1037A0000300000000000000000000000000070708
:1037B00000000000000000000000000080C0404049
:1037C0004040C0800000000000001E3F71E0C0804B
:1037D000808080613F1E000000F8FC0603010001AC
:1037E0000103070EFCF800000000010302040404BA
:1037F00004040203010000000000008080404040FB
:10380000404080000000000000FCFF0300000000BA
:1038100000000083FEF80000000081830604040419
:10382000040283F17F0F000000000303040404047A
:10383000060301000000000000000000000000007E
:103840000000000000000000000000000000C0E0D8
:10385000E0C0000000000000000000000000008147
:1038600081000000000000000000000000000307CD
:10387000070300000000000000000000000000003E
:103880000000000000000000000000000000606078
:103890000000000000000000000000000000000028
:1038A0000000000000000000000000000000661E94
:1038B0000000000000000000000000000000000008
:1038C000000000804020000000000080C060301830
:1038D0000C0603000000000000000103060C183075
:1038E00060C0800000000000000000000000000038
:1038F00000000102040800000000000000000000B9
:1039000000000000000000000020202020202020D7
:10391000202020202020200000080808080808088F
:10392000080808080808080000000000000000005F
:1039300000000000000000000000204080000000A7
:103940000000000000000000000000000003060C62
:10395000183060C080000000000000000080C060DF
:1039600030180C06030100000000080402010000EA
:103970000000000000000000000000804040202007
:1039800020202040C080000000001E1F1C000000FE
:103990000080C040603F1F00000000000000009E4B
:1039A000810000000000000000000000000003078C
:1039B0000703000000000000000000000080C0407D
:1039C000404040808000000000F0FC0E0380E07862
:1039D0000C04FCFC0107F800001F7FE0001F3F20E3
:1039E000100C3F20308C430000000001030204044F
:1039F0000404040203010000000000000000C0C035
:103A0000E00000000000000000000000C07C070192
:103A10003FFCC000000000000000C07C070404045C
:103A200004077FFC80000000040607040400000077
:103A30000000040707040400004040C0C0404040AC
:103A40004040C08080000000000000FFFF808080B8
:103A50008080C0613F1F0000000000FFFF000000E9
:103A60000000000103FEF80000040407070404043A
:103A70000404040603010000000000000080C040B0
:103A80004040408080C0000000E0FC0E03000000C9
:103A90000000000001030C00001FFFE00000000018
:103AA0000000000000806000000000010302040428
:103AB0000404040203010000004040C0C040404034
:103AC00040C0808000000000000000FFFF000000F8
:103AD000000000010FFEF000000000FFFF000000EA
:103AE00000000000E07F1F00000404070704040436
:103AF0000406020301000000004040C0C0404040F6
:103B000040404040C0C00000000000FFFF808080B7
:103B10008080C0F000030600000000FFFF000000EE
:103B2000000001070000C0000004040707040404AB
:103B30000404040406070000004040C0C0404040A8
:103B400040404040C0C0C000000000FFFF808080B7
:103B5000808080C0F0000306000000FFFF0000002E
:103B6000000000010700000000040407070404002F
:103B70000000000000000000000000008080C04045
:103B800040408080C000000000E0FC0E0300000008
:103B900000000000030C0000001F7FE08000000018
:103BA00000000404FCFC04040000000103020404FF
:103BB00004040402010100004040C0C04040000075
:103BC000004040C0C04040000000FFFF0000000077
:103BD000000000FFFF0000000000FFFF01010101E5
:103BE000010101FFFF0000000404070704040000B6
:103BF000000404070704040000000040404040C0E7
:103C0000C04040404000000000000000000000FFF5
:103C1000FF0000000000000000000000000000FFA6
:103C2000FF0000000000000000000004040404077E
:103C300007040404040000000000000000404040AD
:103C400040C0C040404040000000000000000000B4
:103C500000FFFF0000000000000000000000000066
:103C600000FFFF00000000000070F0F0808080C0C6
:103C7000603F1F0000000000004040C0C040400006
:103C8000000040C0C0404000000000FFFF0080E096
:103C9000F00C060100000000000000FFFF0300011F
:103CA000071F7CF0C00000000004040707040400A4
:103CB0000000040407070404004040C0C040400066
:103CC0000000000000000000000000FFFF000000F6
:103CD0000000000000000000000000FFFF000000E6
:103CE000000000000000C0000004040707040404F2
:103CF00004040404060700004040C0C0C0000000E7
:103D0000000000C0C0C040400000FF07FFF8800076
:103D100000C07C07FFFF00000000FF00000FFFF065
:103D200078070000FFFF00000404070404000107F7
:103D300000000404070704044040C0C0C0000000A5
:103D400000004040C04040000000FF010F3FF8E08D
:103D500080000000FF0000000000FF0000000003E2
:103D60000F3EF8E0FF000000040407040400000018
:103D700000000107070000000000000080804040B4
:103D8000404080800000000000F0FC0F01000000B7
:103D9000000000010FFCF000001F7FE000000000A9
:103DA00000000000C07F1F000000000103020404A7
:103DB0000404020301000000004040C0C040404035
:103DC000404040C080000000000000FFFF000000F5
:103DD00000000080C17F3E00000000FFFF010101E4
:103DE00001010101000000000004040707040400B1
:103DF0000000000000000000000000008080404043
:103E0000404080800000000000F0FE0F0100000034
:103E10000000000107FCF000001FFFC080602020B0
:103E200060C00000C0FF3F00000000010302040466
:103E300004071F3A31301800004040C0C0404040E5
:103E40004040C08080000000000000FFFF808080B4
:103E50008080C0613F1F0000000000FFFF000001E4
:103E6000073FFCE000000000000404070704040012
:103E700000000107070404000000000080C040406B
:103E80004040408080C0000000001E7F61C0C080B4
:103E90008080000001070000000060800000000139
:103EA000010303070EFCF8000000000703020404EE
:103EB00004040406030100000000C0C0404040C0EC
:103EC000C040404040C0000000060100000000FF6C
:103ED000FF0000000001070000000000000000FFDC
:103EE000FF000000000000000000000000040407C4
:103EF00007040400000000004040C0C04040000033
:103F000000004040C04040000000FFFF00000000F3
:103F100000000000FF0000000000FFFF00000000A4
:103F200000000000FF00000000000003020604047F
:103F30000404020100000000004040C0C040000036
:103F40000000004040C04040000000033FFCC000B3
:103F5000000000C03C0300000000000000031FFE42
:103F6000E0E01E030000000000000000000000016F
:103F7000070100000000000040C0C040400040C0F9
:103F8000C040000040C0C0400003FFFC000000F73C
:103F9000FFF00000E01F00000000017FFEF00F00B6
:103FA000017FFCF80700000000000000070000008F
:103FB0000000070000000000004040C0C04040007A
:103FC000004040C040400000000000010F3FF8E00A
:103FD000E01806010000000000000000C0300C03E3
:103FE0000F3EF8C0000000000004040704040000B5
:103FF00000000407070404000040C0C0C0404000A7
:1040000000004040C0404000000000031F7CF080E2
:1040100000C0380E0100000000000000000003FF97
:10402000FE01000000000000000000000004040782
:104030000704040000000000000000C0C040404031
:10404000404040C0C040000000000601000000C029
:10405000F07C1E0701000000000000C0F07C1F077C
:104060000100000000C0000000040707050404046C
:104070000404040607000000000000000000F80827
:104080000808080808080000000000000000FF0001
:104090000000000000000000000000000000FF0021
:1040A00000000000000000000000000000003F20B1
:1040B0002020202020200000000000E0C0000000A0
:1040C000000000000000000000000000031E78C097
:1040D00000000000000000000000000000000003DD
:1040E0000F78E00000000000000000000000000069
:1040F0000000010F3C6000000000080808080808E4
:1041000008F80000000000000000000000000000AF
:1041100000FF0000000000000000000000000000A0
:1041200000FF0000000000000000202020202020D0
:10413000203F000000000000000000004020101898
:1041400008181820400000000000000000000000D7
:10415000000000000000000000000000000000005F
:10416000000000000000000000000000000000004F
:10417000000000000000000000000000000000003F
:10418000000000000000000000000000000000002F
:10419000000000000000000000000000000000001F
:1041A000000000000000000080808080808080800F
:1041B00080808080808080800000000000000000FF
:1041C000F008080808F000000000000000000000EF
:1041D00000010101010000000000000000000000DB
:1041E00000000000000000000000000000000000CF
:1041F00000000000000000000000000000000000BF
:104200000000000000000000000080C060202020AE
:104210002060C0800000000000C0F13118080804D0
:104220000404FFFF0000000000010306040404046E
:104230000202030704040300004040C0E000000045
:104240000000000000000000000000FFFF80404070
:1042500020202060C0800000000000FFFF0100005F
:104260000000000000FF7F000000000703030604B9
:10427000040404020301000000000000000000002C
:10428000000000000000000000000080C04060202E
:10429000202060C08000000000007EFF8100000040
:1042A0000000000303C0000000000001030204043A
:1042B00004040402010000000000000000000000EF
:1042C000004040C0E000000000000080C0602020EE
:1042D000202040FFFF00000000007EFF01000000E2
:1042E000000000FFFF0000000000000103060404BE
:1042F00004020107030202000000000000000000A9
:10430000000000000000000000000080C0402020ED
:10431000202060C08000000000007EFF88080808A0
:10432000080808080F8E00000000000103020604C0
:1043300004040402030000000000000000000080EC
:1043400080C0404040408080000020202020FEFFB0
:104350002020202020000303000000000000FFFFB9
:104360000000000000000000000000040404070733
:10437000040404040000000000000000000000002D
:10438000000000000000000000000000C0402020ED
:10439000202060C0A0606000000000C7FF30202027
:1043A0002020301F0F0000000000387C43C38383AF
:1043B000838383C3467E3C00004040C0E000000091
:1043C0000000000000000000000000FFFF804060CF
:1043D00020202060C0800000000000FFFF000000DF
:1043E00000000000FFFF00000004040707040400B1
:1043F000000004040707040400000000000000C0DF
:10440000C0C000000000000000000020202020E1CB
:10441000F10100000000000000000000000000FFAB
:10442000FF00000000000000000000040404040776
:104430000704040404000000000000000000000065
:10444000000000C0C0C0000000000000000000200C
:10445000202020E1F1010000000000000000000029
:10446000000000FFFF00000000000060E08080808E
:1044700080C0603F1F000000004040C0E00000001E
:104480000000000000000000000000FFFF0000002E
:1044900000A0E06020200000000000FFFF10080CDA
:1044A0003F71E080000000000004040707040400DE
:1044B000000005070704040000000040404040C021
:1044C000E00000000000000000000000000000FF0D
:1044D000FF0000000000000000000000000000FFDE
:1044E000FF000000000000000000000404040407B6
:1044F00007040404040000000000000000000000A5
:1045000000000000000000000020E0F0402020E05B
:10451000C0402020E0C000000000FFFF000000FFBE
:10452000FF000000FFFF000000040707040004076D
:10453000070400040707040000000000000000005A
:104540000000000000000000002020E0F08040405B
:1045500020202060C0800000000000FFFF0000005D
:1045600000000000FFFF000000040407070404002F
:10457000000004040707040400000000000000001D
:10458000000000000000000000000000C0406020AB
:1045900020206040C080000000007EFF81000000FD
:1045A0000000000081FF7E000000000103020404FF
:1045B00004040402030100000000000000000000E9
:1045C0000000000000000000002020E0F0804020FB
:1045D00020202060C0800000000000FFFF000000DD
:1045E0000000000080FF7E00008080FFFF838204C7
:1045F00004040402030100000000000000000000A9
:10460000000000000000000000000080C0402020EA
:10461000202040C0C0E0000000007EFF010000003C
:1046200000000000FFFF000000000001030604047A
:1046300004048283FFFF808000000000000000006F
:1046400000000000000000000020202020F0F0000A
:104650008040602020E0C0000000000000FFFF0359
:104660000000000000000000000404040407070428
:10467000040404000000000000000000000000002E
:10468000000000000000000000000080C06020204A
:1046900020202040C0E000000000C003070C0C18E0
:1046A00018183030E0C100000000070702040404BD
:1046B00004040406030100000000000000000000E4
:1046C0000000000000000000000020202030F8FF63
:1046D0002020202020000000000000000000FFFF3C
:1046E0000000000000800000000000000000010346
:1046F00006040404020100000000000000000000A5
:104700000000000000000000002020E0F000000099
:1047100000002020E0F00000000000FFFF0000008B
:1047200000000000FFFF0000000000010306040479
:104730000404020107030202000000000000000060
:104740000000000000000000002020E0E020200029
:10475000000020E060200000000000010F7FF8C092
:10476000C038060100000000000000000000030740
:104770000100000000000000000000000000000038
:1047800000000000000000002060E0E02000206049
:10479000E0E0200020E060200000033FFCC0F00FBC
:1047A0000FFFF0C03C030000000000000107010003
:1047B00000010701000000000000000000000000F0
:1047C000000000000000000000002020E0E0E020E9
:1047D0000020A060202000000000000000C1671F32
:1047E0003C7AE18000000000000404060704000099
:1047F000000405070604040000000000000000009B
:104800000000000000000000002020E0E020200068
:10481000000020E06020200000000000071FF8E0FA
:1048200000E01C03000000000000C0C08080403F8A
:104830000700000000000000000000000000000071
:1048400000000000000000000000E06020202020A8
:1048500020A0E0E02000000000000100C0E0703C6B
:104860000E07010000C00000000006070705040451
:10487000040404060701000000000000000000001E
:104880000000E01008080000000000000000000028
:1048900000807F0000000000000000000000000118
:1048A0000102FC0000000000000000000000000009
:1048B00000001F2040400000000000000000000039
:1048C000FF000000000000000000000000000000E9
:1048D000FF000000000000000000000000000000D9
:1048E000FF000000000000000000000000000000C9
:1048F000FF000000000000000000080810E00000B9
:10490000000000000000000000000000007F8000A8
:1049100000000000000000000000000000FC020198
:10492000010000000000000000004040201F0000C7
:10493000000000000000000000180C020202040C3D
:10494000102040404030180000000000000000002F
:104950000000000000000000000000000000000057
:104960000000000000000000000000000000000047
:104970000000000000000000000000000000000037
:104980000000000000000000000000F8000000002F
:10499000000000333000000000100C06100C060070
:1049A000000000000000000040C07840C0784000D7
:1049B000043F04043F040400007088FC0830000039
:1049C000001820FF211E0000F008F000E018000091
:1049D00000211C031E211E0000F00888700000004A
:1049E0001E212324192721100000003844443800D8
:1049F0000000000000000000000000E018040200B9
:104A0000000000071820400000020418E000000029
:104A10000040201807000000404080F08040400027
:104A20000202010F01020200000000F0000000007D
:104A30000101011F01010100000000000000000051
:104A400080B07000000000000000000000000000C6
:104A5000000101010101010100000000000000004F
:104A600000303000000000000000000080601804EA
:104A7000006018060100000000E010080810E000C7
:104A8000000F102020100F00001010F80000000090
:104A90000020203F202000000070080808887000D7
:104AA0000030282422213000003008888848300057
:104AB0000018202020110E000000C02010F8000077
:104AC00000070424243F240000F808888808080010
:104AD0000019212020110E0000E010888818000025
:104AE000000F112020110E0000380808C8380800F7
:104AF0000000003F00000000007088080888700077
:104B0000001C222121221C0000E010080810E000F7
:104B10000000312222110F00000000C0C000000080
:104B200000000030300000000000008000000000A5
:104B3000000080600000000000008040201008009D
:104B40000001020408102000404040404040400066
:104B50000404040404040400000810204080000041
:104B60000020100804020100007048080808F00046
:104B70000000003036010000C030C828E810E00016
:104B80000718272423140B000000C038E0000000A1
:104B9000203C23020227382008F88888887000000B
:104BA000203F202020110E00C030080808083800DF
:104BB000071820202010080008F808080810E00056
:104BC000203F202020100F0008F88888E8081000F7
:104BD000203F20202320180008F88888E8081000CB
:104BE000203F200003000000C03008080838000003
:104BF00007182020221E020008F808000008F80804
:104C0000203F210101213F20000808F8080800008A
:104C10000020203F2020000000000808F8080800BD
:104C2000C08080807F00000008F888C02818080035
:104C3000203F20012638200008F80800000000006E
:104C4000203F20202020300008F8F800F8F8080065
:104C5000203F003F003F200008F830C00008F8085F
:104C6000203F200007183F00E01008080810E0006F
:104C70000F10202020100F0008F808080808F00086
:104C8000203F210101010000E01008080810E000A9
:104C90000F18242438504F0008F88888888870003E
:104CA000203F2000030C30200070880808083800DE
:104CB0000038202121221C00180808F808081800D4
:104CC0000000203F2000000008F808000008F80855
:104CD000001F202020201F000878880000C8380806
:104CE000000007380E010000F80800F80008F8007E
:104CF000033C0700073C0300081868808068180818
:104D000020302C03032C30200838C800C838080095
:104D10000000203F2000000010080808C8380800E4
:104D20002038262120201800000000FE0202020088
:104D30000000007F40404000000C30C00000000038
:104D4000000000010638C00000020202FE00000060
:104D5000004040407F000000000004020202040006
:104D60000000000000000000000000000000000043
:104D7000808080808080808000020204000000002B
:104D80000000000000000000000080808080000023
:104D90000019242222223F2008F800808000000011
:104DA000003F112020110E000000008080800000D4
:104DB000000E112020201100000000808088F800E3
:104DC000000E112020103F20000080808080000015
:104DD000001F222222221300008080F08888881879
:104DE0000020203F20200000000080808080800084
:104DF000006B94949493600008F800808080000019
:104E0000203F210000203F200080989800000000F3
:104E10000020203F20200000000000809898000023
:104E200000C08080807F000008F800008080800043
:104E3000203F24022D302000000808F80000000068
:104E40000020203F20200000808080808080800023
:104E5000203F20003F20003F8080008080800000B5
:104E6000203F210000203F20000080808080000043
:104E7000001F202020201F00808000808000000074
:104E800080FFA12020110E000000008080808000A3
:104E9000000E112020A0FF80808080008080800094
:104EA00020203F21200001000000808080808000C1
:104EB0000033242424241900008080E08080000036
:104EC0000000001F20200000808000000080800083
:104ED000001F202020103F208080800000808080E4
:104EE00000010E3008060100808000800080808074
:104EF0000F300C030C300F00008080008080800099
:104F00000020312E0E3120008080800000808080C3
:104F100080818E7018060100008080808080800073
:104F20000021302C2221300000000000807C020291
:104F300000000000003F404000000000FF000000B3
:104F400000000000FF0000000002027C8000000062
:104F50000040403F0000000000060101020204047E
:104F60000000000000000000000000000000000041
:104F70000000000000000000000000000000000031
:104F80000000000000000000000000000000000021
:104F90000000000000000000000000000000000011
:104FA0000000000000000000000000000000000001
:104FB00000000000000000000000000000000000F1
:104FC00000000000000000000000000000000000E1
:104FD00000000000000000000000000000000000D1
:104FE00000000000000000000000000000000000C1
:104FF00000000000000000000000000000000000B1
:105000000000000000000000000000C0F8CC7CFCA4
:10501000F8F8F8F8F8F8F0F0F0F0F0F0E0E0C000A0
:105020000000000000000000000000000000000080
:105030000000C0E0E0F0F0F0F0F0F0F8F8F8F8F878
:10504000F8FC7CCCF88000000000000000000000AC
:105050000000000000000000000000000000000050
:105060000000000000000000000000000000000040
:105070000000000000000000000000000000000030
:1050800000000000000000000000E0FFFFFFFEF352
:105090009FFFFFFFFFFFFFFFFFFFFFFFFFFFFFFF80
:1050A000FEFCF8F0C080000000000080E0F0F8FC9A
:1050B000FEFFFFFFFFFFFFFFFFFFFFFFFFFFFFFF01
:1050C0009FF3FEFFFFFFC000000000000000000093
:1050D00000000000000000000000000000000000D0
:1050E00000000000000000000000000000000000C0
:1050F00000000000000000000000000000000000B0
:10510000000000000000000000F0FFFFFFFFFFFFB5
:10511000FFFCE73FFFFFFFFEFDFB0F1F3FFFFFFF11
:10512000FFFFFFFFFFFFFFFEFCFEFFFFFFFFFFFF94
:10513000FFFFFF7F3F1F0FFBFDFEFFFFFF3FE7FC71
:10514000FFFFFFFFFFFFFFE0000000000000000086
:10515000000000000000000000000000000000004F
:10516000000000000000000000000000000000003F
:10517000000000000000000000000000000000002F
:105180000000000000000000F8FFFFFFFFFFFFFF2E
:10519000FFFFFFFFFDF7BFFFFF1F0000000001033F
:1051A000070F3F7FFFFFFFFFFFFFFFFFFF7F3F0F67
:1051B000070301000000003FFFFFBFF7FDFFFFFFF7
:1051C000FFFFFFFFFFFFFFFFF000000000000000F7
:1051D00000000000000000000000000000000000CF
:1051E00000000000000000000000000000000000BF
:1051F00000000000000000000000000000000000AF
:1052000000000000000000FCFFFFFFFFFFFF7F7FAA
:105210007F7F3F3F3F3F1F1E170000000000000040
:10522000000000000001070F1F0F03010000000035
:105230000000000000000000171E1F3F3F3F7F7F5F
:105240007F7FFFFFFFFFFFFFFFF80000000000006F
:10525000000000000000000000000000000000004E
:10526000000000000000000000000000000000003E
:1052700000000000C0C0C0C0C08000C0C0C0C0C02E
:10528000C0000080C0C0C0C1C1C1C1800000C0C09A
:10529000C0C0C0C0C0C0800000C0C0C0C0C0C0C0CE
:1052A000C000000000000000000080C0C0C0C0C0FE
:1052B000C08000C0C0C0000000C0C0C0C00000006E
:1052C0000080C0C0C0C0C101010100C0C0C0C0009A
:1052D000C0C0C0C0C0C000C0C0C0C000000000004E
:1052E00000000000000000000000000000000000BE
:1052F000000000003F3F3F031F1F1E1F073F3F3FAF
:105300003F000F1F3F3F3030303F3F1F0F003F3FF8
:105310003F3F0C1E3F3F3721003F3F3F3F36363671
:105320003000060E0E0E0E04000F1F3F3F303030CF
:105330003030003F3F3F0606063F3F3F3F00303CD6
:105340003F3F0F0D0D0F3F3F3C30003F3F3F3F00C1
:105350003F3F3F3F071F3F3D3F3F3F0000000000F2
:1053600000000000000000000000000000A04C450C
:105370000000803F007042450000004000D03845EA
:105380000000404000C02F4500008040002027451D
:105390000000A04000101F450000C04000601745FD
:1053A0000000E04000201045000000410040094599
:1053B0000000104100C00245000020410020F944D7
:1053C000000030410080ED44000040410060E244B4
:1053D000000050410000D844000060410000CE446D
:1053E0000000704100A0C4440000804100A0BB4404
:1053F000000088410020B344000090410020AB44ED
:10540000000098410080A3440000A04100409C445B
:105410000000A841004095440000B04100C08E4407
:105420000000B841008088440000C04100A08244D0
:105430000000C84100007A440000D04100406F44A1
:105440000000D841000065440000E04100405B449A
:105450000000E841000052440000F041004049448F
:105460000000F84100C040440000004200C0384441
:1054700000000442004031440000084200C02944BA
:1054800000000C42000023440000104200401C4475
:1054900000001442000016440000184200001044AE
:1054A00000001C4200400A440000204200C00444A6
:1054B000000024420000FF43000028420000F543A2
:1054C00000002C420080EB43000030420080E243A9
:1054D000000034420080D943000038420000D1432C
:1054E00000003C420000C943000040420080C1432C
:1054F000000044420000BA43000048420000B343A9
:1055000000004C420080AC43000050420000A64323
:10551000000054420000A0430000584200009A439B
:1055200000005C42008094430000604200008F4312
:105530000000644200008A43000068420000854386
:1055400000006C420000804300007042000077437E
:105550000000744200006E43000078420000664381
:1055600000007C4200005E43000080420000564381
:105570000000824200004F43000084420000474385
:1055800000008642000041430000884200003A4388
:1055900000008A420000344300008C4200002E4389
:1055A00000008E4200002843000090420000224389
:1055B0000000924200001D43000094420000184386
:1055C00000009642000013430000984200000E4382
:1055D00000009A420000094300009C42000005437D
:1055E00000009E42000000430000A0420000F8427C
:1055F0000000A2420000F0420000A4420000E84285
:105600000000A6420000E2420000A8420000DA4288
:105610000000AA420000D4420000AC420000CC428C
:105620000000AE420000C6420000B0420000C0428E
:105630000000B2420000BA420000B4420000B4428E
:105640000000B6420000B0420000B8420000AA428A
:105650000000BA420000A4420000BC420000A04288
:105660000000BE4200009C420000C0420000964282
:105670000000C242000092420000C44200008E427C
:105680000000C64200008A420000C8420000864274
:105690000000CA42000082420000CC4200007C426E
:1056A0000000CE42000074420000D04200006C4274
:1056B0000000D2420000684200000000000000002C
:1056C000002F000000000700070000147F147F1463
:1056D00000242A7F2A1200626408132300364955E9
:1056E000225000000503000000001C2241000000C1
:1056F00041221C000014083E08140008083E080857
:10570000000000A0600000080808080800006060B1
:105710000000002010080402003E5149453E0000F0
:10572000427F4000004261514946002141454B31D2
:10573000001814127F10002745454539003C4A499E
:105740004930000171090503003649494936000610
:105750004949291E00003636000000005636000078
:1057600000081422410000141414141400004122F3
:10577000140800020151090600324959513E007CCB
:105780001211127C007F49494936003E41414122B5
:10579000007F4141221C007F49494941007F09099E
:1057A0000901003E4149497A007F0808087F00004E
:1057B000417F4100002040413F01007F0814224109
:1057C000007F40404040007F020C027F007F0408C1
:1057D000107F003E4141413E007F09090906003E1D
:1057E0004151215E007F0919294600464949493146
:1057F0000001017F0101003F4040403F001F204069
:10580000201F003F4038403F006314081463000726
:105810000870080700615149454300007F4141007D
:1058200000552A552A55000041417F00000402011D
:1058300002040040404040400000010204000020FB
:1058400054545478007F4844443800384444442039
:1058500000384444487F00385454541800087E09E6
:1058600001020018A4A4A47C007F080404780000AE
:10587000447D4000004080847D00007F102844006B
:105880000000417F4000007C04180478007C08047C
:10589000047800384444443800FC242424180018B8
:1058A000242418FC007C08040408004854545420A4
:1058B00000043F444020003C4040207C001C20402D
:1058C000201C003C4030403C004428102844001C70
:1058D000A0A0A07C004464544C4414141414141468
:1058E00000C0C101C30302C2C60607C705C5C40480
:1058F000CC0C0DCD0FCFCE0E0ACACB0BC90908C8F0
:10590000D81819D91BDBDA1A1EDEDF1FDD1D1CDCDF
:1059100014D4D515D71716D6D21213D311D1D0104F
:10592000F03031F133F3F23236F6F737F53534F43F
:105930003CFCFD3DFF3F3EFEFA3A3BFB39F9F838AF
:1059400028E8E929EB2B2AEAEE2E2FEF2DEDEC2C9F
:10595000E42425E527E7E62622E2E323E12120E00F
:10596000A06061A163A3A26266A6A767A56564A4FF
:105970006CACAD6DAF6F6EAEAA6A6BAB69A9A8686F
:1059800078B8B979BB7B7ABABE7E7FBF7DBDBC7C5F
:10599000B47475B577B7B67672B2B373B17170B0CF
:1059A00050909151935352929656579755959454BF
:1059B0009C5C5D9D5F9F9E5E5A9A9B5B995958982F
:1059C000884849894B8B8A4A4E8E8F4F8D4D4C8C1F
:1059D000448485458747468682424383418180408F
:1059E00000C1814001C0804101C0804100C18140AF
:1059F00001C0804100C1814000C1814001C080419F
:105A000001C0804100C1814000C1814001C080418E
:105A100000C1814001C0804101C0804100C181407E
:105A200001C0804100C1814000C1814001C080416E
:105A300000C1814001C0804101C0804100C181405E
:105A400000C1814001C0804101C0804100C181404E
:105A500001C0804100C1814000C1814001C080413E
:105A600001C0804100C1814000C1814001C080412E
:105A700000C1814001C0804101C0804100C181401E
:105A800000C1814001C0804101C0804100C181400E
:105A900001C0804100C1814000C1814001C08041FE
:105AA00000C1814001C0804101C0804100C18140EE
:105AB00001C0804100C1814000C1814001C08041DE
:105AC00001C0804100C1814000C1814001C08041CE
:105AD00000C1814001C0804101C0804100C18140BE
:105AE0005F5F5F60606061616161616262626262AA
:105AF000636363636363636364646464646464646E
:105B00006464646464646464646464646363636359
:105B10006363636362626262626261616161606069
:105B200060605F5F5F5E5E5E5D5D5D5C5C5C5B5B9D
:105B30005A5A5959595858575756565555545453F7
