:020000040000FA
:0600000002011A0229BBF7
:03002B000231207F
:0300330002310295
:03005300022A2E50
:03007B000230B799
:1000830002286FE5C754F84401F5C779012200003F
:100093000080FB120086B90003020104E479217891
:1000A30008B800028004F709D8FCE479297802B87B
:1000B30000028004F709D8FCE490028178CF79111B
:1000C3008002F0A3D8FCD9FA781A90014A7A01BACF
:1000D30000028007E493A3F608DAF97A4F7B1390C2
:1000E300014B78AC79048015E493A3AD82AE838A87
:1000F300828B83F0A3AA82AB838D828E83D8E9D9C6
:10010300E775824075839A740412012C7582917588
:100113008300740012012C75D00075813F7518811E
:10012300751902759F00020096C09FF59FE473D076
:100133009F22D083D082C09FE493C0E0740193C018
:10014300E0740293F59F2201FF0000B40000280031
:100153002800283075A000A000A000A0000008001F
:1001630008E001F000100010001000100010001053
:100173000050005000500010001000D00700000095
:100183000000000F0001000500307507001000019A
:100193000081FF0000FF180736071E07FF02020257
:1001A30008025000A0000000E80302B3830100002E
:1001B300978302AF83010000A41302AB8301000005
:1001C300620702AF83010000A51302A983010000A7
:1001D300780702AF83010000A61302A78301000082
:1001E3007A0702AF83010000A71302A5830800006A
:1001F3007B0702AF83010000A81302A38301000061
:10020300A913FF0100FF2002B383010000A08302B2
:10021300AF830100000D1402BB8300000000000245
:10022300AD83030000C807FA0CFA0CFA0CFA0CFAB7
:100233000CFA0CFA0CFA0CFA0CFA0CFA0CFA0CFA8B
:100243000C880FA00F820F020202020202020202B6
:10025300010D000000100102B3830100009D830221
:10026300AF830100004E1402CD830100000B0C028A
:10027300AF830100004F1402CB83010000BB810256
:10028300AF83010000501402C9830100008581027D
:10029300AF83010000511402C783010000058102EE
:1002A300AF83010000521402C583010000178102CD
:1002B300AF83010000531402C383010000E18002F5
:1002C300AF83010000541402C183010000F38002D4
:1002D300AF83010000551402BF8301000093810224
:1002E300AF83010000561402BD83010000571401BF
:1002F300E803053F10FFFFFF00013075030201060D
:1003030000000000000000000000000000000000EA
:10031300000000000000000000000000FFFF0600D6
:10032300800CE803010B0953686F775747756172B7
:1003330064051220032003020A000201060302F0EF
:10034300FF426C7565546F6F746800000000000015
:100353000000000000008E1500009A150A43686132
:100363007261637465726973746963203100024357
:1003730068617261637465726973746963203200C2
:100383000843686172616374657269737469632099
:1003930033001043686172616374657269737469D1
:1003A3006320340002436861726163746572697328
:1003B3007469632035001643686172616374657202
:1003C30069737469632036001A43686172616374E8
:1003D3006572697374696320370002B38301000097
:1003E3009A8302AF83010000631502D783030000E1
:1003F3000C1302E183010000641502AF83010000C6
:10040300751502D9830100000D1302E18301000079
:10041300761502AF83010000871502DB830200001B
:100423000E1302E183010000881502AF830100006F
:10043300991502DD830000000F1302AD8303000052
:10044300101302E1830100009A1502AF830100003B
:10045300AB1502DF83040000161302E183010000E1
:10046300AC1502AF83010000BD1502D18303000068
:100473001B1302AD830300002F1302E1830100006D
:10048300BE1502AF83010000CF1502B7830300003E
:10049300351302AD83030000491302E18301000019
:1004A300D01530313233343536373839414243444D
:1004B300454600286E756C6C20706F696E746572AA
:1004C3002900303132333435363738396162636469
:1004D3006566003F3F3F000000807F0000803FF9DA
:1004E300021550B743BA510000204100E7DB2E004C
:1004F30000A040120135FAD70112013538E101128B
:10050300013507E20112013501E401120135F4E579
:1005130001120135ECE6011201355D8C041201353F
:10052300748C04120135A38C04120135DC8C041283
:100533000135048D04120135328D04120135498DC4
:1005430004120135608D04120135768D04120135D4
:100553009D8D04120135B08D04120135C68D041230
:100563000135D98D04120135FE8D04120135008049
:1005730003120135FF800312013534810312013563
:1005830055810312013565810312013586810312FA
:1005930001359282031201355F8303120135D28341
:1005A300031201355884031201359B84031201356C
:1005B300D284031201355885031201352A860312AA
:1005C3000135888603120135A086031201351A8787
:1005D300031201351D8703120135208703120135EC
:1005E300C78703120135DF87031201350F88031212
:1005F30001352F88031201351D8903120135D38973
:100603000312013592D403120135BAD40312013512
:10061300E8D4031201351FD50312013587D5031220
:100623000135D0D5031201351BD60312013559D636
:100633000312013596D603120135C4D603120135D0
:100643006BD70312013575D70312013582D7031215
:100653000135B5D70312013577D80312013583D895
:10066300031201359BD803120135A5D803120135B6
:1006730023FF0112013531FF0112013549FF011238
:10068300013561FF011201355D8F02120135FB8FC8
:10069300021201357390021201358891021201355D
:1006A300C291021201356B9202120135409302127C
:1006B3000135A49402120135FB940212013582958F
:1006C30002120135699602120135B69602120135FE
:1006D3004497021201356897021201353D990212BF
:1006E30001357E9902120135A09902120135219A32
:1006F300021201350B9B02120135D19B0212013507
:1007030017B403120135E9B40312013592B503128C
:100713000135D5B50312013562B603120135EEB6C4
:1007230003120135CFB703120135FEB703120135AA
:10073300FAB80312013542B90312013544BA031260
:10074300013588BA03120135AEBA03120135DB98BD
:100753000412013565EE031201357BEE03120135F8
:10076300A1EE03120135C9EF03120135D3EF0312D2
:1007730001352CF1031201352CF203120135D0C0DF
:100783000312013505C20312013538C203120135C4
:1007930082C20312013540C40312013500800212E4
:1007A3000135638002120135A88102120135B88137
:1007B30002120135DB810212013526820212013554
:1007C300CB8202120135C183021201358B840212DE
:1007D3000135038602120135458602120135E3868F
:1007E3000212013530870212013556870212013594
:1007F3004489021201354989021201352A8B0212FA
:1008030001357E8B02120135E08B02120135088C13
:1008130002120135AC8C021201356E8D02120135C4
:100823009F8D02120135A28D02120135EA8D02124B
:1008330001352C8E02120135938E021201356B8223
:10084300041201357E8204120135978204120135A8
:10085300E28204120135BD83041201354C84041273
:100863000135978404120135D45900120135E0593A
:1008730000120135195A001201355E5A0012013572
:10088300155B001201359B5B00120135005C001201
:1008930001352C5C00120135655C00120135795E6F
:1008A3000012013555600012013540620012013516
:1008B300776300120135D76500120135C366001254
:1008C30001350968001201351669001201353369D3
:1008D300001201356B69001201358569001201357B
:1008E300ED6900120135876E00120135286F001281
:1008F3000135796F00120135A06F00120135EE6FDB
:10090300001201350C7000120135607000120135C0
:10091300397100120135C07200120135487300129B
:100923000135E8CF03120135F2CF03120135BDD0F3
:1009330003120135D8D003120135FED0031201355D
:1009430042D1031201357AD103120135A3D1031227
:1009530001351CD20312013531D20312013546D2BF
:10096300031201357DD20312013591D203120135F1
:10097300C2D203120135FCD20312013528D303126C
:1009830001357ED303120135D2D3031201351BD4B3
:100993000312013545D4031201356AD4031201351C
:1009A30079EA0312013543EB0312013526EC0312F6
:1009B30001359CEC03120135DEEC031201350BEE1D
:1009C3000312013553E3021201357CE302120135B0
:1009D30095E302120135DAE402120135B8E5021299
:1009E3000135D7E50212013564E602120135A7E6A7
:1009F30002120135F4E70212013593E802120135C0
:100A030012EB02120135A9EB021201357DEC021241
:100A130001355FED02120135CBEE021201355EEFB7
:100A230002120135CD7E00120135367F00120135E9
:100A33008A7F00120135B17F00120135C4DD031234
:100A4300013531DE031201357CDE0312013571DF1E
:100A5300031201356DE00312013557E1031201352D
:100A63003C93031201357E9303120135589403120C
:100A730001353195031201352C96031201350B977D
:100A8300031201357797031201353E98031201359E
:100A9300A998031201351099031201353B990312EA
:100AA3000135AC99031201353F9A03120135A89A17
:100AB30003120135BD9A03120135059B031201355B
:100AC3001E9B03120135839B03120135869B031280
:100AD3000135C5F503120135EDF5031201352BF68A
:100AE30003120135E9F60312013554F703120135F8
:100AF30070F70312013598F703120135C8F7031293
:100B03000135D7F70312013551F80312013577F890
:100B13000312013584AC0212013561AE02120135B4
:100B23005CB0021201352FB1021201357AB1021203
:100B33000135C5B102120135D7B10212013517B221
:100B4300021201354CB20212013598B2021201357C
:100B5300C7B202120135EAB20212013537B30212EB
:100B63000135C0B302120135CDB502120135B8B754
:100B730002120135FBB70212013560B902120135C9
:100B8300A1B90212013514BA0212013560BA021278
:100B930001358BBA02120135D5EF0212013500F08F
:100BA30002120135E7F6021201350BF90212013583
:100BB300C6FA0212013523FC02120135E683011243
:100BC30001357D8401120135AA8401120135F084B7
:100BD300011201352F8601120135C6870112013535
:100BE3004088011201355B8801120135D08801125A
:100BF3000135FF89011201355A8B011201355C8CD5
:100C030001120135B98D01120135D28D0112013561
:100C13002F8E01120135118F01120135448F0112FC
:100C23000135B48F011201352E90011201357D90EB
:100C3300011201354991011201354E92011201351C
:100C43002D9301120135B893011201352694011237
:100C530001359A9401120135C3940112013582952D
:100C630001120135FC960112013519970112013564
:100C7300389701120135C99701120135EE97011218
:100C83000135169801120135919801120135EB983F
:100C9300011201353F9A01120135FC9A0112013507
:100CA300CF9B01120135B5BA0212013505BB021201
:100CB300013511BB02120135EEBB021201351EBC18
:100CC3000212013556BC02120135D5BC02120135A0
:100CD3000DBD021201355FBD021201359CBD02122A
:100CE3000135C1BF02120135EDC102120135E8C35E
:100CF30002120135C3C502120135C959001201356B
:100D030042B2011201358CB2011201356BB80112E6
:100D13000135ECB9011201354BC00112013546C151
:100D23000112013583C101120135A6C1011201353A
:100D3300E8C101120135F1C101120135FBC10112F4
:100D43000135E7C201120135DBC301120135FD9BF9
:100D53000112013575A6011201357BA60112013579
:100D630087AD0112013546FC02120135DCFC02128B
:100D73000135F2FC021201356CFD02120135C2FD90
:100D83000212013500FE021201355DFE0212013529
:100D9300DAFE02120135E3FE02120135EFFE021202
:100DA300013502FF021201353EFF0212013554FFE5
:100DB30002120135B3FF0212013519E203120135A4
:100DC30026E20312013540E2031201357FE20312EA
:100DD3000135BDE20312013522E30312013537E386
:100DE3000312013542E3031201354FE303120135C8
:100DF30066E30312013574E3031201357FE3031243
:100E030001358BE3031201359AE303120135A5E3A0
:100E130003120135C8E30312013571E403120135EE
:100E230081E4031201359BE403120135B8E4031294
:100E33000135D4E403120135F9E40312013503E566
:100E43000312013517E50312013536E503120135A7
:100E530097E5031201359DE503120135A3E503125E
:100E63000135A9E503120135B5E503120135E8E5BE
:100E73000312013589C8021201350BC9021201356B
:100E8300B4C902120135FCCA021201350ACD02129D
:100E93000135F0CD0212013525CE0212013547CEC0
:100EA30002120135F0CE02120135C0D00212013513
:100EB300E9D00212013561D10212013593D1021238
:100EC3000135A0D102120135EBD1021201350FD247
:100ED3000212013560D4021201356AD502120135BE
:100EE300C6D502120135069E02120135179F021262
:100EF3000135FB9F0212013505A00212013527A01F
:100F03000212013533A002120135D7A102120135B5
:100F130004A2021201351AA3021201356FA30212B1
:100F23000135BEA40212013593A502120135EFA5C6
:100F3300021201355AA6021201358FA6021201359B
:100F4300D2A6021201359CA902120135B4A90212DC
:100F5300013545AA0212013553AA02120135A0AA8E
:100F630002120135AEAA021201351AAB0212013583
:100F730095AB02120135ECAB02120135AF730012CF
:100F83000135D17300120135E27500120135A178E4
:100F930000120135CB7900120135897A001201352F
:100FA300757B00120135EE88041201351389041292
:100FB300013589890412013506F8011201350FF84C
:100FC3000112013518F801120135F0F8011201354B
:100FD300A1FA01120135D1FA01120135FCFA01120D
:100FE30001352CFB0112013557FB011201358BFB37
:100FF30001120135B7FB01120135FAFB011201356C
:1010030025FC011201356CFC01120135C1FC0112F2
:10101300013503FD011201355DFD0112013588FD26
:1010230001120135D7FD0112013507FE0112013509
:1010330032FE0112013560FE0112013583FE0112F9
:101043000135649904120135909904120135BD9953
:1010530004120135C79904120135D79904120135D9
:10106300BFF803120135E4F8031201350EF9031238
:101073000135108E041201351C8F04120135E49AD8
:1010830004120135F3C501120135D3C7011201352D
:101093008FC9011201357CCA0112013503CB01123C
:1010A30001357DCB01120135AECB0112013525CFC0
:1010B30001120135A1CF0112013592D00112013580
:1010C300CAD0011201350DD10112013544D20112EA
:1010D300013599D201120135D0D20112013542D323
:1010E3000112013569D30112013583D30112013590
:1010F30075D40112013585D40112013521D60112AF
:10110300013538D6011201356AD601120135BBD734
:1011130001120135F39604120135049704120135C7
:101123009F97041201359B9A04120135DA9A04122F
:101133000135E27F00120135119604120135219623
:1011430004120135399604120135ED960412013566
:10115300149404120135989404120135FE94041278
:10116300013571E603120135A1E603120135F5E6F7
:101173000312013591E70312013555E803120135D6
:10118300D1E803120135B98F04120135DE8F041241
:101193000135469004120135659004120135AF9074
:1011A30004120135089104120135479104120135E7
:1011B3004A9104120135DFA30312013504A403127B
:1011C300013521A4031201353EA40312013562A4A3
:1011D300031201358FA403120135A2A403120135B2
:1011E300B5A403120135D9A40312013504A50312D2
:1011F3000135B6A50312013534A60312013558A6ED
:10120300031201359EA703120135F5A70312013519
:101213001EA90312013598A903120135E1A903128E
:101223000135EAA903120135F7A90312013501AA11
:10123300031201350BAA031201351EAA031201354D
:1012430027AA0312013530AA0312013541AA03125A
:1012530001357AAB031201350ACB0312013521CBD9
:10126300031201359ACB0312013573CC03120135F6
:1012730031CF0312013596CF03120135D5CF0312B7
:101283000135F87F00120135C1840412013542860D
:1012930004120135A38604120135E98604120135CF
:1012A300B8FB03120135D1FB03120135FBFB03121B
:1012B300013515FC0312013524FC031201353BFCF7
:1012C300031201354AFC031201355FFC0312013599
:1012D30096FC03120135B8FC03120135DCFC031242
:1012E30001351BFD0312013552FD03120135A7FD24
:1012F30003120135E9FD0312013517950412013577
:101303004995041201356895041201357495041248
:101313000135CF9504120135FB950412013536F2E0
:10132300031201358DF20312013563F40312013503
:10133300C59204120135C8920412013503930412B5
:101343000135A99304120135BE930412013553915B
:10135300041201357C9104120135A5910412013563
:101363003E9204120135809204120135AA9B0312A6
:101373000135B49B03120135F49B031201353D9CE7
:1013830003120135779C03120135D19C03120135F9
:10139300F09C03120135929F031201359B9F0312A8
:1013A3000135EC9F0312013515A0031201351FA06F
:1013B300031201358BA0031201351FA1031201355E
:1013C3007EA103120135ACA1031201352CA2031235
:1013D30001356FA203120135AAA203120135BCA283
:1013E30003120135DBA203120135E4A20312013516
:1013F300B3A3031201356FFE03120135C2FE0312BC
:1014030001352EFF0312013596FF031201350080CB
:10141300041201352A8004120135FF8004120135BC
:10142300F38104120135F6C503120135EBC603122D
:10143300013505C70312013516C7031201354BC920
:10144300031201356BC903120135EC860412013511
:101453002287041201355B8704120135B488041214
:101463000135AA9704120135C09704120135CA97B2
:1014730004120135149804120135E199041201355F
:1014830004AC03120135C1AC03120135FCAC0312E9
:10149300013524AD0312013586AD03120135D2ADFA
:1014A3000312013536AE03120135B0AE0312013516
:1014B300B2AF0312013565B103120135E7B103126F
:1014C30001354CB20312013563B2031201356CB31B
:1014D30003120135AAB3031201353AD903120135B8
:1014E30053D903120135F4D90312013534DA031247
:1014F30001354DDA0312013580DA03120135CDDAF5
:101503000312013501DB0312013543DB03120135FD
:101513004DDD03120135B7DD0312013513D6021277
:10152300013576D902120135F2DA0212013549DBAF
:101533000212013566DB02120135E4DB02120135CA
:101543006FDD0212013553DE02120135E0E10212B2
:101553000135B0E202120135A78A04120135B18ABE
:1015630004120135C18A04120135698B0412013555
:10157300AD8B04120135F48B04120135338C041244
:1015830001353E8A031201350C8E031201358D8E0F
:1015930003120135C68F0312013559920312013527
:1015A30023BB031201357EBB031201359BBB031220
:1015B3000135EFBC031201359BBD031201359ABE01
:1015C300031201357AC0031201352BE801120135EC
:1015D30049ED01120135609B04120135459804124F
:1015E30001356F9804120135299B041201358C9B38
:1015F30004120135B59B04E066701008A3E0667021
:101603000A08A3E066700408A3E06622C3E796080D
:1016130009E7960809E7960809E796A2D265D03349
:1016230022C3E09608A3E09608A3E09608A3E096F9
:10163300A2D265D03322C008C3E096F50808A3E020
:1016430096420808A3E096420808A3E0964208A23F
:10165300D265D033E5087001D3D00822C3E79608DA
:1016630009E7960809E7960809E79622C3E0960872
:10167300A3E09608A3E09608A3E09622C008C3E07F
:1016830096F50808A3E096420808A3E096420808E6
:10169300A3E09645087001D3D00822080808E63075
:1016A300E711121FC01216B6080808C64480C618F0
:1016B300181822181818E9799EC608CAC608CBC696
:1016C30008CCC6C370207996CACBCC7019798ECB5F
:1016D300CC70137986CC700EF9802ACA33CACB3307
:1016E300CBCC33CC331930E7F2CCCBCA33501470A4
:1016F30004EA30E00DE4CA3ACACB3BCBCC3CCC5035
:101703000209C3E913C6CC182313C6CB18C6CA18DB
:10171300C6F92212175620F01430E72B74FFFCFB96
:10172300FA747F8022E4FCFBFA7480801AB4800888
:10173300BC00F2BB00EF800F50EBF9E4C39AFAE46C
:101743009BFBE49CFCE499C6CC18C6CB18C6CA180C
:10175300C6F922E4C9C608CAC608CBC6D3330308F0
:10176300CCC63392F0C3947F402E94184019C9B964
:101773000704CACBCC225025C309CA33CACB33CB07
:10178300CC33CC33D9F422F4600DC9CCC313CB13BF
:10179300CBCA13CAD9F6CC22E4FCFBFA2214FCFB15
:1017A300FA22E62618461846184622E7271947194B
:1017B30047194722181818E60846087009E626084C
:1017C3007005E633F4220822191919E7094709704D
:1017D30009E727097005E733F4220922E6084608DA
:1017E300C3134608336002E633F422E7094709C30B
:1017F300134709336002E733F4221217DF6025121F
:1018030017EE60201217A570030217AE080808E749
:101813006670101819E766700A1819E766700418DD
:1018230019E76622F4221217DF601C1217EE601705
:101833001217A570071217AE7001D322C0D012176A
:10184300AE7006D0D0B322C32233D0D0501430E0D0
:10185300F6C3E7960809E7960809E7960809E796A5
:10186300B32220E0D5E6970809E6970809E697082A
:1018730009E697B3221217DF601B1217EE601612E8
:1018830017A570071217AE600CB322C0D01217AEA3
:101893007005D0D022C32233D0D0501330E0EBC335
:1018A300E7960809E7960809E7960809E7962220CC
:1018B300E0E4E6970809E6970809E6970809E6973A
:1018C30022001217DF604F1217EE6012E754806692
:1018D300F61217B770111217AE703B090909F4F627
:1018E30018F618F618F6221217CB70151217A5085A
:1018F300080860EAE6447FF618768018E4F618F6DE
:10190300221217A560161217AE7012E4F608F60835
:10191300F608E65480F609090918181822EAC0E007
:10192300EBC0E0ECC0E0EDC0E0E687F0A4FBACF078
:1019330008E687F0A42CFCE435F0FA1809E687F0F2
:10194300A42C4B60027401CA35F0FCE433FB09E6B6
:1019530087F0D2F7A42CCB35F0FC1908E687F0A466
:101963002BCC35F0FBE433FD0819E687F0D2E7A46E
:101973002C4ACB35F0CD3400FC09E687F0D2E7A43E
:101983002DCC35F0FDE433FA0918E687F0D2F7A43D
:101993002CCD35F0CA3400FC08E687F0D2E7D2F745
:1019A300A42ACC35F07A7E20E70B0ACB33CBCD3398
:1019B300CDCC33CC33CB3350147004ED30E00ED2A6
:1019C300F1E4CD3DCDCC3CCC3B5005DA05C2F1EB87
:1019D300547FC63308E63392F0FBE73309E733C39A
:1019E3009A502D2B70190C0D4C4D70151806E608E6
:1019F300C333700D20F10AA2F013F6E418800B40F4
:101A030024E4F630F002768018F618F618F68024EF
:101A1300D33B14501074FFA2F013F6187680E41829
:101A2300F618F6800FA2F013F618E63303F618EC57
:101A3300F618EDF6D0E0FDD0E0FCD0E0FBD0E0FA04
:101A4300221217EE60461217DF603DE9687008F650
:101A530018F618F618F622748067F7121A7809092F
:101A630009748067F7221217DF601D1217EE7005E5
:101A7300191919801A1217B7701F1217CBC37003E5
:101A8300E66733191919400718181822080808744B
:101A9300FFF618F618F618F6221217CB601712176E
:101AA300AE702192F01217A57019501720F0140888
:101AB3000808090909E7F61819E7F61819E7F618E7
:101AC30019E7F6221217A560E6E869701F0808E611
:101AD3002480F608E436F618547FB47F0CE654806D
:101AE3006007F6E418F618F622181822E9C6CC089F
:101AF300C6CD08C6CE08C6CFC0E0E8C0E0EAC0E065
:101B0300EBC0E009E9F809E7FA09E7FBE6F918E6AB
:101B1300F8C3EC98ED99EE9AEBC2E7F5F0EFC2E764
:101B230095F0500E600CEBCFFBEACEFAE9CDF9E865
:101B3300CCF8EAA2E7D2E7FAEB33FB13F5F0EEA217
:101B4300E7D2E7FEEF33FFC5F013A2E730E601B3B8
:101B530013C5F0C3C0E0C0F07F00C39BFB605E947D
:101B630018600F401D14601AD0E023F9D0E0F8028A
:101B73001C4A8AF0E9486003D2F0E4AFF0FAF9F8BE
:101B8300803BEB30E40D89F0EA6003D2F0E4AFF080
:101B9300F9CAF8EB30E30D88F0EF6002D2F0AFF052
:101BA300E4CAC9F8EB54076014FBC3EA13FAE91358
:101BB300F9E813F8EF135002D2E0FFDBEDD0E0C0F9
:101BC300E030E739C3E49FFFF5F0EC98FC42F0ED19
:101BD30099FD42F0EE9AFE42F0D0E0F9D0E0F8E54C
:101BE300F0607AE923F9EE20E742D8028067C3EF79
:101BF30033FFEC33FCED33FDEE33FE80EAEC28FCDF
:101C0300ED39FDEE3AFED0E023F9D0E0F840028052
:101C13001BC3EE13FEED13FDEC13FCEF135002D2C6
:101C2300E0FF08B800067F7F74FF802EEF33501764
:101C33008CF020F00260100CBC000C0DBD00080EEF
:101C4300BE000408E860DFE933E813FFEE2313FE68
:101C53004F4D4C8008E95480FFE4FEFDFCEE33EF6A
:101C630033F47004FCFD7E80D0E0FBD0E0FAD0E0DA
:101C7300F8D0E0CFC618CEC618CDC618CCC6F92208
:101C83001217DF7004181818221217EE700D74FF64
:101C9300F61819F61819F61819F622E7548066F69D
:101CA3001217A5700F1217AE70F014F608F608F6A7
:101CB30008F680D11217AE700CF608F60876800885
:101CC300E6447F80EC1217CE700C1217BA60BFE6A1
:101CD3005480F6E480BB1217BA700519191980A550
:101CE300E869700C763F18768018F618F6E8F92242
:101CF300E6CDC0E018ECC0E0E633CD33CDD313F628
:101D0300E719FCE7191933CC33C3947F400ECD9DFB
:101D1300502408E65480F6E418F6800FF4043D14CA
:101D2300501408E6447FF6187680E418F618F6D0C7
:101D3300E0FCD0E0FD22CCD313CCFD18E4C6CBC02D
:101D4300E018E4C6CAC0E00808ED08C633E613F697
:101D530018E433C675F003C3CA97CA09CB97CB19E6
:101D63009C40047D08802EBD0003021E2C16B6FF86
:101D7300050606081618C3CA33CACB33CB33CA27A2
:101D8300CA09CB37CB193CC37D08803E187D082098
:101D9300E75CC633C6CA33CACB33CB33DDF1D5F0E8
:101DA300EB30E77BCA97CA09CB974ACB199C406FA4
:101DB3004B7025E620E0218066187D08C3CA97CAC8
:101DC30009CB97CB199CD3C633C6CA33CACB33CB03
:101DD3003350C9DDE7D5F0E1D3E4C636C608C636CD
:101DE300C608C636C608C636C61818188031C3CA10
:101DF30097CA09CB97CB199CB34097C633C6CA334E
:101E0300CACB33CB33DD34D5F02EC6A2E0C640C8EF
:101E1300CA27CA09CB37194A70BECB3CB480B9086C
:101E230008E63308E633601F181818D0E0FAD0E04C
:101E3300FBD0E0FCD0E0FD22187D08CA27CA09CBFD
:101E430037CB193CD3808013F618E4B67F11F6180C
:101E5300B6FF0EF618C60470D20808768080CAF65C
:101E630018F618F680C5080808EAC0E0EBC0E0865B
:101E7300F0E7A4FA180986F0E7A42AFA180986F00D
:101E8300E7A42AFA180986F0E7A42AFA1986F0E7E4
:101E9300A4FBE5F02AFA190886F0E7A42BFBE5F08A
:101EA3003AFA190886F0E7A42BFBE5F03AFA18187A
:101EB3000986F0E7A4C5F02BFBE43AFA1908E7C555
:101EC300F0C6A426F6E5F03BFBE43AFA1886F0E701
:101ED300A4F6E5F00826F6E43B08F6E43A08F6D063
:101EE300E0FBD0E0FA22E4CFC0E0E4CEC0E0E4CDF2
:101EF300C0E0E4CCC0E075F020E626F608E633F651
:101F030008E633F608E633F6181818EC33FCED331D
:101F1300FDEE33FEEF33FFC3EC9709ED9709EE9720
:101F230009EF97191919400FFFEC97FC09ED97FD7D
:101F330009EE97FE191906D5F0BFECF709EDF7097D
:101F4300EEF709EFF7191919D0E0FCD0E0FDD0E066
:101F5300FED0E0FF22121FC3181818121EE9121F29
:101F6300AF19191922121FAF191919080808E61811
:101F7300181820E7E0121EE9121FC31818182209C7
:101F83000909E719191920E7DC080808E6181818E1
:101F930020E703021EE9121FC3181818121EE912C4
:101FA3001FC3181818121FAF19191922E4C397F782
:101FB30009E497F709E497F709E497F72218181843
:101FC300E4C396F608E496F608E496F608E496F673
:101FD300226017080808C6A2E713C618C613C61856
:101FE300C613C618C613C6D5E0E92260160808084A
:101FF300C6C313C618C613C618C613C618C613C657
:10200300D5E0EA227009080808226016181818C6D5
:10201300C333C608C633C608C633C608C633C6D5D7
:10202300E0EA22E627F60809E637F60809E637F676
:102033000809E637F622E026F608A3E036F608A3F9
:10204300E036F608A3E036F622E026F008A3E036F1
:10205300F008A3E036F008A3E036F022C3E697F6D3
:102063000809E697F60809E697F60809E697F622BF
:10207300C3E0C696F608A3E0C696F608A3E0C696A4
:10208300F608A3E0C696F622C3E096F008A3E0960E
:10209300F008A3E096F008A3E096F022E056F608D5
:1020A300A3E056F608A3E056F608A3E056F622E0AE
:1020B30056F008A3E056F008A3E056F008A3E05654
:1020C300F022E0F608A3E0F608A3E0F608A3E0F6A2
:1020D30022E493F608740193F608740293F60874E5
:1020E3000393F622E6F008A3E6F008A3E6F008A3BC
:1020F300E6F022E0FAA3E0FBA3E0FCA3E0FD22EA82
:10210300F0A3EBF0A3ECF0A3EDF022E0FCA3E0FDE1
:10211300A3E0FEA3E0FF22ECF0A3EDF0A3EEF0A317
:10212300EFF022E0F8A3E0F9A3E0FAA3E0FB22E852
:10213300F0A3E9F0A3EAF0A3EBF022CAC0E0E6F0D3
:10214300A308DAFAD0E0FA22CAC0E0E0A3C582CC41
:10215300C582C583CDC583F0A3C582CCC582C583A3
:10216300CDC583DAE6D0E0CA22C3E498F8E499F94E
:102173001221AD8026C3E49AFAE49BFBE920E7E948
:102183001221ADE498F8E499F922C3E498F8E499AC
:10219300F91221ADE498F8E499F9C3E49AFAE49BBF
:1021A300FB22EB20E7CFE920E7E0B90010BB0008F2
:1021B300E88AF084F8AAF022E4FBC8FA22EB702242
:1021C3007B10C833C8C933C9335007C39AC3DBF282
:1021D30080069A50012ADBEAC833F4C8C933F4C92C
:1021E300FA2275F008E4C833C8C933C933C99AC998
:1021F3009B5004C92AC93BD5F0ECFBC833F4C8E4AF
:10220300C9FA22600D08C6A2E713C618C613C6D5BD
:10221300E0F322600C08C6C313C618C613C6D5E084
:10222300F422700422600D18C6C333C608C633C631
:10223300D5E0F41822251810AF08F518400C15192D
:102243008008F51840021519D2AF2200C0D0251816
:1022530010AF08F518500C05198008F51850020541
:1022630019D2AFD0D0222518F58210AF08F5184047
:102273000C15198008F51840021519D2AF8519837A
:10228300222518F582E43519F583222518F8E4355B
:1022930019F9222518FAE43519FB222518FCE4352F
:1022A30019FD22E4732518C582C0E0E51934FFC582
:1022B30083C0E0E518C3958224F810AF088583191D
:1022C3008582188008858319858218D2AFCEF0A342
:1022D300E520F0A37808E608F0A3DEFAEFF0A3E523
:1022E3008124FAF8E608F0A3E608F0A3E608F0A3D1
:1022F3000808E608F0A3E608F0A315811581D0E0ED
:10230300FED0E0F8158115811581E8C0E0EEC0E04C
:10231300222518C582C0E0E51934FFC583C0E0E576
:1023230018C3958224F910AF088583198582188014
:1023330008858319858218D2AFCEF0A3E520F0A3D8
:102343007808E608F0A3DEFAEFF0A3E58124FBF8B2
:10235300E608F0A3E608F0A30808E608F0A3E608F9
:10236300F0A315811581D0E0FED0E0F81581158129
:10237300E8C0E0EEC0E022851983851882E0A3FE61
:10238300E0A3F5207808E0A3F608DFFAE0A3FFE076
:10239300A3C0E0E0A3C0E0E0A3C0E0E0A3C0E0E0AE
:1023A300A3C0E010AF088582188583198008858251
:1023B30018858319D2AFD083D08202013285198365
:1023C300851882E0A3FEE0A3F5207808E0A3F608D1
:1023D300DFFAE0A3FFE0A3C0E0E0A3C0E0E0A3C016
:1023E300E0E0A3C0E010AF08858218858319800858
:1023F300858218858319D2AFD083D08222C0D0259D
:1024030018C582C0E0E51934FFC583C0E0E518C3F1
:10241300958224F310AF0885831985821880088577
:102423008319858218D2AFC8F0A3E9F0A3EAF0A319
:10243300EBF0A37908E709F0A3D8FAECF0A3EDF0E9
:10244300A3EEF0A3EFF0A3D0E0F0A3D0E0F0A3D08D
:10245300E0F0A3E520F0A3E5F0F0A322851983853E
:102463001882E0C0E0A3E0F9A3E0FAA3E0FBA378BD
:1024730008E0F608A3DFFAE0FCA3E0FDA3E0FEA377
:10248300E0FFA3E0C0E0A3E0C0E0A3E0F5D0A3E059
:10249300F520A3E0A3F5F010AF0885831985821812
:1024A3008008858319858218D2AFD082D083D0E08B
:1024B300F8D0E03274048006740280027401C0E034
:1024C300F404122269D0E012213E227404800474C1
:1024D300028000CCC0E0EDC0E0E518C39CCCAD1990
:1024E30050011D10AF068C188D1980068C188D199C
:1024F300D2AF12214BD0E0FDD0E0FC22D083D082BA
:10250300E9C0E0E493A3C386F0C5F095F0F908E4CD
:1025130093A386F0C5F095F0700BE493A3C39940A1
:1025230005E9048002A3E475F002A42582F582E59F
:10253300F03583F583D0E0F9E493A3C0E0E493C0DE
:10254300E022D083D082ECC0E0EDC0E0E493A3FCB2
:10255300E493A3FDED4C600D122591EC24FFFCEDFB
:1025630034FFFD80EFE493A3FCE493A3FDED4C6003
:102573000D1225D0EC24FFFCED34FFFD80EFD0E0FD
:10258300FDD0E0FCE493A3C0E0E493C0E022C0E00C
:10259300C3E49396087401939618400FE49366700E
:1025A3000808740193661870007019A3A3C3E49319
:1025B30096087401939618A3A3400DD0E0D0E0D001
:1025C300E0022581A3A3A3A3A3A3D0E022C0E0C07C
:1025D300F088F0E49366700808740193661870003D
:1025E300A8F0A3A3700BD0F0D0E0D0E0D0E0022598
:0825F30081A3A3D0F0D0E02287
:1025FC0074F5122314EAFEEBFFEE2434F8EF3400EA
:10260C00F988088909EE2435F582EF3400F583E06A
:10261C00F8EE2437F582EF3400F583E0F50AEC850B
:10262C000AF0A4FCAAF0850AF0EDA42AFDE82CF827
:10263C00E43DF97A257B001221ADEA8508828509F3
:10264C0083F05407F87401B800028004C333D8FC3B
:10265C00C0E0E0131313541FF8EE28F8EF3400F920
:10266C00E8245DF582E93400F583D0E0F8E05860A9
:10267C0008EE2434F582EF801EEE2436F582EF341A
:10268C0000F583E0F5F0EA84A8F0EE28F8EF3400CA
:10269C00F9E82438F582E93400F583E0F97F040287
:1026AC0023C074F5122314EAFEEBFFEE2434F582FA
:1026BC00EF3400F583E0C0E0EE2435F582EF340012
:1026CC00F583D0E0F08E828F83A3A3A3A3A3A3A34F
:1026DC00C082C0838E828F83A3A3A3A3A3E0F8A39D
:1026EC00E0F9D083D082E0C398F508A3E099F5090E
:1026FC00EE2480F582EF3400F583E064017069EE1E
:10270C002481F582EF3400F583E0F8A3E0F98E82A2
:10271C008F83A3A3A3A3A3A3A3E0FCA3E0FD8E82BA
:10272C008F83A3A3A3A3A3E0FAA3E0FBC3EA9CEBD0
:10273C009D5027C3EC98ED99402EC3EA98EB995025
:10274C00277CAD7D09EEFAEFFB120C58EE2480F5D8
:10275C0082EF3400F583E4F0800EC3EA98EB9940E5
:10276C00E0C3EC98ED9950D9EE2434F8EF3400F92D
:10277C00E8FCE9FDEE2435F582EF3400F583E0F852
:10278C00EE2437F582EF3400F583E0F50AE5088591
:10279C000AF0A4F508AAF0850AF0E509A42AF509BF
:1027AC00E82508F8E43509F97A257B001221ADEA11
:1027BC008C828D83F05407F87401B800028004C336
:1027CC0033D8FCC0E0E0131313541FF8EE28F8EFD5
:1027DC003400F9E8245DF582E93400F583D0E0F8A3
:1027EC00E0586008EE2434F582EF801EEE2436F5B6
:1027FC0082EF3400F583E0F5F0EA84A8F0EE28F8D7
:10280C00EF3400F9E82438F582E93400F583E0F977
:10281C001230A90226A9C082C0838518828519832B
:10282C00E0F8A3E0F9C3EA9CEB9D5012C3EC98EDE1
:10283C00994019C3EA98EB99501279018010C3EAB8
:10284C0098EB9940F5C3EC98ED9950EE7900D08354
:10285C00D08222EAC39CFAEB9DFB2200852187855E
:10286C0022C622C0E0C0D0E8C0E0E9C0E0EAC0E087
:10287C00EBC0E0ECC0E0EDC0E0C008C009C00AC08D
:10288C000BC082C083C0F0759B00906182E0A2E611
:10289C00400302294DE591A2E6400302294D7591B2
:1028AC00BF900872E064057008120D90120D9C80A8
:1028BC0003120D96752100120DF6E9900873F0794C
:1028CC0000120DEA120BCE7A017B00900871E0F930
:1028DC001213CC907803E064426003022996900AAC
:1028EC000FE014F06003022996C2AF1228FA0078A8
:1028FC002AD0E0F618D0E0F6E59F5407F970059061
:10290C00829380039082A378081220C5E9C4C0E0AA
:10291C007829E65508F50808E65509F509740B7889
:10292C0008122216D0E02508F8906270E0A2E74069
:10293C00F8E8C333906272F0906270E0D2E0F080FD
:10294C0049E0A2E55024E591A2E5501E7591DF9077
:10295C000872E0640D7013900894E004F064287021
:10296C0002E4F07A00E0F9120E68906181E0A2E3D3
:10297C005009E5E9A2E3500375E9F7A3E0A2E7509B
:10298C0009E591A2E7500375917FD0F0D083D082F6
:10299C00D00BD00AD009D008D0E0FDD0E0FCD0E0BC
:1029AC00FBD0E0FAD0E0F9D0E0F8D0D0D0E032C0E3
:1029BC00E0C0D0C082C083906183E0A2E05009E502
:1029CC00BFA2E0500375BFFEE0A2E15009E5BFA233
:1029DC00E1500375BFFDE0A2E25009E5BFA2E25051
:1029EC000375BFFBE0A2E35009E5BFA2E3500375FA
:1029FC00BFF7E0A2E45009E5BFA2E4500375BFEFB6
:102A0C00E0A2E55009E5BFA2E5500375BFDFE0A2E7
:102A1C00E65009E5BFA2E6500375BFBFD083D08254
:102A2C008088C0E0C0D0E8C0E0E9C0E0EAC0E0EBDC
:102A3C00C0E0ECC0E0EDC0E0C0F0E5A7A2E6500FAE
:102A4C00E5A1A2E6500953A7BF75A1BF122A93E5D1
:102A5C00A7A2E5500CE5A1A2E5500653A7DF75A18E
:102A6C00DFE5A7A2E15009E5A1A2E1500375A1FDA4
:102A7C00E5A7A2E2500CE5A1A2E2500653A7FB7514
:102A8C00A1FBD0F00229A474F81223147521019033
:102A9C000872E064067015120D248A828B83A3A33E
:102AAC00A3A3A3A3E0FAA3E0FB120D7EA2AFE43331
:102ABC00FED2AF900878E0640170187A207B009009
:102ACC000871E0F91214FE7A207B00900871E0F98D
:102ADC001213D2906182E0D2E6F0900A0EE06021EF
:102AEC0085C6228016900877E064017008E5C6540C
:102AFC00F84405F5C653BEFC1228687401652160C4
:102B0C00E4EEA2E092AF7F010223C0008E238F245B
:102B1C00858228858327851882851983E0CEA3E0DA
:102B2C00CF852882852783EBC9EAC8EDCBECCA7523
:102B3C00F010C3E833C8E933C9EA33CAEB33CBC36B
:102B4C00EA9EF526EB9FF525B35004AB25AA26EC9F
:102B5C0033CCED33CDD5F0DAAE23AF242274EB12A7
:102B6C00231474FA1222388A088B098C148D159050
:102B7C000872E024F7C394055006908303022CCB13
:102B8C00120D248A0A8B0BAE0AAF0BEE4F700302A8
:102B9C002CC8AC08AD09851882851983AA82AB8331
:102BAC00120DAE8E828F83A3A378081220C590825B
:102BBC00AF780812209F851882851983780C122013
:102BCC00C59082AF780C12209F7808790C12165F92
:102BDC00501F7808790C12205F9082C37808121667
:102BEC007F4047850810850911850A12850B1380D3
:102BFC0041850C10850D11850E12850F13781079F7
:102C0C000812205F9082C3781012167F501C75102A
:102C1C00007511007512007513017810790C1220D3
:102C2C005F781079081220268008908303781012A0
:102C3C0020C5740978101220079083277808122079
:102C4C00C578107908121EE98E828F83A3A3A3A3E3
:102C5C00A3A3E0F8A3E0F97AD07B031221AD880896
:102C6C008909E4F50AF50B7810790812202674040A
:102C7C00122284E0F8A3E0F97AD07B031221ADE8AC
:102C8C00FA8A08E4F5097810790812165F5007786B
:102C9C0010790812205F900872E06408600AE06402
:102CAC00066005E06405701C9082BF781012167FD8
:102CBC0050129082A7781012203980089082C77821
:102CCC00101220C585148285158378101220E774A4
:102CDC000612224E7F0E0223C074F7122314120D1B
:102CEC00C0900A0CE064017010906245E4F0A3F00F
:102CFC0053F4F343FE0C5390F3120D6CE5C6548061
:102D0C004449F5C6E59E547F644970F8906185741A
:102D1C000FF0900A0AE0F47002A3E0604E900A0BE8
:102D2C00E0600814601B14602E8040750801750962
:102D3C0000900A0AE07808122225E508F4528080F7
:102D4C002A750801750900900A0AE07808122225F4
:102D5C00E508F452908014750801750900900A0A70
:102D6C00E07808122225E508F452A079007F0202CF
:102D7C0023C074F7122314E9FEEAFF74016E700C81
:102D8C007A807B00900871E0F91213CC9059D0E452
:102D9C0093F46008E493F9120BC2800953C680E5E2
:102DAC009E547F70FA120D72900A0CE0640170034D
:102DBC00120BDA900A0AE0F47002A3E0604B900A5E
:102DCC000BE0600814601A14602C803D75080175C6
:102DDC000900900A0AE07808122225E50842808052
:102DEC0028750801750900900A0AE0780812222556
:102DFC00E50842908013750801750900900A0AE0F5
:102E0C007808122225E50842A0120DC0120D248A62
:102E1C00088B09A808A909E8496015E5E170FCE8E8
:102E2C002414F582E93400F583E0F46003E0F5E165
:102E3C0074016F700A7A01900871E0F912146E0235
:102E4C002D7974F11223148A088B098C0A8D0B745A
:102E5C000F122284780C1220C59082AF78081220B1
:102E6C009F9082AF780C12209F7808790C12165F15
:102E7C0050157808790C12205F9082C378081216CE
:102E8C007F401579018013780C790812205F9082AD
:102E9C00C3780C12167F40EB79007F080223C074B4
:102EAC00ED1223148A088B098C0A8D0B74131222D1
:102EBC0084780C1220C59082AF780812209F9082E3
:102ECC00AF780C12209F780C790812165F4011789D
:102EDC0008790C12205FAA08AB09AC0AAD0B802252
:102EEC007510007511007512007513017810790CAE
:102EFC0012205F78107908122026AA10AB11AC12A0
:102F0C00AD137F0C0223C09082AF78081220C58AC3
:102F1C00828B8378081220B27F040223C074F512CE
:102F2C0023148C828D8378081220C58A828B837837
:102F3C000812208BEA2404F8EB3400F98C828D8380
:102F4C00A3A3A3A3E0FCA3E0FD88828983C3E09C38
:102F5C00F0A3E09DF088828983C3E09420A3E094E1
:102F6C004E40229082FF78081220C58A828B83788B
:102F7C000812204C8A828B83A3A3A3A3E02420F005
:102F8C00A3E0344EF0808074F5122314E9FE90090E
:102F9C00C4E0FAA3E0FBEEC333F8E433F974492838
:102FAC00F582748139F583E02AF508A3E03BF50935
:102FBC0078081224BB9082EB1220F6122B187402A4
:102FCC0012224E8A088B098C0A8D0B741078081209
:102FDC001FEEAA08AB097F040223C074F11223145C
:102FEC008A0C8B0D8C0E8D0F740F122284E0FAA3B9
:102FFC00E0FB7411122284E0F508A3E0F5097413C8
:10300C00122284E0FEA3E0FF78081224BBEA24011C
:10301C00F508EB3400F509E4F50AF50B780C7908A2
:10302C00121E6990829B78081220C5780C790812C0
:10303C001E69AA0CAB0DAC0EAD0F122B187402123C
:10304C00224E8B09EA450960047A0180027A00EC71
:10305C002AFCED3400FDECF8EDF97A717B021221BB
:10306C00AD88088909E4F50AF50B8E828F83780800
:10307C001220E7ECF8EDF97A717B021221AD8A0887
:10308C008B09740578081222258E828F83A3A3A343
:10309C00A3E508F0A3E509F07F080223C0C082C0B5
:1030AC0083E9906000F0D083D08222C0E074F212E9
:1030BC002400A2AFE433FED2AFE58AA2E65025127B
:1030CC0011A490152B7401F09012FFF0901309E4E9
:1030DC00F0901300E004F0C394044002E4F01212E8
:1030EC0040121234758A00C2EB751A00EEA2E092FF
:1030FC00AF7F0102245FC0E074F2122400A2AFE49F
:10310C0033FED2AFE58BA2E050031211A4758B00F5
:10311C00C2E880D5C0E0C0D0E8C0E0E9C0E0A9A812
:10312C00D2AFC2C7751A00E9A2E7E433F8E9A2E707
:10313C0092AFD0E0F9D0E0F8D0D0D0E0320000006F
:10314C000000000000000000000000000000000073
:10315C000000000000000000000000000000000063
:10316C000000000000000000000000000000000053
:10317C000000000000000000000000000000000043
:10318C00000000E0E0E00000000000000000000093
:10319C000000000FFF0F0000000000000000000006
:1031AC00000000008780000000000000000000000C
:1031BC0000000003070703000000000000000000EF
:1031CC0080E0F8783880E0F87838000000000004DF
:1031DC0003010000040301000000000000000000D7
:1031EC0000000000000000000000000000000000D3
:1031FC0000000000000000000000000000000000C3
:10320C000000C0000000000000C000000000181802
:10321C0018F81F1818181818F81F18180000303054
:10322C00F03F3030303030F03F30303000000000B4
:10323C000700000000000007000000000000000074
:10324C00000080C040F04040808000000000000082
:10325C001E3F70E0C0FF80000C0F0F00000000E06C
:10326C00E060000001FF03070EFCF8000000000105
:10327C0003020404043F040602010000000080C0A5
:10328C0040C080000000000080C00000007FFF8074
:10329C000080FF7F00C0308E8380000000000001A2
:1032AC000181E01807FDFF010001FFFC0000000098
:1032BC0006030000000003060406030000000000E3
:1032CC0080C04040C0800000000000000000003FB3
:1032DC00FFC040603F0F80808080800000F8FE03BC
:1032EC0001071E78E0C0C03807000080000003030F
:1032FC000604040402010306040402010000003861
:10330C0038F8F00000000000000000000000040687
:10331C00020100000000000000000000000000009E
:10332C000000000000000000000000000000000091
:10333C000000000000000000000000000000000081
:10334C000000000000000080C020100800000000F9
:10335C0000000000E0FC1E03000000000000000064
:10336C00000000001FFFE000000000000000000053
:10337C0000000000000003070C10204000000810A3
:10338C0020C08000000000000000000000000000D1
:10339C000000031EFCE00000000000000000000024
:1033AC00000000E0FF1F00000000000000004020B3
:1033BC00100C0703000000000000000000000000DB
:1033CC0000000000000000000000000000000030C1
:1033DC00707060C086FF86C060707030000000188E
:1033EC001C1C0C06C2FFC2060C1C1C1800000000A2
:1033FC0000000000010100000000000000000000BF
:10340C0000000000000000000000000000000000B0
:10341C000000000000FE00000000000000000001A1
:10342C000101010101FF0101010101010000000086
:10343C000000000000000000000000000000000080
:10344C000000000000000000000000000000000070
:10345C000000000000000000000000000000000060
:10346C00000000000000000000000000000080C709
:10347C00473F1E000000000000000000000000009C
:10348C000000000000000000000000000000000030
:10349C00000000000000000000000000000001011E
:1034AC000101010101010101010101010000000004
:1034BC000000000000000000000000000000000000
:1034CC0000000000000000000000000000000000F0
:1034DC0000000000000000000000000000000000E0
:1034EC0080800000000000000000000000000003CD
:1034FC0007070300000000000000000000000000AF
:10350C00000000000000000000C070180000000067
:10351C000000000000C0701C07010000000000004B
:10352C0000C0701C07010000000000000000301CEF
:10353C000701000000000000000000000000000077
:10354C00000080C0404040C080000000000000F03F
:10355C00FE0F0100000000000107FEF00000001F3C
:10356C00FFE000000000000000C0FF1F0000000092
:10357C00000103060404040603010000000000001F
:10358C000000000080C000000000000000000000EF
:10359C0001010101FFFF000000000000000000001D
:1035AC0000000000FFFF0000000000000000000011
:1035BC0004040406070706040404000000000000CD
:1035CC0000804040404040C0808000000000001E51
:1035DC001900000000000000C17F3E000000000048
:1035EC0080402010080402010000E00000000007E9
:1035FC000606060606060606060701000000000081
:10360C00808040404040C080800000000000000FDF
:10361C000F0000808080C0613F1E0000000000E0B1
:10362C00E00000000000010103FE78000000000132
:10363C00030204040404040203010000000000005F
:10364C0000000000000080C0C0000000000000006E
:10365C00008060300C02FFFFFF0000000000101C17
:10366C00121110101010FFFFFF10101000000000BE
:10367C000000000808080F0F0F08080800000000E1
:10368C0000C0C0C0C0C0C0C0C0C0C00000000000AE
:10369C00F887402020202060C0800000000000E05F
:1036AC00610000000000000080FF7E0000000001AF
:1036BC0002040404040404020301000000000000DE
:1036CC0000000080C040404040800000000000E04E
:1036DC00FC0E818040404040C08303000000003F4E
:1036EC00FFC30100000000000001FF7E000000008D
:1036FC00000103060404040402030100000000009E
:10370C00C0C0C0C0C0C0C0C0C0C0C0000000000F5E
:10371C00030100000080601806010000000000009A
:10372C00000000E0FC0300000000000000000000AE
:10373C00000000070700000000000000000000006F
:10374C000080C040404040C0800000000000001ECF
:10375C003F71E0C080808080613F1E000000F8FC5B
:10376C0006030100010103070EFCF8000000000134
:10377C00030204040404040203010000000000001E
:10378C008080404040404080000000000000FCFF72
:10379C00030000000000000083FEF8000000008120
:1037AC008306040404040283F17F0F00000000036D
:1037BC0003040404040603010000000000000000E0
:1037CC0000000000000000000000000000000000ED
:1037DC00000000C0E0E0C00000000000000000009D
:1037EC0000000000818100000000000000000000CB
:1037FC0000000003070703000000000000000000A9
:10380C0000000000000000000000000000000000AC
:10381C0000000060600000000000000000000000DC
:10382C00000000000000000000000000000000008C
:10383C00000000661E0000000000000000000000F8
:10384C00000000000000000080402000000000008C
:10385C0080C06030180C060300000000000000015E
:10386C0003060C183060C08000000000000000004F
:10387C00000000000000000102040800000000002D
:10388C0000000000000000000000000000002020EC
:10389C00202020202020202020202020000008088C
:1038AC0008080808080808080808080800000000AC
:1038BC0000000000000000000000000000000020DC
:1038CC00408000000000000000000000000000002C
:1038DC00000003060C183060C080000000000000DF
:1038EC00000080C06030180C0603010000000008C6
:1038FC0004020100000000000000000000000000B5
:10390C00804040202020202040C080000000001E6D
:10391C001F1C0000000080C040603F1F0000000022
:10392C00000000009E81000000000000000000006C
:10393C000000000307070300000000000000000067
:10394C00000080C040404040808000000000F0FC3F
:10395C000E0380E0780C04FCFC0107F800001F7FCC
:10396C00E0001F3F20100C3F20308C430000000073
:10397C00010302040404040402030100000000001B
:10398C00000000C0C0E000000000000000000000CB
:10399C0000C07C07013FFCC000000000000000C01C
:1039AC007C0704040404077FFC8000000004060765
:1039BC000404000000000004070704040000404059
:1039CC00C0C04040404040C080800000000000006B
:1039DC00FFFF8080808080C0613F1F0000000000DE
:1039EC00FFFF0000000000000103FEF800000404CB
:1039FC00070704040404040406030100000000008B
:103A0C00000080C0404040408080C0000000E0FCCE
:103A1C000E030000000000000001030C00001FFF5B
:103A2C00E0000000000000000000806000000000CA
:103A3C0001030204040404040203010000004040DA
:103A4C00C0C040404040C08080000000000000002A
:103A5C00FFFF000000000000010FFEF0000000005E
:103A6C00FFFF00000000000000E07F1F00000404C6
:103A7C000707040404040602030100000000404090
:103A8C00C0C040404040404040C0C000000000006A
:103A9C00FFFF8080808080C0F000030600000000E3
:103AAC00FFFF000000000001070000C0000004043C
:103ABC000707040404040404040607000000404043
:103ACC00C0C040404040404040C0C0C0000000006A
:103ADC00FFFF808080808080C0F000030600000023
:103AEC00FFFF0000000000000107000000000404BC
:103AFC0007070404000000000000000000000000A4
:103B0C00008080C04040408080C000000000E0FC8D
:103B1C000E0300000000000000030C0000001F7FDB
:103B2C00E08000000000000404FCFC040400000021
:103B3C00010302040404040402010100004040C01B
:103B4C00C040400000004040C0C04040000000FFAA
:103B5C00FF00000000000000FFFF0000000000FF5D
:103B6C00FF01010101010101FFFF00000004040736
:103B7C00070404000000040407070404000000000C
:103B8C0040404040C0C040404040000000000000A9
:103B9C0000000000FFFF000000000000000000001B
:103BAC0000000000FFFF000000000000000000000B
:103BBC0004040404070704040404000000000000CB
:103BCC00000040404040C0C0404040400000000069
:103BDC00000000000000FFFF0000000000000000DB
:103BEC00000000000000FFFF00000000000070F06B
:103BFC00F0808080C0603F1F00000000000040404B
:103C0C00C0C0404000000040C0C040400000000068
:103C1C00FFFF0080E0F00C06010000000000000037
:103C2C00FFFF030001071F7CF0C00000000004042C
:103C3C0007070404000000040407070404004040C4
:103C4C00C0C0404000000000000000000000000068
:103C5C00FFFF00000000000000000000000000005A
:103C6C00FFFF000000000000000000C00000040482
:103C7C00070704040404040404060700004040C0C1
:103C8C00C0C0000000000000C0C0C040400000FFE9
:103C9C0007FFF8800000C07C07FFFF00000000FF5A
:103CAC0000000FFFF078070000FFFF00000404077E
:103CBC00040400010700000404070704044040C08A
:103CCC00C0C000000000004040C04040000000FFA9
:103CDC00010F3FF8E080000000FF0000000000FF33
:103CEC0000000000030F3EF8E0FF00000004040792
:103CFC0004040000000000010707000000000000A1
:103D0C000080804040404080800000000000F0FCBB
:103D1C000F01000000000000010FFCF000001F7FED
:103D2C00E00000000000000000C07F1F0000000049
:103D3C0001030204040404020301000000004040DB
:103D4C00C0C0404040404040C08000000000000027
:103D5C00FFFF00000000000080C17F3E000000005B
:103D6C00FFFF01010101010101000000000004043A
:103D7C000707040400000000000000000000000021
:103D8C000080804040404080800000000000F0FE39
:103D9C000F010000000000000107FCF000001FFFF5
:103DAC00C08060202060C00000C0FF3F0000000009
:103DBC00010302040404071F3A313018000040408C
:103DCC00C0C04040404040C0808000000000000067
:103DDC00FFFF8080808080C0613F1F0000000000DA
:103DEC00FFFF000001073FFCE0000000000004049E
:103DFC00070704040000000107070404000000008A
:103E0C000080C040404040408080C0000000001E48
:103E1C007F61C0C08080800000010700000000604E
:103E2C008000000001010303070EFCF800000000F5
:103E3C00070302040404040406030100000000C08C
:103E4C00C0404040C0C040404040C000000006019F
:103E5C0000000000FFFF0000000001070000000050
:103E6C0000000000FFFF0000000000000000000048
:103E7C00000004040707040400000000004040C0D8
:103E8C00C04040000000004040C04040000000FF27
:103E9C00FF0000000000000000FF0000000000FF19
:103EAC00FF0000000000000000FF00000000000008
:103EBC000302060404040402010000000000404058
:103ECC00C0C04000000000004040C0404000000066
:103EDC00033FFCC000000000C03C030000000000D9
:103EEC000000031FFEE0E01E0300000000000000C5
:103EFC000000000001070100000000000040C0C0ED
:103F0C0040400040C0C040000040C0C0400003FF23
:103F1C00FC000000F7FFF00000E01F0000000001B3
:103F2C007FFEF00F00017FFCF8070000000000008E
:103F3C0000070000000000070000000000004040E7
:103F4C00C0C0404000004040C040400000000000A5
:103F5C00010F3FF8E0E0180601000000000000002F
:103F6C0000C0300C030F3EF8C00000000000040439
:103F7C00070404000000000407070404000040C00C
:103F8C00C0C040400000004040C040400000000065
:103F9C00031F7CF08000C0380E0100000000000000
:103FAC0000000003FFFE0100000000000000000004
:103FBC0000000404070704040000000000000000D7
:103FCC00C0C0404040404040C0C04000000000061F
:103FDC0001000000C0F07C1E070100000000000082
:103FEC00C0F07C1F070100000000C00000000407A7
:103FFC000705040404040404060700000000000084
:10400C00000000F808080808080808000000000074
:10401C00000000FF00000000000000000000000095
:10402C00000000FF00000000000000000000000085
:10403C000000003F20202020202020000000000055
:10404C00E0C00000000000000000000000000000C4
:10405C0000031E78C00000000000000000000000FB
:10406C0000000000030F78E00000000000000000DA
:10407C0000000000000000010F3C60000000000880
:10408C00080808080808F8000000000000000000FC
:10409C00000000000000FF00000000000000000015
:1040AC00000000000000FF000000000000000020E5
:1040BC002020202020203F000000000000000000F5
:1040CC0000402010180818182040000000000000C4
:1040DC0000000000000000000000000000000000D4
:1040EC0000000000000000000000000000000000C4
:1040FC0000000000000000000000000000000000B4
:10410C0000000000000000000000000000000000A3
:10411C000000000000000000000000000000000093
:10412C000000000000000000000000000080808003
:10413C0080808080808080808080808080000000F3
:10414C000000000000F008080808F0000000000063
:10415C00000000000000010101010000000000004F
:10416C000000000000000000000000000000000043
:10417C000000000000000000000000000000000033
:10418C0000000000000000000000000000000080A3
:10419C00C0602020202060C0800000000000C0F122
:1041AC0031180808040404FFFF000000000001039C
:1041BC000604040404020203070404030000404044
:1041CC00C0E0000000000000000000000000000043
:1041DC00FFFF80404020202060C0800000000000D5
:1041EC00FFFF0100000000000000FF7F0000000046
:1041FC00070303060404040402030100000000008A
:10420C0000000000000000000000000000000000A2
:10421C0080C0406020202060C08000000000007E34
:10422C00FF810000000000000303C000000000003C
:10423C000103020404040404020100000000000055
:10424C000000000000004040C0E000000000000042
:10425C0080C0602020202040FFFF00000000007E76
:10426C00FF01000000000000FFFF00000000000044
:10427C00010306040404020107030202000000000B
:10428C000000000000000000000000000000000022
:10429C0080C0402020202060C08000000000007EF4
:1042AC00FF88080808080808080F8E0000000000A6
:1042BC0001030206040404040203000000000000D1
:1042CC00000000008080C040404040808000002002
:1042DC00202020FEFF2020202020000303000000CF
:1042EC00000000FFFF0000000000000000000000C4
:1042FC000404040707040404040000000000000088
:10430C0000000000000000000000000000000000A1
:10431C0000C0402020202060C0A060600000000091
:10432C00C7FF3020202020301F0F00000000003875
:10433C007C43C38383838383C3467E3C000040401D
:10434C00C0E00000000000000000000000000000C1
:10435C00FFFF80406020202060C080000000000033
:10436C00FFFF00000000000000FFFF00000004043D
:10437C0007070404000000040407070404000000FD
:10438C0000000000C0C0C0000000000000000000E1
:10439C0020202020E1F101000000000000000000BE
:1043AC0000000000FFFF0000000000000000000003
:1043BC0004040404070704040404000000000000C3
:1043CC000000000000000000C0C0C00000000000A1
:1043DC000000000020202020E1F10100000000007E
:1043EC000000000000000000FFFF000000000000C3
:1043FC0060E080808080C0603F1F00000000404073
:10440C00C0E0000000000000000000000000000000
:10441C00FFFF00000000A0E0602020000000000072
:10442C00FFFF10080C3F71E0800000000000040446
:10443C00070704040000000507070404000000003F
:10444C0040404040C0E000000000000000000000C0
:10445C0000000000FFFF0000000000000000000052
:10446C0000000000FFFF0000000000000000000042
:10447C000404040407070404040400000000000002
:10448C00000000000000000000000000000020E020
:10449C00F0402020E0C0402020E0C000000000FFE1
:1044AC00FF000000FFFF000000FFFF0000000407FA
:1044BC0007040004070704000407070400000000B9
:1044CC0000000000000000000000000000002020A0
:1044DC00E0F080404020202060C080000000000000
:1044EC00FFFF00000000000000FFFF0000000404BC
:1044FC00070704040000000404070704040000007C
:10450C00000000000000000000000000000000009F
:10451C0000C040602020206040C080000000007E71
:10452C00FF810000000000000081FF7E0000000001
:10453C00010302040404040402030100000000004F
:10454C00000000000000000000000000000020201F
:10455C00E0F080402020202060C08000000000009F
:10456C00FFFF0000000000000080FF7E0000808044
:10457C00FFFF838204040404020301000000000016
:10458C00000000000000000000000000000000001F
:10459C0080C0402020202040C0C0E0000000007EF1
:1045AC00FF0100000000000000FFFF000000000001
:1045BC00010306040404048283FFFF8080000000D2
:1045CC00000000000000000000000000000020209F
:1045DC002020F0F0008040602020E0C000000000AF
:1045EC000000FFFF030000000000000000000404B6
:1045FC000404070704040404000000000000000089
:10460C00000000000000000000000000000000009E
:10461C0080C060202020202040C0E000000000C0AE
:10462C0003070C0C1818183030E0C100000000070C
:10463C000702040404040404060301000000000043
:10464C00000000000000000000000000000000203E
:10465C00202030F8FF202020202000000000000047
:10466C00000000FFFF0000000000800000000000C0
:10467C000000000103060404040201000000000015
:10468C0000000000000000000000000000002020DE
:10469C00E0F000000000002020E0F000000000002E
:1046AC00FFFF00000000000000FFFF000000000002
:1046BC0001030604040404020107030202000000C3
:1046CC00000000000000000000000000000020209E
:1046DC00E0E0202000000020E0602000000000004E
:1046EC00010F7FF8C0C03806010000000000000078
:1046FC0000000003070100000000000000000000A3
:10470C00000000000000000000000000002060E03D
:10471C00E020002060E0E0200020E06020000003AA
:10472C003FFCC0F00F0FFFF0C03C03000000000086
:10473C00000107010000010701000000000000005B
:10474C00000000000000000000000000000000203D
:10475C0020E0E0E0200020A060202000000000000D
:10476C000000C1671F3C7AE18000000000000404D7
:10477C0006070400000004050706040400000000FE
:10478C0000000000000000000000000000002020DD
:10479C00E0E0202000000020E0602020000000006D
:1047AC0000071FF8E000E01C03000000000000C040
:1047BC00C08080403F0700000000000000000000A7
:1047CC00000000000000000000000000000000E0FD
:1047DC00602020202020A0E0E0200000000000014C
:1047EC0000C0E0703C0E07010000C0000000000695
:1047FC000707050404040404060701000000000078
:10480C0000000000000000E010080800000000009C
:10481C00000000000000807F00000000000000008D
:10482C0000000000010102FC00000000000000007C
:10483C00000000000000001F2040400000000000AD
:10484C000000000000FF000000000000000000005D
:10485C000000000000FF000000000000000000004D
:10486C000000000000FF000000000000000000003D
:10487C000000000000FF0000000000000000000825
:10488C000810E00000000000000000000000000024
:10489C0000007F800000000000000000000000000D
:1048AC000000FC02010100000000000000000040BC
:1048BC0040201F0000000000000000000000180C49
:1048CC00020202040C10204040403018000000008E
:1048DC0000000000000000000000000000000000CC
:1048EC0000000000000000000000000000000000BC
:1048FC0000000000000000000000000000000000AC
:10490C00000000000000000000000000000000009B
:10491C00F800000000000000333000000000100C14
:10492C0006100C0600000000000000000040C078DB
:10493C0040C0784000043F04043F04040000708829
:10494C00FC08300000001820FF211E0000F008F0C9
:10495C0000E018000000211C031E211E0000F008BE
:10496C0088700000001E212324192721100000004C
:10497C003844443800000000000000000000000033
:10498C00E018040200000000071820400000020498
:10499C0018E0000000004020180700000040408094
:1049AC00F0804040000202010F01020200000000F2
:1049BC00F0000000000101011F01010100000000D6
:1049CC00000000000080B07000000000000000003B
:1049DC0000000000000001010101010101000000C4
:1049EC00000000000000303000000000000000005B
:1049FC000080601804006018060100000000E01040
:104A0C00080810E000000F102020100F00001010FC
:104A1C00F8000000000020203F202000000070085B
:104A2C00080888700000302824222130000030084B
:104A3C0088884830000018202020110E000000C08B
:104A4C002010F8000000070424243F240000F8087C
:104A5C0088880808000019212020110E0000E010A1
:104A6C008888180000000F112020110E0000380853
:104A7C0008C83808000000003F00000000007088E3
:104A8C000808887000001C222121221C0000E01064
:104A9C00080810E0000000312222110F0000000075
:104AAC00C0C000000000000030300000000000001A
:104ABC00800000000000008060000000000000800A
:104ACC004020100800000102040810200040404063
:104ADC004040404000040404040404040000081096
:104AEC0020408000000020100804020100007048E3
:104AFC00080808F0000000003036010000C030C883
:104B0C0028E810E0000718272423140B000000C02D
:104B1C0038E0000000203C23020227382008F888E7
:104B2C008888700000203F202020110E00C0300823
:104B3C000808083800071820202010080008F8087A
:104B4C00080810E000203F202020100F0008F888F3
:104B5C0088E8081000203F20202320180008F8883F
:104B6C0088E8081000203F200003000000C0300837
:104B7C00080838000007182020221E020008F80838
:104B8C00000008F808203F210101213F20000808FF
:104B9C00F8080800000020203F202000000000083A
:104BAC0008F8080800C08080807F00000008F888A2
:104BBC00C028180800203F20012638200008F808DB
:104BCC000000000000203F20202020300008F8F8D2
:104BDC0000F8F80800203F003F003F200008F830A4
:104BEC00C00008F808203F200007183F00E010081C
:104BFC00080810E0000F10202020100F0008F80803
:104C0C00080808F000203F210101010000E0100815
:104C1C00080810E0000F18242438504F0008F888BA
:104C2C008888887000203F2000030C30200070889A
:104C3C0008080838000038202121221C0018080818
:104C4C00F8080818000000203F2000000008F808B1
:104C5C00000008F808001F202020201F000878887A
:104C6C000000C83808000007380E010000F80800E2
:104C7C00F80008F800033C0700073C03000818681C
:104C8C00808068180820302C03032C30200838C88A
:104C9C0000C83808000000203F2000000010080861
:104CAC0008C83808002038262120201800000000F1
:104CBC00FE020202000000007F40404000000C3069
:104CCC00C000000000000000010638C00000020215
:104CDC0002FE000000004040407F00000000000485
:104CEC0002020204000000000000000000000000AE
:104CFC0000000000008080808080808080000202A4
:104D0C000400000000000000000000000000008013
:104D1C0080808000000019242222223F2008F80005
:104D2C008080000000003F112020110E00000000C8
:104D3C008080800000000E11202020110000000057
:104D4C00808088F800000E112020103F2000008089
:104D5C008080800000001F2222222213000080800D
:104D6C00F0888888180020203F2020000000008058
:104D7C008080808000006B94949493600008F8000D
:104D8C008080800000203F210000203F2000809880
:104D9C0098000000000020203F20200000000000B0
:104DAC00809898000000C08080807F000008F80088
:104DBC000080808000203F24022D30200000080855
:104DCC00F8000000000020203F20200000808080A0
:104DDC008080808000203F20003F20003F808000AA
:104DEC008080800000203F210000203F20000080B8
:104DFC008080800000001F202020201F0080800069
:104E0C00808000000080FFA12020110E0000000017
:104E1C008080808000000E112020A0FF8080808088
:104E2C00008080800020203F2120000100000080B5
:104E3C00808080800000332424242419000080808A
:104E4C00E0808000000000001F2020000080800017
:104E5C000000808000001F202020103F20808080D8
:104E6C00000080808000010E300806010080800068
:104E7C0080008080800F300C030C300F000080808D
:104E8C0000808080000020312E0E31200080808038
:104E9C00000080808080818E701806010000808068
:104EAC0080808080000021302C2221300000000006
:104EBC0000807C020200000000003F404000000027
:104ECC0000FF00000000000000FF000000000202D4
:104EDC007C800000000040403F0000000000060104
:104EEC0001020204040000000000000000000000A9
:104EFC0000000000000000000000000000000000A6
:104F0C000000000000000000000000000000000095
:104F1C000000000000000000000000000000000085
:104F2C000000000000000000000000000000000075
:104F3C000000000000000000000000000000000065
:104F4C000000000000000000000000000000000055
:104F5C000000000000000000000000000000000045
:104F6C000000000000000000000000000000000035
:104F7C000000000000000000000000000000000025
:104F8C000000000000000000000000000000000015
:104F9C00C0F8CC7CFCF8F8F8F8F8F8F0F0F0F0F089
:104FAC00F0E0E0C000000000000000000000000085
:104FBC0000000000000000C0E0E0F0F0F0F0F0F0C5
:104FCC00F8F8F8F8F8F8FC7CCCF880000000000049
:104FDC0000000000000000000000000000000000C5
:104FEC0000000000000000000000000000000000B5
:104FFC0000000000000000000000000000000000A5
:10500C00000000000000000000000000000000E0B4
:10501C00FFFFFFFEF39FFFFFFFFFFFFFFFFFFFFF01
:10502C00FFFFFFFFFFFEFCF8F0C080000000000057
:10503C0080E0F0F8FCFEFFFFFFFFFFFFFFFFFFFF2C
:10504C00FFFFFFFFFF9FF3FEFFFFFFC0000000000C
:10505C000000000000000000000000000000000044
:10506C000000000000000000000000000000000034
:10507C000000000000000000000000000000000024
:10508C000000000000000000000000000000F0FF25
:10509C00FFFFFFFFFFFFFCE73FFFFFFFFEFDFB0FE6
:1050AC001F3FFFFFFFFFFFFFFFFFFFFFFEFCFEFFA9
:1050BC00FFFFFFFFFFFFFFFF7F3F1F0FFBFDFEFF0B
:1050CC00FFFF3FE7FCFFFFFFFFFFFFFFE0000000DB
:1050DC0000000000000000000000000000000000C4
:1050EC0000000000000000000000000000000000B4
:1050FC0000000000000000000000000000000000A4
:10510C0000000000000000000000000000F8FFFF9D
:10511C00FFFFFFFFFFFFFFFFFFFDF7BFFFFF1F00BC
:10512C000000000103070F3F7FFFFFFFFFFFFFFFA2
:10513C00FFFF7F3F0F070301000000003FFFFFBF91
:10514C00F7FDFFFFFFFFFFFFFFFFFFFFFFF000007A
:10515C000000000000000000000000000000000043
:10516C000000000000000000000000000000000033
:10517C000000000000000000000000000000000023
:10518C00000000000000000000000000FCFFFFFF1A
:10519C00FFFFFF7F7F7F7F3F3F3F3F1F1E170000BA
:1051AC000000000000000000000001070F1F0F03AB
:1051BC0001000000000000000000000000171E1F8E
:1051CC003F3F3F7F7F7F7FFFFFFFFFFFFFFFF80029
:1051DC0000000000000000000000000000000000C3
:1051EC0000000000000000000000000000000000B3
:1051FC00000000000000000000C0C0C0C0C0800063
:10520C00C0C0C0C0C0C0000080C0C0C0C1C1C1C14E
:10521C00800000C0C0C0C0C0C0C0C0800000C0C002
:10522C00C0C0C0C0C0C00000000000000000008072
:10523C00C0C0C0C0C0C08000C0C0C0000000C0C0A2
:10524C00C0C00000000080C0C0C0C0C1010101008E
:10525C00C0C0C0C000C0C0C0C0C0C000C0C0C0C0C2
:10526C000000000000000000000000000000000032
:10527C000000000000000000003F3F3F031F1F1E06
:10528C001F073F3F3F3F000F1F3F3F3030303F3F36
:10529C001F0F003F3F3F3F0C1E3F3F3721003F3F5A
:1052AC003F3F3636363000060E0E0E0E04000F1F32
:1052BC003F3F3030303030003F3F3F0606063F3F27
:1052CC003F3F00303C3F3F0F0D0D0F3F3F3C300048
:1052DC003F3F3F3F003F3F3F3F071F3F3D3F3F3F6B
:1052EC0000000000000000000000000000000000B2
:1052FC000000A04C450000803F00704245000000BB
:10530C004000D038450000404000C02F45000080D0
:10531C0040002027450000A04000101F450000C0A1
:10532C0040006017450000E04000201045000000E0
:10533C0041004009450000104100C002450000201A
:10534C00410020F944000030410080ED4400004051
:10535C00410060E244000050410000D8440000606D
:10536C00410000CE440000704100A0C44400008005
:10537C004100A0BB44000088410020B344000090D1
:10538C00410020AB44000098410080A3440000A0E1
:10539C004100409C440000A841004095440000B0EE
:1053AC004100C08E440000B841008088440000C019
:1053BC004100A082440000C84100007A440000D0A3
:1053CC004100406F440000D841000065440000E0FB
:1053DC004100405B440000E841000052440000F0F2
:1053EC0041004049440000F84100C0404400000026
:1053FC004200C03844000004420040314400000820
:10540C004200C0294400000C42000023440000105C
:10541C004200401C440000144200001644000018D6
:10542C00420000104400001C4200400A44000020CE
:10543C004200C00444000024420000FF4300002846
:10544C00420000F54300002C420080EB430000308A
:10545C00420080E243000034420080D9430000380F
:10546C00420000D14300003C420000C94300004010
:10547C00420080C143000044420000BA430000488F
:10548C00420000B34300004C420080AC430000508B
:10549C00420000A643000054420000A04300005804
:1054AC004200009A4300005C42008094430000607C
:1054BC004200008F430000644200008A43000068F1
:1054CC00420000854300006C4200008043000070E5
:1054DC0042000077430000744200006E43000078E5
:1054EC00420000664300007C4200005E43000080E6
:1054FC0042000056430000824200004F43000084EB
:10550C0042000047430000864200004143000088EF
:10551C004200003A4300008A420000344300008CF1
:10552C004200002E4300008E4200002843000090F1
:10553C0042000022430000924200001D43000094F0
:10554C0042000018430000964200001343000098EC
:10555C004200000E4300009A420000094300009CE8
:10556C00420000054300009E42000000430000A0E2
:10557C00420000F8420000A2420000F0420000A4E9
:10558C00420000E8420000A6420000E2420000A8EF
:10559C00420000DA420000AA420000D4420000ACF3
:1055AC00420000CC420000AE420000C6420000B0F7
:1055BC00420000C0420000B2420000BA420000B4F7
:1055CC00420000B4420000B6420000B0420000B8F5
:1055DC00420000AA420000BA420000A4420000BCF3
:1055EC00420000A0420000BE4200009C420000C0ED
:1055FC0042000096420000C242000092420000C4E9
:10560C004200008E420000C64200008A420000C8E0
:10561C0042000086420000CA42000082420000CCD8
:10562C004200007C420000CE42000074420000D0D8
:10563C004200006C420000D24200006842000000B0
:10564C000000000000002F00000000070007000011
:10565C00147F147F1400242A7F2A1200626408131A
:10566C002300364955225000000503000000001CA1
:10567C00224100000041221C000014083E081400C6
:10568C0008083E0808000000A06000000808080890
:10569C0008000060600000002010080402003E5169
:1056AC0049453E0000427F4000004261514946009E
:1056BC002141454B31001814127F100027454545F8
:1056CC0039003C4A4949300001710905030036494B
:1056DC0049493600064949291E00003636000000AB
:1056EC000056360000000814224100001414141453
:1056FC00140000412214080002015109060032492D
:10570C0059513E007C1211127C007F4949493600E8
:10571C003E41414122007F4141221C007F494949C1
:10572C0041007F09090901003E4149497A007F087F
:10573C0008087F0000417F4100002040413F0100EC
:10574C007F08142241007F40404040007F020C0241
:10575C007F007F0408107F003E4141413E007F09DD
:10576C00090906003E4151215E007F0919294600B6
:10577C0046494949310001017F0101003F40404049
:10578C003F001F2040201F003F4038403F00631463
:10579C00081463000708700807006151494543006D
:1057AC00007F41410000552A552A55000041417F98
:1057BC00000004020102040040404040400000018F
:1057CC00020400002054545478007F4844443800AC
:1057DC00384444442000384444487F0038545454DE
:1057EC001800087E0901020018A4A4A47C007F08FC
:1057FC000404780000447D4000004080847D00005B
:10580C007F102844000000417F4000007C041804F5
:10581C0078007C0804047800384444443800FC24A4
:10582C002424180018242418FC007C080404080004
:10583C00485454542000043F444020003C40402035
:10584C007C001C2040201C003C4030403C00442884
:10585C00102844001CA0A0A07C004464544C4414A8
:10586C0014141414145F5F5F6060606161616161A6
:10587C0062626262626363636363636363646464EE
:10588C0064646464646464646464646464646464CC
:10589C0064636363636363636362626262626261D3
:1058AC00616161606060605F5F5F5E5E5E5D5D5DFB
:1058BC005C5C5C5B5B5A5A59595958585757565649
:1058CC0055555454535252515150504F4E4E4D4CBD
:1058DC004C4B4A4A49484847464545444342424155
:1058EC00403F3E3E3D3C3B3A393838373635343311
:1058FC003231302F2E2D2C2B2A29282726252423F4
:10590C0022211F1E1D1C1B1A1917161514131110FA
:10591C000F0E0C0B0A09070605030201000000001C
:10592C00E0202038080808080808080808080808B3
:10593C000808080808080808F80000000000000023
:10594C000704041C10101010101010101010101060
:10595C0010101010101010101F000000000000009C
:10596C00E02020380808080888C8E8E8E8C88888D3
:10597C0008088888C8680808F800000000000000C3
:10598C000704041C10101013111010101010111318
:10599C0017171713101010101F0000000000000044
:1059AC0008102040FE824428100000000000000077
:1059BC00100804027F41221408000000000201328A
:1059CC00FFFFFFFFFFFFFFFFC082C083E990140CB5
:1059DC00F0025C5874F71222A8E9900790F07CC88A
:1059EC007D077AFF7BFF1208F890079174FFF0A3F4
:1059FC00F0A3E4F0A3F07905120880900790E0F989
:105A0C001207A87A167B09120AD802696674F41276
:105A1C0022A88A088B09EB54806030900790E0F93B
:105A2C001213B48A0A8B0BAE0AAF0BEE4F60138EB7
:105A3C00828F83E064B07003120898EEFAEFFB12C9
:105A4C0013A2AA08E5096480FB80047A007B00029B
:105A5C005C2774F21222A874FC122238EAFEEBFFC7
:105A6C007412122284126E4DEE4F7003025B01749D
:105A7C0002122284EEF0A3EF125E62ECF0A3ED12A0
:105A8C005E62AA82AB831207A2E9F50A706AE50886
:105A9C00450960648E828F83126E33EE4F60567AA6
:105AAC00067B001214568A0C8B0DA80CA90DE84924
:105ABC007005750A13804188828983E4125B0EEEAF
:105ACC00F0A3EF126E5EE508F0A3E509F0900796DF
:105ADC00125B959007967005126910801B1268FE78
:105AEC008003EAFCEBFD8C828D83125B9570F38C4A
:105AFC00828D8380E3750A02A90A740412224E0275
:105B0C00704DF0A3126E04A32274F21222A8890A1B
:105B1C00E975F017A4FEAFF0900795E4F0900793A9
:105B2C00125B95600A12145C900793E4F0A3F0EEFC
